{
  "contractName": "ERC721",
  "abi": [
    {
      "inputs": [
        {
          "internalType": "string",
          "name": "_name",
          "type": "string"
        },
        {
          "internalType": "string",
          "name": "_symbol",
          "type": "string"
        }
      ],
      "stateMutability": "nonpayable",
      "type": "constructor"
    },
    {
      "anonymous": false,
      "inputs": [
        {
          "indexed": true,
          "internalType": "address",
          "name": "owner",
          "type": "address"
        },
        {
          "indexed": true,
          "internalType": "address",
          "name": "approved",
          "type": "address"
        },
        {
          "indexed": true,
          "internalType": "uint256",
          "name": "tokenId",
          "type": "uint256"
        }
      ],
      "name": "Approval",
      "type": "event"
    },
    {
      "anonymous": false,
      "inputs": [
        {
          "indexed": true,
          "internalType": "address",
          "name": "owner",
          "type": "address"
        },
        {
          "indexed": true,
          "internalType": "address",
          "name": "operator",
          "type": "address"
        },
        {
          "indexed": false,
          "internalType": "bool",
          "name": "approved",
          "type": "bool"
        }
      ],
      "name": "ApprovalForAll",
      "type": "event"
    },
    {
      "anonymous": false,
      "inputs": [
        {
          "indexed": true,
          "internalType": "address",
          "name": "from",
          "type": "address"
        },
        {
          "indexed": true,
          "internalType": "address",
          "name": "to",
          "type": "address"
        },
        {
          "indexed": true,
          "internalType": "uint256",
          "name": "tokenId",
          "type": "uint256"
        }
      ],
      "name": "Transfer",
      "type": "event"
    },
    {
      "inputs": [],
      "name": "name",
      "outputs": [
        {
          "internalType": "string",
          "name": "",
          "type": "string"
        }
      ],
      "stateMutability": "view",
      "type": "function"
    },
    {
      "inputs": [],
      "name": "symbol",
      "outputs": [
        {
          "internalType": "string",
          "name": "",
          "type": "string"
        }
      ],
      "stateMutability": "view",
      "type": "function"
    },
    {
      "inputs": [
        {
          "internalType": "address",
          "name": "owner",
          "type": "address"
        }
      ],
      "name": "balanceOf",
      "outputs": [
        {
          "internalType": "uint256",
          "name": "",
          "type": "uint256"
        }
      ],
      "stateMutability": "view",
      "type": "function"
    },
    {
      "inputs": [
        {
          "internalType": "uint256",
          "name": "tokenId",
          "type": "uint256"
        }
      ],
      "name": "ownerOf",
      "outputs": [
        {
          "internalType": "address",
          "name": "owner",
          "type": "address"
        }
      ],
      "stateMutability": "view",
      "type": "function"
    },
    {
      "inputs": [
        {
          "internalType": "uint256",
          "name": "tokenId",
          "type": "uint256"
        }
      ],
      "name": "getApproved",
      "outputs": [
        {
          "internalType": "address",
          "name": "operator",
          "type": "address"
        }
      ],
      "stateMutability": "view",
      "type": "function"
    },
    {
      "inputs": [
        {
          "internalType": "address",
          "name": "owner",
          "type": "address"
        },
        {
          "internalType": "address",
          "name": "operator",
          "type": "address"
        }
      ],
      "name": "isApprovedForAll",
      "outputs": [
        {
          "internalType": "bool",
          "name": "",
          "type": "bool"
        }
      ],
      "stateMutability": "view",
      "type": "function"
    },
    {
      "inputs": [
        {
          "internalType": "address",
          "name": "from",
          "type": "address"
        },
        {
          "internalType": "address",
          "name": "to",
          "type": "address"
        },
        {
          "internalType": "uint256",
          "name": "tokenId",
          "type": "uint256"
        }
      ],
      "name": "safeTransferFrom",
      "outputs": [],
      "stateMutability": "nonpayable",
      "type": "function"
    },
    {
      "inputs": [
        {
          "internalType": "address",
          "name": "from",
          "type": "address"
        },
        {
          "internalType": "address",
          "name": "to",
          "type": "address"
        },
        {
          "internalType": "uint256",
          "name": "tokenId",
          "type": "uint256"
        },
        {
          "internalType": "bytes",
          "name": "data",
          "type": "bytes"
        }
      ],
      "name": "safeTransferFrom",
      "outputs": [],
      "stateMutability": "nonpayable",
      "type": "function"
    },
    {
      "inputs": [
        {
          "internalType": "address",
          "name": "from",
          "type": "address"
        },
        {
          "internalType": "address",
          "name": "to",
          "type": "address"
        },
        {
          "internalType": "uint256",
          "name": "tokenId",
          "type": "uint256"
        }
      ],
      "name": "transferFrom",
      "outputs": [],
      "stateMutability": "nonpayable",
      "type": "function"
    },
    {
      "inputs": [
        {
          "internalType": "address",
          "name": "to",
          "type": "address"
        },
        {
          "internalType": "uint256",
          "name": "tokenId",
          "type": "uint256"
        }
      ],
      "name": "approve",
      "outputs": [],
      "stateMutability": "nonpayable",
      "type": "function"
    },
    {
      "inputs": [
        {
          "internalType": "address",
          "name": "operator",
          "type": "address"
        },
        {
          "internalType": "bool",
          "name": "approved",
          "type": "bool"
        }
      ],
      "name": "setApprovalForAll",
      "outputs": [],
      "stateMutability": "nonpayable",
      "type": "function"
    },
    {
      "inputs": [
        {
          "internalType": "uint256",
          "name": "tokenId",
          "type": "uint256"
        }
      ],
      "name": "burn",
      "outputs": [],
      "stateMutability": "nonpayable",
      "type": "function"
    },
    {
      "inputs": [
        {
          "internalType": "uint256",
          "name": "tokenId",
          "type": "uint256"
        }
      ],
      "name": "tokenURI",
      "outputs": [
        {
          "internalType": "string",
          "name": "",
          "type": "string"
        }
      ],
      "stateMutability": "view",
      "type": "function"
    },
    {
      "inputs": [
        {
          "internalType": "bytes4",
          "name": "interfaceId",
          "type": "bytes4"
        }
      ],
      "name": "supportsInterface",
      "outputs": [
        {
          "internalType": "bool",
          "name": "",
          "type": "bool"
        }
      ],
      "stateMutability": "pure",
      "type": "function"
    }
  ],
  "bytecode": "0x60806040523480156200001157600080fd5b5060405162002971380380620029718339818101604052810190620000379190620002be565b81600090805190602001906200004f92919062000071565b5080600190805190602001906200006892919062000071565b505050620003a7565b8280546200007f9062000372565b90600052602060002090601f016020900481019282620000a35760008555620000ef565b82601f10620000be57805160ff1916838001178555620000ef565b82800160010185558215620000ef579182015b82811115620000ee578251825591602001919060010190620000d1565b5b509050620000fe919062000102565b5090565b5b808211156200011d57600081600090555060010162000103565b5090565b6000604051905090565b600080fd5b600080fd5b600080fd5b600080fd5b6000601f19601f8301169050919050565b7f4e487b7100000000000000000000000000000000000000000000000000000000600052604160045260246000fd5b6200018a826200013f565b810181811067ffffffffffffffff82111715620001ac57620001ab62000150565b5b80604052505050565b6000620001c162000121565b9050620001cf82826200017f565b919050565b600067ffffffffffffffff821115620001f257620001f162000150565b5b620001fd826200013f565b9050602081019050919050565b60005b838110156200022a5780820151818401526020810190506200020d565b838111156200023a576000848401525b50505050565b6000620002576200025184620001d4565b620001b5565b9050828152602081018484840111156200027657620002756200013a565b5b620002838482856200020a565b509392505050565b600082601f830112620002a357620002a262000135565b5b8151620002b584826020860162000240565b91505092915050565b60008060408385031215620002d857620002d76200012b565b5b600083015167ffffffffffffffff811115620002f957620002f862000130565b5b62000307858286016200028b565b925050602083015167ffffffffffffffff8111156200032b576200032a62000130565b5b62000339858286016200028b565b9150509250929050565b7f4e487b7100000000000000000000000000000000000000000000000000000000600052602260045260246000fd5b600060028204905060018216806200038b57607f821691505b602082108103620003a157620003a062000343565b5b50919050565b6125ba80620003b76000396000f3fe608060405234801561001057600080fd5b50600436106100ea5760003560e01c80636352211e1161008c578063a22cb46511610066578063a22cb4651461025b578063b88d4fde14610277578063c87b56dd14610293578063e985e9c5146102c3576100ea565b80636352211e146101dd57806370a082311461020d57806395d89b411461023d576100ea565b8063095ea7b3116100c8578063095ea7b31461016d57806323b872dd1461018957806342842e0e146101a557806342966c68146101c1576100ea565b806301ffc9a7146100ef57806306fdde031461011f578063081812fc1461013d575b600080fd5b610109600480360381019061010491906115fb565b6102f3565b6040516101169190611643565b60405180910390f35b61012761035d565b60405161013491906116f7565b60405180910390f35b6101576004803603810190610152919061174f565b6103eb565b60405161016491906117bd565b60405180910390f35b61018760048036038101906101829190611804565b6104c9565b005b6101a3600480360381019061019e9190611844565b6105fd565b005b6101bf60048036038101906101ba9190611844565b61060d565b005b6101db60048036038101906101d6919061174f565b610681565b005b6101f760048036038101906101f2919061174f565b6108d8565b60405161020491906117bd565b60405180910390f35b61022760048036038101906102229190611897565b6109b6565b60405161023491906118d3565b60405180910390f35b610245610a6d565b60405161025291906116f7565b60405180910390f35b6102756004803603810190610270919061191a565b610afb565b005b610291600480360381019061028c91906119bf565b610c66565b005b6102ad60048036038101906102a8919061174f565b610d07565b6040516102ba91906116f7565b60405180910390f35b6102dd60048036038101906102d89190611a47565b610ded565b6040516102ea9190611643565b60405180910390f35b60007f80ac58cd000000000000000000000000000000000000000000000000000000007bffffffffffffffffffffffffffffffffffffffffffffffffffffffff1916827bffffffffffffffffffffffffffffffffffffffffffffffffffffffff1916149050919050565b6000805461036a90611ab6565b80601f016020809104026020016040519081016040528092919081815260200182805461039690611ab6565b80156103e35780601f106103b8576101008083540402835291602001916103e3565b820191906000526020600020905b8154815290600101906020018083116103c657829003601f168201915b505050505081565b60008073ffffffffffffffffffffffffffffffffffffffff166003600084815260200190815260200160002060009054906101000a900473ffffffffffffffffffffffffffffffffffffffff1673ffffffffffffffffffffffffffffffffffffffff160361048e576040517f08c379a000000000000000000000000000000000000000000000000000000000815260040161048590611b59565b60405180910390fd5b6004600083815260200190815260200160002060009054906101000a900473ffffffffffffffffffffffffffffffffffffffff169050919050565b60006003600083815260200190815260200160002060009054906101000a900473ffffffffffffffffffffffffffffffffffffffff1690508073ffffffffffffffffffffffffffffffffffffffff168373ffffffffffffffffffffffffffffffffffffffff160361056f576040517f08c379a000000000000000000000000000000000000000000000000000000000815260040161056690611beb565b60405180910390fd5b8073ffffffffffffffffffffffffffffffffffffffff163373ffffffffffffffffffffffffffffffffffffffff1614806105af57506105ae8133610ded565b5b6105ee576040517f08c379a00000000000000000000000000000000000000000000000000000000081526004016105e590611c7d565b60405180910390fd5b6105f88383610e81565b505050565b610608838383610f65565b505050565b3073ffffffffffffffffffffffffffffffffffffffff1663b88d4fde8484846040518463ffffffff1660e01b815260040161064a93929190611cd4565b600060405180830381600087803b15801561066457600080fd5b505af1158015610678573d6000803e3d6000fd5b50505050505050565b600073ffffffffffffffffffffffffffffffffffffffff166003600083815260200190815260200160002060009054906101000a900473ffffffffffffffffffffffffffffffffffffffff1673ffffffffffffffffffffffffffffffffffffffff1603610723576040517f08c379a000000000000000000000000000000000000000000000000000000000815260040161071a90611d90565b60405180910390fd5b3373ffffffffffffffffffffffffffffffffffffffff166003600083815260200190815260200160002060009054906101000a900473ffffffffffffffffffffffffffffffffffffffff1673ffffffffffffffffffffffffffffffffffffffff16146107c4576040517f08c379a00000000000000000000000000000000000000000000000000000000081526004016107bb90611e22565b60405180910390fd5b6107cf600082610e81565b600260003373ffffffffffffffffffffffffffffffffffffffff1673ffffffffffffffffffffffffffffffffffffffff168152602001908152602001600020600081548092919061081f90611e71565b91905055506003600082815260200190815260200160002060006101000a81549073ffffffffffffffffffffffffffffffffffffffff0219169055600660008281526020019081526020016000206000610879919061153c565b80600073ffffffffffffffffffffffffffffffffffffffff163373ffffffffffffffffffffffffffffffffffffffff167fddf252ad1be2c89b69c2b068fc378daa952ba7f163c4a11628f55a4df523b3ef60405160405180910390a450565b60008073ffffffffffffffffffffffffffffffffffffffff166003600084815260200190815260200160002060009054906101000a900473ffffffffffffffffffffffffffffffffffffffff1673ffffffffffffffffffffffffffffffffffffffff160361097b576040517f08c379a000000000000000000000000000000000000000000000000000000000815260040161097290611b59565b60405180910390fd5b6003600083815260200190815260200160002060009054906101000a900473ffffffffffffffffffffffffffffffffffffffff169050919050565b60008073ffffffffffffffffffffffffffffffffffffffff168273ffffffffffffffffffffffffffffffffffffffff1603610a26576040517f08c379a0000000000000000000000000000000000000000000000000000000008152600401610a1d90611f0c565b60405180910390fd5b600260008373ffffffffffffffffffffffffffffffffffffffff1673ffffffffffffffffffffffffffffffffffffffff168152602001908152602001600020549050919050565b60018054610a7a90611ab6565b80601f0160208091040260200160405190810160405280929190818152602001828054610aa690611ab6565b8015610af35780601f10610ac857610100808354040283529160200191610af3565b820191906000526020600020905b815481529060010190602001808311610ad657829003601f168201915b505050505081565b8173ffffffffffffffffffffffffffffffffffffffff163373ffffffffffffffffffffffffffffffffffffffff1603610b69576040517f08c379a0000000000000000000000000000000000000000000000000000000008152600401610b6090611f9e565b60405180910390fd5b80600560003373ffffffffffffffffffffffffffffffffffffffff1673ffffffffffffffffffffffffffffffffffffffff16815260200190815260200160002060008473ffffffffffffffffffffffffffffffffffffffff1673ffffffffffffffffffffffffffffffffffffffff16815260200190815260200160002060006101000a81548160ff0219169083151502179055508173ffffffffffffffffffffffffffffffffffffffff163373ffffffffffffffffffffffffffffffffffffffff167f17307eab39ab6107e8899845ad3d59bd9653f200f220920489ca2b5937696c3183604051610c5a9190611643565b60405180910390a35050565b610c71858585610f65565b610cc185858585858080601f016020809104026020016040519081016040528093929190818152602001838380828437600081840152601f19601f82011690508083019250505050505050611294565b610d00576040517f08c379a0000000000000000000000000000000000000000000000000000000008152600401610cf790612056565b60405180910390fd5b5050505050565b6060600073ffffffffffffffffffffffffffffffffffffffff166003600084815260200190815260200160002060009054906101000a900473ffffffffffffffffffffffffffffffffffffffff1673ffffffffffffffffffffffffffffffffffffffff1603610dab576040517f08c379a0000000000000000000000000000000000000000000000000000000008152600401610da2906120e8565b60405180910390fd5b610db36113fe565b60066000848152602001908152602001600020604051602001610dd79291906121d8565b6040516020818303038152906040529050919050565b6000600560008473ffffffffffffffffffffffffffffffffffffffff1673ffffffffffffffffffffffffffffffffffffffff16815260200190815260200160002060008373ffffffffffffffffffffffffffffffffffffffff1673ffffffffffffffffffffffffffffffffffffffff16815260200190815260200160002060009054906101000a900460ff16905092915050565b816004600083815260200190815260200160002060006101000a81548173ffffffffffffffffffffffffffffffffffffffff021916908373ffffffffffffffffffffffffffffffffffffffff160217905550808273ffffffffffffffffffffffffffffffffffffffff166003600084815260200190815260200160002060009054906101000a900473ffffffffffffffffffffffffffffffffffffffff1673ffffffffffffffffffffffffffffffffffffffff167f8c5be1e5ebec7d5bd14f71427d1e84f3dd0314c0f7b2291e5b200ac8c7c3b92560405160405180910390a45050565b600073ffffffffffffffffffffffffffffffffffffffff168373ffffffffffffffffffffffffffffffffffffffff1603610fd4576040517f08c379a0000000000000000000000000000000000000000000000000000000008152600401610fcb9061226e565b60405180910390fd5b600073ffffffffffffffffffffffffffffffffffffffff168273ffffffffffffffffffffffffffffffffffffffff1603611043576040517f08c379a000000000000000000000000000000000000000000000000000000000815260040161103a90612300565b60405180910390fd5b8273ffffffffffffffffffffffffffffffffffffffff166003600083815260200190815260200160002060009054906101000a900473ffffffffffffffffffffffffffffffffffffffff1673ffffffffffffffffffffffffffffffffffffffff16146110e4576040517f08c379a00000000000000000000000000000000000000000000000000000000081526004016110db90612392565b60405180910390fd5b6110ee338261143b565b61112d576040517f08c379a00000000000000000000000000000000000000000000000000000000081526004016111249061244a565b60405180910390fd5b611138600082610e81565b600260008473ffffffffffffffffffffffffffffffffffffffff1673ffffffffffffffffffffffffffffffffffffffff168152602001908152602001600020600081548092919061118890611e71565b9190505550600260008373ffffffffffffffffffffffffffffffffffffffff1673ffffffffffffffffffffffffffffffffffffffff16815260200190815260200160002060008154809291906111dd9061246a565b9190505550816003600083815260200190815260200160002060006101000a81548173ffffffffffffffffffffffffffffffffffffffff021916908373ffffffffffffffffffffffffffffffffffffffff160217905550808273ffffffffffffffffffffffffffffffffffffffff168473ffffffffffffffffffffffffffffffffffffffff167fddf252ad1be2c89b69c2b068fc378daa952ba7f163c4a11628f55a4df523b3ef60405160405180910390a4505050565b600061129f84611529565b156113f1578373ffffffffffffffffffffffffffffffffffffffff1663150b7a02338786866040518563ffffffff1660e01b81526004016112e394939291906124f6565b6020604051808303816000875af192505050801561131f57506040513d601f19601f8201168201806040525081019061131c9190612557565b60015b6113a1573d806000811461134f576040519150601f19603f3d011682016040523d82523d6000602084013e611354565b606091505b506000815103611399576040517f08c379a000000000000000000000000000000000000000000000000000000000815260040161139090612056565b60405180910390fd5b805181602001fd5b63150b7a0260e01b7bffffffffffffffffffffffffffffffffffffffffffffffffffffffff1916817bffffffffffffffffffffffffffffffffffffffffffffffffffffffff1916149150506113f6565b600190505b949350505050565b60606040518060400160405280601581526020017f68747470733a2f2f697066732e696f2f697066732f0000000000000000000000815250905090565b60008273ffffffffffffffffffffffffffffffffffffffff166003600084815260200190815260200160002060009054906101000a900473ffffffffffffffffffffffffffffffffffffffff1673ffffffffffffffffffffffffffffffffffffffff1614806114dd57508273ffffffffffffffffffffffffffffffffffffffff166114c5836103eb565b73ffffffffffffffffffffffffffffffffffffffff16145b8061152157506115206003600084815260200190815260200160002060009054906101000a900473ffffffffffffffffffffffffffffffffffffffff1684610ded565b5b905092915050565b600080823b905060008111915050919050565b50805461154890611ab6565b6000825580601f1061155a5750611579565b601f016020900490600052602060002090810190611578919061157c565b5b50565b5b8082111561159557600081600090555060010161157d565b5090565b600080fd5b600080fd5b60007fffffffff0000000000000000000000000000000000000000000000000000000082169050919050565b6115d8816115a3565b81146115e357600080fd5b50565b6000813590506115f5816115cf565b92915050565b60006020828403121561161157611610611599565b5b600061161f848285016115e6565b91505092915050565b60008115159050919050565b61163d81611628565b82525050565b60006020820190506116586000830184611634565b92915050565b600081519050919050565b600082825260208201905092915050565b60005b8381101561169857808201518184015260208101905061167d565b838111156116a7576000848401525b50505050565b6000601f19601f8301169050919050565b60006116c98261165e565b6116d38185611669565b93506116e381856020860161167a565b6116ec816116ad565b840191505092915050565b6000602082019050818103600083015261171181846116be565b905092915050565b6000819050919050565b61172c81611719565b811461173757600080fd5b50565b60008135905061174981611723565b92915050565b60006020828403121561176557611764611599565b5b60006117738482850161173a565b91505092915050565b600073ffffffffffffffffffffffffffffffffffffffff82169050919050565b60006117a78261177c565b9050919050565b6117b78161179c565b82525050565b60006020820190506117d260008301846117ae565b92915050565b6117e18161179c565b81146117ec57600080fd5b50565b6000813590506117fe816117d8565b92915050565b6000806040838503121561181b5761181a611599565b5b6000611829858286016117ef565b925050602061183a8582860161173a565b9150509250929050565b60008060006060848603121561185d5761185c611599565b5b600061186b868287016117ef565b935050602061187c868287016117ef565b925050604061188d8682870161173a565b9150509250925092565b6000602082840312156118ad576118ac611599565b5b60006118bb848285016117ef565b91505092915050565b6118cd81611719565b82525050565b60006020820190506118e860008301846118c4565b92915050565b6118f781611628565b811461190257600080fd5b50565b600081359050611914816118ee565b92915050565b6000806040838503121561193157611930611599565b5b600061193f858286016117ef565b925050602061195085828601611905565b9150509250929050565b600080fd5b600080fd5b600080fd5b60008083601f84011261197f5761197e61195a565b5b8235905067ffffffffffffffff81111561199c5761199b61195f565b5b6020830191508360018202830111156119b8576119b7611964565b5b9250929050565b6000806000806000608086880312156119db576119da611599565b5b60006119e9888289016117ef565b95505060206119fa888289016117ef565b9450506040611a0b8882890161173a565b935050606086013567ffffffffffffffff811115611a2c57611a2b61159e565b5b611a3888828901611969565b92509250509295509295909350565b60008060408385031215611a5e57611a5d611599565b5b6000611a6c858286016117ef565b9250506020611a7d858286016117ef565b9150509250929050565b7f4e487b7100000000000000000000000000000000000000000000000000000000600052602260045260246000fd5b60006002820490506001821680611ace57607f821691505b602082108103611ae157611ae0611a87565b5b50919050565b7f4552433732313a20546f6b656e207769746820656e746572656420494420646f60008201527f6573206e6f742065786973740000000000000000000000000000000000000000602082015250565b6000611b43602c83611669565b9150611b4e82611ae7565b604082019050919050565b60006020820190508181036000830152611b7281611b36565b9050919050565b7f4552433732313a206f776e65722063616e6e6f7420617070726f76652068696d60008201527f73656c662f68657273656c660000000000000000000000000000000000000000602082015250565b6000611bd5602c83611669565b9150611be082611b79565b604082019050919050565b60006020820190508181036000830152611c0481611bc8565b9050919050565b7f4552433732313a2063616c6c6572206d757374206f776e2074686520746f6b6560008201527f6e206f7220626520617070726f76656420666f7220616c6c0000000000000000602082015250565b6000611c67603883611669565b9150611c7282611c0b565b604082019050919050565b60006020820190508181036000830152611c9681611c5a565b9050919050565b600082825260208201905092915050565b50565b6000611cbe600083611c9d565b9150611cc982611cae565b600082019050919050565b6000608082019050611ce960008301866117ae565b611cf660208301856117ae565b611d0360408301846118c4565b8181036060830152611d1481611cb1565b9050949350505050565b7f4552433732313a206e6f20746f6b656e2077697468207468652073706563696660008201527f69656420494420776173206d696e746564206265666f72650000000000000000602082015250565b6000611d7a603883611669565b9150611d8582611d1e565b604082019050919050565b60006020820190508181036000830152611da981611d6d565b9050919050565b7f4552433732313a206120746f6b656e207769746820746865207370656369666960008201527f6564204944206973206e6f74206f776e6564206279207468652073656e646572602082015250565b6000611e0c604083611669565b9150611e1782611db0565b604082019050919050565b60006020820190508181036000830152611e3b81611dff565b9050919050565b7f4e487b7100000000000000000000000000000000000000000000000000000000600052601160045260246000fd5b6000611e7c82611719565b915060008203611e8f57611e8e611e42565b5b600182039050919050565b7f4552433732313a2061646472657373206f776e65722063616e6e6f742062652060008201527f746865207a65726f206164647265737300000000000000000000000000000000602082015250565b6000611ef6603083611669565b9150611f0182611e9a565b604082019050919050565b60006020820190508181036000830152611f2581611ee9565b9050919050565b7f4552433732313a2073656e6465722063616e6e6f742073657420617070726f7660008201527f616c20666f722068696d73656c662f68657273656c6600000000000000000000602082015250565b6000611f88603683611669565b9150611f9382611f2c565b604082019050919050565b60006020820190508181036000830152611fb781611f7b565b9050919050565b7f4552433732313a207472616e736665722063616e6e6f7420636f6d706c65746560008201527f20746f206120736d61727420636f6e7472616374206e6f7420696d706c656d6560208201527f6e74696e67204552433732315265636569766572000000000000000000000000604082015250565b6000612040605483611669565b915061204b82611fbe565b606082019050919050565b6000602082019050818103600083015261206f81612033565b9050919050565b7f4552433732313a2063616e6e6f742067657420555249206f66206e6f6e65786960008201527f7374656e7420746f6b656e000000000000000000000000000000000000000000602082015250565b60006120d2602b83611669565b91506120dd82612076565b604082019050919050565b60006020820190508181036000830152612101816120c5565b9050919050565b600081905092915050565b600061211e8261165e565b6121288185612108565b935061213881856020860161167a565b80840191505092915050565b60008190508160005260206000209050919050565b6000815461216681611ab6565b6121708186612108565b9450600182166000811461218b576001811461219c576121cf565b60ff198316865281860193506121cf565b6121a585612144565b60005b838110156121c7578154818901526001820191506020810190506121a8565b838801955050505b50505092915050565b60006121e48285612113565b91506121f08284612159565b91508190509392505050565b7f4552433732313a2066726f6d206164647265737320656e74657265642063616e60008201527f6e6f7420626520746865207a65726f2061646472657373000000000000000000602082015250565b6000612258603783611669565b9150612263826121fc565b604082019050919050565b600060208201905081810360008301526122878161224b565b9050919050565b7f4552433732313a20746f206164647265737320656e74657265642063616e6e6f60008201527f7420626520746865207a65726f20616464726573730000000000000000000000602082015250565b60006122ea603583611669565b91506122f58261228e565b604082019050919050565b60006020820190508181036000830152612319816122dd565b9050919050565b7f4552433732313a20546f6b656e207769746820656e746572656420494420697360008201527f206e6f74206f776e6564206279207468652066726f6d20616464726573730000602082015250565b600061237c603e83611669565b915061238782612320565b604082019050919050565b600060208201905081810360008301526123ab8161236f565b9050919050565b7f4552433732313a2053656e646572206973206e65697468657220746865206f7760008201527f6e6572206e6f7220617070726f76656420746f20646f2074686973207472616e60208201527f73616374696f6e00000000000000000000000000000000000000000000000000604082015250565b6000612434604783611669565b915061243f826123b2565b606082019050919050565b6000602082019050818103600083015261246381612427565b9050919050565b600061247582611719565b91507fffffffffffffffffffffffffffffffffffffffffffffffffffffffffffffffff82036124a7576124a6611e42565b5b600182019050919050565b600081519050919050565b60006124c8826124b2565b6124d28185611c9d565b93506124e281856020860161167a565b6124eb816116ad565b840191505092915050565b600060808201905061250b60008301876117ae565b61251860208301866117ae565b61252560408301856118c4565b818103606083015261253781846124bd565b905095945050505050565b600081519050612551816115cf565b92915050565b60006020828403121561256d5761256c611599565b5b600061257b84828501612542565b9150509291505056fea2646970667358221220d42e4ebe39db59f2e06d3562f7451209341b03868b7d83faa230efd64c6984e764736f6c634300080d0033",
  "immutableReferences": {},
  "source": "// SPDX-License-Identifier: MIT\r\n\r\npragma solidity ^0.8.13;\r\n\r\nimport \"@openzeppelin/contracts/token/ERC721/IERC721.sol\";\r\nimport \"@openzeppelin/contracts/token/ERC721/IERC721Receiver.sol\";\r\nimport \"@openzeppelin/contracts/token/ERC721/extensions/IERC721Metadata.sol\";\r\n\r\ncontract ERC721 is IERC721, IERC721Metadata {\r\n  string public name;\r\n  string public symbol;\r\n\r\n  mapping(address => uint) private balances;\r\n  mapping(uint => address) private owners;\r\n  mapping(uint256 => address) private tokenApprovals;\r\n  mapping(address => mapping(address => bool)) private operatorApprovals;\r\n  mapping(uint256 => string) private tokenURIs;\r\n\r\n  constructor(string memory _name, string memory _symbol){\r\n      name = _name;\r\n      symbol = _symbol;\r\n  }\r\n\r\n  function balanceOf(address owner) public view returns (uint) {\r\n      require(owner != address(0), \"ERC721: address owner cannot be the zero address\");\r\n      return balances[owner];\r\n  }\r\n\r\n  function ownerOf(uint tokenId) public view returns (address owner) {\r\n      require(owners[tokenId] != address(0), \"ERC721: Token with entered ID does not exist\");\r\n      return owners[tokenId];\r\n  }\r\n\r\n   function getApproved(uint tokenId) public view returns (address operator) {\r\n       require(owners[tokenId] != address(0), \"ERC721: Token with entered ID does not exist\");\r\n       return tokenApprovals[tokenId];\r\n   }\r\n\r\n   function isApprovedForAll(address owner, address operator) public view returns (bool) {\r\n       return operatorApprovals[owner][operator];\r\n   }\r\n\r\n   function safeTransferFrom(address from, address to, uint256 tokenId, bytes calldata data) public {\r\n        _transfer(from, to, tokenId);\r\n        require(checkSafeCondition(from, to, tokenId, data), \"ERC721: transfer cannot complete to a smart contract not implementing ERC721Receiver\");\r\n   }\r\n\r\n   function safeTransferFrom(address from, address to, uint256 tokenId) public {\r\n        this.safeTransferFrom(from, to, tokenId, \"\");\r\n   }\r\n\r\n   function transferFrom(address from, address to, uint256 tokenId) public {\r\n        _transfer(from, to, tokenId);\r\n   }\r\n\r\n   function _transfer(address from, address to, uint256 tokenId) internal {\r\n        require(from != address(0), \"ERC721: from address entered cannot be the zero address\");\r\n        require(to != address(0), \"ERC721: to address entered cannot be the zero address\");\r\n        require(owners[tokenId] == from, \"ERC721: Token with entered ID is not owned by the from address\");\r\n\r\n        require(isApprovedOrIsOwner(msg.sender, tokenId), \"ERC721: Sender is neither the owner nor approved to do this transaction\");\r\n\r\n        //reset approve for the token with a new owner\r\n        _approve(address(0), tokenId);\r\n        balances[from]--;\r\n        balances[to]++;\r\n        owners[tokenId] = to;\r\n\r\n        emit Transfer(from, to, tokenId);\r\n   }\r\n\r\n   function approve(address to, uint256 tokenId) public {\r\n       address owner = owners[tokenId];\r\n       require(to != owner, \"ERC721: owner cannot approve himself/herself\");\r\n       require(msg.sender == owner || isApprovedForAll(owner, msg.sender), \"ERC721: caller must own the token or be approved for all\");\r\n       _approve(to, tokenId);\r\n   }\r\n\r\n   function _approve(address to, uint256 tokenId) internal {\r\n       tokenApprovals[tokenId] = to;\r\n       emit Approval(owners[tokenId], to, tokenId);\r\n   }\r\n\r\n   function setApprovalForAll(address operator, bool approved) public {\r\n       require(msg.sender != operator, \"ERC721: sender cannot set approval for himself/herself\");\r\n       operatorApprovals[msg.sender][operator] = approved;\r\n       emit ApprovalForAll(msg.sender, operator, approved);\r\n   }\r\n\r\n    function isApprovedOrIsOwner(address caller, uint tokenId) internal view returns (bool){\r\n        return (owners[tokenId] == caller) || getApproved(tokenId) == caller || isApprovedForAll(owners[tokenId], caller);\r\n    }\r\n\r\n    function safeMint(address to, uint256 tokenId) internal {\r\n        safeMint(to, tokenId, \"\");\r\n    }\r\n\r\n    function safeMint(address to, uint256 tokenId, bytes memory data) internal {\r\n        require(to != address(0), \"ERC721: to address entered cannot be the zero address\");\r\n        require(owners[tokenId] == address(0), \"ERC721: a token with the specified ID is already minted\");\r\n\r\n        balances[to]++;\r\n        owners[tokenId] = to;\r\n\r\n        emit Transfer(address(0), to, tokenId);\r\n        require(\r\n            checkSafeCondition(address(0), to, tokenId, data),\r\n            \"ERC721: transfer cannot complete to a smart contract not implementing ERC721Receiver\"\r\n        );\r\n    }\r\n\r\n    function burn(uint256 tokenId) public {\r\n        require(owners[tokenId] != address(0), \"ERC721: no token with the specified ID was minted before\");\r\n        require(owners[tokenId] == msg.sender, \"ERC721: a token with the specified ID is not owned by the sender\");\r\n\r\n        _approve(address(0), tokenId);\r\n        balances[msg.sender]--;\r\n\r\n        delete owners[tokenId];\r\n        delete tokenURIs[tokenId];\r\n\r\n        emit Transfer(msg.sender, address(0), tokenId);\r\n    }\r\n\r\n    //METADATA\r\n    function setTokenURI(uint256 tokenId, string memory _tokenURI) internal {\r\n        require(owners[tokenId] != address(0), \"ERC721: cannot set URI of a nonexistent token\");\r\n        tokenURIs[tokenId] = _tokenURI;\r\n    }\r\n\r\n    function tokenURI(uint tokenId) public view returns(string memory) {\r\n        require(owners[tokenId] != address(0), \"ERC721: cannot get URI of nonexistent token\");\r\n\r\n        return string(abi.encodePacked(baseURI(), tokenURIs[tokenId]));\r\n    }\r\n\r\n    function baseURI() internal pure returns(string memory) {\r\n      return \"https://ipfs.io/ipfs/\";\r\n    }\r\n\r\n\r\n    function checkSafeCondition(address from, address to, uint256 tokenId, bytes memory data) internal returns (bool){\r\n        if(isContract(to)){\r\n            try IERC721Receiver(to).onERC721Received(msg.sender, from, tokenId, data) returns (bytes4 retval) {\r\n                return (retval == IERC721Receiver.onERC721Received.selector);\r\n            } catch (bytes memory reason) {\r\n                if (reason.length == 0) {\r\n                    revert(\"ERC721: transfer cannot complete to a smart contract not implementing ERC721Receiver\");\r\n                } else {\r\n                    assembly {\r\n                        revert(add(32, reason), mload(reason))\r\n                    }\r\n                }\r\n            }\r\n        } else {\r\n            return true;\r\n        }\r\n    }\r\n\r\n    function isContract(address addr) internal view returns (bool) {\r\n        uint size;\r\n        assembly { size := extcodesize(addr) }\r\n        return size > 0;\r\n    }\r\n\r\n    function supportsInterface(bytes4 interfaceId) external pure returns (bool) {\r\n        return interfaceId == type(IERC721).interfaceId;\r\n    }\r\n}\r\n",
  "sourcePath": "D:\\S8\\Neros\\contracts\\ERC721.sol",
  "compiler": {
    "name": "solc",
    "version": "0.8.13+commit.abaa5c0e.Emscripten.clang"
  },
  "schemaVersion": "3.4.6",
  "updatedAt": "2022-04-26T23:42:29.065Z",
  "devdoc": {
    "kind": "dev",
    "methods": {
      "approve(address,uint256)": {
        "details": "Gives permission to `to` to transfer `tokenId` token to another account. The approval is cleared when the token is transferred. Only a single account can be approved at a time, so approving the zero address clears previous approvals. Requirements: - The caller must own the token or be an approved operator. - `tokenId` must exist. Emits an {Approval} event."
      },
      "balanceOf(address)": {
        "details": "Returns the number of tokens in ``owner``'s account."
      },
      "getApproved(uint256)": {
        "details": "Returns the account approved for `tokenId` token. Requirements: - `tokenId` must exist."
      },
      "isApprovedForAll(address,address)": {
        "details": "Returns if the `operator` is allowed to manage all of the assets of `owner`. See {setApprovalForAll}"
      },
      "ownerOf(uint256)": {
        "details": "Returns the owner of the `tokenId` token. Requirements: - `tokenId` must exist."
      },
      "safeTransferFrom(address,address,uint256)": {
        "details": "Safely transfers `tokenId` token from `from` to `to`, checking first that contract recipients are aware of the ERC721 protocol to prevent tokens from being forever locked. Requirements: - `from` cannot be the zero address. - `to` cannot be the zero address. - `tokenId` token must exist and be owned by `from`. - If the caller is not `from`, it must be have been allowed to move this token by either {approve} or {setApprovalForAll}. - If `to` refers to a smart contract, it must implement {IERC721Receiver-onERC721Received}, which is called upon a safe transfer. Emits a {Transfer} event."
      },
      "safeTransferFrom(address,address,uint256,bytes)": {
        "details": "Safely transfers `tokenId` token from `from` to `to`. Requirements: - `from` cannot be the zero address. - `to` cannot be the zero address. - `tokenId` token must exist and be owned by `from`. - If the caller is not `from`, it must be approved to move this token by either {approve} or {setApprovalForAll}. - If `to` refers to a smart contract, it must implement {IERC721Receiver-onERC721Received}, which is called upon a safe transfer. Emits a {Transfer} event."
      },
      "supportsInterface(bytes4)": {
        "details": "Returns true if this contract implements the interface defined by `interfaceId`. See the corresponding https://eips.ethereum.org/EIPS/eip-165#how-interfaces-are-identified[EIP section] to learn more about how these ids are created. This function call must use less than 30 000 gas."
      },
      "tokenURI(uint256)": {
        "details": "Returns the Uniform Resource Identifier (URI) for `tokenId` token."
      },
      "transferFrom(address,address,uint256)": {
        "details": "Transfers `tokenId` token from `from` to `to`. WARNING: Usage of this method is discouraged, use {safeTransferFrom} whenever possible. Requirements: - `from` cannot be the zero address. - `to` cannot be the zero address. - `tokenId` token must be owned by `from`. - If the caller is not `from`, it must be approved to move this token by either {approve} or {setApprovalForAll}. Emits a {Transfer} event."
      }
    },
    "stateVariables": {
      "name": {
        "details": "Returns the token collection name."
      },
      "symbol": {
        "details": "Returns the token collection symbol."
      }
    },
    "version": 1
  },
  "userdoc": {
    "kind": "user",
    "methods": {},
    "version": 1
  }
}