{
  "contractName": "NerosNFT",
  "abi": [
    {
      "inputs": [],
      "stateMutability": "nonpayable",
      "type": "constructor"
    },
    {
      "anonymous": false,
      "inputs": [
        {
          "indexed": true,
          "internalType": "address",
          "name": "owner",
          "type": "address"
        },
        {
          "indexed": true,
          "internalType": "address",
          "name": "approved",
          "type": "address"
        },
        {
          "indexed": true,
          "internalType": "uint256",
          "name": "tokenId",
          "type": "uint256"
        }
      ],
      "name": "Approval",
      "type": "event"
    },
    {
      "anonymous": false,
      "inputs": [
        {
          "indexed": true,
          "internalType": "address",
          "name": "owner",
          "type": "address"
        },
        {
          "indexed": true,
          "internalType": "address",
          "name": "operator",
          "type": "address"
        },
        {
          "indexed": false,
          "internalType": "bool",
          "name": "approved",
          "type": "bool"
        }
      ],
      "name": "ApprovalForAll",
      "type": "event"
    },
    {
      "anonymous": false,
      "inputs": [
        {
          "indexed": true,
          "internalType": "address",
          "name": "from",
          "type": "address"
        },
        {
          "indexed": true,
          "internalType": "address",
          "name": "to",
          "type": "address"
        },
        {
          "indexed": true,
          "internalType": "uint256",
          "name": "tokenId",
          "type": "uint256"
        }
      ],
      "name": "Transfer",
      "type": "event"
    },
    {
      "inputs": [
        {
          "internalType": "address",
          "name": "to",
          "type": "address"
        },
        {
          "internalType": "uint256",
          "name": "tokenId",
          "type": "uint256"
        }
      ],
      "name": "approve",
      "outputs": [],
      "stateMutability": "nonpayable",
      "type": "function"
    },
    {
      "inputs": [
        {
          "internalType": "address",
          "name": "owner",
          "type": "address"
        }
      ],
      "name": "balanceOf",
      "outputs": [
        {
          "internalType": "uint256",
          "name": "",
          "type": "uint256"
        }
      ],
      "stateMutability": "view",
      "type": "function",
      "constant": true
    },
    {
      "inputs": [
        {
          "internalType": "uint256",
          "name": "tokenId",
          "type": "uint256"
        }
      ],
      "name": "burn",
      "outputs": [],
      "stateMutability": "nonpayable",
      "type": "function"
    },
    {
      "inputs": [
        {
          "internalType": "uint256",
          "name": "tokenId",
          "type": "uint256"
        }
      ],
      "name": "getApproved",
      "outputs": [
        {
          "internalType": "address",
          "name": "operator",
          "type": "address"
        }
      ],
      "stateMutability": "view",
      "type": "function",
      "constant": true
    },
    {
      "inputs": [
        {
          "internalType": "address",
          "name": "owner",
          "type": "address"
        },
        {
          "internalType": "address",
          "name": "operator",
          "type": "address"
        }
      ],
      "name": "isApprovedForAll",
      "outputs": [
        {
          "internalType": "bool",
          "name": "",
          "type": "bool"
        }
      ],
      "stateMutability": "view",
      "type": "function",
      "constant": true
    },
    {
      "inputs": [],
      "name": "name",
      "outputs": [
        {
          "internalType": "string",
          "name": "",
          "type": "string"
        }
      ],
      "stateMutability": "view",
      "type": "function",
      "constant": true
    },
    {
      "inputs": [],
      "name": "owner",
      "outputs": [
        {
          "internalType": "address",
          "name": "",
          "type": "address"
        }
      ],
      "stateMutability": "view",
      "type": "function",
      "constant": true
    },
    {
      "inputs": [
        {
          "internalType": "uint256",
          "name": "tokenId",
          "type": "uint256"
        }
      ],
      "name": "ownerOf",
      "outputs": [
        {
          "internalType": "address",
          "name": "owner",
          "type": "address"
        }
      ],
      "stateMutability": "view",
      "type": "function",
      "constant": true
    },
    {
      "inputs": [
        {
          "internalType": "address",
          "name": "from",
          "type": "address"
        },
        {
          "internalType": "address",
          "name": "to",
          "type": "address"
        },
        {
          "internalType": "uint256",
          "name": "tokenId",
          "type": "uint256"
        }
      ],
      "name": "safeTransferFrom",
      "outputs": [],
      "stateMutability": "nonpayable",
      "type": "function"
    },
    {
      "inputs": [
        {
          "internalType": "address",
          "name": "from",
          "type": "address"
        },
        {
          "internalType": "address",
          "name": "to",
          "type": "address"
        },
        {
          "internalType": "uint256",
          "name": "tokenId",
          "type": "uint256"
        },
        {
          "internalType": "bytes",
          "name": "data",
          "type": "bytes"
        }
      ],
      "name": "safeTransferFrom",
      "outputs": [],
      "stateMutability": "nonpayable",
      "type": "function"
    },
    {
      "inputs": [
        {
          "internalType": "address",
          "name": "operator",
          "type": "address"
        },
        {
          "internalType": "bool",
          "name": "approved",
          "type": "bool"
        }
      ],
      "name": "setApprovalForAll",
      "outputs": [],
      "stateMutability": "nonpayable",
      "type": "function"
    },
    {
      "inputs": [
        {
          "internalType": "bytes4",
          "name": "interfaceId",
          "type": "bytes4"
        }
      ],
      "name": "supportsInterface",
      "outputs": [
        {
          "internalType": "bool",
          "name": "",
          "type": "bool"
        }
      ],
      "stateMutability": "pure",
      "type": "function",
      "constant": true
    },
    {
      "inputs": [],
      "name": "symbol",
      "outputs": [
        {
          "internalType": "string",
          "name": "",
          "type": "string"
        }
      ],
      "stateMutability": "view",
      "type": "function",
      "constant": true
    },
    {
      "inputs": [],
      "name": "tokenCounter",
      "outputs": [
        {
          "internalType": "uint256",
          "name": "",
          "type": "uint256"
        }
      ],
      "stateMutability": "view",
      "type": "function",
      "constant": true
    },
    {
      "inputs": [
        {
          "internalType": "uint256",
          "name": "tokenId",
          "type": "uint256"
        }
      ],
      "name": "tokenURI",
      "outputs": [
        {
          "internalType": "string",
          "name": "",
          "type": "string"
        }
      ],
      "stateMutability": "view",
      "type": "function",
      "constant": true
    },
    {
      "inputs": [
        {
          "internalType": "address",
          "name": "from",
          "type": "address"
        },
        {
          "internalType": "address",
          "name": "to",
          "type": "address"
        },
        {
          "internalType": "uint256",
          "name": "tokenId",
          "type": "uint256"
        }
      ],
      "name": "transferFrom",
      "outputs": [],
      "stateMutability": "nonpayable",
      "type": "function"
    },
    {
      "inputs": [
        {
          "internalType": "string",
          "name": "tokenURI",
          "type": "string"
        }
      ],
      "name": "createNFT",
      "outputs": [
        {
          "internalType": "uint256",
          "name": "",
          "type": "uint256"
        }
      ],
      "stateMutability": "nonpayable",
      "type": "function"
    }
  ],
  "bytecode": "0x60806040523480156200001157600080fd5b506040518060400160405280600881526020017f4e65726f734e46540000000000000000000000000000000000000000000000008152506040518060400160405280600481526020017f4e524f540000000000000000000000000000000000000000000000000000000081525081600090805190602001906200009692919062000101565b508060019080519060200190620000af92919062000101565b505050600060078190555033600860006101000a81548173ffffffffffffffffffffffffffffffffffffffff021916908373ffffffffffffffffffffffffffffffffffffffff16021790555062000215565b8280546200010f90620001e0565b90600052602060002090601f0160209004810192826200013357600085556200017f565b82601f106200014e57805160ff19168380011785556200017f565b828001600101855582156200017f579182015b828111156200017e57825182559160200191906001019062000161565b5b5090506200018e919062000192565b5090565b5b80821115620001ad57600081600090555060010162000193565b5090565b7f4e487b7100000000000000000000000000000000000000000000000000000000600052602260045260246000fd5b60006002820490506001821680620001f957607f821691505b6020821081036200020f576200020e620001b1565b5b50919050565b612d2e80620002256000396000f3fe608060405234801561001057600080fd5b506004361061010b5760003560e01c806370a08231116100a2578063b88d4fde11610071578063b88d4fde146102b6578063c87b56dd146102d2578063d082e38114610302578063da2ed03e14610320578063e985e9c5146103505761010b565b806370a082311461022e5780638da5cb5b1461025e57806395d89b411461027c578063a22cb4651461029a5761010b565b806323b872dd116100de57806323b872dd146101aa57806342842e0e146101c657806342966c68146101e25780636352211e146101fe5761010b565b806301ffc9a71461011057806306fdde0314610140578063081812fc1461015e578063095ea7b31461018e575b600080fd5b61012a60048036038101906101259190611ad2565b610380565b6040516101379190611b1a565b60405180910390f35b6101486103ea565b6040516101559190611bce565b60405180910390f35b61017860048036038101906101739190611c26565b610478565b6040516101859190611c94565b60405180910390f35b6101a860048036038101906101a39190611cdb565b610556565b005b6101c460048036038101906101bf9190611d1b565b61068a565b005b6101e060048036038101906101db9190611d1b565b61069a565b005b6101fc60048036038101906101f79190611c26565b61070e565b005b61021860048036038101906102139190611c26565b610965565b6040516102259190611c94565b60405180910390f35b61024860048036038101906102439190611d6e565b610a43565b6040516102559190611daa565b60405180910390f35b610266610afa565b6040516102739190611c94565b60405180910390f35b610284610b20565b6040516102919190611bce565b60405180910390f35b6102b460048036038101906102af9190611df1565b610bae565b005b6102d060048036038101906102cb9190611e96565b610d19565b005b6102ec60048036038101906102e79190611c26565b610dba565b6040516102f99190611bce565b60405180910390f35b61030a610ea0565b6040516103179190611daa565b60405180910390f35b61033a6004803603810190610335919061204e565b610ea6565b6040516103479190611daa565b60405180910390f35b61036a60048036038101906103659190612097565b610ee3565b6040516103779190611b1a565b60405180910390f35b60007f80ac58cd000000000000000000000000000000000000000000000000000000007bffffffffffffffffffffffffffffffffffffffffffffffffffffffff1916827bffffffffffffffffffffffffffffffffffffffffffffffffffffffff1916149050919050565b600080546103f790612106565b80601f016020809104026020016040519081016040528092919081815260200182805461042390612106565b80156104705780601f1061044557610100808354040283529160200191610470565b820191906000526020600020905b81548152906001019060200180831161045357829003601f168201915b505050505081565b60008073ffffffffffffffffffffffffffffffffffffffff166003600084815260200190815260200160002060009054906101000a900473ffffffffffffffffffffffffffffffffffffffff1673ffffffffffffffffffffffffffffffffffffffff160361051b576040517f08c379a0000000000000000000000000000000000000000000000000000000008152600401610512906121a9565b60405180910390fd5b6004600083815260200190815260200160002060009054906101000a900473ffffffffffffffffffffffffffffffffffffffff169050919050565b60006003600083815260200190815260200160002060009054906101000a900473ffffffffffffffffffffffffffffffffffffffff1690508073ffffffffffffffffffffffffffffffffffffffff168373ffffffffffffffffffffffffffffffffffffffff16036105fc576040517f08c379a00000000000000000000000000000000000000000000000000000000081526004016105f39061223b565b60405180910390fd5b8073ffffffffffffffffffffffffffffffffffffffff163373ffffffffffffffffffffffffffffffffffffffff16148061063c575061063b8133610ee3565b5b61067b576040517f08c379a0000000000000000000000000000000000000000000000000000000008152600401610672906122cd565b60405180910390fd5b6106858383610f77565b505050565b61069583838361105b565b505050565b3073ffffffffffffffffffffffffffffffffffffffff1663b88d4fde8484846040518463ffffffff1660e01b81526004016106d793929190612324565b600060405180830381600087803b1580156106f157600080fd5b505af1158015610705573d6000803e3d6000fd5b50505050505050565b600073ffffffffffffffffffffffffffffffffffffffff166003600083815260200190815260200160002060009054906101000a900473ffffffffffffffffffffffffffffffffffffffff1673ffffffffffffffffffffffffffffffffffffffff16036107b0576040517f08c379a00000000000000000000000000000000000000000000000000000000081526004016107a7906123e0565b60405180910390fd5b3373ffffffffffffffffffffffffffffffffffffffff166003600083815260200190815260200160002060009054906101000a900473ffffffffffffffffffffffffffffffffffffffff1673ffffffffffffffffffffffffffffffffffffffff1614610851576040517f08c379a000000000000000000000000000000000000000000000000000000000815260040161084890612472565b60405180910390fd5b61085c600082610f77565b600260003373ffffffffffffffffffffffffffffffffffffffff1673ffffffffffffffffffffffffffffffffffffffff16815260200190815260200160002060008154809291906108ac906124c1565b91905055506003600082815260200190815260200160002060006101000a81549073ffffffffffffffffffffffffffffffffffffffff02191690556006600082815260200190815260200160002060006109069190611983565b80600073ffffffffffffffffffffffffffffffffffffffff163373ffffffffffffffffffffffffffffffffffffffff167fddf252ad1be2c89b69c2b068fc378daa952ba7f163c4a11628f55a4df523b3ef60405160405180910390a450565b60008073ffffffffffffffffffffffffffffffffffffffff166003600084815260200190815260200160002060009054906101000a900473ffffffffffffffffffffffffffffffffffffffff1673ffffffffffffffffffffffffffffffffffffffff1603610a08576040517f08c379a00000000000000000000000000000000000000000000000000000000081526004016109ff906121a9565b60405180910390fd5b6003600083815260200190815260200160002060009054906101000a900473ffffffffffffffffffffffffffffffffffffffff169050919050565b60008073ffffffffffffffffffffffffffffffffffffffff168273ffffffffffffffffffffffffffffffffffffffff1603610ab3576040517f08c379a0000000000000000000000000000000000000000000000000000000008152600401610aaa9061255c565b60405180910390fd5b600260008373ffffffffffffffffffffffffffffffffffffffff1673ffffffffffffffffffffffffffffffffffffffff168152602001908152602001600020549050919050565b600860009054906101000a900473ffffffffffffffffffffffffffffffffffffffff1681565b60018054610b2d90612106565b80601f0160208091040260200160405190810160405280929190818152602001828054610b5990612106565b8015610ba65780601f10610b7b57610100808354040283529160200191610ba6565b820191906000526020600020905b815481529060010190602001808311610b8957829003601f168201915b505050505081565b8173ffffffffffffffffffffffffffffffffffffffff163373ffffffffffffffffffffffffffffffffffffffff1603610c1c576040517f08c379a0000000000000000000000000000000000000000000000000000000008152600401610c13906125ee565b60405180910390fd5b80600560003373ffffffffffffffffffffffffffffffffffffffff1673ffffffffffffffffffffffffffffffffffffffff16815260200190815260200160002060008473ffffffffffffffffffffffffffffffffffffffff1673ffffffffffffffffffffffffffffffffffffffff16815260200190815260200160002060006101000a81548160ff0219169083151502179055508173ffffffffffffffffffffffffffffffffffffffff163373ffffffffffffffffffffffffffffffffffffffff167f17307eab39ab6107e8899845ad3d59bd9653f200f220920489ca2b5937696c3183604051610d0d9190611b1a565b60405180910390a35050565b610d2485858561105b565b610d7485858585858080601f016020809104026020016040519081016040528093929190818152602001838380828437600081840152601f19601f8201169050808301925050505050505061138a565b610db3576040517f08c379a0000000000000000000000000000000000000000000000000000000008152600401610daa906126a6565b60405180910390fd5b5050505050565b6060600073ffffffffffffffffffffffffffffffffffffffff166003600084815260200190815260200160002060009054906101000a900473ffffffffffffffffffffffffffffffffffffffff1673ffffffffffffffffffffffffffffffffffffffff1603610e5e576040517f08c379a0000000000000000000000000000000000000000000000000000000008152600401610e5590612738565b60405180910390fd5b610e666114f4565b60066000848152602001908152602001600020604051602001610e8a929190612828565b6040516020818303038152906040529050919050565b60075481565b6000806007549050610eb83382611531565b610ec2818461154f565b60076000815480929190610ed59061284c565b919050555080915050919050565b6000600560008473ffffffffffffffffffffffffffffffffffffffff1673ffffffffffffffffffffffffffffffffffffffff16815260200190815260200160002060008373ffffffffffffffffffffffffffffffffffffffff1673ffffffffffffffffffffffffffffffffffffffff16815260200190815260200160002060009054906101000a900460ff16905092915050565b816004600083815260200190815260200160002060006101000a81548173ffffffffffffffffffffffffffffffffffffffff021916908373ffffffffffffffffffffffffffffffffffffffff160217905550808273ffffffffffffffffffffffffffffffffffffffff166003600084815260200190815260200160002060009054906101000a900473ffffffffffffffffffffffffffffffffffffffff1673ffffffffffffffffffffffffffffffffffffffff167f8c5be1e5ebec7d5bd14f71427d1e84f3dd0314c0f7b2291e5b200ac8c7c3b92560405160405180910390a45050565b600073ffffffffffffffffffffffffffffffffffffffff168373ffffffffffffffffffffffffffffffffffffffff16036110ca576040517f08c379a00000000000000000000000000000000000000000000000000000000081526004016110c190612906565b60405180910390fd5b600073ffffffffffffffffffffffffffffffffffffffff168273ffffffffffffffffffffffffffffffffffffffff1603611139576040517f08c379a000000000000000000000000000000000000000000000000000000000815260040161113090612998565b60405180910390fd5b8273ffffffffffffffffffffffffffffffffffffffff166003600083815260200190815260200160002060009054906101000a900473ffffffffffffffffffffffffffffffffffffffff1673ffffffffffffffffffffffffffffffffffffffff16146111da576040517f08c379a00000000000000000000000000000000000000000000000000000000081526004016111d190612a2a565b60405180910390fd5b6111e4338261161d565b611223576040517f08c379a000000000000000000000000000000000000000000000000000000000815260040161121a90612ae2565b60405180910390fd5b61122e600082610f77565b600260008473ffffffffffffffffffffffffffffffffffffffff1673ffffffffffffffffffffffffffffffffffffffff168152602001908152602001600020600081548092919061127e906124c1565b9190505550600260008373ffffffffffffffffffffffffffffffffffffffff1673ffffffffffffffffffffffffffffffffffffffff16815260200190815260200160002060008154809291906112d39061284c565b9190505550816003600083815260200190815260200160002060006101000a81548173ffffffffffffffffffffffffffffffffffffffff021916908373ffffffffffffffffffffffffffffffffffffffff160217905550808273ffffffffffffffffffffffffffffffffffffffff168473ffffffffffffffffffffffffffffffffffffffff167fddf252ad1be2c89b69c2b068fc378daa952ba7f163c4a11628f55a4df523b3ef60405160405180910390a4505050565b60006113958461170b565b156114e7578373ffffffffffffffffffffffffffffffffffffffff1663150b7a02338786866040518563ffffffff1660e01b81526004016113d99493929190612b46565b6020604051808303816000875af192505050801561141557506040513d601f19601f820116820180604052508101906114129190612ba7565b60015b611497573d8060008114611445576040519150601f19603f3d011682016040523d82523d6000602084013e61144a565b606091505b50600081510361148f576040517f08c379a0000000000000000000000000000000000000000000000000000000008152600401611486906126a6565b60405180910390fd5b805181602001fd5b63150b7a0260e01b7bffffffffffffffffffffffffffffffffffffffffffffffffffffffff1916817bffffffffffffffffffffffffffffffffffffffffffffffffffffffff1916149150506114ec565b600190505b949350505050565b60606040518060400160405280601581526020017f68747470733a2f2f697066732e696f2f697066732f0000000000000000000000815250905090565b61154b82826040518060200160405280600081525061171e565b5050565b600073ffffffffffffffffffffffffffffffffffffffff166003600084815260200190815260200160002060009054906101000a900473ffffffffffffffffffffffffffffffffffffffff1673ffffffffffffffffffffffffffffffffffffffff16036115f1576040517f08c379a00000000000000000000000000000000000000000000000000000000081526004016115e890612c46565b60405180910390fd5b806006600084815260200190815260200160002090805190602001906116189291906119c3565b505050565b60008273ffffffffffffffffffffffffffffffffffffffff166003600084815260200190815260200160002060009054906101000a900473ffffffffffffffffffffffffffffffffffffffff1673ffffffffffffffffffffffffffffffffffffffff1614806116bf57508273ffffffffffffffffffffffffffffffffffffffff166116a783610478565b73ffffffffffffffffffffffffffffffffffffffff16145b8061170357506117026003600084815260200190815260200160002060009054906101000a900473ffffffffffffffffffffffffffffffffffffffff1684610ee3565b5b905092915050565b600080823b905060008111915050919050565b600073ffffffffffffffffffffffffffffffffffffffff168373ffffffffffffffffffffffffffffffffffffffff160361178d576040517f08c379a000000000000000000000000000000000000000000000000000000000815260040161178490612998565b60405180910390fd5b600073ffffffffffffffffffffffffffffffffffffffff166003600084815260200190815260200160002060009054906101000a900473ffffffffffffffffffffffffffffffffffffffff1673ffffffffffffffffffffffffffffffffffffffff161461182f576040517f08c379a000000000000000000000000000000000000000000000000000000000815260040161182690612cd8565b60405180910390fd5b600260008473ffffffffffffffffffffffffffffffffffffffff1673ffffffffffffffffffffffffffffffffffffffff168152602001908152602001600020600081548092919061187f9061284c565b9190505550826003600084815260200190815260200160002060006101000a81548173ffffffffffffffffffffffffffffffffffffffff021916908373ffffffffffffffffffffffffffffffffffffffff160217905550818373ffffffffffffffffffffffffffffffffffffffff16600073ffffffffffffffffffffffffffffffffffffffff167fddf252ad1be2c89b69c2b068fc378daa952ba7f163c4a11628f55a4df523b3ef60405160405180910390a461193f600084848461138a565b61197e576040517f08c379a0000000000000000000000000000000000000000000000000000000008152600401611975906126a6565b60405180910390fd5b505050565b50805461198f90612106565b6000825580601f106119a157506119c0565b601f0160209004906000526020600020908101906119bf9190611a49565b5b50565b8280546119cf90612106565b90600052602060002090601f0160209004810192826119f15760008555611a38565b82601f10611a0a57805160ff1916838001178555611a38565b82800160010185558215611a38579182015b82811115611a37578251825591602001919060010190611a1c565b5b509050611a459190611a49565b5090565b5b80821115611a62576000816000905550600101611a4a565b5090565b6000604051905090565b600080fd5b600080fd5b60007fffffffff0000000000000000000000000000000000000000000000000000000082169050919050565b611aaf81611a7a565b8114611aba57600080fd5b50565b600081359050611acc81611aa6565b92915050565b600060208284031215611ae857611ae7611a70565b5b6000611af684828501611abd565b91505092915050565b60008115159050919050565b611b1481611aff565b82525050565b6000602082019050611b2f6000830184611b0b565b92915050565b600081519050919050565b600082825260208201905092915050565b60005b83811015611b6f578082015181840152602081019050611b54565b83811115611b7e576000848401525b50505050565b6000601f19601f8301169050919050565b6000611ba082611b35565b611baa8185611b40565b9350611bba818560208601611b51565b611bc381611b84565b840191505092915050565b60006020820190508181036000830152611be88184611b95565b905092915050565b6000819050919050565b611c0381611bf0565b8114611c0e57600080fd5b50565b600081359050611c2081611bfa565b92915050565b600060208284031215611c3c57611c3b611a70565b5b6000611c4a84828501611c11565b91505092915050565b600073ffffffffffffffffffffffffffffffffffffffff82169050919050565b6000611c7e82611c53565b9050919050565b611c8e81611c73565b82525050565b6000602082019050611ca96000830184611c85565b92915050565b611cb881611c73565b8114611cc357600080fd5b50565b600081359050611cd581611caf565b92915050565b60008060408385031215611cf257611cf1611a70565b5b6000611d0085828601611cc6565b9250506020611d1185828601611c11565b9150509250929050565b600080600060608486031215611d3457611d33611a70565b5b6000611d4286828701611cc6565b9350506020611d5386828701611cc6565b9250506040611d6486828701611c11565b9150509250925092565b600060208284031215611d8457611d83611a70565b5b6000611d9284828501611cc6565b91505092915050565b611da481611bf0565b82525050565b6000602082019050611dbf6000830184611d9b565b92915050565b611dce81611aff565b8114611dd957600080fd5b50565b600081359050611deb81611dc5565b92915050565b60008060408385031215611e0857611e07611a70565b5b6000611e1685828601611cc6565b9250506020611e2785828601611ddc565b9150509250929050565b600080fd5b600080fd5b600080fd5b60008083601f840112611e5657611e55611e31565b5b8235905067ffffffffffffffff811115611e7357611e72611e36565b5b602083019150836001820283011115611e8f57611e8e611e3b565b5b9250929050565b600080600080600060808688031215611eb257611eb1611a70565b5b6000611ec088828901611cc6565b9550506020611ed188828901611cc6565b9450506040611ee288828901611c11565b935050606086013567ffffffffffffffff811115611f0357611f02611a75565b5b611f0f88828901611e40565b92509250509295509295909350565b600080fd5b7f4e487b7100000000000000000000000000000000000000000000000000000000600052604160045260246000fd5b611f5b82611b84565b810181811067ffffffffffffffff82111715611f7a57611f79611f23565b5b80604052505050565b6000611f8d611a66565b9050611f998282611f52565b919050565b600067ffffffffffffffff821115611fb957611fb8611f23565b5b611fc282611b84565b9050602081019050919050565b82818337600083830152505050565b6000611ff1611fec84611f9e565b611f83565b90508281526020810184848401111561200d5761200c611f1e565b5b612018848285611fcf565b509392505050565b600082601f83011261203557612034611e31565b5b8135612045848260208601611fde565b91505092915050565b60006020828403121561206457612063611a70565b5b600082013567ffffffffffffffff81111561208257612081611a75565b5b61208e84828501612020565b91505092915050565b600080604083850312156120ae576120ad611a70565b5b60006120bc85828601611cc6565b92505060206120cd85828601611cc6565b9150509250929050565b7f4e487b7100000000000000000000000000000000000000000000000000000000600052602260045260246000fd5b6000600282049050600182168061211e57607f821691505b602082108103612131576121306120d7565b5b50919050565b7f4552433732313a20546f6b656e207769746820656e746572656420494420646f60008201527f6573206e6f742065786973740000000000000000000000000000000000000000602082015250565b6000612193602c83611b40565b915061219e82612137565b604082019050919050565b600060208201905081810360008301526121c281612186565b9050919050565b7f4552433732313a206f776e65722063616e6e6f7420617070726f76652068696d60008201527f73656c662f68657273656c660000000000000000000000000000000000000000602082015250565b6000612225602c83611b40565b9150612230826121c9565b604082019050919050565b6000602082019050818103600083015261225481612218565b9050919050565b7f4552433732313a2063616c6c6572206d757374206f776e2074686520746f6b6560008201527f6e206f7220626520617070726f76656420666f7220616c6c0000000000000000602082015250565b60006122b7603883611b40565b91506122c28261225b565b604082019050919050565b600060208201905081810360008301526122e6816122aa565b9050919050565b600082825260208201905092915050565b50565b600061230e6000836122ed565b9150612319826122fe565b600082019050919050565b60006080820190506123396000830186611c85565b6123466020830185611c85565b6123536040830184611d9b565b818103606083015261236481612301565b9050949350505050565b7f4552433732313a206e6f20746f6b656e2077697468207468652073706563696660008201527f69656420494420776173206d696e746564206265666f72650000000000000000602082015250565b60006123ca603883611b40565b91506123d58261236e565b604082019050919050565b600060208201905081810360008301526123f9816123bd565b9050919050565b7f4552433732313a206120746f6b656e207769746820746865207370656369666960008201527f6564204944206973206e6f74206f776e6564206279207468652073656e646572602082015250565b600061245c604083611b40565b915061246782612400565b604082019050919050565b6000602082019050818103600083015261248b8161244f565b9050919050565b7f4e487b7100000000000000000000000000000000000000000000000000000000600052601160045260246000fd5b60006124cc82611bf0565b9150600082036124df576124de612492565b5b600182039050919050565b7f4552433732313a2061646472657373206f776e65722063616e6e6f742062652060008201527f746865207a65726f206164647265737300000000000000000000000000000000602082015250565b6000612546603083611b40565b9150612551826124ea565b604082019050919050565b6000602082019050818103600083015261257581612539565b9050919050565b7f4552433732313a2073656e6465722063616e6e6f742073657420617070726f7660008201527f616c20666f722068696d73656c662f68657273656c6600000000000000000000602082015250565b60006125d8603683611b40565b91506125e38261257c565b604082019050919050565b60006020820190508181036000830152612607816125cb565b9050919050565b7f4552433732313a207472616e736665722063616e6e6f7420636f6d706c65746560008201527f20746f206120736d61727420636f6e7472616374206e6f7420696d706c656d6560208201527f6e74696e67204552433732315265636569766572000000000000000000000000604082015250565b6000612690605483611b40565b915061269b8261260e565b606082019050919050565b600060208201905081810360008301526126bf81612683565b9050919050565b7f4552433732313a2063616e6e6f742067657420555249206f66206e6f6e65786960008201527f7374656e7420746f6b656e000000000000000000000000000000000000000000602082015250565b6000612722602b83611b40565b915061272d826126c6565b604082019050919050565b6000602082019050818103600083015261275181612715565b9050919050565b600081905092915050565b600061276e82611b35565b6127788185612758565b9350612788818560208601611b51565b80840191505092915050565b60008190508160005260206000209050919050565b600081546127b681612106565b6127c08186612758565b945060018216600081146127db57600181146127ec5761281f565b60ff1983168652818601935061281f565b6127f585612794565b60005b83811015612817578154818901526001820191506020810190506127f8565b838801955050505b50505092915050565b60006128348285612763565b915061284082846127a9565b91508190509392505050565b600061285782611bf0565b91507fffffffffffffffffffffffffffffffffffffffffffffffffffffffffffffffff820361288957612888612492565b5b600182019050919050565b7f4552433732313a2066726f6d206164647265737320656e74657265642063616e60008201527f6e6f7420626520746865207a65726f2061646472657373000000000000000000602082015250565b60006128f0603783611b40565b91506128fb82612894565b604082019050919050565b6000602082019050818103600083015261291f816128e3565b9050919050565b7f4552433732313a20746f206164647265737320656e74657265642063616e6e6f60008201527f7420626520746865207a65726f20616464726573730000000000000000000000602082015250565b6000612982603583611b40565b915061298d82612926565b604082019050919050565b600060208201905081810360008301526129b181612975565b9050919050565b7f4552433732313a20546f6b656e207769746820656e746572656420494420697360008201527f206e6f74206f776e6564206279207468652066726f6d20616464726573730000602082015250565b6000612a14603e83611b40565b9150612a1f826129b8565b604082019050919050565b60006020820190508181036000830152612a4381612a07565b9050919050565b7f4552433732313a2053656e646572206973206e65697468657220746865206f7760008201527f6e6572206e6f7220617070726f76656420746f20646f2074686973207472616e60208201527f73616374696f6e00000000000000000000000000000000000000000000000000604082015250565b6000612acc604783611b40565b9150612ad782612a4a565b606082019050919050565b60006020820190508181036000830152612afb81612abf565b9050919050565b600081519050919050565b6000612b1882612b02565b612b2281856122ed565b9350612b32818560208601611b51565b612b3b81611b84565b840191505092915050565b6000608082019050612b5b6000830187611c85565b612b686020830186611c85565b612b756040830185611d9b565b8181036060830152612b878184612b0d565b905095945050505050565b600081519050612ba181611aa6565b92915050565b600060208284031215612bbd57612bbc611a70565b5b6000612bcb84828501612b92565b91505092915050565b7f4552433732313a2063616e6e6f742073657420555249206f662061206e6f6e6560008201527f78697374656e7420746f6b656e00000000000000000000000000000000000000602082015250565b6000612c30602d83611b40565b9150612c3b82612bd4565b604082019050919050565b60006020820190508181036000830152612c5f81612c23565b9050919050565b7f4552433732313a206120746f6b656e207769746820746865207370656369666960008201527f656420494420697320616c7265616479206d696e746564000000000000000000602082015250565b6000612cc2603783611b40565b9150612ccd82612c66565b604082019050919050565b60006020820190508181036000830152612cf181612cb5565b905091905056fea26469706673582212206d6fb23314bf51e7d512bb6102f5b7662f3650dc695c17242da54c2cde3f71c364736f6c634300080d0033",
  "immutableReferences": {},
  "source": "//SPDX-License-Identifier: MIT\r\npragma solidity ^0.8.13;\r\n\r\nimport \"./ERC721.sol\";\r\n\r\ncontract NerosNFT is ERC721 {\r\n  uint256 public tokenCounter;\r\n  address public owner;\r\n\r\n  constructor() ERC721 (\"NerosNFT\", \"NROT\"){\r\n      tokenCounter = 0;\r\n      owner = msg.sender;\r\n  }\r\n  modifier isOwner() {\r\n      require(msg.sender == owner, \"NerosNFT: Only owner is allowed to do this functionality\");\r\n      _;\r\n  }\r\n\r\n  function createNFT(string memory tokenURI) public returns (uint256) {\r\n      uint256 newItemId = tokenCounter;\r\n      safeMint(msg.sender, newItemId);\r\n      setTokenURI(newItemId, tokenURI);\r\n      tokenCounter++;\r\n      return newItemId;\r\n  }\r\n}\r\n",
  "sourcePath": "D:\\S8\\Neros\\contracts\\NerosNFT.sol",
  "compiler": {
    "name": "solc",
    "version": "0.8.13+commit.abaa5c0e.Emscripten.clang"
  },
  "schemaVersion": "3.4.6",
  "updatedAt": "2022-04-26T23:45:27.634Z",
  "networkType": "ethereum",
  "devdoc": {
    "kind": "dev",
    "methods": {
      "approve(address,uint256)": {
        "details": "Gives permission to `to` to transfer `tokenId` token to another account. The approval is cleared when the token is transferred. Only a single account can be approved at a time, so approving the zero address clears previous approvals. Requirements: - The caller must own the token or be an approved operator. - `tokenId` must exist. Emits an {Approval} event."
      },
      "balanceOf(address)": {
        "details": "Returns the number of tokens in ``owner``'s account."
      },
      "getApproved(uint256)": {
        "details": "Returns the account approved for `tokenId` token. Requirements: - `tokenId` must exist."
      },
      "isApprovedForAll(address,address)": {
        "details": "Returns if the `operator` is allowed to manage all of the assets of `owner`. See {setApprovalForAll}"
      },
      "ownerOf(uint256)": {
        "details": "Returns the owner of the `tokenId` token. Requirements: - `tokenId` must exist."
      },
      "safeTransferFrom(address,address,uint256)": {
        "details": "Safely transfers `tokenId` token from `from` to `to`, checking first that contract recipients are aware of the ERC721 protocol to prevent tokens from being forever locked. Requirements: - `from` cannot be the zero address. - `to` cannot be the zero address. - `tokenId` token must exist and be owned by `from`. - If the caller is not `from`, it must be have been allowed to move this token by either {approve} or {setApprovalForAll}. - If `to` refers to a smart contract, it must implement {IERC721Receiver-onERC721Received}, which is called upon a safe transfer. Emits a {Transfer} event."
      },
      "safeTransferFrom(address,address,uint256,bytes)": {
        "details": "Safely transfers `tokenId` token from `from` to `to`. Requirements: - `from` cannot be the zero address. - `to` cannot be the zero address. - `tokenId` token must exist and be owned by `from`. - If the caller is not `from`, it must be approved to move this token by either {approve} or {setApprovalForAll}. - If `to` refers to a smart contract, it must implement {IERC721Receiver-onERC721Received}, which is called upon a safe transfer. Emits a {Transfer} event."
      },
      "supportsInterface(bytes4)": {
        "details": "Returns true if this contract implements the interface defined by `interfaceId`. See the corresponding https://eips.ethereum.org/EIPS/eip-165#how-interfaces-are-identified[EIP section] to learn more about how these ids are created. This function call must use less than 30 000 gas."
      },
      "tokenURI(uint256)": {
        "details": "Returns the Uniform Resource Identifier (URI) for `tokenId` token."
      },
      "transferFrom(address,address,uint256)": {
        "details": "Transfers `tokenId` token from `from` to `to`. WARNING: Usage of this method is discouraged, use {safeTransferFrom} whenever possible. Requirements: - `from` cannot be the zero address. - `to` cannot be the zero address. - `tokenId` token must be owned by `from`. - If the caller is not `from`, it must be approved to move this token by either {approve} or {setApprovalForAll}. Emits a {Transfer} event."
      }
    },
    "version": 1
  },
  "userdoc": {
    "kind": "user",
    "methods": {},
    "version": 1
  }
}