{
  "contractName": "BankHandler",
  "abi": [
    {
      "inputs": [],
      "name": "withdrawMoney",
      "outputs": [],
      "stateMutability": "nonpayable",
      "type": "function"
    },
    {
      "inputs": [],
      "name": "refundMoney",
      "outputs": [],
      "stateMutability": "nonpayable",
      "type": "function"
    }
  ],
  "bytecode": "0x6080604052348015600f57600080fd5b5060818061001e6000396000f3fe6080604052348015600f57600080fd5b506004361060325760003560e01c8063ac446002146037578063ea31db1314603f575b600080fd5b603d6047565b005b60456049565b005b565b56fea2646970667358221220a7f6855fd784b305787849eae1732da8ae0e5d9acf9021a457d0e17daa3aa3b764736f6c634300080d0033",
  "immutableReferences": {},
  "source": "//SPDX-License-Identifier: MIT\r\npragma solidity ^0.8.13;\r\n\r\ncontract BankHandler {\r\n\r\n  function withdrawMoney() public {\r\n\r\n  }\r\n\r\n  function refundMoney() public {\r\n\r\n  }\r\n}\r\n",
  "sourcePath": "D:\\S8\\Neros\\contracts\\BankHandler.sol",
  "compiler": {
    "name": "solc",
    "version": "0.8.13+commit.abaa5c0e.Emscripten.clang"
  },
  "schemaVersion": "3.4.6",
  "updatedAt": "2022-04-04T02:18:30.105Z",
  "networkType": "ethereum",
  "devdoc": {
    "kind": "dev",
    "methods": {},
    "version": 1
  },
  "userdoc": {
    "kind": "user",
    "methods": {},
    "version": 1
  }
}