{
  "contractName": "ERC721",
  "abi": [
    {
      "inputs": [
        {
          "internalType": "string",
          "name": "_name",
          "type": "string"
        },
        {
          "internalType": "string",
          "name": "_symbol",
          "type": "string"
        }
      ],
      "stateMutability": "nonpayable",
      "type": "constructor"
    },
    {
      "anonymous": false,
      "inputs": [
        {
          "indexed": true,
          "internalType": "address",
          "name": "owner",
          "type": "address"
        },
        {
          "indexed": true,
          "internalType": "address",
          "name": "approved",
          "type": "address"
        },
        {
          "indexed": true,
          "internalType": "uint256",
          "name": "tokenId",
          "type": "uint256"
        }
      ],
      "name": "Approval",
      "type": "event"
    },
    {
      "anonymous": false,
      "inputs": [
        {
          "indexed": true,
          "internalType": "address",
          "name": "owner",
          "type": "address"
        },
        {
          "indexed": true,
          "internalType": "address",
          "name": "operator",
          "type": "address"
        },
        {
          "indexed": false,
          "internalType": "bool",
          "name": "approved",
          "type": "bool"
        }
      ],
      "name": "ApprovalForAll",
      "type": "event"
    },
    {
      "anonymous": false,
      "inputs": [
        {
          "indexed": true,
          "internalType": "address",
          "name": "from",
          "type": "address"
        },
        {
          "indexed": true,
          "internalType": "address",
          "name": "to",
          "type": "address"
        },
        {
          "indexed": true,
          "internalType": "uint256",
          "name": "tokenId",
          "type": "uint256"
        }
      ],
      "name": "Transfer",
      "type": "event"
    },
    {
      "inputs": [
        {
          "internalType": "address",
          "name": "",
          "type": "address"
        }
      ],
      "name": "admins",
      "outputs": [
        {
          "internalType": "bool",
          "name": "",
          "type": "bool"
        }
      ],
      "stateMutability": "view",
      "type": "function"
    },
    {
      "inputs": [
        {
          "internalType": "uint256",
          "name": "",
          "type": "uint256"
        }
      ],
      "name": "isForSale",
      "outputs": [
        {
          "internalType": "bool",
          "name": "",
          "type": "bool"
        }
      ],
      "stateMutability": "view",
      "type": "function"
    },
    {
      "inputs": [
        {
          "internalType": "uint256",
          "name": "",
          "type": "uint256"
        }
      ],
      "name": "isTransferable",
      "outputs": [
        {
          "internalType": "bool",
          "name": "",
          "type": "bool"
        }
      ],
      "stateMutability": "view",
      "type": "function"
    },
    {
      "inputs": [],
      "name": "name",
      "outputs": [
        {
          "internalType": "string",
          "name": "",
          "type": "string"
        }
      ],
      "stateMutability": "view",
      "type": "function"
    },
    {
      "inputs": [],
      "name": "owner",
      "outputs": [
        {
          "internalType": "address",
          "name": "",
          "type": "address"
        }
      ],
      "stateMutability": "view",
      "type": "function"
    },
    {
      "inputs": [],
      "name": "symbol",
      "outputs": [
        {
          "internalType": "string",
          "name": "",
          "type": "string"
        }
      ],
      "stateMutability": "view",
      "type": "function"
    },
    {
      "inputs": [
        {
          "internalType": "address",
          "name": "_owner",
          "type": "address"
        }
      ],
      "name": "balanceOf",
      "outputs": [
        {
          "internalType": "uint256",
          "name": "",
          "type": "uint256"
        }
      ],
      "stateMutability": "view",
      "type": "function"
    },
    {
      "inputs": [
        {
          "internalType": "uint256",
          "name": "tokenId",
          "type": "uint256"
        }
      ],
      "name": "ownerOf",
      "outputs": [
        {
          "internalType": "address",
          "name": "",
          "type": "address"
        }
      ],
      "stateMutability": "view",
      "type": "function"
    },
    {
      "inputs": [
        {
          "internalType": "uint256",
          "name": "tokenId",
          "type": "uint256"
        }
      ],
      "name": "getApproved",
      "outputs": [
        {
          "internalType": "address",
          "name": "",
          "type": "address"
        }
      ],
      "stateMutability": "view",
      "type": "function"
    },
    {
      "inputs": [
        {
          "internalType": "address",
          "name": "_owner",
          "type": "address"
        },
        {
          "internalType": "address",
          "name": "operator",
          "type": "address"
        }
      ],
      "name": "isApprovedForAll",
      "outputs": [
        {
          "internalType": "bool",
          "name": "",
          "type": "bool"
        }
      ],
      "stateMutability": "view",
      "type": "function"
    },
    {
      "inputs": [
        {
          "internalType": "address",
          "name": "from",
          "type": "address"
        },
        {
          "internalType": "address",
          "name": "to",
          "type": "address"
        },
        {
          "internalType": "uint256",
          "name": "tokenId",
          "type": "uint256"
        }
      ],
      "name": "safeTransferFrom",
      "outputs": [],
      "stateMutability": "nonpayable",
      "type": "function"
    },
    {
      "inputs": [
        {
          "internalType": "address",
          "name": "from",
          "type": "address"
        },
        {
          "internalType": "address",
          "name": "to",
          "type": "address"
        },
        {
          "internalType": "uint256",
          "name": "tokenId",
          "type": "uint256"
        },
        {
          "internalType": "bytes",
          "name": "data",
          "type": "bytes"
        }
      ],
      "name": "safeTransferFrom",
      "outputs": [],
      "stateMutability": "nonpayable",
      "type": "function"
    },
    {
      "inputs": [
        {
          "internalType": "address",
          "name": "from",
          "type": "address"
        },
        {
          "internalType": "address",
          "name": "to",
          "type": "address"
        },
        {
          "internalType": "uint256",
          "name": "tokenId",
          "type": "uint256"
        }
      ],
      "name": "transferFrom",
      "outputs": [],
      "stateMutability": "nonpayable",
      "type": "function"
    },
    {
      "inputs": [
        {
          "internalType": "address",
          "name": "admin",
          "type": "address"
        },
        {
          "internalType": "bool",
          "name": "add",
          "type": "bool"
        }
      ],
      "name": "addOrRemoveAdmin",
      "outputs": [],
      "stateMutability": "nonpayable",
      "type": "function"
    },
    {
      "inputs": [
        {
          "internalType": "address",
          "name": "to",
          "type": "address"
        },
        {
          "internalType": "uint256",
          "name": "tokenId",
          "type": "uint256"
        }
      ],
      "name": "approve",
      "outputs": [],
      "stateMutability": "nonpayable",
      "type": "function"
    },
    {
      "inputs": [
        {
          "internalType": "address",
          "name": "operator",
          "type": "address"
        },
        {
          "internalType": "bool",
          "name": "approved",
          "type": "bool"
        }
      ],
      "name": "setApprovalForAll",
      "outputs": [],
      "stateMutability": "nonpayable",
      "type": "function"
    },
    {
      "inputs": [
        {
          "internalType": "uint256",
          "name": "tokenId",
          "type": "uint256"
        }
      ],
      "name": "burn",
      "outputs": [],
      "stateMutability": "nonpayable",
      "type": "function"
    },
    {
      "inputs": [
        {
          "internalType": "uint256",
          "name": "tokenId",
          "type": "uint256"
        }
      ],
      "name": "tokenURI",
      "outputs": [
        {
          "internalType": "string",
          "name": "",
          "type": "string"
        }
      ],
      "stateMutability": "view",
      "type": "function"
    },
    {
      "inputs": [
        {
          "internalType": "bytes4",
          "name": "interfaceId",
          "type": "bytes4"
        }
      ],
      "name": "supportsInterface",
      "outputs": [
        {
          "internalType": "bool",
          "name": "",
          "type": "bool"
        }
      ],
      "stateMutability": "pure",
      "type": "function"
    }
  ],
  "bytecode": "0x60806040523480156200001157600080fd5b506040516200350438038062003504833981810160405281019062000037919062000379565b81600090805190602001906200004f9291906200012c565b508060019080519060200190620000689291906200012c565b5033600260006101000a81548173ffffffffffffffffffffffffffffffffffffffff021916908373ffffffffffffffffffffffffffffffffffffffff1602179055506001600a6000600260009054906101000a900473ffffffffffffffffffffffffffffffffffffffff1673ffffffffffffffffffffffffffffffffffffffff1673ffffffffffffffffffffffffffffffffffffffff16815260200190815260200160002060006101000a81548160ff021916908315150217905550505062000462565b8280546200013a906200042d565b90600052602060002090601f0160209004810192826200015e5760008555620001aa565b82601f106200017957805160ff1916838001178555620001aa565b82800160010185558215620001aa579182015b82811115620001a95782518255916020019190600101906200018c565b5b509050620001b99190620001bd565b5090565b5b80821115620001d8576000816000905550600101620001be565b5090565b6000604051905090565b600080fd5b600080fd5b600080fd5b600080fd5b6000601f19601f8301169050919050565b7f4e487b7100000000000000000000000000000000000000000000000000000000600052604160045260246000fd5b6200024582620001fa565b810181811067ffffffffffffffff821117156200026757620002666200020b565b5b80604052505050565b60006200027c620001dc565b90506200028a82826200023a565b919050565b600067ffffffffffffffff821115620002ad57620002ac6200020b565b5b620002b882620001fa565b9050602081019050919050565b60005b83811015620002e5578082015181840152602081019050620002c8565b83811115620002f5576000848401525b50505050565b6000620003126200030c846200028f565b62000270565b905082815260208101848484011115620003315762000330620001f5565b5b6200033e848285620002c5565b509392505050565b600082601f8301126200035e576200035d620001f0565b5b815162000370848260208601620002fb565b91505092915050565b60008060408385031215620003935762000392620001e6565b5b600083015167ffffffffffffffff811115620003b457620003b3620001eb565b5b620003c28582860162000346565b925050602083015167ffffffffffffffff811115620003e657620003e5620001eb565b5b620003f48582860162000346565b9150509250929050565b7f4e487b7100000000000000000000000000000000000000000000000000000000600052602260045260246000fd5b600060028204905060018216806200044657607f821691505b6020821081036200045c576200045b620003fe565b5b50919050565b61309280620004726000396000f3fe608060405234801561001057600080fd5b50600436106101215760003560e01c806370a08231116100ad578063a22cb46511610071578063a22cb4651461032c578063b256456914610348578063b88d4fde14610378578063c87b56dd14610394578063e985e9c5146103c457610121565b806370a08231146102745780638546d002146102a457806389fa2c03146102d45780638da5cb5b146102f057806395d89b411461030e57610121565b806323b872dd116100f457806323b872dd146101c057806342842e0e146101dc57806342966c68146101f8578063429b62e5146102145780636352211e1461024457610121565b806301ffc9a71461012657806306fdde0314610156578063081812fc14610174578063095ea7b3146101a4575b600080fd5b610140600480360381019061013b9190611e85565b6103f4565b60405161014d9190611ecd565b60405180910390f35b61015e61045e565b60405161016b9190611f81565b60405180910390f35b61018e60048036038101906101899190611fd9565b6104ec565b60405161019b9190612047565b60405180910390f35b6101be60048036038101906101b9919061208e565b6105ca565b005b6101da60048036038101906101d591906120ce565b6106fe565b005b6101f660048036038101906101f191906120ce565b61070e565b005b610212600480360381019061020d9190611fd9565b610782565b005b61022e60048036038101906102299190612121565b610c68565b60405161023b9190611ecd565b60405180910390f35b61025e60048036038101906102599190611fd9565b610c88565b60405161026b9190612047565b60405180910390f35b61028e60048036038101906102899190612121565b610d66565b60405161029b919061215d565b60405180910390f35b6102be60048036038101906102b99190611fd9565b610e1d565b6040516102cb9190611ecd565b60405180910390f35b6102ee60048036038101906102e991906121a4565b610e3d565b005b6102f8610f28565b6040516103059190612047565b60405180910390f35b610316610f4e565b6040516103239190611f81565b60405180910390f35b610346600480360381019061034191906121a4565b610fdc565b005b610362600480360381019061035d9190611fd9565b611147565b60405161036f9190611ecd565b60405180910390f35b610392600480360381019061038d9190612249565b611167565b005b6103ae60048036038101906103a99190611fd9565b611208565b6040516103bb9190611f81565b60405180910390f35b6103de60048036038101906103d991906122d1565b6112ee565b6040516103eb9190611ecd565b60405180910390f35b60007f80ac58cd000000000000000000000000000000000000000000000000000000007bffffffffffffffffffffffffffffffffffffffffffffffffffffffff1916827bffffffffffffffffffffffffffffffffffffffffffffffffffffffff1916149050919050565b6000805461046b90612340565b80601f016020809104026020016040519081016040528092919081815260200182805461049790612340565b80156104e45780601f106104b9576101008083540402835291602001916104e4565b820191906000526020600020905b8154815290600101906020018083116104c757829003601f168201915b505050505081565b60008073ffffffffffffffffffffffffffffffffffffffff166004600084815260200190815260200160002060009054906101000a900473ffffffffffffffffffffffffffffffffffffffff1673ffffffffffffffffffffffffffffffffffffffff160361058f576040517f08c379a0000000000000000000000000000000000000000000000000000000008152600401610586906123e3565b60405180910390fd5b6005600083815260200190815260200160002060009054906101000a900473ffffffffffffffffffffffffffffffffffffffff169050919050565b60006004600083815260200190815260200160002060009054906101000a900473ffffffffffffffffffffffffffffffffffffffff1690508073ffffffffffffffffffffffffffffffffffffffff168373ffffffffffffffffffffffffffffffffffffffff1603610670576040517f08c379a000000000000000000000000000000000000000000000000000000000815260040161066790612475565b60405180910390fd5b8073ffffffffffffffffffffffffffffffffffffffff163373ffffffffffffffffffffffffffffffffffffffff1614806106b057506106af81336112ee565b5b6106ef576040517f08c379a00000000000000000000000000000000000000000000000000000000081526004016106e690612507565b60405180910390fd5b6106f98383611382565b505050565b610709838383611466565b505050565b3073ffffffffffffffffffffffffffffffffffffffff1663b88d4fde8484846040518463ffffffff1660e01b815260040161074b9392919061255e565b600060405180830381600087803b15801561076557600080fd5b505af1158015610779573d6000803e3d6000fd5b50505050505050565b60006004600083815260200190815260200160002060009054906101000a900473ffffffffffffffffffffffffffffffffffffffff169050600073ffffffffffffffffffffffffffffffffffffffff168173ffffffffffffffffffffffffffffffffffffffff1603610829576040517f08c379a00000000000000000000000000000000000000000000000000000000081526004016108209061261a565b60405180910390fd5b3373ffffffffffffffffffffffffffffffffffffffff168173ffffffffffffffffffffffffffffffffffffffff1614801561088157506009600083815260200190815260200160002060009054906101000a900460ff165b806108d55750600a60003373ffffffffffffffffffffffffffffffffffffffff1673ffffffffffffffffffffffffffffffffffffffff16815260200190815260200160002060009054906101000a900460ff165b610914576040517f08c379a000000000000000000000000000000000000000000000000000000000815260040161090b9061271e565b60405180910390fd5b61091f600083611382565b600360008273ffffffffffffffffffffffffffffffffffffffff1673ffffffffffffffffffffffffffffffffffffffff168152602001908152602001600020600081548092919061096f9061276d565b919050555060006009600084815260200190815260200160002060006101000a81548160ff0219169083151502179055506000610a39600860008473ffffffffffffffffffffffffffffffffffffffff1673ffffffffffffffffffffffffffffffffffffffff168152602001908152602001600020805480602002602001604051908101604052809291908181526020018280548015610a2e57602002820191906000526020600020905b815481526020019060010190808311610a1a575b505050505084611a9a565b905060008112610bb257600860008373ffffffffffffffffffffffffffffffffffffffff1673ffffffffffffffffffffffffffffffffffffffff1681526020019081526020016000206001600860008573ffffffffffffffffffffffffffffffffffffffff1673ffffffffffffffffffffffffffffffffffffffff16815260200190815260200160002080549050610ad19190612796565b81548110610ae257610ae16127ca565b5b9060005260206000200154600860008473ffffffffffffffffffffffffffffffffffffffff1673ffffffffffffffffffffffffffffffffffffffff1681526020019081526020016000208281548110610b3e57610b3d6127ca565b5b9060005260206000200181905550600860008373ffffffffffffffffffffffffffffffffffffffff1673ffffffffffffffffffffffffffffffffffffffff168152602001908152602001600020805480610b9b57610b9a6127f9565b5b600190038181906000526020600020016000905590555b6004600084815260200190815260200160002060006101000a81549073ffffffffffffffffffffffffffffffffffffffff0219169055600760008481526020019081526020016000206000610c079190611dc6565b82600073ffffffffffffffffffffffffffffffffffffffff168373ffffffffffffffffffffffffffffffffffffffff167fddf252ad1be2c89b69c2b068fc378daa952ba7f163c4a11628f55a4df523b3ef60405160405180910390a4505050565b600a6020528060005260406000206000915054906101000a900460ff1681565b60008073ffffffffffffffffffffffffffffffffffffffff166004600084815260200190815260200160002060009054906101000a900473ffffffffffffffffffffffffffffffffffffffff1673ffffffffffffffffffffffffffffffffffffffff1603610d2b576040517f08c379a0000000000000000000000000000000000000000000000000000000008152600401610d22906123e3565b60405180910390fd5b6004600083815260200190815260200160002060009054906101000a900473ffffffffffffffffffffffffffffffffffffffff169050919050565b60008073ffffffffffffffffffffffffffffffffffffffff168273ffffffffffffffffffffffffffffffffffffffff1603610dd6576040517f08c379a0000000000000000000000000000000000000000000000000000000008152600401610dcd9061289a565b60405180910390fd5b600360008373ffffffffffffffffffffffffffffffffffffffff1673ffffffffffffffffffffffffffffffffffffffff168152602001908152602001600020549050919050565b600b6020528060005260406000206000915054906101000a900460ff1681565b600260009054906101000a900473ffffffffffffffffffffffffffffffffffffffff1673ffffffffffffffffffffffffffffffffffffffff163373ffffffffffffffffffffffffffffffffffffffff1614610ecd576040517f08c379a0000000000000000000000000000000000000000000000000000000008152600401610ec49061292c565b60405180910390fd5b80600a60008473ffffffffffffffffffffffffffffffffffffffff1673ffffffffffffffffffffffffffffffffffffffff16815260200190815260200160002060006101000a81548160ff0219169083151502179055505050565b600260009054906101000a900473ffffffffffffffffffffffffffffffffffffffff1681565b60018054610f5b90612340565b80601f0160208091040260200160405190810160405280929190818152602001828054610f8790612340565b8015610fd45780601f10610fa957610100808354040283529160200191610fd4565b820191906000526020600020905b815481529060010190602001808311610fb757829003601f168201915b505050505081565b8173ffffffffffffffffffffffffffffffffffffffff163373ffffffffffffffffffffffffffffffffffffffff160361104a576040517f08c379a0000000000000000000000000000000000000000000000000000000008152600401611041906129be565b60405180910390fd5b80600660003373ffffffffffffffffffffffffffffffffffffffff1673ffffffffffffffffffffffffffffffffffffffff16815260200190815260200160002060008473ffffffffffffffffffffffffffffffffffffffff1673ffffffffffffffffffffffffffffffffffffffff16815260200190815260200160002060006101000a81548160ff0219169083151502179055508173ffffffffffffffffffffffffffffffffffffffff163373ffffffffffffffffffffffffffffffffffffffff167f17307eab39ab6107e8899845ad3d59bd9653f200f220920489ca2b5937696c318360405161113b9190611ecd565b60405180910390a35050565b60096020528060005260406000206000915054906101000a900460ff1681565b611172858585611466565b6111c285858585858080601f016020809104026020016040519081016040528093929190818152602001838380828437600081840152601f19601f82011690508083019250505050505050611b1e565b611201576040517f08c379a00000000000000000000000000000000000000000000000000000000081526004016111f890612a76565b60405180910390fd5b5050505050565b6060600073ffffffffffffffffffffffffffffffffffffffff166004600084815260200190815260200160002060009054906101000a900473ffffffffffffffffffffffffffffffffffffffff1673ffffffffffffffffffffffffffffffffffffffff16036112ac576040517f08c379a00000000000000000000000000000000000000000000000000000000081526004016112a390612b08565b60405180910390fd5b6112b4611c88565b600760008481526020019081526020016000206040516020016112d8929190612bf8565b6040516020818303038152906040529050919050565b6000600660008473ffffffffffffffffffffffffffffffffffffffff1673ffffffffffffffffffffffffffffffffffffffff16815260200190815260200160002060008373ffffffffffffffffffffffffffffffffffffffff1673ffffffffffffffffffffffffffffffffffffffff16815260200190815260200160002060009054906101000a900460ff16905092915050565b816005600083815260200190815260200160002060006101000a81548173ffffffffffffffffffffffffffffffffffffffff021916908373ffffffffffffffffffffffffffffffffffffffff160217905550808273ffffffffffffffffffffffffffffffffffffffff166004600084815260200190815260200160002060009054906101000a900473ffffffffffffffffffffffffffffffffffffffff1673ffffffffffffffffffffffffffffffffffffffff167f8c5be1e5ebec7d5bd14f71427d1e84f3dd0314c0f7b2291e5b200ac8c7c3b92560405160405180910390a45050565b600073ffffffffffffffffffffffffffffffffffffffff168373ffffffffffffffffffffffffffffffffffffffff16036114d5576040517f08c379a00000000000000000000000000000000000000000000000000000000081526004016114cc90612c8e565b60405180910390fd5b600073ffffffffffffffffffffffffffffffffffffffff168273ffffffffffffffffffffffffffffffffffffffff1603611544576040517f08c379a000000000000000000000000000000000000000000000000000000000815260040161153b90612d20565b60405180910390fd5b8273ffffffffffffffffffffffffffffffffffffffff166004600083815260200190815260200160002060009054906101000a900473ffffffffffffffffffffffffffffffffffffffff1673ffffffffffffffffffffffffffffffffffffffff16146115e5576040517f08c379a00000000000000000000000000000000000000000000000000000000081526004016115dc90612db2565b60405180910390fd5b6009600082815260200190815260200160002060009054906101000a900460ff16611645576040517f08c379a000000000000000000000000000000000000000000000000000000000815260040161163c90612e6a565b60405180910390fd5b61164f3382611cc5565b61168e576040517f08c379a000000000000000000000000000000000000000000000000000000000815260040161168590612f22565b60405180910390fd5b611699600082611382565b600360008473ffffffffffffffffffffffffffffffffffffffff1673ffffffffffffffffffffffffffffffffffffffff16815260200190815260200160002060008154809291906116e99061276d565b9190505550600360008373ffffffffffffffffffffffffffffffffffffffff1673ffffffffffffffffffffffffffffffffffffffff168152602001908152602001600020600081548092919061173e90612f42565b919050555060006117dc600860008673ffffffffffffffffffffffffffffffffffffffff1673ffffffffffffffffffffffffffffffffffffffff1681526020019081526020016000208054806020026020016040519081016040528092919081815260200182805480156117d157602002820191906000526020600020905b8154815260200190600101908083116117bd575b505050505083611a9a565b90506000811261195557600860008573ffffffffffffffffffffffffffffffffffffffff1673ffffffffffffffffffffffffffffffffffffffff1681526020019081526020016000206001600860008773ffffffffffffffffffffffffffffffffffffffff1673ffffffffffffffffffffffffffffffffffffffff168152602001908152602001600020805490506118749190612796565b81548110611885576118846127ca565b5b9060005260206000200154600860008673ffffffffffffffffffffffffffffffffffffffff1673ffffffffffffffffffffffffffffffffffffffff16815260200190815260200160002082815481106118e1576118e06127ca565b5b9060005260206000200181905550600860008573ffffffffffffffffffffffffffffffffffffffff1673ffffffffffffffffffffffffffffffffffffffff16815260200190815260200160002080548061193e5761193d6127f9565b5b600190038181906000526020600020016000905590555b600860008473ffffffffffffffffffffffffffffffffffffffff1673ffffffffffffffffffffffffffffffffffffffff168152602001908152602001600020829080600181540180825580915050600190039060005260206000200160009091909190915055826004600084815260200190815260200160002060006101000a81548173ffffffffffffffffffffffffffffffffffffffff021916908373ffffffffffffffffffffffffffffffffffffffff1602179055506000600b600084815260200190815260200160002060006101000a81548160ff021916908315150217905550818373ffffffffffffffffffffffffffffffffffffffff168573ffffffffffffffffffffffffffffffffffffffff167fddf252ad1be2c89b69c2b068fc378daa952ba7f163c4a11628f55a4df523b3ef60405160405180910390a450505050565b600080600090505b60018451611ab09190612796565b8111611af35782848281518110611aca57611ac96127ca565b5b602002602001015103611ae05780915050611b18565b8080611aeb90612f42565b915050611aa2565b507fffffffffffffffffffffffffffffffffffffffffffffffffffffffffffffffff90505b92915050565b6000611b2984611db3565b15611c7b578373ffffffffffffffffffffffffffffffffffffffff1663150b7a02338786866040518563ffffffff1660e01b8152600401611b6d9493929190612fce565b6020604051808303816000875af1925050508015611ba957506040513d601f19601f82011682018060405250810190611ba6919061302f565b60015b611c2b573d8060008114611bd9576040519150601f19603f3d011682016040523d82523d6000602084013e611bde565b606091505b506000815103611c23576040517f08c379a0000000000000000000000000000000000000000000000000000000008152600401611c1a90612a76565b60405180910390fd5b805181602001fd5b63150b7a0260e01b7bffffffffffffffffffffffffffffffffffffffffffffffffffffffff1916817bffffffffffffffffffffffffffffffffffffffffffffffffffffffff191614915050611c80565b600190505b949350505050565b60606040518060400160405280601581526020017f68747470733a2f2f697066732e696f2f697066732f0000000000000000000000815250905090565b60008273ffffffffffffffffffffffffffffffffffffffff166004600084815260200190815260200160002060009054906101000a900473ffffffffffffffffffffffffffffffffffffffff1673ffffffffffffffffffffffffffffffffffffffff161480611d6757508273ffffffffffffffffffffffffffffffffffffffff16611d4f836104ec565b73ffffffffffffffffffffffffffffffffffffffff16145b80611dab5750611daa6004600084815260200190815260200160002060009054906101000a900473ffffffffffffffffffffffffffffffffffffffff16846112ee565b5b905092915050565b600080823b905060008111915050919050565b508054611dd290612340565b6000825580601f10611de45750611e03565b601f016020900490600052602060002090810190611e029190611e06565b5b50565b5b80821115611e1f576000816000905550600101611e07565b5090565b600080fd5b600080fd5b60007fffffffff0000000000000000000000000000000000000000000000000000000082169050919050565b611e6281611e2d565b8114611e6d57600080fd5b50565b600081359050611e7f81611e59565b92915050565b600060208284031215611e9b57611e9a611e23565b5b6000611ea984828501611e70565b91505092915050565b60008115159050919050565b611ec781611eb2565b82525050565b6000602082019050611ee26000830184611ebe565b92915050565b600081519050919050565b600082825260208201905092915050565b60005b83811015611f22578082015181840152602081019050611f07565b83811115611f31576000848401525b50505050565b6000601f19601f8301169050919050565b6000611f5382611ee8565b611f5d8185611ef3565b9350611f6d818560208601611f04565b611f7681611f37565b840191505092915050565b60006020820190508181036000830152611f9b8184611f48565b905092915050565b6000819050919050565b611fb681611fa3565b8114611fc157600080fd5b50565b600081359050611fd381611fad565b92915050565b600060208284031215611fef57611fee611e23565b5b6000611ffd84828501611fc4565b91505092915050565b600073ffffffffffffffffffffffffffffffffffffffff82169050919050565b600061203182612006565b9050919050565b61204181612026565b82525050565b600060208201905061205c6000830184612038565b92915050565b61206b81612026565b811461207657600080fd5b50565b60008135905061208881612062565b92915050565b600080604083850312156120a5576120a4611e23565b5b60006120b385828601612079565b92505060206120c485828601611fc4565b9150509250929050565b6000806000606084860312156120e7576120e6611e23565b5b60006120f586828701612079565b935050602061210686828701612079565b925050604061211786828701611fc4565b9150509250925092565b60006020828403121561213757612136611e23565b5b600061214584828501612079565b91505092915050565b61215781611fa3565b82525050565b6000602082019050612172600083018461214e565b92915050565b61218181611eb2565b811461218c57600080fd5b50565b60008135905061219e81612178565b92915050565b600080604083850312156121bb576121ba611e23565b5b60006121c985828601612079565b92505060206121da8582860161218f565b9150509250929050565b600080fd5b600080fd5b600080fd5b60008083601f840112612209576122086121e4565b5b8235905067ffffffffffffffff811115612226576122256121e9565b5b602083019150836001820283011115612242576122416121ee565b5b9250929050565b60008060008060006080868803121561226557612264611e23565b5b600061227388828901612079565b955050602061228488828901612079565b945050604061229588828901611fc4565b935050606086013567ffffffffffffffff8111156122b6576122b5611e28565b5b6122c2888289016121f3565b92509250509295509295909350565b600080604083850312156122e8576122e7611e23565b5b60006122f685828601612079565b925050602061230785828601612079565b9150509250929050565b7f4e487b7100000000000000000000000000000000000000000000000000000000600052602260045260246000fd5b6000600282049050600182168061235857607f821691505b60208210810361236b5761236a612311565b5b50919050565b7f4552433732313a20546f6b656e207769746820656e746572656420494420646f60008201527f6573206e6f742065786973740000000000000000000000000000000000000000602082015250565b60006123cd602c83611ef3565b91506123d882612371565b604082019050919050565b600060208201905081810360008301526123fc816123c0565b9050919050565b7f4552433732313a206f776e65722063616e6e6f7420617070726f76652068696d60008201527f73656c662f68657273656c660000000000000000000000000000000000000000602082015250565b600061245f602c83611ef3565b915061246a82612403565b604082019050919050565b6000602082019050818103600083015261248e81612452565b9050919050565b7f4552433732313a2063616c6c6572206d757374206f776e2074686520746f6b6560008201527f6e206f7220626520617070726f76656420666f7220616c6c0000000000000000602082015250565b60006124f1603883611ef3565b91506124fc82612495565b604082019050919050565b60006020820190508181036000830152612520816124e4565b9050919050565b600082825260208201905092915050565b50565b6000612548600083612527565b915061255382612538565b600082019050919050565b60006080820190506125736000830186612038565b6125806020830185612038565b61258d604083018461214e565b818103606083015261259e8161253b565b9050949350505050565b7f4552433732313a206e6f20746f6b656e2077697468207468652073706563696660008201527f69656420494420776173206d696e746564206265666f72650000000000000000602082015250565b6000612604603883611ef3565b915061260f826125a8565b604082019050919050565b60006020820190508181036000830152612633816125f7565b9050919050565b7f4552433732313a206120746f6b656e207769746820746865207370656369666960008201527f6564204944206973206e6f74206f776e6564206279207468652073656e64657260208201527f2c206f72206973206e6f74207472616e7366657261626c65207965742c206f7260408201527f207468652063616c6c6572206d6179206e6f7420626520616e2061646d696e2060608201527f746f20626520616c6c6f77656420746f206275726e2069740000000000000000608082015250565b6000612708609883611ef3565b91506127138261263a565b60a082019050919050565b60006020820190508181036000830152612737816126fb565b9050919050565b7f4e487b7100000000000000000000000000000000000000000000000000000000600052601160045260246000fd5b600061277882611fa3565b91506000820361278b5761278a61273e565b5b600182039050919050565b60006127a182611fa3565b91506127ac83611fa3565b9250828210156127bf576127be61273e565b5b828203905092915050565b7f4e487b7100000000000000000000000000000000000000000000000000000000600052603260045260246000fd5b7f4e487b7100000000000000000000000000000000000000000000000000000000600052603160045260246000fd5b7f4552433732313a2061646472657373206f776e65722063616e6e6f742062652060008201527f746865207a65726f206164647265737300000000000000000000000000000000602082015250565b6000612884603083611ef3565b915061288f82612828565b604082019050919050565b600060208201905081810360008301526128b381612877565b9050919050565b7f4552433732313a204f6e6c79206f776e657220697320616c6c6f77656420746f60008201527f20646f20746869732066756e6374696f6e616c69747900000000000000000000602082015250565b6000612916603683611ef3565b9150612921826128ba565b604082019050919050565b6000602082019050818103600083015261294581612909565b9050919050565b7f4552433732313a2073656e6465722063616e6e6f742073657420617070726f7660008201527f616c20666f722068696d73656c662f68657273656c6600000000000000000000602082015250565b60006129a8603683611ef3565b91506129b38261294c565b604082019050919050565b600060208201905081810360008301526129d78161299b565b9050919050565b7f4552433732313a207472616e736665722063616e6e6f7420636f6d706c65746560008201527f20746f206120736d61727420636f6e7472616374206e6f7420696d706c656d6560208201527f6e74696e67204552433732315265636569766572000000000000000000000000604082015250565b6000612a60605483611ef3565b9150612a6b826129de565b606082019050919050565b60006020820190508181036000830152612a8f81612a53565b9050919050565b7f4552433732313a2063616e6e6f742067657420555249206f66206e6f6e65786960008201527f7374656e7420746f6b656e000000000000000000000000000000000000000000602082015250565b6000612af2602b83611ef3565b9150612afd82612a96565b604082019050919050565b60006020820190508181036000830152612b2181612ae5565b9050919050565b600081905092915050565b6000612b3e82611ee8565b612b488185612b28565b9350612b58818560208601611f04565b80840191505092915050565b60008190508160005260206000209050919050565b60008154612b8681612340565b612b908186612b28565b94506001821660008114612bab5760018114612bbc57612bef565b60ff19831686528186019350612bef565b612bc585612b64565b60005b83811015612be757815481890152600182019150602081019050612bc8565b838801955050505b50505092915050565b6000612c048285612b33565b9150612c108284612b79565b91508190509392505050565b7f4552433732313a2066726f6d206164647265737320656e74657265642063616e60008201527f6e6f7420626520746865207a65726f2061646472657373000000000000000000602082015250565b6000612c78603783611ef3565b9150612c8382612c1c565b604082019050919050565b60006020820190508181036000830152612ca781612c6b565b9050919050565b7f4552433732313a20746f206164647265737320656e74657265642063616e6e6f60008201527f7420626520746865207a65726f20616464726573730000000000000000000000602082015250565b6000612d0a603583611ef3565b9150612d1582612cae565b604082019050919050565b60006020820190508181036000830152612d3981612cfd565b9050919050565b7f4552433732313a20546f6b656e207769746820656e746572656420494420697360008201527f206e6f74206f776e6564206279207468652066726f6d20616464726573730000602082015250565b6000612d9c603e83611ef3565b9150612da782612d40565b604082019050919050565b60006020820190508181036000830152612dcb81612d8f565b9050919050565b7f4552433732313a20546f6b656e2063616e6e6f74206265207472616e7366657260008201527f656420796574206173207472616e73666572206f662073746f636b206f776e6560208201527f7273686970206973206e6f742079657420766572696669656400000000000000604082015250565b6000612e54605983611ef3565b9150612e5f82612dd2565b606082019050919050565b60006020820190508181036000830152612e8381612e47565b9050919050565b7f4552433732313a2053656e646572206973206e65697468657220746865206f7760008201527f6e6572206e6f7220617070726f76656420746f20646f2074686973207472616e60208201527f73616374696f6e00000000000000000000000000000000000000000000000000604082015250565b6000612f0c604783611ef3565b9150612f1782612e8a565b606082019050919050565b60006020820190508181036000830152612f3b81612eff565b9050919050565b6000612f4d82611fa3565b91507fffffffffffffffffffffffffffffffffffffffffffffffffffffffffffffffff8203612f7f57612f7e61273e565b5b600182019050919050565b600081519050919050565b6000612fa082612f8a565b612faa8185612527565b9350612fba818560208601611f04565b612fc381611f37565b840191505092915050565b6000608082019050612fe36000830187612038565b612ff06020830186612038565b612ffd604083018561214e565b818103606083015261300f8184612f95565b905095945050505050565b60008151905061302981611e59565b92915050565b60006020828403121561304557613044611e23565b5b60006130538482850161301a565b9150509291505056fea2646970667358221220fc2befe9e153c9228aed7cfca254fd6d7ee7eda145d11c3c88ebc9e9a993d1b964736f6c634300080d0033",
  "immutableReferences": {},
  "source": "// SPDX-License-Identifier: MIT\r\npragma solidity ^0.8.13;\r\n\r\nimport \"@openzeppelin/contracts/token/ERC721/IERC721.sol\";\r\nimport \"@openzeppelin/contracts/token/ERC721/IERC721Receiver.sol\";\r\nimport \"@openzeppelin/contracts/token/ERC721/extensions/IERC721Metadata.sol\";\r\n\r\ncontract ERC721 is IERC721, IERC721Metadata {\r\n  string public name;\r\n  string public symbol;\r\n  address public owner;\r\n\r\n  mapping(address => uint) private balances;\r\n  mapping(uint => address) private owners;\r\n  mapping(uint256 => address) private tokenApprovals;\r\n  mapping(address => mapping(address => bool)) private operatorApprovals;\r\n  mapping(uint256 => string) private tokenURIs;\r\n  mapping(address => uint[]) internal ownedTokens;\r\n\r\n  mapping(uint256 => bool) public isTransferable;\r\n  mapping(address => bool) public admins;\r\n  mapping(uint => bool) public isForSale;\r\n\r\n  constructor(string memory _name, string memory _symbol){\r\n      name = _name;\r\n      symbol = _symbol;\r\n      owner = msg.sender;\r\n      admins[owner] = true;\r\n  }\r\n  modifier onlyOwner() {\r\n      require(msg.sender == owner, \"ERC721: Only owner is allowed to do this functionality\");\r\n      _;\r\n  }\r\n  modifier onlyAdmin() {\r\n      require(admins[msg.sender], \"ERC721: Only admins are allowed to do this functionality\");\r\n      _;\r\n  }\r\n\r\n  //USE THIS\r\n  function balanceOf(address _owner) public view returns (uint) {\r\n      require(_owner != address(0), \"ERC721: address owner cannot be the zero address\");\r\n      return balances[_owner];\r\n  }\r\n\r\n  function ownerOf(uint tokenId) public view returns (address) {\r\n      require(owners[tokenId] != address(0), \"ERC721: Token with entered ID does not exist\");\r\n      return owners[tokenId];\r\n  }\r\n\r\n   function getApproved(uint tokenId) public view returns (address) {\r\n       require(owners[tokenId] != address(0), \"ERC721: Token with entered ID does not exist\");\r\n       return tokenApprovals[tokenId];\r\n   }\r\n\r\n   function isApprovedForAll(address _owner, address operator) public view returns (bool) {\r\n       return operatorApprovals[_owner][operator];\r\n   }\r\n\r\n   function safeTransferFrom(address from, address to, uint256 tokenId, bytes calldata data) public {\r\n        _transfer(from, to, tokenId);\r\n        require(checkSafeCondition(from, to, tokenId, data), \"ERC721: transfer cannot complete to a smart contract not implementing ERC721Receiver\");\r\n   }\r\n\r\n   //USE THIS\r\n   function safeTransferFrom(address from, address to, uint256 tokenId) public {\r\n        this.safeTransferFrom(from, to, tokenId, \"\");\r\n   }\r\n\r\n   function transferFrom(address from, address to, uint256 tokenId) public {\r\n        _transfer(from, to, tokenId);\r\n   }\r\n\r\n   function _transfer(address from, address to, uint256 tokenId) internal {\r\n        require(from != address(0), \"ERC721: from address entered cannot be the zero address\");\r\n        require(to != address(0), \"ERC721: to address entered cannot be the zero address\");\r\n        require(owners[tokenId] == from, \"ERC721: Token with entered ID is not owned by the from address\");\r\n        require(isTransferable[tokenId], \"ERC721: Token cannot be transfered yet as transfer of stock ownership is not yet verified\");\r\n        require(isApprovedOrIsOwner(msg.sender, tokenId), \"ERC721: Sender is neither the owner nor approved to do this transaction\");\r\n\r\n        //reset approve for the token with a new owner\r\n        _approve(address(0), tokenId);\r\n        balances[from]--;\r\n        balances[to]++;\r\n\r\n        //Remove from old array and input into new array\r\n        int index = getIndex(ownedTokens[from], tokenId);\r\n        if(index >= 0){\r\n          ownedTokens[from][uint(index)] = ownedTokens[from][ownedTokens[from].length - 1];\r\n          ownedTokens[from].pop();\r\n        }\r\n        ownedTokens[to].push(tokenId);\r\n\r\n        owners[tokenId] = to;\r\n\r\n        //reset forSale\r\n        isForSale[tokenId] = false;\r\n\r\n        emit Transfer(from, to, tokenId);\r\n   }\r\n\r\n   //USE THIS\r\n   function addOrRemoveAdmin(address admin, bool add) public onlyOwner {\r\n        admins[admin] = add;\r\n   }\r\n\r\n   function approve(address to, uint256 tokenId) public {\r\n       address _owner = owners[tokenId];\r\n       require(to != _owner, \"ERC721: owner cannot approve himself/herself\");\r\n       require(msg.sender == _owner || isApprovedForAll(_owner, msg.sender), \"ERC721: caller must own the token or be approved for all\");\r\n       _approve(to, tokenId);\r\n   }\r\n\r\n   function _approve(address to, uint256 tokenId) internal {\r\n       tokenApprovals[tokenId] = to;\r\n       emit Approval(owners[tokenId], to, tokenId);\r\n   }\r\n\r\n   function setApprovalForAll(address operator, bool approved) public {\r\n       require(msg.sender != operator, \"ERC721: sender cannot set approval for himself/herself\");\r\n       operatorApprovals[msg.sender][operator] = approved;\r\n       emit ApprovalForAll(msg.sender, operator, approved);\r\n   }\r\n\r\n    function isApprovedOrIsOwner(address caller, uint tokenId) internal view returns (bool){\r\n        return (owners[tokenId] == caller) || getApproved(tokenId) == caller || isApprovedForAll(owners[tokenId], caller);\r\n    }\r\n\r\n    function safeMint(address to, uint256 tokenId) internal {\r\n        safeMint(to, tokenId, \"\");\r\n    }\r\n\r\n    function safeMint(address to, uint256 tokenId, bytes memory data) internal {\r\n        require(to != address(0), \"ERC721: to address entered cannot be the zero address\");\r\n        require(owners[tokenId] == address(0), \"ERC721: a token with the specified ID is already minted\");\r\n\r\n        balances[to]++;\r\n        owners[tokenId] = to;\r\n        ownedTokens[to].push(tokenId);\r\n\r\n        emit Transfer(address(0), to, tokenId);\r\n        require(\r\n            checkSafeCondition(address(0), to, tokenId, data),\r\n            \"ERC721: transfer cannot complete to a smart contract not implementing ERC721Receiver\"\r\n        );\r\n    }\r\n\r\n    function burn(uint256 tokenId) public {\r\n        address _owner = owners[tokenId];\r\n        require(_owner != address(0), \"ERC721: no token with the specified ID was minted before\");\r\n        require((_owner == msg.sender && isTransferable[tokenId]) || admins[msg.sender], \"ERC721: a token with the specified ID is not owned by the sender, or is not transferable yet, or the caller may not be an admin to be allowed to burn it\");\r\n\r\n\r\n        _approve(address(0), tokenId);\r\n        balances[_owner]--;\r\n        isTransferable[tokenId] = false;\r\n\r\n        int index = getIndex(ownedTokens[_owner], tokenId);\r\n        if(index >= 0){\r\n          ownedTokens[_owner][uint(index)] = ownedTokens[_owner][ownedTokens[_owner].length - 1];\r\n          ownedTokens[_owner].pop();\r\n        }\r\n        delete owners[tokenId];\r\n        delete tokenURIs[tokenId];\r\n\r\n        emit Transfer(_owner, address(0), tokenId);\r\n    }\r\n\r\n    //METADATA\r\n    function setTokenURI(uint256 tokenId, string memory _tokenURI) internal {\r\n        require(owners[tokenId] != address(0), \"ERC721: cannot set URI of a nonexistent token\");\r\n        tokenURIs[tokenId] = _tokenURI;\r\n    }\r\n\r\n    function tokenURI(uint tokenId) public view returns(string memory) {\r\n        require(owners[tokenId] != address(0), \"ERC721: cannot get URI of nonexistent token\");\r\n\r\n        return string(abi.encodePacked(baseURI(), tokenURIs[tokenId]));\r\n    }\r\n\r\n    function baseURI() internal pure returns(string memory) {\r\n      return \"https://ipfs.io/ipfs/\";\r\n    }\r\n\r\n\r\n    function checkSafeCondition(address from, address to, uint256 tokenId, bytes memory data) internal returns (bool){\r\n        if(isContract(to)){\r\n            try IERC721Receiver(to).onERC721Received(msg.sender, from, tokenId, data) returns (bytes4 retval) {\r\n                return (retval == IERC721Receiver.onERC721Received.selector);\r\n            } catch (bytes memory reason) {\r\n                if (reason.length == 0) {\r\n                    revert(\"ERC721: transfer cannot complete to a smart contract not implementing ERC721Receiver\");\r\n                } else {\r\n                    assembly {\r\n                        revert(add(32, reason), mload(reason))\r\n                    }\r\n                }\r\n            }\r\n        } else {\r\n            return true;\r\n        }\r\n    }\r\n\r\n    function isContract(address addr) internal view returns (bool) {\r\n        uint size;\r\n        assembly { size := extcodesize(addr) }\r\n        return size > 0;\r\n    }\r\n\r\n    function supportsInterface(bytes4 interfaceId) external pure returns (bool) {\r\n        return interfaceId == type(IERC721).interfaceId;\r\n    }\r\n\r\n    function getIndex(uint[] memory array, uint tokenId) internal pure returns (int)  {\r\n          for (uint i = 0; i<=array.length-1; i++) {\r\n            if(array[i] == tokenId){\r\n              return int(i);\r\n            }\r\n          }\r\n          return -1;\r\n    }\r\n}\r\n",
  "sourcePath": "D:\\S8\\Neros\\contracts\\ERC721.sol",
  "compiler": {
    "name": "solc",
    "version": "0.8.13+commit.abaa5c0e.Emscripten.clang"
  },
  "schemaVersion": "3.4.6",
  "updatedAt": "2022-05-17T13:23:26.248Z",
  "devdoc": {
    "kind": "dev",
    "methods": {
      "approve(address,uint256)": {
        "details": "Gives permission to `to` to transfer `tokenId` token to another account. The approval is cleared when the token is transferred. Only a single account can be approved at a time, so approving the zero address clears previous approvals. Requirements: - The caller must own the token or be an approved operator. - `tokenId` must exist. Emits an {Approval} event."
      },
      "getApproved(uint256)": {
        "details": "Returns the account approved for `tokenId` token. Requirements: - `tokenId` must exist."
      },
      "ownerOf(uint256)": {
        "details": "Returns the owner of the `tokenId` token. Requirements: - `tokenId` must exist."
      },
      "safeTransferFrom(address,address,uint256)": {
        "details": "Safely transfers `tokenId` token from `from` to `to`, checking first that contract recipients are aware of the ERC721 protocol to prevent tokens from being forever locked. Requirements: - `from` cannot be the zero address. - `to` cannot be the zero address. - `tokenId` token must exist and be owned by `from`. - If the caller is not `from`, it must be have been allowed to move this token by either {approve} or {setApprovalForAll}. - If `to` refers to a smart contract, it must implement {IERC721Receiver-onERC721Received}, which is called upon a safe transfer. Emits a {Transfer} event."
      },
      "safeTransferFrom(address,address,uint256,bytes)": {
        "details": "Safely transfers `tokenId` token from `from` to `to`. Requirements: - `from` cannot be the zero address. - `to` cannot be the zero address. - `tokenId` token must exist and be owned by `from`. - If the caller is not `from`, it must be approved to move this token by either {approve} or {setApprovalForAll}. - If `to` refers to a smart contract, it must implement {IERC721Receiver-onERC721Received}, which is called upon a safe transfer. Emits a {Transfer} event."
      },
      "supportsInterface(bytes4)": {
        "details": "Returns true if this contract implements the interface defined by `interfaceId`. See the corresponding https://eips.ethereum.org/EIPS/eip-165#how-interfaces-are-identified[EIP section] to learn more about how these ids are created. This function call must use less than 30 000 gas."
      },
      "tokenURI(uint256)": {
        "details": "Returns the Uniform Resource Identifier (URI) for `tokenId` token."
      },
      "transferFrom(address,address,uint256)": {
        "details": "Transfers `tokenId` token from `from` to `to`. WARNING: Usage of this method is discouraged, use {safeTransferFrom} whenever possible. Requirements: - `from` cannot be the zero address. - `to` cannot be the zero address. - `tokenId` token must be owned by `from`. - If the caller is not `from`, it must be approved to move this token by either {approve} or {setApprovalForAll}. Emits a {Transfer} event."
      }
    },
    "stateVariables": {
      "name": {
        "details": "Returns the token collection name."
      },
      "symbol": {
        "details": "Returns the token collection symbol."
      }
    },
    "version": 1
  },
  "userdoc": {
    "kind": "user",
    "methods": {},
    "version": 1
  }
}