{
  "contractName": "ERC721",
  "abi": [
    {
      "inputs": [
        {
          "internalType": "string",
          "name": "_name",
          "type": "string"
        },
        {
          "internalType": "string",
          "name": "_symbol",
          "type": "string"
        }
      ],
      "stateMutability": "nonpayable",
      "type": "constructor"
    },
    {
      "anonymous": false,
      "inputs": [
        {
          "indexed": true,
          "internalType": "address",
          "name": "owner",
          "type": "address"
        },
        {
          "indexed": true,
          "internalType": "address",
          "name": "approved",
          "type": "address"
        },
        {
          "indexed": true,
          "internalType": "uint256",
          "name": "tokenId",
          "type": "uint256"
        }
      ],
      "name": "Approval",
      "type": "event"
    },
    {
      "anonymous": false,
      "inputs": [
        {
          "indexed": true,
          "internalType": "address",
          "name": "owner",
          "type": "address"
        },
        {
          "indexed": true,
          "internalType": "address",
          "name": "operator",
          "type": "address"
        },
        {
          "indexed": false,
          "internalType": "bool",
          "name": "approved",
          "type": "bool"
        }
      ],
      "name": "ApprovalForAll",
      "type": "event"
    },
    {
      "anonymous": false,
      "inputs": [
        {
          "indexed": true,
          "internalType": "address",
          "name": "from",
          "type": "address"
        },
        {
          "indexed": true,
          "internalType": "address",
          "name": "to",
          "type": "address"
        },
        {
          "indexed": true,
          "internalType": "uint256",
          "name": "tokenId",
          "type": "uint256"
        }
      ],
      "name": "Transfer",
      "type": "event"
    },
    {
      "inputs": [
        {
          "internalType": "address",
          "name": "",
          "type": "address"
        }
      ],
      "name": "admins",
      "outputs": [
        {
          "internalType": "bool",
          "name": "",
          "type": "bool"
        }
      ],
      "stateMutability": "view",
      "type": "function"
    },
    {
      "inputs": [
        {
          "internalType": "uint256",
          "name": "",
          "type": "uint256"
        }
      ],
      "name": "isForSale",
      "outputs": [
        {
          "internalType": "bool",
          "name": "",
          "type": "bool"
        }
      ],
      "stateMutability": "view",
      "type": "function"
    },
    {
      "inputs": [
        {
          "internalType": "uint256",
          "name": "",
          "type": "uint256"
        }
      ],
      "name": "isTransferable",
      "outputs": [
        {
          "internalType": "bool",
          "name": "",
          "type": "bool"
        }
      ],
      "stateMutability": "view",
      "type": "function"
    },
    {
      "inputs": [],
      "name": "name",
      "outputs": [
        {
          "internalType": "string",
          "name": "",
          "type": "string"
        }
      ],
      "stateMutability": "view",
      "type": "function"
    },
    {
      "inputs": [],
      "name": "owner",
      "outputs": [
        {
          "internalType": "address",
          "name": "",
          "type": "address"
        }
      ],
      "stateMutability": "view",
      "type": "function"
    },
    {
      "inputs": [],
      "name": "symbol",
      "outputs": [
        {
          "internalType": "string",
          "name": "",
          "type": "string"
        }
      ],
      "stateMutability": "view",
      "type": "function"
    },
    {
      "inputs": [
        {
          "internalType": "address",
          "name": "_owner",
          "type": "address"
        }
      ],
      "name": "balanceOf",
      "outputs": [
        {
          "internalType": "uint256",
          "name": "",
          "type": "uint256"
        }
      ],
      "stateMutability": "view",
      "type": "function"
    },
    {
      "inputs": [
        {
          "internalType": "uint256",
          "name": "tokenId",
          "type": "uint256"
        }
      ],
      "name": "ownerOf",
      "outputs": [
        {
          "internalType": "address",
          "name": "",
          "type": "address"
        }
      ],
      "stateMutability": "view",
      "type": "function"
    },
    {
      "inputs": [
        {
          "internalType": "uint256",
          "name": "tokenId",
          "type": "uint256"
        }
      ],
      "name": "getApproved",
      "outputs": [
        {
          "internalType": "address",
          "name": "",
          "type": "address"
        }
      ],
      "stateMutability": "view",
      "type": "function"
    },
    {
      "inputs": [
        {
          "internalType": "address",
          "name": "_owner",
          "type": "address"
        },
        {
          "internalType": "address",
          "name": "operator",
          "type": "address"
        }
      ],
      "name": "isApprovedForAll",
      "outputs": [
        {
          "internalType": "bool",
          "name": "",
          "type": "bool"
        }
      ],
      "stateMutability": "view",
      "type": "function"
    },
    {
      "inputs": [
        {
          "internalType": "address",
          "name": "from",
          "type": "address"
        },
        {
          "internalType": "address",
          "name": "to",
          "type": "address"
        },
        {
          "internalType": "uint256",
          "name": "tokenId",
          "type": "uint256"
        }
      ],
      "name": "safeTransferFrom",
      "outputs": [],
      "stateMutability": "nonpayable",
      "type": "function"
    },
    {
      "inputs": [
        {
          "internalType": "address",
          "name": "from",
          "type": "address"
        },
        {
          "internalType": "address",
          "name": "to",
          "type": "address"
        },
        {
          "internalType": "uint256",
          "name": "tokenId",
          "type": "uint256"
        },
        {
          "internalType": "bytes",
          "name": "data",
          "type": "bytes"
        }
      ],
      "name": "safeTransferFrom",
      "outputs": [],
      "stateMutability": "nonpayable",
      "type": "function"
    },
    {
      "inputs": [
        {
          "internalType": "address",
          "name": "from",
          "type": "address"
        },
        {
          "internalType": "address",
          "name": "to",
          "type": "address"
        },
        {
          "internalType": "uint256",
          "name": "tokenId",
          "type": "uint256"
        }
      ],
      "name": "transferFrom",
      "outputs": [],
      "stateMutability": "nonpayable",
      "type": "function"
    },
    {
      "inputs": [
        {
          "internalType": "address",
          "name": "admin",
          "type": "address"
        },
        {
          "internalType": "bool",
          "name": "add",
          "type": "bool"
        }
      ],
      "name": "addOrRemoveAdmin",
      "outputs": [],
      "stateMutability": "nonpayable",
      "type": "function"
    },
    {
      "inputs": [
        {
          "internalType": "address",
          "name": "to",
          "type": "address"
        },
        {
          "internalType": "uint256",
          "name": "tokenId",
          "type": "uint256"
        }
      ],
      "name": "approve",
      "outputs": [],
      "stateMutability": "nonpayable",
      "type": "function"
    },
    {
      "inputs": [
        {
          "internalType": "address",
          "name": "operator",
          "type": "address"
        },
        {
          "internalType": "bool",
          "name": "approved",
          "type": "bool"
        }
      ],
      "name": "setApprovalForAll",
      "outputs": [],
      "stateMutability": "nonpayable",
      "type": "function"
    },
    {
      "inputs": [
        {
          "internalType": "uint256",
          "name": "tokenId",
          "type": "uint256"
        }
      ],
      "name": "burn",
      "outputs": [],
      "stateMutability": "nonpayable",
      "type": "function"
    },
    {
      "inputs": [
        {
          "internalType": "uint256",
          "name": "tokenId",
          "type": "uint256"
        }
      ],
      "name": "tokenURI",
      "outputs": [
        {
          "internalType": "string",
          "name": "",
          "type": "string"
        }
      ],
      "stateMutability": "view",
      "type": "function"
    },
    {
      "inputs": [
        {
          "internalType": "bytes4",
          "name": "interfaceId",
          "type": "bytes4"
        }
      ],
      "name": "supportsInterface",
      "outputs": [
        {
          "internalType": "bool",
          "name": "",
          "type": "bool"
        }
      ],
      "stateMutability": "pure",
      "type": "function"
    }
  ],
  "bytecode": "0x60806040523480156200001157600080fd5b506040516200352538038062003525833981810160405281019062000037919062000379565b81600090805190602001906200004f9291906200012c565b508060019080519060200190620000689291906200012c565b5033600260006101000a81548173ffffffffffffffffffffffffffffffffffffffff021916908373ffffffffffffffffffffffffffffffffffffffff1602179055506001600a6000600260009054906101000a900473ffffffffffffffffffffffffffffffffffffffff1673ffffffffffffffffffffffffffffffffffffffff1673ffffffffffffffffffffffffffffffffffffffff16815260200190815260200160002060006101000a81548160ff021916908315150217905550505062000462565b8280546200013a906200042d565b90600052602060002090601f0160209004810192826200015e5760008555620001aa565b82601f106200017957805160ff1916838001178555620001aa565b82800160010185558215620001aa579182015b82811115620001a95782518255916020019190600101906200018c565b5b509050620001b99190620001bd565b5090565b5b80821115620001d8576000816000905550600101620001be565b5090565b6000604051905090565b600080fd5b600080fd5b600080fd5b600080fd5b6000601f19601f8301169050919050565b7f4e487b7100000000000000000000000000000000000000000000000000000000600052604160045260246000fd5b6200024582620001fa565b810181811067ffffffffffffffff821117156200026757620002666200020b565b5b80604052505050565b60006200027c620001dc565b90506200028a82826200023a565b919050565b600067ffffffffffffffff821115620002ad57620002ac6200020b565b5b620002b882620001fa565b9050602081019050919050565b60005b83811015620002e5578082015181840152602081019050620002c8565b83811115620002f5576000848401525b50505050565b6000620003126200030c846200028f565b62000270565b905082815260208101848484011115620003315762000330620001f5565b5b6200033e848285620002c5565b509392505050565b600082601f8301126200035e576200035d620001f0565b5b815162000370848260208601620002fb565b91505092915050565b60008060408385031215620003935762000392620001e6565b5b600083015167ffffffffffffffff811115620003b457620003b3620001eb565b5b620003c28582860162000346565b925050602083015167ffffffffffffffff811115620003e657620003e5620001eb565b5b620003f48582860162000346565b9150509250929050565b7f4e487b7100000000000000000000000000000000000000000000000000000000600052602260045260246000fd5b600060028204905060018216806200044657607f821691505b6020821081036200045c576200045b620003fe565b5b50919050565b6130b380620004726000396000f3fe608060405234801561001057600080fd5b50600436106101215760003560e01c806370a08231116100ad578063a22cb46511610071578063a22cb4651461032c578063b256456914610348578063b88d4fde14610378578063c87b56dd14610394578063e985e9c5146103c457610121565b806370a08231146102745780638546d002146102a457806389fa2c03146102d45780638da5cb5b146102f057806395d89b411461030e57610121565b806323b872dd116100f457806323b872dd146101c057806342842e0e146101dc57806342966c68146101f8578063429b62e5146102145780636352211e1461024457610121565b806301ffc9a71461012657806306fdde0314610156578063081812fc14610174578063095ea7b3146101a4575b600080fd5b610140600480360381019061013b9190611ea6565b6103f4565b60405161014d9190611eee565b60405180910390f35b61015e61045e565b60405161016b9190611fa2565b60405180910390f35b61018e60048036038101906101899190611ffa565b6104ec565b60405161019b9190612068565b60405180910390f35b6101be60048036038101906101b991906120af565b6105ca565b005b6101da60048036038101906101d591906120ef565b6106fe565b005b6101f660048036038101906101f191906120ef565b61070e565b005b610212600480360381019061020d9190611ffa565b610782565b005b61022e60048036038101906102299190612142565b610c68565b60405161023b9190611eee565b60405180910390f35b61025e60048036038101906102599190611ffa565b610c88565b60405161026b9190612068565b60405180910390f35b61028e60048036038101906102899190612142565b610d66565b60405161029b919061217e565b60405180910390f35b6102be60048036038101906102b99190611ffa565b610e1d565b6040516102cb9190611eee565b60405180910390f35b6102ee60048036038101906102e991906121c5565b610e3d565b005b6102f8610f28565b6040516103059190612068565b60405180910390f35b610316610f4e565b6040516103239190611fa2565b60405180910390f35b610346600480360381019061034191906121c5565b610fdc565b005b610362600480360381019061035d9190611ffa565b611147565b60405161036f9190611eee565b60405180910390f35b610392600480360381019061038d919061226a565b611167565b005b6103ae60048036038101906103a99190611ffa565b611208565b6040516103bb9190611fa2565b60405180910390f35b6103de60048036038101906103d991906122f2565b6112ee565b6040516103eb9190611eee565b60405180910390f35b60007f80ac58cd000000000000000000000000000000000000000000000000000000007bffffffffffffffffffffffffffffffffffffffffffffffffffffffff1916827bffffffffffffffffffffffffffffffffffffffffffffffffffffffff1916149050919050565b6000805461046b90612361565b80601f016020809104026020016040519081016040528092919081815260200182805461049790612361565b80156104e45780601f106104b9576101008083540402835291602001916104e4565b820191906000526020600020905b8154815290600101906020018083116104c757829003601f168201915b505050505081565b60008073ffffffffffffffffffffffffffffffffffffffff166004600084815260200190815260200160002060009054906101000a900473ffffffffffffffffffffffffffffffffffffffff1673ffffffffffffffffffffffffffffffffffffffff160361058f576040517f08c379a000000000000000000000000000000000000000000000000000000000815260040161058690612404565b60405180910390fd5b6005600083815260200190815260200160002060009054906101000a900473ffffffffffffffffffffffffffffffffffffffff169050919050565b60006004600083815260200190815260200160002060009054906101000a900473ffffffffffffffffffffffffffffffffffffffff1690508073ffffffffffffffffffffffffffffffffffffffff168373ffffffffffffffffffffffffffffffffffffffff1603610670576040517f08c379a000000000000000000000000000000000000000000000000000000000815260040161066790612496565b60405180910390fd5b8073ffffffffffffffffffffffffffffffffffffffff163373ffffffffffffffffffffffffffffffffffffffff1614806106b057506106af81336112ee565b5b6106ef576040517f08c379a00000000000000000000000000000000000000000000000000000000081526004016106e690612528565b60405180910390fd5b6106f98383611382565b505050565b610709838383611466565b505050565b3073ffffffffffffffffffffffffffffffffffffffff1663b88d4fde8484846040518463ffffffff1660e01b815260040161074b9392919061257f565b600060405180830381600087803b15801561076557600080fd5b505af1158015610779573d6000803e3d6000fd5b50505050505050565b60006004600083815260200190815260200160002060009054906101000a900473ffffffffffffffffffffffffffffffffffffffff169050600073ffffffffffffffffffffffffffffffffffffffff168173ffffffffffffffffffffffffffffffffffffffff1603610829576040517f08c379a00000000000000000000000000000000000000000000000000000000081526004016108209061263b565b60405180910390fd5b3373ffffffffffffffffffffffffffffffffffffffff168173ffffffffffffffffffffffffffffffffffffffff1614801561088157506009600083815260200190815260200160002060009054906101000a900460ff165b806108d55750600a60003373ffffffffffffffffffffffffffffffffffffffff1673ffffffffffffffffffffffffffffffffffffffff16815260200190815260200160002060009054906101000a900460ff165b610914576040517f08c379a000000000000000000000000000000000000000000000000000000000815260040161090b9061273f565b60405180910390fd5b61091f600083611382565b600360008273ffffffffffffffffffffffffffffffffffffffff1673ffffffffffffffffffffffffffffffffffffffff168152602001908152602001600020600081548092919061096f9061278e565b919050555060006009600084815260200190815260200160002060006101000a81548160ff0219169083151502179055506000610a39600860008473ffffffffffffffffffffffffffffffffffffffff1673ffffffffffffffffffffffffffffffffffffffff168152602001908152602001600020805480602002602001604051908101604052809291908181526020018280548015610a2e57602002820191906000526020600020905b815481526020019060010190808311610a1a575b5050505050846114d0565b905060008112610bb257600860008373ffffffffffffffffffffffffffffffffffffffff1673ffffffffffffffffffffffffffffffffffffffff1681526020019081526020016000206001600860008573ffffffffffffffffffffffffffffffffffffffff1673ffffffffffffffffffffffffffffffffffffffff16815260200190815260200160002080549050610ad191906127b7565b81548110610ae257610ae16127eb565b5b9060005260206000200154600860008473ffffffffffffffffffffffffffffffffffffffff1673ffffffffffffffffffffffffffffffffffffffff1681526020019081526020016000208281548110610b3e57610b3d6127eb565b5b9060005260206000200181905550600860008373ffffffffffffffffffffffffffffffffffffffff1673ffffffffffffffffffffffffffffffffffffffff168152602001908152602001600020805480610b9b57610b9a61281a565b5b600190038181906000526020600020016000905590555b6004600084815260200190815260200160002060006101000a81549073ffffffffffffffffffffffffffffffffffffffff0219169055600760008481526020019081526020016000206000610c079190611de7565b82600073ffffffffffffffffffffffffffffffffffffffff168373ffffffffffffffffffffffffffffffffffffffff167fddf252ad1be2c89b69c2b068fc378daa952ba7f163c4a11628f55a4df523b3ef60405160405180910390a4505050565b600a6020528060005260406000206000915054906101000a900460ff1681565b60008073ffffffffffffffffffffffffffffffffffffffff166004600084815260200190815260200160002060009054906101000a900473ffffffffffffffffffffffffffffffffffffffff1673ffffffffffffffffffffffffffffffffffffffff1603610d2b576040517f08c379a0000000000000000000000000000000000000000000000000000000008152600401610d2290612404565b60405180910390fd5b6004600083815260200190815260200160002060009054906101000a900473ffffffffffffffffffffffffffffffffffffffff169050919050565b60008073ffffffffffffffffffffffffffffffffffffffff168273ffffffffffffffffffffffffffffffffffffffff1603610dd6576040517f08c379a0000000000000000000000000000000000000000000000000000000008152600401610dcd906128bb565b60405180910390fd5b600360008373ffffffffffffffffffffffffffffffffffffffff1673ffffffffffffffffffffffffffffffffffffffff168152602001908152602001600020549050919050565b600b6020528060005260406000206000915054906101000a900460ff1681565b600260009054906101000a900473ffffffffffffffffffffffffffffffffffffffff1673ffffffffffffffffffffffffffffffffffffffff163373ffffffffffffffffffffffffffffffffffffffff1614610ecd576040517f08c379a0000000000000000000000000000000000000000000000000000000008152600401610ec49061294d565b60405180910390fd5b80600a60008473ffffffffffffffffffffffffffffffffffffffff1673ffffffffffffffffffffffffffffffffffffffff16815260200190815260200160002060006101000a81548160ff0219169083151502179055505050565b600260009054906101000a900473ffffffffffffffffffffffffffffffffffffffff1681565b60018054610f5b90612361565b80601f0160208091040260200160405190810160405280929190818152602001828054610f8790612361565b8015610fd45780601f10610fa957610100808354040283529160200191610fd4565b820191906000526020600020905b815481529060010190602001808311610fb757829003601f168201915b505050505081565b8173ffffffffffffffffffffffffffffffffffffffff163373ffffffffffffffffffffffffffffffffffffffff160361104a576040517f08c379a0000000000000000000000000000000000000000000000000000000008152600401611041906129df565b60405180910390fd5b80600660003373ffffffffffffffffffffffffffffffffffffffff1673ffffffffffffffffffffffffffffffffffffffff16815260200190815260200160002060008473ffffffffffffffffffffffffffffffffffffffff1673ffffffffffffffffffffffffffffffffffffffff16815260200190815260200160002060006101000a81548160ff0219169083151502179055508173ffffffffffffffffffffffffffffffffffffffff163373ffffffffffffffffffffffffffffffffffffffff167f17307eab39ab6107e8899845ad3d59bd9653f200f220920489ca2b5937696c318360405161113b9190611eee565b60405180910390a35050565b60096020528060005260406000206000915054906101000a900460ff1681565b611172858585611466565b6111c285858585858080601f016020809104026020016040519081016040528093929190818152602001838380828437600081840152601f19601f82011690508083019250505050505050611554565b611201576040517f08c379a00000000000000000000000000000000000000000000000000000000081526004016111f890612a97565b60405180910390fd5b5050505050565b6060600073ffffffffffffffffffffffffffffffffffffffff166004600084815260200190815260200160002060009054906101000a900473ffffffffffffffffffffffffffffffffffffffff1673ffffffffffffffffffffffffffffffffffffffff16036112ac576040517f08c379a00000000000000000000000000000000000000000000000000000000081526004016112a390612b29565b60405180910390fd5b6112b46116be565b600760008481526020019081526020016000206040516020016112d8929190612c19565b6040516020818303038152906040529050919050565b6000600660008473ffffffffffffffffffffffffffffffffffffffff1673ffffffffffffffffffffffffffffffffffffffff16815260200190815260200160002060008373ffffffffffffffffffffffffffffffffffffffff1673ffffffffffffffffffffffffffffffffffffffff16815260200190815260200160002060009054906101000a900460ff16905092915050565b816005600083815260200190815260200160002060006101000a81548173ffffffffffffffffffffffffffffffffffffffff021916908373ffffffffffffffffffffffffffffffffffffffff160217905550808273ffffffffffffffffffffffffffffffffffffffff166004600084815260200190815260200160002060009054906101000a900473ffffffffffffffffffffffffffffffffffffffff1673ffffffffffffffffffffffffffffffffffffffff167f8c5be1e5ebec7d5bd14f71427d1e84f3dd0314c0f7b2291e5b200ac8c7c3b92560405160405180910390a45050565b61147032826116fb565b80611481575061148033826116fb565b5b6114c0576040517f08c379a00000000000000000000000000000000000000000000000000000000081526004016114b790612cd5565b60405180910390fd5b6114cb8383836117e9565b505050565b600080600090505b600184516114e691906127b7565b81116115295782848281518110611500576114ff6127eb565b5b602002602001015103611516578091505061154e565b808061152190612cf5565b9150506114d8565b507fffffffffffffffffffffffffffffffffffffffffffffffffffffffffffffffff90505b92915050565b600061155f84611dd4565b156116b1578373ffffffffffffffffffffffffffffffffffffffff1663150b7a02338786866040518563ffffffff1660e01b81526004016115a39493929190612d81565b6020604051808303816000875af19250505080156115df57506040513d601f19601f820116820180604052508101906115dc9190612de2565b60015b611661573d806000811461160f576040519150601f19603f3d011682016040523d82523d6000602084013e611614565b606091505b506000815103611659576040517f08c379a000000000000000000000000000000000000000000000000000000000815260040161165090612a97565b60405180910390fd5b805181602001fd5b63150b7a0260e01b7bffffffffffffffffffffffffffffffffffffffffffffffffffffffff1916817bffffffffffffffffffffffffffffffffffffffffffffffffffffffff1916149150506116b6565b600190505b949350505050565b60606040518060400160405280601581526020017f68747470733a2f2f697066732e696f2f697066732f0000000000000000000000815250905090565b60008273ffffffffffffffffffffffffffffffffffffffff166004600084815260200190815260200160002060009054906101000a900473ffffffffffffffffffffffffffffffffffffffff1673ffffffffffffffffffffffffffffffffffffffff16148061179d57508273ffffffffffffffffffffffffffffffffffffffff16611785836104ec565b73ffffffffffffffffffffffffffffffffffffffff16145b806117e157506117e06004600084815260200190815260200160002060009054906101000a900473ffffffffffffffffffffffffffffffffffffffff16846112ee565b5b905092915050565b600073ffffffffffffffffffffffffffffffffffffffff168373ffffffffffffffffffffffffffffffffffffffff1603611858576040517f08c379a000000000000000000000000000000000000000000000000000000000815260040161184f90612e81565b60405180910390fd5b600073ffffffffffffffffffffffffffffffffffffffff168273ffffffffffffffffffffffffffffffffffffffff16036118c7576040517f08c379a00000000000000000000000000000000000000000000000000000000081526004016118be90612f13565b60405180910390fd5b8273ffffffffffffffffffffffffffffffffffffffff166004600083815260200190815260200160002060009054906101000a900473ffffffffffffffffffffffffffffffffffffffff1673ffffffffffffffffffffffffffffffffffffffff1614611968576040517f08c379a000000000000000000000000000000000000000000000000000000000815260040161195f90612fa5565b60405180910390fd5b6009600082815260200190815260200160002060009054906101000a900460ff166119c8576040517f08c379a00000000000000000000000000000000000000000000000000000000081526004016119bf9061305d565b60405180910390fd5b6119d3600082611382565b600360008473ffffffffffffffffffffffffffffffffffffffff1673ffffffffffffffffffffffffffffffffffffffff1681526020019081526020016000206000815480929190611a239061278e565b9190505550600360008373ffffffffffffffffffffffffffffffffffffffff1673ffffffffffffffffffffffffffffffffffffffff1681526020019081526020016000206000815480929190611a7890612cf5565b91905055506000611b16600860008673ffffffffffffffffffffffffffffffffffffffff1673ffffffffffffffffffffffffffffffffffffffff168152602001908152602001600020805480602002602001604051908101604052809291908181526020018280548015611b0b57602002820191906000526020600020905b815481526020019060010190808311611af7575b5050505050836114d0565b905060008112611c8f57600860008573ffffffffffffffffffffffffffffffffffffffff1673ffffffffffffffffffffffffffffffffffffffff1681526020019081526020016000206001600860008773ffffffffffffffffffffffffffffffffffffffff1673ffffffffffffffffffffffffffffffffffffffff16815260200190815260200160002080549050611bae91906127b7565b81548110611bbf57611bbe6127eb565b5b9060005260206000200154600860008673ffffffffffffffffffffffffffffffffffffffff1673ffffffffffffffffffffffffffffffffffffffff1681526020019081526020016000208281548110611c1b57611c1a6127eb565b5b9060005260206000200181905550600860008573ffffffffffffffffffffffffffffffffffffffff1673ffffffffffffffffffffffffffffffffffffffff168152602001908152602001600020805480611c7857611c7761281a565b5b600190038181906000526020600020016000905590555b600860008473ffffffffffffffffffffffffffffffffffffffff1673ffffffffffffffffffffffffffffffffffffffff168152602001908152602001600020829080600181540180825580915050600190039060005260206000200160009091909190915055826004600084815260200190815260200160002060006101000a81548173ffffffffffffffffffffffffffffffffffffffff021916908373ffffffffffffffffffffffffffffffffffffffff1602179055506000600b600084815260200190815260200160002060006101000a81548160ff021916908315150217905550818373ffffffffffffffffffffffffffffffffffffffff168573ffffffffffffffffffffffffffffffffffffffff167fddf252ad1be2c89b69c2b068fc378daa952ba7f163c4a11628f55a4df523b3ef60405160405180910390a450505050565b600080823b905060008111915050919050565b508054611df390612361565b6000825580601f10611e055750611e24565b601f016020900490600052602060002090810190611e239190611e27565b5b50565b5b80821115611e40576000816000905550600101611e28565b5090565b600080fd5b600080fd5b60007fffffffff0000000000000000000000000000000000000000000000000000000082169050919050565b611e8381611e4e565b8114611e8e57600080fd5b50565b600081359050611ea081611e7a565b92915050565b600060208284031215611ebc57611ebb611e44565b5b6000611eca84828501611e91565b91505092915050565b60008115159050919050565b611ee881611ed3565b82525050565b6000602082019050611f036000830184611edf565b92915050565b600081519050919050565b600082825260208201905092915050565b60005b83811015611f43578082015181840152602081019050611f28565b83811115611f52576000848401525b50505050565b6000601f19601f8301169050919050565b6000611f7482611f09565b611f7e8185611f14565b9350611f8e818560208601611f25565b611f9781611f58565b840191505092915050565b60006020820190508181036000830152611fbc8184611f69565b905092915050565b6000819050919050565b611fd781611fc4565b8114611fe257600080fd5b50565b600081359050611ff481611fce565b92915050565b6000602082840312156120105761200f611e44565b5b600061201e84828501611fe5565b91505092915050565b600073ffffffffffffffffffffffffffffffffffffffff82169050919050565b600061205282612027565b9050919050565b61206281612047565b82525050565b600060208201905061207d6000830184612059565b92915050565b61208c81612047565b811461209757600080fd5b50565b6000813590506120a981612083565b92915050565b600080604083850312156120c6576120c5611e44565b5b60006120d48582860161209a565b92505060206120e585828601611fe5565b9150509250929050565b60008060006060848603121561210857612107611e44565b5b60006121168682870161209a565b93505060206121278682870161209a565b925050604061213886828701611fe5565b9150509250925092565b60006020828403121561215857612157611e44565b5b60006121668482850161209a565b91505092915050565b61217881611fc4565b82525050565b6000602082019050612193600083018461216f565b92915050565b6121a281611ed3565b81146121ad57600080fd5b50565b6000813590506121bf81612199565b92915050565b600080604083850312156121dc576121db611e44565b5b60006121ea8582860161209a565b92505060206121fb858286016121b0565b9150509250929050565b600080fd5b600080fd5b600080fd5b60008083601f84011261222a57612229612205565b5b8235905067ffffffffffffffff8111156122475761224661220a565b5b6020830191508360018202830111156122635761226261220f565b5b9250929050565b60008060008060006080868803121561228657612285611e44565b5b60006122948882890161209a565b95505060206122a58882890161209a565b94505060406122b688828901611fe5565b935050606086013567ffffffffffffffff8111156122d7576122d6611e49565b5b6122e388828901612214565b92509250509295509295909350565b6000806040838503121561230957612308611e44565b5b60006123178582860161209a565b92505060206123288582860161209a565b9150509250929050565b7f4e487b7100000000000000000000000000000000000000000000000000000000600052602260045260246000fd5b6000600282049050600182168061237957607f821691505b60208210810361238c5761238b612332565b5b50919050565b7f4552433732313a20546f6b656e207769746820656e746572656420494420646f60008201527f6573206e6f742065786973740000000000000000000000000000000000000000602082015250565b60006123ee602c83611f14565b91506123f982612392565b604082019050919050565b6000602082019050818103600083015261241d816123e1565b9050919050565b7f4552433732313a206f776e65722063616e6e6f7420617070726f76652068696d60008201527f73656c662f68657273656c660000000000000000000000000000000000000000602082015250565b6000612480602c83611f14565b915061248b82612424565b604082019050919050565b600060208201905081810360008301526124af81612473565b9050919050565b7f4552433732313a2063616c6c6572206d757374206f776e2074686520746f6b6560008201527f6e206f7220626520617070726f76656420666f7220616c6c0000000000000000602082015250565b6000612512603883611f14565b915061251d826124b6565b604082019050919050565b6000602082019050818103600083015261254181612505565b9050919050565b600082825260208201905092915050565b50565b6000612569600083612548565b915061257482612559565b600082019050919050565b60006080820190506125946000830186612059565b6125a16020830185612059565b6125ae604083018461216f565b81810360608301526125bf8161255c565b9050949350505050565b7f4552433732313a206e6f20746f6b656e2077697468207468652073706563696660008201527f69656420494420776173206d696e746564206265666f72650000000000000000602082015250565b6000612625603883611f14565b9150612630826125c9565b604082019050919050565b6000602082019050818103600083015261265481612618565b9050919050565b7f4552433732313a206120746f6b656e207769746820746865207370656369666960008201527f6564204944206973206e6f74206f776e6564206279207468652073656e64657260208201527f2c206f72206973206e6f74207472616e7366657261626c65207965742c206f7260408201527f207468652063616c6c6572206d6179206e6f7420626520616e2061646d696e2060608201527f746f20626520616c6c6f77656420746f206275726e2069740000000000000000608082015250565b6000612729609883611f14565b91506127348261265b565b60a082019050919050565b600060208201905081810360008301526127588161271c565b9050919050565b7f4e487b7100000000000000000000000000000000000000000000000000000000600052601160045260246000fd5b600061279982611fc4565b9150600082036127ac576127ab61275f565b5b600182039050919050565b60006127c282611fc4565b91506127cd83611fc4565b9250828210156127e0576127df61275f565b5b828203905092915050565b7f4e487b7100000000000000000000000000000000000000000000000000000000600052603260045260246000fd5b7f4e487b7100000000000000000000000000000000000000000000000000000000600052603160045260246000fd5b7f4552433732313a2061646472657373206f776e65722063616e6e6f742062652060008201527f746865207a65726f206164647265737300000000000000000000000000000000602082015250565b60006128a5603083611f14565b91506128b082612849565b604082019050919050565b600060208201905081810360008301526128d481612898565b9050919050565b7f4552433732313a204f6e6c79206f776e657220697320616c6c6f77656420746f60008201527f20646f20746869732066756e6374696f6e616c69747900000000000000000000602082015250565b6000612937603683611f14565b9150612942826128db565b604082019050919050565b600060208201905081810360008301526129668161292a565b9050919050565b7f4552433732313a2073656e6465722063616e6e6f742073657420617070726f7660008201527f616c20666f722068696d73656c662f68657273656c6600000000000000000000602082015250565b60006129c9603683611f14565b91506129d48261296d565b604082019050919050565b600060208201905081810360008301526129f8816129bc565b9050919050565b7f4552433732313a207472616e736665722063616e6e6f7420636f6d706c65746560008201527f20746f206120736d61727420636f6e7472616374206e6f7420696d706c656d6560208201527f6e74696e67204552433732315265636569766572000000000000000000000000604082015250565b6000612a81605483611f14565b9150612a8c826129ff565b606082019050919050565b60006020820190508181036000830152612ab081612a74565b9050919050565b7f4552433732313a2063616e6e6f742067657420555249206f66206e6f6e65786960008201527f7374656e7420746f6b656e000000000000000000000000000000000000000000602082015250565b6000612b13602b83611f14565b9150612b1e82612ab7565b604082019050919050565b60006020820190508181036000830152612b4281612b06565b9050919050565b600081905092915050565b6000612b5f82611f09565b612b698185612b49565b9350612b79818560208601611f25565b80840191505092915050565b60008190508160005260206000209050919050565b60008154612ba781612361565b612bb18186612b49565b94506001821660008114612bcc5760018114612bdd57612c10565b60ff19831686528186019350612c10565b612be685612b85565b60005b83811015612c0857815481890152600182019150602081019050612be9565b838801955050505b50505092915050565b6000612c258285612b54565b9150612c318284612b9a565b91508190509392505050565b7f4552433732313a2053656e646572206973206e65697468657220746865206f7760008201527f6e6572206e6f7220617070726f76656420746f20646f2074686973207472616e60208201527f73616374696f6e00000000000000000000000000000000000000000000000000604082015250565b6000612cbf604783611f14565b9150612cca82612c3d565b606082019050919050565b60006020820190508181036000830152612cee81612cb2565b9050919050565b6000612d0082611fc4565b91507fffffffffffffffffffffffffffffffffffffffffffffffffffffffffffffffff8203612d3257612d3161275f565b5b600182019050919050565b600081519050919050565b6000612d5382612d3d565b612d5d8185612548565b9350612d6d818560208601611f25565b612d7681611f58565b840191505092915050565b6000608082019050612d966000830187612059565b612da36020830186612059565b612db0604083018561216f565b8181036060830152612dc28184612d48565b905095945050505050565b600081519050612ddc81611e7a565b92915050565b600060208284031215612df857612df7611e44565b5b6000612e0684828501612dcd565b91505092915050565b7f4552433732313a2066726f6d206164647265737320656e74657265642063616e60008201527f6e6f7420626520746865207a65726f2061646472657373000000000000000000602082015250565b6000612e6b603783611f14565b9150612e7682612e0f565b604082019050919050565b60006020820190508181036000830152612e9a81612e5e565b9050919050565b7f4552433732313a20746f206164647265737320656e74657265642063616e6e6f60008201527f7420626520746865207a65726f20616464726573730000000000000000000000602082015250565b6000612efd603583611f14565b9150612f0882612ea1565b604082019050919050565b60006020820190508181036000830152612f2c81612ef0565b9050919050565b7f4552433732313a20546f6b656e207769746820656e746572656420494420697360008201527f206e6f74206f776e6564206279207468652066726f6d20616464726573730000602082015250565b6000612f8f603e83611f14565b9150612f9a82612f33565b604082019050919050565b60006020820190508181036000830152612fbe81612f82565b9050919050565b7f4552433732313a20546f6b656e2063616e6e6f74206265207472616e7366657260008201527f656420796574206173207472616e73666572206f662073746f636b206f776e6560208201527f7273686970206973206e6f742079657420766572696669656400000000000000604082015250565b6000613047605983611f14565b915061305282612fc5565b606082019050919050565b600060208201905081810360008301526130768161303a565b905091905056fea26469706673582212209a0ba5ceb66ed7a33f50fc9d28e2c566e387a17cc06048e7a9dc6f312d74e1a264736f6c634300080d0033",
  "immutableReferences": {},
  "source": "// SPDX-License-Identifier: MIT\r\npragma solidity ^0.8.13;\r\n\r\nimport \"@openzeppelin/contracts/token/ERC721/IERC721.sol\";\r\nimport \"@openzeppelin/contracts/token/ERC721/IERC721Receiver.sol\";\r\nimport \"@openzeppelin/contracts/token/ERC721/extensions/IERC721Metadata.sol\";\r\n\r\ncontract ERC721 is IERC721, IERC721Metadata {\r\n  string public name;\r\n  string public symbol;\r\n  address public owner;\r\n\r\n  mapping(address => uint) private balances;\r\n  mapping(uint => address) private owners;\r\n  mapping(uint256 => address) private tokenApprovals;\r\n  mapping(address => mapping(address => bool)) private operatorApprovals;\r\n  mapping(uint256 => string) private tokenURIs;\r\n  mapping(address => uint[]) internal ownedTokens;\r\n\r\n  mapping(uint256 => bool) public isTransferable;\r\n  mapping(address => bool) public admins;\r\n  mapping(uint => bool) public isForSale;\r\n\r\n  constructor(string memory _name, string memory _symbol){\r\n      name = _name;\r\n      symbol = _symbol;\r\n      owner = msg.sender;\r\n      admins[owner] = true;\r\n  }\r\n  modifier onlyOwner() {\r\n      require(msg.sender == owner, \"ERC721: Only owner is allowed to do this functionality\");\r\n      _;\r\n  }\r\n  modifier onlyAdmin() {\r\n      require(admins[msg.sender], \"ERC721: Only admins are allowed to do this functionality\");\r\n      _;\r\n  }\r\n\r\n  //USE THIS\r\n  function balanceOf(address _owner) public view returns (uint) {\r\n      require(_owner != address(0), \"ERC721: address owner cannot be the zero address\");\r\n      return balances[_owner];\r\n  }\r\n\r\n  function ownerOf(uint tokenId) public view returns (address) {\r\n      require(owners[tokenId] != address(0), \"ERC721: Token with entered ID does not exist\");\r\n      return owners[tokenId];\r\n  }\r\n\r\n   function getApproved(uint tokenId) public view returns (address) {\r\n       require(owners[tokenId] != address(0), \"ERC721: Token with entered ID does not exist\");\r\n       return tokenApprovals[tokenId];\r\n   }\r\n\r\n   function isApprovedForAll(address _owner, address operator) public view returns (bool) {\r\n       return operatorApprovals[_owner][operator];\r\n   }\r\n\r\n   function safeTransferFrom(address from, address to, uint256 tokenId, bytes calldata data) public {\r\n        _transfer(from, to, tokenId);\r\n        require(checkSafeCondition(from, to, tokenId, data), \"ERC721: transfer cannot complete to a smart contract not implementing ERC721Receiver\");\r\n   }\r\n\r\n   //USE THIS\r\n   function safeTransferFrom(address from, address to, uint256 tokenId) public {\r\n        this.safeTransferFrom(from, to, tokenId, \"\");\r\n   }\r\n\r\n   function transferFrom(address from, address to, uint256 tokenId) public {\r\n        _transfer(from, to, tokenId);\r\n   }\r\n\r\n   function _transfer(address from, address to, uint256 tokenId) internal {\r\n      require((isApprovedOrIsOwner(tx.origin, tokenId) || isApprovedOrIsOwner(msg.sender, tokenId)), \"ERC721: Sender is neither the owner nor approved to do this transaction\");\r\n      _transferHelper(from, to, tokenId);\r\n   }\r\n\r\n   function _transferHelper(address from, address to, uint256 tokenId) internal {\r\n     require(from != address(0), \"ERC721: from address entered cannot be the zero address\");\r\n     require(to != address(0), \"ERC721: to address entered cannot be the zero address\");\r\n     require(owners[tokenId] == from, \"ERC721: Token with entered ID is not owned by the from address\");\r\n     require(isTransferable[tokenId], \"ERC721: Token cannot be transfered yet as transfer of stock ownership is not yet verified\");\r\n\r\n     //reset approve for the token with a new owner\r\n     _approve(address(0), tokenId);\r\n     balances[from]--;\r\n     balances[to]++;\r\n\r\n     //Remove from old array and input into new array\r\n     int index = getIndex(ownedTokens[from], tokenId);\r\n     if(index >= 0){\r\n       ownedTokens[from][uint(index)] = ownedTokens[from][ownedTokens[from].length - 1];\r\n       ownedTokens[from].pop();\r\n     }\r\n     ownedTokens[to].push(tokenId);\r\n\r\n     owners[tokenId] = to;\r\n\r\n     //reset forSale\r\n     isForSale[tokenId] = false;\r\n\r\n     emit Transfer(from, to, tokenId);\r\n   }\r\n\r\n   //USE THIS\r\n   function addOrRemoveAdmin(address admin, bool add) public onlyOwner {\r\n        admins[admin] = add;\r\n   }\r\n\r\n   function approve(address to, uint256 tokenId) public {\r\n       address _owner = owners[tokenId];\r\n       require(to != _owner, \"ERC721: owner cannot approve himself/herself\");\r\n       require(msg.sender == _owner || isApprovedForAll(_owner, msg.sender), \"ERC721: caller must own the token or be approved for all\");\r\n       _approve(to, tokenId);\r\n   }\r\n\r\n   function _approve(address to, uint256 tokenId) internal {\r\n       tokenApprovals[tokenId] = to;\r\n       emit Approval(owners[tokenId], to, tokenId);\r\n   }\r\n\r\n   function setApprovalForAll(address operator, bool approved) public {\r\n       require(msg.sender != operator, \"ERC721: sender cannot set approval for himself/herself\");\r\n       operatorApprovals[msg.sender][operator] = approved;\r\n       emit ApprovalForAll(msg.sender, operator, approved);\r\n   }\r\n\r\n    function isApprovedOrIsOwner(address caller, uint tokenId) internal view returns (bool){\r\n        return owners[tokenId] == caller || getApproved(tokenId) == caller || isApprovedForAll(owners[tokenId], caller);\r\n    }\r\n\r\n    function safeMint(address to, uint256 tokenId) internal {\r\n        safeMint(to, tokenId, \"\");\r\n    }\r\n\r\n    function safeMint(address to, uint256 tokenId, bytes memory data) internal {\r\n        require(to != address(0), \"ERC721: to address entered cannot be the zero address\");\r\n        require(owners[tokenId] == address(0), \"ERC721: a token with the specified ID is already minted\");\r\n\r\n        balances[to]++;\r\n        owners[tokenId] = to;\r\n        ownedTokens[to].push(tokenId);\r\n\r\n        emit Transfer(address(0), to, tokenId);\r\n        require(\r\n            checkSafeCondition(address(0), to, tokenId, data),\r\n            \"ERC721: transfer cannot complete to a smart contract not implementing ERC721Receiver\"\r\n        );\r\n    }\r\n\r\n    function burn(uint256 tokenId) public {\r\n        address _owner = owners[tokenId];\r\n        require(_owner != address(0), \"ERC721: no token with the specified ID was minted before\");\r\n        require((_owner == msg.sender && isTransferable[tokenId]) || admins[msg.sender], \"ERC721: a token with the specified ID is not owned by the sender, or is not transferable yet, or the caller may not be an admin to be allowed to burn it\");\r\n\r\n\r\n        _approve(address(0), tokenId);\r\n        balances[_owner]--;\r\n        isTransferable[tokenId] = false;\r\n\r\n        int index = getIndex(ownedTokens[_owner], tokenId);\r\n        if(index >= 0){\r\n          ownedTokens[_owner][uint(index)] = ownedTokens[_owner][ownedTokens[_owner].length - 1];\r\n          ownedTokens[_owner].pop();\r\n        }\r\n        delete owners[tokenId];\r\n        delete tokenURIs[tokenId];\r\n\r\n        emit Transfer(_owner, address(0), tokenId);\r\n    }\r\n\r\n    //METADATA\r\n    function setTokenURI(uint256 tokenId, string memory _tokenURI) internal {\r\n        require(owners[tokenId] != address(0), \"ERC721: cannot set URI of a nonexistent token\");\r\n        tokenURIs[tokenId] = _tokenURI;\r\n    }\r\n\r\n    function tokenURI(uint tokenId) public view returns(string memory) {\r\n        require(owners[tokenId] != address(0), \"ERC721: cannot get URI of nonexistent token\");\r\n\r\n        return string(abi.encodePacked(baseURI(), tokenURIs[tokenId]));\r\n    }\r\n\r\n    function baseURI() internal pure returns(string memory) {\r\n      return \"https://ipfs.io/ipfs/\";\r\n    }\r\n\r\n\r\n    function checkSafeCondition(address from, address to, uint256 tokenId, bytes memory data) internal returns (bool){\r\n        if(isContract(to)){\r\n            try IERC721Receiver(to).onERC721Received(msg.sender, from, tokenId, data) returns (bytes4 retval) {\r\n                return (retval == IERC721Receiver.onERC721Received.selector);\r\n            } catch (bytes memory reason) {\r\n                if (reason.length == 0) {\r\n                    revert(\"ERC721: transfer cannot complete to a smart contract not implementing ERC721Receiver\");\r\n                } else {\r\n                    assembly {\r\n                        revert(add(32, reason), mload(reason))\r\n                    }\r\n                }\r\n            }\r\n        } else {\r\n            return true;\r\n        }\r\n    }\r\n\r\n    function isContract(address addr) internal view returns (bool) {\r\n        uint size;\r\n        assembly { size := extcodesize(addr) }\r\n        return size > 0;\r\n    }\r\n\r\n    function supportsInterface(bytes4 interfaceId) external pure returns (bool) {\r\n        return interfaceId == type(IERC721).interfaceId;\r\n    }\r\n\r\n    function getIndex(uint[] memory array, uint tokenId) internal pure returns (int)  {\r\n          for (uint i = 0; i<=array.length-1; i++) {\r\n            if(array[i] == tokenId){\r\n              return int(i);\r\n            }\r\n          }\r\n          return -1;\r\n    }\r\n}\r\n",
  "sourcePath": "D:\\S8\\Neros\\contracts\\ERC721.sol",
  "compiler": {
    "name": "solc",
    "version": "0.8.13+commit.abaa5c0e.Emscripten.clang"
  },
  "schemaVersion": "3.4.6",
  "updatedAt": "2022-06-09T12:26:40.566Z",
  "devdoc": {
    "kind": "dev",
    "methods": {
      "approve(address,uint256)": {
        "details": "Gives permission to `to` to transfer `tokenId` token to another account. The approval is cleared when the token is transferred. Only a single account can be approved at a time, so approving the zero address clears previous approvals. Requirements: - The caller must own the token or be an approved operator. - `tokenId` must exist. Emits an {Approval} event."
      },
      "getApproved(uint256)": {
        "details": "Returns the account approved for `tokenId` token. Requirements: - `tokenId` must exist."
      },
      "ownerOf(uint256)": {
        "details": "Returns the owner of the `tokenId` token. Requirements: - `tokenId` must exist."
      },
      "safeTransferFrom(address,address,uint256)": {
        "details": "Safely transfers `tokenId` token from `from` to `to`, checking first that contract recipients are aware of the ERC721 protocol to prevent tokens from being forever locked. Requirements: - `from` cannot be the zero address. - `to` cannot be the zero address. - `tokenId` token must exist and be owned by `from`. - If the caller is not `from`, it must be have been allowed to move this token by either {approve} or {setApprovalForAll}. - If `to` refers to a smart contract, it must implement {IERC721Receiver-onERC721Received}, which is called upon a safe transfer. Emits a {Transfer} event."
      },
      "safeTransferFrom(address,address,uint256,bytes)": {
        "details": "Safely transfers `tokenId` token from `from` to `to`. Requirements: - `from` cannot be the zero address. - `to` cannot be the zero address. - `tokenId` token must exist and be owned by `from`. - If the caller is not `from`, it must be approved to move this token by either {approve} or {setApprovalForAll}. - If `to` refers to a smart contract, it must implement {IERC721Receiver-onERC721Received}, which is called upon a safe transfer. Emits a {Transfer} event."
      },
      "supportsInterface(bytes4)": {
        "details": "Returns true if this contract implements the interface defined by `interfaceId`. See the corresponding https://eips.ethereum.org/EIPS/eip-165#how-interfaces-are-identified[EIP section] to learn more about how these ids are created. This function call must use less than 30 000 gas."
      },
      "tokenURI(uint256)": {
        "details": "Returns the Uniform Resource Identifier (URI) for `tokenId` token."
      },
      "transferFrom(address,address,uint256)": {
        "details": "Transfers `tokenId` token from `from` to `to`. WARNING: Usage of this method is discouraged, use {safeTransferFrom} whenever possible. Requirements: - `from` cannot be the zero address. - `to` cannot be the zero address. - `tokenId` token must be owned by `from`. - If the caller is not `from`, it must be approved to move this token by either {approve} or {setApprovalForAll}. Emits a {Transfer} event."
      }
    },
    "stateVariables": {
      "name": {
        "details": "Returns the token collection name."
      },
      "symbol": {
        "details": "Returns the token collection symbol."
      }
    },
    "version": 1
  },
  "userdoc": {
    "kind": "user",
    "methods": {},
    "version": 1
  }
}