{
  "contractName": "ERC721",
  "abi": [
    {
      "inputs": [
        {
          "internalType": "string",
          "name": "_name",
          "type": "string"
        },
        {
          "internalType": "string",
          "name": "_symbol",
          "type": "string"
        }
      ],
      "stateMutability": "nonpayable",
      "type": "constructor"
    },
    {
      "anonymous": false,
      "inputs": [
        {
          "indexed": true,
          "internalType": "address",
          "name": "owner",
          "type": "address"
        },
        {
          "indexed": true,
          "internalType": "address",
          "name": "approved",
          "type": "address"
        },
        {
          "indexed": true,
          "internalType": "uint256",
          "name": "tokenId",
          "type": "uint256"
        }
      ],
      "name": "Approval",
      "type": "event"
    },
    {
      "anonymous": false,
      "inputs": [
        {
          "indexed": true,
          "internalType": "address",
          "name": "owner",
          "type": "address"
        },
        {
          "indexed": true,
          "internalType": "address",
          "name": "operator",
          "type": "address"
        },
        {
          "indexed": false,
          "internalType": "bool",
          "name": "approved",
          "type": "bool"
        }
      ],
      "name": "ApprovalForAll",
      "type": "event"
    },
    {
      "anonymous": false,
      "inputs": [
        {
          "indexed": true,
          "internalType": "address",
          "name": "from",
          "type": "address"
        },
        {
          "indexed": true,
          "internalType": "address",
          "name": "to",
          "type": "address"
        },
        {
          "indexed": true,
          "internalType": "uint256",
          "name": "tokenId",
          "type": "uint256"
        }
      ],
      "name": "Transfer",
      "type": "event"
    },
    {
      "inputs": [
        {
          "internalType": "address",
          "name": "",
          "type": "address"
        }
      ],
      "name": "admins",
      "outputs": [
        {
          "internalType": "bool",
          "name": "",
          "type": "bool"
        }
      ],
      "stateMutability": "view",
      "type": "function"
    },
    {
      "inputs": [
        {
          "internalType": "uint256",
          "name": "",
          "type": "uint256"
        }
      ],
      "name": "isTransferable",
      "outputs": [
        {
          "internalType": "bool",
          "name": "",
          "type": "bool"
        }
      ],
      "stateMutability": "view",
      "type": "function"
    },
    {
      "inputs": [],
      "name": "name",
      "outputs": [
        {
          "internalType": "string",
          "name": "",
          "type": "string"
        }
      ],
      "stateMutability": "view",
      "type": "function"
    },
    {
      "inputs": [],
      "name": "owner",
      "outputs": [
        {
          "internalType": "address",
          "name": "",
          "type": "address"
        }
      ],
      "stateMutability": "view",
      "type": "function"
    },
    {
      "inputs": [],
      "name": "symbol",
      "outputs": [
        {
          "internalType": "string",
          "name": "",
          "type": "string"
        }
      ],
      "stateMutability": "view",
      "type": "function"
    },
    {
      "inputs": [
        {
          "internalType": "address",
          "name": "_owner",
          "type": "address"
        }
      ],
      "name": "balanceOf",
      "outputs": [
        {
          "internalType": "uint256",
          "name": "",
          "type": "uint256"
        }
      ],
      "stateMutability": "view",
      "type": "function"
    },
    {
      "inputs": [
        {
          "internalType": "uint256",
          "name": "tokenId",
          "type": "uint256"
        }
      ],
      "name": "ownerOf",
      "outputs": [
        {
          "internalType": "address",
          "name": "",
          "type": "address"
        }
      ],
      "stateMutability": "view",
      "type": "function"
    },
    {
      "inputs": [
        {
          "internalType": "uint256",
          "name": "tokenId",
          "type": "uint256"
        }
      ],
      "name": "getApproved",
      "outputs": [
        {
          "internalType": "address",
          "name": "",
          "type": "address"
        }
      ],
      "stateMutability": "view",
      "type": "function"
    },
    {
      "inputs": [
        {
          "internalType": "address",
          "name": "_owner",
          "type": "address"
        },
        {
          "internalType": "address",
          "name": "operator",
          "type": "address"
        }
      ],
      "name": "isApprovedForAll",
      "outputs": [
        {
          "internalType": "bool",
          "name": "",
          "type": "bool"
        }
      ],
      "stateMutability": "view",
      "type": "function"
    },
    {
      "inputs": [
        {
          "internalType": "address",
          "name": "from",
          "type": "address"
        },
        {
          "internalType": "address",
          "name": "to",
          "type": "address"
        },
        {
          "internalType": "uint256",
          "name": "tokenId",
          "type": "uint256"
        }
      ],
      "name": "safeTransferFrom",
      "outputs": [],
      "stateMutability": "nonpayable",
      "type": "function"
    },
    {
      "inputs": [
        {
          "internalType": "address",
          "name": "from",
          "type": "address"
        },
        {
          "internalType": "address",
          "name": "to",
          "type": "address"
        },
        {
          "internalType": "uint256",
          "name": "tokenId",
          "type": "uint256"
        },
        {
          "internalType": "bytes",
          "name": "data",
          "type": "bytes"
        }
      ],
      "name": "safeTransferFrom",
      "outputs": [],
      "stateMutability": "nonpayable",
      "type": "function"
    },
    {
      "inputs": [
        {
          "internalType": "address",
          "name": "from",
          "type": "address"
        },
        {
          "internalType": "address",
          "name": "to",
          "type": "address"
        },
        {
          "internalType": "uint256",
          "name": "tokenId",
          "type": "uint256"
        }
      ],
      "name": "transferFrom",
      "outputs": [],
      "stateMutability": "nonpayable",
      "type": "function"
    },
    {
      "inputs": [
        {
          "internalType": "uint256",
          "name": "tokenId",
          "type": "uint256"
        },
        {
          "internalType": "bool",
          "name": "transferable",
          "type": "bool"
        }
      ],
      "name": "setTransferable",
      "outputs": [],
      "stateMutability": "nonpayable",
      "type": "function"
    },
    {
      "inputs": [
        {
          "internalType": "address",
          "name": "admin",
          "type": "address"
        },
        {
          "internalType": "bool",
          "name": "add",
          "type": "bool"
        }
      ],
      "name": "addOrRemoveAdmin",
      "outputs": [],
      "stateMutability": "nonpayable",
      "type": "function"
    },
    {
      "inputs": [
        {
          "internalType": "address",
          "name": "to",
          "type": "address"
        },
        {
          "internalType": "uint256",
          "name": "tokenId",
          "type": "uint256"
        }
      ],
      "name": "approve",
      "outputs": [],
      "stateMutability": "nonpayable",
      "type": "function"
    },
    {
      "inputs": [
        {
          "internalType": "address",
          "name": "operator",
          "type": "address"
        },
        {
          "internalType": "bool",
          "name": "approved",
          "type": "bool"
        }
      ],
      "name": "setApprovalForAll",
      "outputs": [],
      "stateMutability": "nonpayable",
      "type": "function"
    },
    {
      "inputs": [
        {
          "internalType": "uint256",
          "name": "tokenId",
          "type": "uint256"
        }
      ],
      "name": "burn",
      "outputs": [],
      "stateMutability": "nonpayable",
      "type": "function"
    },
    {
      "inputs": [
        {
          "internalType": "uint256",
          "name": "tokenId",
          "type": "uint256"
        }
      ],
      "name": "tokenURI",
      "outputs": [
        {
          "internalType": "string",
          "name": "",
          "type": "string"
        }
      ],
      "stateMutability": "view",
      "type": "function"
    },
    {
      "inputs": [
        {
          "internalType": "bytes4",
          "name": "interfaceId",
          "type": "bytes4"
        }
      ],
      "name": "supportsInterface",
      "outputs": [
        {
          "internalType": "bool",
          "name": "",
          "type": "bool"
        }
      ],
      "stateMutability": "pure",
      "type": "function"
    }
  ],
  "bytecode": "0x60806040523480156200001157600080fd5b5060405162002fcd38038062002fcd833981810160405281019062000037919062000379565b81600090805190602001906200004f9291906200012c565b508060019080519060200190620000689291906200012c565b5033600260006101000a81548173ffffffffffffffffffffffffffffffffffffffff021916908373ffffffffffffffffffffffffffffffffffffffff160217905550600160096000600260009054906101000a900473ffffffffffffffffffffffffffffffffffffffff1673ffffffffffffffffffffffffffffffffffffffff1673ffffffffffffffffffffffffffffffffffffffff16815260200190815260200160002060006101000a81548160ff021916908315150217905550505062000462565b8280546200013a906200042d565b90600052602060002090601f0160209004810192826200015e5760008555620001aa565b82601f106200017957805160ff1916838001178555620001aa565b82800160010185558215620001aa579182015b82811115620001a95782518255916020019190600101906200018c565b5b509050620001b99190620001bd565b5090565b5b80821115620001d8576000816000905550600101620001be565b5090565b6000604051905090565b600080fd5b600080fd5b600080fd5b600080fd5b6000601f19601f8301169050919050565b7f4e487b7100000000000000000000000000000000000000000000000000000000600052604160045260246000fd5b6200024582620001fa565b810181811067ffffffffffffffff821117156200026757620002666200020b565b5b80604052505050565b60006200027c620001dc565b90506200028a82826200023a565b919050565b600067ffffffffffffffff821115620002ad57620002ac6200020b565b5b620002b882620001fa565b9050602081019050919050565b60005b83811015620002e5578082015181840152602081019050620002c8565b83811115620002f5576000848401525b50505050565b6000620003126200030c846200028f565b62000270565b905082815260208101848484011115620003315762000330620001f5565b5b6200033e848285620002c5565b509392505050565b600082601f8301126200035e576200035d620001f0565b5b815162000370848260208601620002fb565b91505092915050565b60008060408385031215620003935762000392620001e6565b5b600083015167ffffffffffffffff811115620003b457620003b3620001eb565b5b620003c28582860162000346565b925050602083015167ffffffffffffffff811115620003e657620003e5620001eb565b5b620003f48582860162000346565b9150509250929050565b7f4e487b7100000000000000000000000000000000000000000000000000000000600052602260045260246000fd5b600060028204905060018216806200044657607f821691505b6020821081036200045c576200045b620003fe565b5b50919050565b612b5b80620004726000396000f3fe608060405234801561001057600080fd5b50600436106101215760003560e01c806370a08231116100ad578063b256456911610071578063b256456914610318578063b88d4fde14610348578063c87b56dd14610364578063dfe28fbf14610394578063e985e9c5146103b057610121565b806370a082311461027457806389fa2c03146102a45780638da5cb5b146102c057806395d89b41146102de578063a22cb465146102fc57610121565b806323b872dd116100f457806323b872dd146101c057806342842e0e146101dc57806342966c68146101f8578063429b62e5146102145780636352211e1461024457610121565b806301ffc9a71461012657806306fdde0314610156578063081812fc14610174578063095ea7b3146101a4575b600080fd5b610140600480360381019061013b9190611980565b6103e0565b60405161014d91906119c8565b60405180910390f35b61015e61044a565b60405161016b9190611a7c565b60405180910390f35b61018e60048036038101906101899190611ad4565b6104d8565b60405161019b9190611b42565b60405180910390f35b6101be60048036038101906101b99190611b89565b6105b6565b005b6101da60048036038101906101d59190611bc9565b6106ea565b005b6101f660048036038101906101f19190611bc9565b6106fa565b005b610212600480360381019061020d9190611ad4565b61076e565b005b61022e60048036038101906102299190611c1c565b6109f1565b60405161023b91906119c8565b60405180910390f35b61025e60048036038101906102599190611ad4565b610a11565b60405161026b9190611b42565b60405180910390f35b61028e60048036038101906102899190611c1c565b610aef565b60405161029b9190611c58565b60405180910390f35b6102be60048036038101906102b99190611c9f565b610ba6565b005b6102c8610c91565b6040516102d59190611b42565b60405180910390f35b6102e6610cb7565b6040516102f39190611a7c565b60405180910390f35b61031660048036038101906103119190611c9f565b610d45565b005b610332600480360381019061032d9190611ad4565b610eb0565b60405161033f91906119c8565b60405180910390f35b610362600480360381019061035d9190611d44565b610ed0565b005b61037e60048036038101906103799190611ad4565b610f71565b60405161038b9190611a7c565b60405180910390f35b6103ae60048036038101906103a99190611dcc565b611057565b005b6103ca60048036038101906103c59190611e0c565b611112565b6040516103d791906119c8565b60405180910390f35b60007f80ac58cd000000000000000000000000000000000000000000000000000000007bffffffffffffffffffffffffffffffffffffffffffffffffffffffff1916827bffffffffffffffffffffffffffffffffffffffffffffffffffffffff1916149050919050565b6000805461045790611e7b565b80601f016020809104026020016040519081016040528092919081815260200182805461048390611e7b565b80156104d05780601f106104a5576101008083540402835291602001916104d0565b820191906000526020600020905b8154815290600101906020018083116104b357829003601f168201915b505050505081565b60008073ffffffffffffffffffffffffffffffffffffffff166004600084815260200190815260200160002060009054906101000a900473ffffffffffffffffffffffffffffffffffffffff1673ffffffffffffffffffffffffffffffffffffffff160361057b576040517f08c379a000000000000000000000000000000000000000000000000000000000815260040161057290611f1e565b60405180910390fd5b6005600083815260200190815260200160002060009054906101000a900473ffffffffffffffffffffffffffffffffffffffff169050919050565b60006004600083815260200190815260200160002060009054906101000a900473ffffffffffffffffffffffffffffffffffffffff1690508073ffffffffffffffffffffffffffffffffffffffff168373ffffffffffffffffffffffffffffffffffffffff160361065c576040517f08c379a000000000000000000000000000000000000000000000000000000000815260040161065390611fb0565b60405180910390fd5b8073ffffffffffffffffffffffffffffffffffffffff163373ffffffffffffffffffffffffffffffffffffffff16148061069c575061069b8133611112565b5b6106db576040517f08c379a00000000000000000000000000000000000000000000000000000000081526004016106d290612042565b60405180910390fd5b6106e583836111a6565b505050565b6106f583838361128a565b505050565b3073ffffffffffffffffffffffffffffffffffffffff1663b88d4fde8484846040518463ffffffff1660e01b815260040161073793929190612099565b600060405180830381600087803b15801561075157600080fd5b505af1158015610765573d6000803e3d6000fd5b50505050505050565b600073ffffffffffffffffffffffffffffffffffffffff166004600083815260200190815260200160002060009054906101000a900473ffffffffffffffffffffffffffffffffffffffff1673ffffffffffffffffffffffffffffffffffffffff1603610810576040517f08c379a000000000000000000000000000000000000000000000000000000000815260040161080790612155565b60405180910390fd5b3373ffffffffffffffffffffffffffffffffffffffff166004600083815260200190815260200160002060009054906101000a900473ffffffffffffffffffffffffffffffffffffffff1673ffffffffffffffffffffffffffffffffffffffff16146108b1576040517f08c379a00000000000000000000000000000000000000000000000000000000081526004016108a8906121e7565b60405180910390fd5b6108bc6000826111a6565b600360003373ffffffffffffffffffffffffffffffffffffffff1673ffffffffffffffffffffffffffffffffffffffff168152602001908152602001600020600081548092919061090c90612236565b919050555060006008600083815260200190815260200160002060006101000a81548160ff0219169083151502179055506004600082815260200190815260200160002060006101000a81549073ffffffffffffffffffffffffffffffffffffffff021916905560076000828152602001908152602001600020600061099291906118c1565b80600073ffffffffffffffffffffffffffffffffffffffff163373ffffffffffffffffffffffffffffffffffffffff167fddf252ad1be2c89b69c2b068fc378daa952ba7f163c4a11628f55a4df523b3ef60405160405180910390a450565b60096020528060005260406000206000915054906101000a900460ff1681565b60008073ffffffffffffffffffffffffffffffffffffffff166004600084815260200190815260200160002060009054906101000a900473ffffffffffffffffffffffffffffffffffffffff1673ffffffffffffffffffffffffffffffffffffffff1603610ab4576040517f08c379a0000000000000000000000000000000000000000000000000000000008152600401610aab90611f1e565b60405180910390fd5b6004600083815260200190815260200160002060009054906101000a900473ffffffffffffffffffffffffffffffffffffffff169050919050565b60008073ffffffffffffffffffffffffffffffffffffffff168273ffffffffffffffffffffffffffffffffffffffff1603610b5f576040517f08c379a0000000000000000000000000000000000000000000000000000000008152600401610b56906122d1565b60405180910390fd5b600360008373ffffffffffffffffffffffffffffffffffffffff1673ffffffffffffffffffffffffffffffffffffffff168152602001908152602001600020549050919050565b600260009054906101000a900473ffffffffffffffffffffffffffffffffffffffff1673ffffffffffffffffffffffffffffffffffffffff163373ffffffffffffffffffffffffffffffffffffffff1614610c36576040517f08c379a0000000000000000000000000000000000000000000000000000000008152600401610c2d90612363565b60405180910390fd5b80600960008473ffffffffffffffffffffffffffffffffffffffff1673ffffffffffffffffffffffffffffffffffffffff16815260200190815260200160002060006101000a81548160ff0219169083151502179055505050565b600260009054906101000a900473ffffffffffffffffffffffffffffffffffffffff1681565b60018054610cc490611e7b565b80601f0160208091040260200160405190810160405280929190818152602001828054610cf090611e7b565b8015610d3d5780601f10610d1257610100808354040283529160200191610d3d565b820191906000526020600020905b815481529060010190602001808311610d2057829003601f168201915b505050505081565b8173ffffffffffffffffffffffffffffffffffffffff163373ffffffffffffffffffffffffffffffffffffffff1603610db3576040517f08c379a0000000000000000000000000000000000000000000000000000000008152600401610daa906123f5565b60405180910390fd5b80600660003373ffffffffffffffffffffffffffffffffffffffff1673ffffffffffffffffffffffffffffffffffffffff16815260200190815260200160002060008473ffffffffffffffffffffffffffffffffffffffff1673ffffffffffffffffffffffffffffffffffffffff16815260200190815260200160002060006101000a81548160ff0219169083151502179055508173ffffffffffffffffffffffffffffffffffffffff163373ffffffffffffffffffffffffffffffffffffffff167f17307eab39ab6107e8899845ad3d59bd9653f200f220920489ca2b5937696c3183604051610ea491906119c8565b60405180910390a35050565b60086020528060005260406000206000915054906101000a900460ff1681565b610edb85858561128a565b610f2b85858585858080601f016020809104026020016040519081016040528093929190818152602001838380828437600081840152601f19601f82011690508083019250505050505050611619565b610f6a576040517f08c379a0000000000000000000000000000000000000000000000000000000008152600401610f61906124ad565b60405180910390fd5b5050505050565b6060600073ffffffffffffffffffffffffffffffffffffffff166004600084815260200190815260200160002060009054906101000a900473ffffffffffffffffffffffffffffffffffffffff1673ffffffffffffffffffffffffffffffffffffffff1603611015576040517f08c379a000000000000000000000000000000000000000000000000000000000815260040161100c9061253f565b60405180910390fd5b61101d611783565b6007600084815260200190815260200160002060405160200161104192919061262f565b6040516020818303038152906040529050919050565b600960003373ffffffffffffffffffffffffffffffffffffffff1673ffffffffffffffffffffffffffffffffffffffff16815260200190815260200160002060009054906101000a900460ff166110e3576040517f08c379a00000000000000000000000000000000000000000000000000000000081526004016110da906126c5565b60405180910390fd5b806008600084815260200190815260200160002060006101000a81548160ff0219169083151502179055505050565b6000600660008473ffffffffffffffffffffffffffffffffffffffff1673ffffffffffffffffffffffffffffffffffffffff16815260200190815260200160002060008373ffffffffffffffffffffffffffffffffffffffff1673ffffffffffffffffffffffffffffffffffffffff16815260200190815260200160002060009054906101000a900460ff16905092915050565b816005600083815260200190815260200160002060006101000a81548173ffffffffffffffffffffffffffffffffffffffff021916908373ffffffffffffffffffffffffffffffffffffffff160217905550808273ffffffffffffffffffffffffffffffffffffffff166004600084815260200190815260200160002060009054906101000a900473ffffffffffffffffffffffffffffffffffffffff1673ffffffffffffffffffffffffffffffffffffffff167f8c5be1e5ebec7d5bd14f71427d1e84f3dd0314c0f7b2291e5b200ac8c7c3b92560405160405180910390a45050565b600073ffffffffffffffffffffffffffffffffffffffff168373ffffffffffffffffffffffffffffffffffffffff16036112f9576040517f08c379a00000000000000000000000000000000000000000000000000000000081526004016112f090612757565b60405180910390fd5b600073ffffffffffffffffffffffffffffffffffffffff168273ffffffffffffffffffffffffffffffffffffffff1603611368576040517f08c379a000000000000000000000000000000000000000000000000000000000815260040161135f906127e9565b60405180910390fd5b8273ffffffffffffffffffffffffffffffffffffffff166004600083815260200190815260200160002060009054906101000a900473ffffffffffffffffffffffffffffffffffffffff1673ffffffffffffffffffffffffffffffffffffffff1614611409576040517f08c379a00000000000000000000000000000000000000000000000000000000081526004016114009061287b565b60405180910390fd5b6008600082815260200190815260200160002060009054906101000a900460ff16611469576040517f08c379a000000000000000000000000000000000000000000000000000000000815260040161146090612933565b60405180910390fd5b61147333826117c0565b6114b2576040517f08c379a00000000000000000000000000000000000000000000000000000000081526004016114a9906129eb565b60405180910390fd5b6114bd6000826111a6565b600360008473ffffffffffffffffffffffffffffffffffffffff1673ffffffffffffffffffffffffffffffffffffffff168152602001908152602001600020600081548092919061150d90612236565b9190505550600360008373ffffffffffffffffffffffffffffffffffffffff1673ffffffffffffffffffffffffffffffffffffffff168152602001908152602001600020600081548092919061156290612a0b565b9190505550816004600083815260200190815260200160002060006101000a81548173ffffffffffffffffffffffffffffffffffffffff021916908373ffffffffffffffffffffffffffffffffffffffff160217905550808273ffffffffffffffffffffffffffffffffffffffff168473ffffffffffffffffffffffffffffffffffffffff167fddf252ad1be2c89b69c2b068fc378daa952ba7f163c4a11628f55a4df523b3ef60405160405180910390a4505050565b6000611624846118ae565b15611776578373ffffffffffffffffffffffffffffffffffffffff1663150b7a02338786866040518563ffffffff1660e01b81526004016116689493929190612a97565b6020604051808303816000875af19250505080156116a457506040513d601f19601f820116820180604052508101906116a19190612af8565b60015b611726573d80600081146116d4576040519150601f19603f3d011682016040523d82523d6000602084013e6116d9565b606091505b50600081510361171e576040517f08c379a0000000000000000000000000000000000000000000000000000000008152600401611715906124ad565b60405180910390fd5b805181602001fd5b63150b7a0260e01b7bffffffffffffffffffffffffffffffffffffffffffffffffffffffff1916817bffffffffffffffffffffffffffffffffffffffffffffffffffffffff19161491505061177b565b600190505b949350505050565b60606040518060400160405280601581526020017f68747470733a2f2f697066732e696f2f697066732f0000000000000000000000815250905090565b60008273ffffffffffffffffffffffffffffffffffffffff166004600084815260200190815260200160002060009054906101000a900473ffffffffffffffffffffffffffffffffffffffff1673ffffffffffffffffffffffffffffffffffffffff16148061186257508273ffffffffffffffffffffffffffffffffffffffff1661184a836104d8565b73ffffffffffffffffffffffffffffffffffffffff16145b806118a657506118a56004600084815260200190815260200160002060009054906101000a900473ffffffffffffffffffffffffffffffffffffffff1684611112565b5b905092915050565b600080823b905060008111915050919050565b5080546118cd90611e7b565b6000825580601f106118df57506118fe565b601f0160209004906000526020600020908101906118fd9190611901565b5b50565b5b8082111561191a576000816000905550600101611902565b5090565b600080fd5b600080fd5b60007fffffffff0000000000000000000000000000000000000000000000000000000082169050919050565b61195d81611928565b811461196857600080fd5b50565b60008135905061197a81611954565b92915050565b6000602082840312156119965761199561191e565b5b60006119a48482850161196b565b91505092915050565b60008115159050919050565b6119c2816119ad565b82525050565b60006020820190506119dd60008301846119b9565b92915050565b600081519050919050565b600082825260208201905092915050565b60005b83811015611a1d578082015181840152602081019050611a02565b83811115611a2c576000848401525b50505050565b6000601f19601f8301169050919050565b6000611a4e826119e3565b611a5881856119ee565b9350611a688185602086016119ff565b611a7181611a32565b840191505092915050565b60006020820190508181036000830152611a968184611a43565b905092915050565b6000819050919050565b611ab181611a9e565b8114611abc57600080fd5b50565b600081359050611ace81611aa8565b92915050565b600060208284031215611aea57611ae961191e565b5b6000611af884828501611abf565b91505092915050565b600073ffffffffffffffffffffffffffffffffffffffff82169050919050565b6000611b2c82611b01565b9050919050565b611b3c81611b21565b82525050565b6000602082019050611b576000830184611b33565b92915050565b611b6681611b21565b8114611b7157600080fd5b50565b600081359050611b8381611b5d565b92915050565b60008060408385031215611ba057611b9f61191e565b5b6000611bae85828601611b74565b9250506020611bbf85828601611abf565b9150509250929050565b600080600060608486031215611be257611be161191e565b5b6000611bf086828701611b74565b9350506020611c0186828701611b74565b9250506040611c1286828701611abf565b9150509250925092565b600060208284031215611c3257611c3161191e565b5b6000611c4084828501611b74565b91505092915050565b611c5281611a9e565b82525050565b6000602082019050611c6d6000830184611c49565b92915050565b611c7c816119ad565b8114611c8757600080fd5b50565b600081359050611c9981611c73565b92915050565b60008060408385031215611cb657611cb561191e565b5b6000611cc485828601611b74565b9250506020611cd585828601611c8a565b9150509250929050565b600080fd5b600080fd5b600080fd5b60008083601f840112611d0457611d03611cdf565b5b8235905067ffffffffffffffff811115611d2157611d20611ce4565b5b602083019150836001820283011115611d3d57611d3c611ce9565b5b9250929050565b600080600080600060808688031215611d6057611d5f61191e565b5b6000611d6e88828901611b74565b9550506020611d7f88828901611b74565b9450506040611d9088828901611abf565b935050606086013567ffffffffffffffff811115611db157611db0611923565b5b611dbd88828901611cee565b92509250509295509295909350565b60008060408385031215611de357611de261191e565b5b6000611df185828601611abf565b9250506020611e0285828601611c8a565b9150509250929050565b60008060408385031215611e2357611e2261191e565b5b6000611e3185828601611b74565b9250506020611e4285828601611b74565b9150509250929050565b7f4e487b7100000000000000000000000000000000000000000000000000000000600052602260045260246000fd5b60006002820490506001821680611e9357607f821691505b602082108103611ea657611ea5611e4c565b5b50919050565b7f4552433732313a20546f6b656e207769746820656e746572656420494420646f60008201527f6573206e6f742065786973740000000000000000000000000000000000000000602082015250565b6000611f08602c836119ee565b9150611f1382611eac565b604082019050919050565b60006020820190508181036000830152611f3781611efb565b9050919050565b7f4552433732313a206f776e65722063616e6e6f7420617070726f76652068696d60008201527f73656c662f68657273656c660000000000000000000000000000000000000000602082015250565b6000611f9a602c836119ee565b9150611fa582611f3e565b604082019050919050565b60006020820190508181036000830152611fc981611f8d565b9050919050565b7f4552433732313a2063616c6c6572206d757374206f776e2074686520746f6b6560008201527f6e206f7220626520617070726f76656420666f7220616c6c0000000000000000602082015250565b600061202c6038836119ee565b915061203782611fd0565b604082019050919050565b6000602082019050818103600083015261205b8161201f565b9050919050565b600082825260208201905092915050565b50565b6000612083600083612062565b915061208e82612073565b600082019050919050565b60006080820190506120ae6000830186611b33565b6120bb6020830185611b33565b6120c86040830184611c49565b81810360608301526120d981612076565b9050949350505050565b7f4552433732313a206e6f20746f6b656e2077697468207468652073706563696660008201527f69656420494420776173206d696e746564206265666f72650000000000000000602082015250565b600061213f6038836119ee565b915061214a826120e3565b604082019050919050565b6000602082019050818103600083015261216e81612132565b9050919050565b7f4552433732313a206120746f6b656e207769746820746865207370656369666960008201527f6564204944206973206e6f74206f776e6564206279207468652073656e646572602082015250565b60006121d16040836119ee565b91506121dc82612175565b604082019050919050565b60006020820190508181036000830152612200816121c4565b9050919050565b7f4e487b7100000000000000000000000000000000000000000000000000000000600052601160045260246000fd5b600061224182611a9e565b91506000820361225457612253612207565b5b600182039050919050565b7f4552433732313a2061646472657373206f776e65722063616e6e6f742062652060008201527f746865207a65726f206164647265737300000000000000000000000000000000602082015250565b60006122bb6030836119ee565b91506122c68261225f565b604082019050919050565b600060208201905081810360008301526122ea816122ae565b9050919050565b7f4552433732313a204f6e6c79206f776e657220697320616c6c6f77656420746f60008201527f20646f20746869732066756e6374696f6e616c69747900000000000000000000602082015250565b600061234d6036836119ee565b9150612358826122f1565b604082019050919050565b6000602082019050818103600083015261237c81612340565b9050919050565b7f4552433732313a2073656e6465722063616e6e6f742073657420617070726f7660008201527f616c20666f722068696d73656c662f68657273656c6600000000000000000000602082015250565b60006123df6036836119ee565b91506123ea82612383565b604082019050919050565b6000602082019050818103600083015261240e816123d2565b9050919050565b7f4552433732313a207472616e736665722063616e6e6f7420636f6d706c65746560008201527f20746f206120736d61727420636f6e7472616374206e6f7420696d706c656d6560208201527f6e74696e67204552433732315265636569766572000000000000000000000000604082015250565b60006124976054836119ee565b91506124a282612415565b606082019050919050565b600060208201905081810360008301526124c68161248a565b9050919050565b7f4552433732313a2063616e6e6f742067657420555249206f66206e6f6e65786960008201527f7374656e7420746f6b656e000000000000000000000000000000000000000000602082015250565b6000612529602b836119ee565b9150612534826124cd565b604082019050919050565b600060208201905081810360008301526125588161251c565b9050919050565b600081905092915050565b6000612575826119e3565b61257f818561255f565b935061258f8185602086016119ff565b80840191505092915050565b60008190508160005260206000209050919050565b600081546125bd81611e7b565b6125c7818661255f565b945060018216600081146125e257600181146125f357612626565b60ff19831686528186019350612626565b6125fc8561259b565b60005b8381101561261e578154818901526001820191506020810190506125ff565b838801955050505b50505092915050565b600061263b828561256a565b915061264782846125b0565b91508190509392505050565b7f4552433732313a204f6e6c792061646d696e732061726520616c6c6f7765642060008201527f746f20646f20746869732066756e6374696f6e616c6974790000000000000000602082015250565b60006126af6038836119ee565b91506126ba82612653565b604082019050919050565b600060208201905081810360008301526126de816126a2565b9050919050565b7f4552433732313a2066726f6d206164647265737320656e74657265642063616e60008201527f6e6f7420626520746865207a65726f2061646472657373000000000000000000602082015250565b60006127416037836119ee565b915061274c826126e5565b604082019050919050565b6000602082019050818103600083015261277081612734565b9050919050565b7f4552433732313a20746f206164647265737320656e74657265642063616e6e6f60008201527f7420626520746865207a65726f20616464726573730000000000000000000000602082015250565b60006127d36035836119ee565b91506127de82612777565b604082019050919050565b60006020820190508181036000830152612802816127c6565b9050919050565b7f4552433732313a20546f6b656e207769746820656e746572656420494420697360008201527f206e6f74206f776e6564206279207468652066726f6d20616464726573730000602082015250565b6000612865603e836119ee565b915061287082612809565b604082019050919050565b6000602082019050818103600083015261289481612858565b9050919050565b7f4552433732313a20546f6b656e2063616e6e6f74206265207472616e7366657260008201527f656420796574206173207472616e73666572206f662073746f636b206f776e6560208201527f7273686970206973206e6f742079657420766572696669656400000000000000604082015250565b600061291d6059836119ee565b91506129288261289b565b606082019050919050565b6000602082019050818103600083015261294c81612910565b9050919050565b7f4552433732313a2053656e646572206973206e65697468657220746865206f7760008201527f6e6572206e6f7220617070726f76656420746f20646f2074686973207472616e60208201527f73616374696f6e00000000000000000000000000000000000000000000000000604082015250565b60006129d56047836119ee565b91506129e082612953565b606082019050919050565b60006020820190508181036000830152612a04816129c8565b9050919050565b6000612a1682611a9e565b91507fffffffffffffffffffffffffffffffffffffffffffffffffffffffffffffffff8203612a4857612a47612207565b5b600182019050919050565b600081519050919050565b6000612a6982612a53565b612a738185612062565b9350612a838185602086016119ff565b612a8c81611a32565b840191505092915050565b6000608082019050612aac6000830187611b33565b612ab96020830186611b33565b612ac66040830185611c49565b8181036060830152612ad88184612a5e565b905095945050505050565b600081519050612af281611954565b92915050565b600060208284031215612b0e57612b0d61191e565b5b6000612b1c84828501612ae3565b9150509291505056fea2646970667358221220c59bc9e9bac83ccfd90b457fed20bcafa2c139726e3a6129ff23cb339e35627c64736f6c634300080d0033",
  "immutableReferences": {},
  "source": "// SPDX-License-Identifier: MIT\r\npragma solidity ^0.8.13;\r\n\r\nimport \"@openzeppelin/contracts/token/ERC721/IERC721.sol\";\r\nimport \"@openzeppelin/contracts/token/ERC721/IERC721Receiver.sol\";\r\nimport \"@openzeppelin/contracts/token/ERC721/extensions/IERC721Metadata.sol\";\r\n\r\ncontract ERC721 is IERC721, IERC721Metadata {\r\n  string public name;\r\n  string public symbol;\r\n  address public owner;\r\n\r\n  mapping(address => uint) private balances;\r\n  mapping(uint => address) private owners;\r\n  mapping(uint256 => address) private tokenApprovals;\r\n  mapping(address => mapping(address => bool)) private operatorApprovals;\r\n  mapping(uint256 => string) private tokenURIs;\r\n\r\n  mapping(uint256 => bool) public isTransferable;\r\n  mapping(address => bool) public admins;\r\n\r\n  constructor(string memory _name, string memory _symbol){\r\n      name = _name;\r\n      symbol = _symbol;\r\n      owner = msg.sender;\r\n      admins[owner] = true;\r\n  }\r\n  modifier onlyOwner() {\r\n      require(msg.sender == owner, \"ERC721: Only owner is allowed to do this functionality\");\r\n      _;\r\n  }\r\n  modifier onlyAdmin() {\r\n      require(admins[msg.sender], \"ERC721: Only admins are allowed to do this functionality\");\r\n      _;\r\n  }\r\n\r\n  function balanceOf(address _owner) public view returns (uint) {\r\n      require(_owner != address(0), \"ERC721: address owner cannot be the zero address\");\r\n      return balances[_owner];\r\n  }\r\n\r\n  function ownerOf(uint tokenId) public view returns (address) {\r\n      require(owners[tokenId] != address(0), \"ERC721: Token with entered ID does not exist\");\r\n      return owners[tokenId];\r\n  }\r\n\r\n   function getApproved(uint tokenId) public view returns (address) {\r\n       require(owners[tokenId] != address(0), \"ERC721: Token with entered ID does not exist\");\r\n       return tokenApprovals[tokenId];\r\n   }\r\n\r\n   function isApprovedForAll(address _owner, address operator) public view returns (bool) {\r\n       return operatorApprovals[_owner][operator];\r\n   }\r\n\r\n   function safeTransferFrom(address from, address to, uint256 tokenId, bytes calldata data) public {\r\n        _transfer(from, to, tokenId);\r\n        require(checkSafeCondition(from, to, tokenId, data), \"ERC721: transfer cannot complete to a smart contract not implementing ERC721Receiver\");\r\n   }\r\n\r\n   function safeTransferFrom(address from, address to, uint256 tokenId) public {\r\n        this.safeTransferFrom(from, to, tokenId, \"\");\r\n   }\r\n\r\n   function transferFrom(address from, address to, uint256 tokenId) public {\r\n        _transfer(from, to, tokenId);\r\n   }\r\n\r\n   function _transfer(address from, address to, uint256 tokenId) internal {\r\n        require(from != address(0), \"ERC721: from address entered cannot be the zero address\");\r\n        require(to != address(0), \"ERC721: to address entered cannot be the zero address\");\r\n        require(owners[tokenId] == from, \"ERC721: Token with entered ID is not owned by the from address\");\r\n        require(isTransferable[tokenId], \"ERC721: Token cannot be transfered yet as transfer of stock ownership is not yet verified\");\r\n        require(isApprovedOrIsOwner(msg.sender, tokenId), \"ERC721: Sender is neither the owner nor approved to do this transaction\");\r\n\r\n        //reset approve for the token with a new owner\r\n        _approve(address(0), tokenId);\r\n        balances[from]--;\r\n        balances[to]++;\r\n        owners[tokenId] = to;\r\n\r\n        emit Transfer(from, to, tokenId);\r\n   }\r\n\r\n   function setTransferable(uint tokenId, bool transferable) public onlyAdmin {\r\n        isTransferable[tokenId] = transferable;\r\n   }\r\n\r\n   function addOrRemoveAdmin(address admin, bool add) public onlyOwner {\r\n        admins[admin] = add;\r\n   }\r\n\r\n   function approve(address to, uint256 tokenId) public {\r\n       address _owner = owners[tokenId];\r\n       require(to != _owner, \"ERC721: owner cannot approve himself/herself\");\r\n       require(msg.sender == _owner || isApprovedForAll(_owner, msg.sender), \"ERC721: caller must own the token or be approved for all\");\r\n       _approve(to, tokenId);\r\n   }\r\n\r\n   function _approve(address to, uint256 tokenId) internal {\r\n       tokenApprovals[tokenId] = to;\r\n       emit Approval(owners[tokenId], to, tokenId);\r\n   }\r\n\r\n   function setApprovalForAll(address operator, bool approved) public {\r\n       require(msg.sender != operator, \"ERC721: sender cannot set approval for himself/herself\");\r\n       operatorApprovals[msg.sender][operator] = approved;\r\n       emit ApprovalForAll(msg.sender, operator, approved);\r\n   }\r\n\r\n    function isApprovedOrIsOwner(address caller, uint tokenId) internal view returns (bool){\r\n        return (owners[tokenId] == caller) || getApproved(tokenId) == caller || isApprovedForAll(owners[tokenId], caller);\r\n    }\r\n\r\n    function safeMint(address to, uint256 tokenId) internal {\r\n        safeMint(to, tokenId, \"\");\r\n    }\r\n\r\n    function safeMint(address to, uint256 tokenId, bytes memory data) internal {\r\n        require(to != address(0), \"ERC721: to address entered cannot be the zero address\");\r\n        require(owners[tokenId] == address(0), \"ERC721: a token with the specified ID is already minted\");\r\n\r\n        balances[to]++;\r\n        owners[tokenId] = to;\r\n\r\n        emit Transfer(address(0), to, tokenId);\r\n        require(\r\n            checkSafeCondition(address(0), to, tokenId, data),\r\n            \"ERC721: transfer cannot complete to a smart contract not implementing ERC721Receiver\"\r\n        );\r\n    }\r\n\r\n    function burn(uint256 tokenId) public {\r\n        require(owners[tokenId] != address(0), \"ERC721: no token with the specified ID was minted before\");\r\n        require(owners[tokenId] == msg.sender, \"ERC721: a token with the specified ID is not owned by the sender\");\r\n\r\n        _approve(address(0), tokenId);\r\n        balances[msg.sender]--;\r\n        isTransferable[tokenId] = false;\r\n\r\n        delete owners[tokenId];\r\n        delete tokenURIs[tokenId];\r\n\r\n        emit Transfer(msg.sender, address(0), tokenId);\r\n    }\r\n\r\n    //METADATA\r\n    function setTokenURI(uint256 tokenId, string memory _tokenURI) internal {\r\n        require(owners[tokenId] != address(0), \"ERC721: cannot set URI of a nonexistent token\");\r\n        tokenURIs[tokenId] = _tokenURI;\r\n    }\r\n\r\n    function tokenURI(uint tokenId) public view returns(string memory) {\r\n        require(owners[tokenId] != address(0), \"ERC721: cannot get URI of nonexistent token\");\r\n\r\n        return string(abi.encodePacked(baseURI(), tokenURIs[tokenId]));\r\n    }\r\n\r\n    function baseURI() internal pure returns(string memory) {\r\n      return \"https://ipfs.io/ipfs/\";\r\n    }\r\n\r\n\r\n    function checkSafeCondition(address from, address to, uint256 tokenId, bytes memory data) internal returns (bool){\r\n        if(isContract(to)){\r\n            try IERC721Receiver(to).onERC721Received(msg.sender, from, tokenId, data) returns (bytes4 retval) {\r\n                return (retval == IERC721Receiver.onERC721Received.selector);\r\n            } catch (bytes memory reason) {\r\n                if (reason.length == 0) {\r\n                    revert(\"ERC721: transfer cannot complete to a smart contract not implementing ERC721Receiver\");\r\n                } else {\r\n                    assembly {\r\n                        revert(add(32, reason), mload(reason))\r\n                    }\r\n                }\r\n            }\r\n        } else {\r\n            return true;\r\n        }\r\n    }\r\n\r\n    function isContract(address addr) internal view returns (bool) {\r\n        uint size;\r\n        assembly { size := extcodesize(addr) }\r\n        return size > 0;\r\n    }\r\n\r\n    function supportsInterface(bytes4 interfaceId) external pure returns (bool) {\r\n        return interfaceId == type(IERC721).interfaceId;\r\n    }\r\n}\r\n",
  "sourcePath": "D:\\S8\\Neros\\contracts\\ERC721.sol",
  "compiler": {
    "name": "solc",
    "version": "0.8.13+commit.abaa5c0e.Emscripten.clang"
  },
  "schemaVersion": "3.4.6",
  "updatedAt": "2022-05-08T23:35:35.156Z",
  "devdoc": {
    "kind": "dev",
    "methods": {
      "approve(address,uint256)": {
        "details": "Gives permission to `to` to transfer `tokenId` token to another account. The approval is cleared when the token is transferred. Only a single account can be approved at a time, so approving the zero address clears previous approvals. Requirements: - The caller must own the token or be an approved operator. - `tokenId` must exist. Emits an {Approval} event."
      },
      "getApproved(uint256)": {
        "details": "Returns the account approved for `tokenId` token. Requirements: - `tokenId` must exist."
      },
      "ownerOf(uint256)": {
        "details": "Returns the owner of the `tokenId` token. Requirements: - `tokenId` must exist."
      },
      "safeTransferFrom(address,address,uint256)": {
        "details": "Safely transfers `tokenId` token from `from` to `to`, checking first that contract recipients are aware of the ERC721 protocol to prevent tokens from being forever locked. Requirements: - `from` cannot be the zero address. - `to` cannot be the zero address. - `tokenId` token must exist and be owned by `from`. - If the caller is not `from`, it must be have been allowed to move this token by either {approve} or {setApprovalForAll}. - If `to` refers to a smart contract, it must implement {IERC721Receiver-onERC721Received}, which is called upon a safe transfer. Emits a {Transfer} event."
      },
      "safeTransferFrom(address,address,uint256,bytes)": {
        "details": "Safely transfers `tokenId` token from `from` to `to`. Requirements: - `from` cannot be the zero address. - `to` cannot be the zero address. - `tokenId` token must exist and be owned by `from`. - If the caller is not `from`, it must be approved to move this token by either {approve} or {setApprovalForAll}. - If `to` refers to a smart contract, it must implement {IERC721Receiver-onERC721Received}, which is called upon a safe transfer. Emits a {Transfer} event."
      },
      "supportsInterface(bytes4)": {
        "details": "Returns true if this contract implements the interface defined by `interfaceId`. See the corresponding https://eips.ethereum.org/EIPS/eip-165#how-interfaces-are-identified[EIP section] to learn more about how these ids are created. This function call must use less than 30 000 gas."
      },
      "tokenURI(uint256)": {
        "details": "Returns the Uniform Resource Identifier (URI) for `tokenId` token."
      },
      "transferFrom(address,address,uint256)": {
        "details": "Transfers `tokenId` token from `from` to `to`. WARNING: Usage of this method is discouraged, use {safeTransferFrom} whenever possible. Requirements: - `from` cannot be the zero address. - `to` cannot be the zero address. - `tokenId` token must be owned by `from`. - If the caller is not `from`, it must be approved to move this token by either {approve} or {setApprovalForAll}. Emits a {Transfer} event."
      }
    },
    "stateVariables": {
      "name": {
        "details": "Returns the token collection name."
      },
      "symbol": {
        "details": "Returns the token collection symbol."
      }
    },
    "version": 1
  },
  "userdoc": {
    "kind": "user",
    "methods": {},
    "version": 1
  }
}