{
  "contractName": "GetCarInfo",
  "abi": [
    {
      "inputs": [],
      "stateMutability": "nonpayable",
      "type": "constructor"
    },
    {
      "anonymous": false,
      "inputs": [
        {
          "indexed": true,
          "internalType": "bytes32",
          "name": "id",
          "type": "bytes32"
        }
      ],
      "name": "ChainlinkCancelled",
      "type": "event"
    },
    {
      "anonymous": false,
      "inputs": [
        {
          "indexed": true,
          "internalType": "bytes32",
          "name": "id",
          "type": "bytes32"
        }
      ],
      "name": "ChainlinkFulfilled",
      "type": "event"
    },
    {
      "anonymous": false,
      "inputs": [
        {
          "indexed": true,
          "internalType": "bytes32",
          "name": "id",
          "type": "bytes32"
        }
      ],
      "name": "ChainlinkRequested",
      "type": "event"
    },
    {
      "anonymous": false,
      "inputs": [
        {
          "indexed": true,
          "internalType": "bytes32",
          "name": "requestId",
          "type": "bytes32"
        },
        {
          "indexed": true,
          "internalType": "string",
          "name": "make",
          "type": "string"
        }
      ],
      "name": "RequestMakeFulfilled",
      "type": "event"
    },
    {
      "anonymous": false,
      "inputs": [
        {
          "indexed": true,
          "internalType": "bytes32",
          "name": "requestId",
          "type": "bytes32"
        },
        {
          "indexed": true,
          "internalType": "string",
          "name": "model",
          "type": "string"
        }
      ],
      "name": "RequestModelFulfilled",
      "type": "event"
    },
    {
      "anonymous": false,
      "inputs": [
        {
          "indexed": true,
          "internalType": "bytes32",
          "name": "requestId",
          "type": "bytes32"
        },
        {
          "indexed": true,
          "internalType": "uint256",
          "name": "modelYear",
          "type": "uint256"
        }
      ],
      "name": "RequestModelYearFulfilled",
      "type": "event"
    },
    {
      "inputs": [],
      "name": "make",
      "outputs": [
        {
          "internalType": "string",
          "name": "",
          "type": "string"
        }
      ],
      "stateMutability": "view",
      "type": "function",
      "constant": true
    },
    {
      "inputs": [],
      "name": "model",
      "outputs": [
        {
          "internalType": "string",
          "name": "",
          "type": "string"
        }
      ],
      "stateMutability": "view",
      "type": "function",
      "constant": true
    },
    {
      "inputs": [],
      "name": "modelYear",
      "outputs": [
        {
          "internalType": "uint256",
          "name": "",
          "type": "uint256"
        }
      ],
      "stateMutability": "view",
      "type": "function",
      "constant": true
    },
    {
      "inputs": [],
      "name": "owner",
      "outputs": [
        {
          "internalType": "address",
          "name": "",
          "type": "address"
        }
      ],
      "stateMutability": "view",
      "type": "function",
      "constant": true
    },
    {
      "inputs": [
        {
          "internalType": "string",
          "name": "vin",
          "type": "string"
        }
      ],
      "name": "requestCarInfo",
      "outputs": [],
      "stateMutability": "nonpayable",
      "type": "function"
    },
    {
      "inputs": [
        {
          "internalType": "bytes32",
          "name": "requestId",
          "type": "bytes32"
        },
        {
          "internalType": "bytes32",
          "name": "_modelB",
          "type": "bytes32"
        }
      ],
      "name": "fulfillModel",
      "outputs": [],
      "stateMutability": "nonpayable",
      "type": "function"
    },
    {
      "inputs": [
        {
          "internalType": "bytes32",
          "name": "requestId",
          "type": "bytes32"
        },
        {
          "internalType": "bytes32",
          "name": "_makeB",
          "type": "bytes32"
        }
      ],
      "name": "fulfillMake",
      "outputs": [],
      "stateMutability": "nonpayable",
      "type": "function"
    },
    {
      "inputs": [
        {
          "internalType": "bytes32",
          "name": "requestId",
          "type": "bytes32"
        },
        {
          "internalType": "uint256",
          "name": "_modelYear",
          "type": "uint256"
        }
      ],
      "name": "fulfillModelYear",
      "outputs": [],
      "stateMutability": "nonpayable",
      "type": "function"
    },
    {
      "inputs": [],
      "name": "withdrawLink",
      "outputs": [],
      "stateMutability": "nonpayable",
      "type": "function"
    }
  ],
  "bytecode": "0x60806040526001600455733a56ae4a2831c3d3514b5d7af5578e45ebdb7a40600a60006101000a81548173ffffffffffffffffffffffffffffffffffffffff021916908373ffffffffffffffffffffffffffffffffffffffff1602179055503480156200006b57600080fd5b506200007c620000f660201b60201c565b620000af600a60009054906101000a900473ffffffffffffffffffffffffffffffffffffffff166200018e60201b60201c565b33600660006101000a81548173ffffffffffffffffffffffffffffffffffffffff021916908373ffffffffffffffffffffffffffffffffffffffff160217905550620002b2565b6200018c73c89bd4e1632d3a43cb03aaad5262cbe4038bc57173ffffffffffffffffffffffffffffffffffffffff166338cc48316040518163ffffffff1660e01b8152600401602060405180830381865afa1580156200015a573d6000803e3d6000fd5b505050506040513d601f19601f8201168201806040525081019062000180919062000280565b620001d260201b60201c565b565b80600360006101000a81548173ffffffffffffffffffffffffffffffffffffffff021916908373ffffffffffffffffffffffffffffffffffffffff16021790555050565b80600260006101000a81548173ffffffffffffffffffffffffffffffffffffffff021916908373ffffffffffffffffffffffffffffffffffffffff16021790555050565b600080fd5b600073ffffffffffffffffffffffffffffffffffffffff82169050919050565b600062000248826200021b565b9050919050565b6200025a816200023b565b81146200026657600080fd5b50565b6000815190506200027a816200024f565b92915050565b60006020828403121562000299576200029862000216565b5b6000620002a98482850162000269565b91505092915050565b61242280620002c26000396000f3fe608060405234801561001057600080fd5b50600436106100935760003560e01c80638dc654a2116100665780638dc654a21461010c578063aea6a83a14610116578063c59834e214610134578063c6dad08214610150578063d1d884571461016e57610093565b80630ad9d052146100985780635aeada0c146100b657806372d39c2c146100d25780638da5cb5b146100ee575b600080fd5b6100a061018a565b6040516100ad919061172b565b60405180910390f35b6100d060048036038101906100cb9190611797565b610218565b005b6100ec60048036038101906100e79190611797565b61038a565b005b6100f66104fc565b6040516101039190611818565b60405180910390f35b610114610522565b005b61011e6106c1565b60405161012b919061184c565b60405180910390f35b61014e60048036038101906101499190611893565b6106c7565b005b610158610806565b604051610165919061172b565b60405180910390f35b61018860048036038101906101839190611a08565b610894565b005b6007805461019790611a80565b80601f01602080910402602001604051908101604052809291908181526020018280546101c390611a80565b80156102105780601f106101e557610100808354040283529160200191610210565b820191906000526020600020905b8154815290600101906020018083116101f357829003601f168201915b505050505081565b816005600082815260200190815260200160002060009054906101000a900473ffffffffffffffffffffffffffffffffffffffff1673ffffffffffffffffffffffffffffffffffffffff163373ffffffffffffffffffffffffffffffffffffffff16146102ba576040517f08c379a00000000000000000000000000000000000000000000000000000000081526004016102b190611b23565b60405180910390fd5b6005600082815260200190815260200160002060006101000a81549073ffffffffffffffffffffffffffffffffffffffff0219169055807f7cc135e0cebb02c3480ae5d74d377283180a2601f8f644edf7987b009316c63a60405160405180910390a2600061032883610912565b9050806040516103389190611b7f565b6040518091039020847fadcfddc37205dc4554abf993b9a2bb7bac5fa3a6a3931951d8d8ea7041658cc460405160405180910390a38060089080519060200190610383929190611568565b5050505050565b816005600082815260200190815260200160002060009054906101000a900473ffffffffffffffffffffffffffffffffffffffff1673ffffffffffffffffffffffffffffffffffffffff163373ffffffffffffffffffffffffffffffffffffffff161461042c576040517f08c379a000000000000000000000000000000000000000000000000000000000815260040161042390611b23565b60405180910390fd5b6005600082815260200190815260200160002060006101000a81549073ffffffffffffffffffffffffffffffffffffffff0219169055807f7cc135e0cebb02c3480ae5d74d377283180a2601f8f644edf7987b009316c63a60405160405180910390a2600061049a83610912565b9050806040516104aa9190611b7f565b6040518091039020847f87f2f37a13c087ea41c50b0cb414c25dd1ee771dad6184e2355a1d28e952b82b60405160405180910390a380600790805190602001906104f5929190611568565b5050505050565b600660009054906101000a900473ffffffffffffffffffffffffffffffffffffffff1681565b600660009054906101000a900473ffffffffffffffffffffffffffffffffffffffff1673ffffffffffffffffffffffffffffffffffffffff163373ffffffffffffffffffffffffffffffffffffffff161461057c57600080fd5b6000610586610aad565b90508073ffffffffffffffffffffffffffffffffffffffff1663a9059cbb338373ffffffffffffffffffffffffffffffffffffffff166370a08231306040518263ffffffff1660e01b81526004016105de9190611818565b602060405180830381865afa1580156105fb573d6000803e3d6000fd5b505050506040513d601f19601f8201168201806040525081019061061f9190611bab565b6040518363ffffffff1660e01b815260040161063c929190611bd8565b6020604051808303816000875af115801561065b573d6000803e3d6000fd5b505050506040513d601f19601f8201168201806040525081019061067f9190611c39565b6106be576040517f08c379a00000000000000000000000000000000000000000000000000000000081526004016106b590611cb2565b60405180910390fd5b50565b60095481565b816005600082815260200190815260200160002060009054906101000a900473ffffffffffffffffffffffffffffffffffffffff1673ffffffffffffffffffffffffffffffffffffffff163373ffffffffffffffffffffffffffffffffffffffff1614610769576040517f08c379a000000000000000000000000000000000000000000000000000000000815260040161076090611b23565b60405180910390fd5b6005600082815260200190815260200160002060006101000a81549073ffffffffffffffffffffffffffffffffffffffff0219169055807f7cc135e0cebb02c3480ae5d74d377283180a2601f8f644edf7987b009316c63a60405160405180910390a281837f4e926080a2b8bdf14e6f6f8faa640443e12fb8d8d9d66dffd87f804f7a3fa33a60405160405180910390a381600981905550505050565b6008805461081390611a80565b80601f016020809104026020016040519081016040528092919081815260200182805461083f90611a80565b801561088c5780601f106108615761010080835404028352916020019161088c565b820191906000526020600020905b81548152906001019060200180831161086f57829003601f168201915b505050505081565b600660009054906101000a900473ffffffffffffffffffffffffffffffffffffffff1673ffffffffffffffffffffffffffffffffffffffff163373ffffffffffffffffffffffffffffffffffffffff16146108ee57600080fd5b6108f9816001610ad7565b610904816002610ad7565b61090f816003610ad7565b50565b606060005b60208160ff161080156109695750600060f81b838260ff16602081106109405761093f611cd2565b5b1a60f81b7effffffffffffffffffffffffffffffffffffffffffffffffffffffffffffff191614155b1561098157808061097990611d3d565b915050610917565b60008160ff1667ffffffffffffffff8111156109a05761099f6118dd565b5b6040519080825280601f01601f1916602001820160405280156109d25781602001600182028036833780820191505090505b509050600091505b60208260ff16108015610a2c5750600060f81b848360ff1660208110610a0357610a02611cd2565b5b1a60f81b7effffffffffffffffffffffffffffffffffffffffffffffffffffffffffffff191614155b15610aa357838260ff1660208110610a4757610a46611cd2565b5b1a60f81b818360ff1681518110610a6157610a60611cd2565b5b60200101907effffffffffffffffffffffffffffffffffffffffffffffffffffffffffffff1916908160001a9053508180610a9b90611d3d565b9250506109da565b8092505050919050565b6000600260009054906101000a900473ffffffffffffffffffffffffffffffffffffffff16905090565b6000610b176040518060400160405280602081526020017f3138376262383065356565373461313339373334636163373437356633633665815250610d3f565b90506000606060018403610b6c576372d39c2c60e01b91506040518060400160405280600f81526020017f526573756c74732e382e56616c756500000000000000000000000000000000008152509050610c3f565b60028403610bbb57635aeada0c60e01b91506040518060400160405280600f81526020017f526573756c74732e362e56616c756500000000000000000000000000000000008152509050610c3e565b63c59834e260e01b91506040518060400160405280600f81526020017f526573756c74732e392e56616c756500000000000000000000000000000000008152509050610c3b6040518060400160405280602081526020017f3362376361306434386337613462326461393236383435363636356431316165815250610d3f565b92505b5b6000610c4c843085610d68565b9050610cb76040518060400160405280600381526020017f676574000000000000000000000000000000000000000000000000000000000081525087604051602001610c989190611e24565b60405160208183030381529060405283610d999092919063ffffffff16565b610d016040518060400160405280600481526020017f70617468000000000000000000000000000000000000000000000000000000008152508383610d999092919063ffffffff16565b610d36600a60009054906101000a900473ffffffffffffffffffffffffffffffffffffffff168267016345785d8a0000610dcc565b50505050505050565b6000808290506000815103610d5a576000801b915050610d63565b60208301519150505b919050565b610d706115ee565b610d786115ee565b610d8f85858584610e98909392919063ffffffff16565b9150509392505050565b610db0828460800151610f4890919063ffffffff16565b610dc7818460800151610f4890919063ffffffff16565b505050565b6000806004549050600181610de19190611e51565b6004819055506000634042994660e01b60008087600001513089604001518760018c6080015160000151604051602401610e22989796959493929190611f46565b604051602081830303815290604052907bffffffffffffffffffffffffffffffffffffffffffffffffffffffff19166020820180517bffffffffffffffffffffffffffffffffffffffffffffffffffffffff83818316178352505050509050610e8d86838684610f6d565b925050509392505050565b610ea06115ee565b610eb08560800151610100611102565b508385600001818152505082856020019073ffffffffffffffffffffffffffffffffffffffff16908173ffffffffffffffffffffffffffffffffffffffff16815250508185604001907bffffffffffffffffffffffffffffffffffffffffffffffffffffffff191690817bffffffffffffffffffffffffffffffffffffffffffffffffffffffff191681525050849050949350505050565b610f55826003835161116c565b610f6881836112f190919063ffffffff16565b505050565b60003084604051602001610f82929190612084565b604051602081830303815290604052805190602001209050846005600083815260200190815260200160002060006101000a81548173ffffffffffffffffffffffffffffffffffffffff021916908373ffffffffffffffffffffffffffffffffffffffff160217905550807fb5e6e01e79f91267dc17b4e6314d5d4d03593d2ceee0fbb452b750bd70ea5af960405160405180910390a2600260009054906101000a900473ffffffffffffffffffffffffffffffffffffffff1673ffffffffffffffffffffffffffffffffffffffff16634000aea08685856040518463ffffffff1660e01b8152600401611078939291906120b0565b6020604051808303816000875af1158015611097573d6000803e3d6000fd5b505050506040513d601f19601f820116820180604052508101906110bb9190611c39565b6110fa576040517f08c379a00000000000000000000000000000000000000000000000000000000081526004016110f190612160565b60405180910390fd5b949350505050565b61110a61165b565b600060208361111991906121af565b146111455760208261112b91906121af565b602061113791906121e0565b826111429190611e51565b91505b81836020018181525050604051808452600081528281016020016040525082905092915050565b60178167ffffffffffffffff16116111a35761119d8160058460ff16901b60ff16178461131390919063ffffffff16565b506112ec565b60ff8167ffffffffffffffff16116111f9576111d2601860058460ff16901b178461131390919063ffffffff16565b506111f38167ffffffffffffffff166001856113339092919063ffffffff16565b506112eb565b61ffff8167ffffffffffffffff161161125057611229601960058460ff16901b178461131390919063ffffffff16565b5061124a8167ffffffffffffffff166002856113339092919063ffffffff16565b506112ea565b63ffffffff8167ffffffffffffffff16116112a957611282601a60058460ff16901b178461131390919063ffffffff16565b506112a38167ffffffffffffffff166004856113339092919063ffffffff16565b506112e9565b6112c6601b60058460ff16901b178461131390919063ffffffff16565b506112e78167ffffffffffffffff166008856113339092919063ffffffff16565b505b5b5b5b505050565b6112f961165b565b61130b83846000015151848551611355565b905092915050565b61131b61165b565b61132b8384600001515184611444565b905092915050565b61133b61165b565b61134c84856000015151858561149a565b90509392505050565b61135d61165b565b825182111561136b57600080fd5b8460200151828561137c9190611e51565b11156113b1576113b08560026113a18860200151888761139c9190611e51565b611528565b6113ab9190612214565b611544565b5b6000808651805187602083010193508088870111156113d05787860182525b60208701925050505b6020841061141757805182526020826113f29190611e51565b91506020816114019190611e51565b905060208461141091906121e0565b93506113d9565b60006001856020036101000a03905080198251168184511681811785525050508692505050949350505050565b61144c61165b565b8360200151831061147257611471846002866020015161146c9190612214565b611544565b5b8351805160208583010184815381860361148d576001820183525b5050508390509392505050565b6114a261165b565b846020015184836114b39190611e51565b11156114db576114da85600286856114cb9190611e51565b6114d59190612214565b611544565b5b60006001836101006114ed91906123a1565b6114f791906121e0565b9050855183868201018583198251161781528151858801111561151a5784870182525b505085915050949350505050565b60008183111561153a5782905061153e565b8190505b92915050565b6000826000015190506115578383611102565b5061156283826112f1565b50505050565b82805461157490611a80565b90600052602060002090601f01602090048101928261159657600085556115dd565b82601f106115af57805160ff19168380011785556115dd565b828001600101855582156115dd579182015b828111156115dc5782518255916020019190600101906115c1565b5b5090506115ea9190611675565b5090565b6040518060a0016040528060008019168152602001600073ffffffffffffffffffffffffffffffffffffffff16815260200160007bffffffffffffffffffffffffffffffffffffffffffffffffffffffff191681526020016000815260200161165561165b565b81525090565b604051806040016040528060608152602001600081525090565b5b8082111561168e576000816000905550600101611676565b5090565b600081519050919050565b600082825260208201905092915050565b60005b838110156116cc5780820151818401526020810190506116b1565b838111156116db576000848401525b50505050565b6000601f19601f8301169050919050565b60006116fd82611692565b611707818561169d565b93506117178185602086016116ae565b611720816116e1565b840191505092915050565b6000602082019050818103600083015261174581846116f2565b905092915050565b6000604051905090565b600080fd5b600080fd5b6000819050919050565b61177481611761565b811461177f57600080fd5b50565b6000813590506117918161176b565b92915050565b600080604083850312156117ae576117ad611757565b5b60006117bc85828601611782565b92505060206117cd85828601611782565b9150509250929050565b600073ffffffffffffffffffffffffffffffffffffffff82169050919050565b6000611802826117d7565b9050919050565b611812816117f7565b82525050565b600060208201905061182d6000830184611809565b92915050565b6000819050919050565b61184681611833565b82525050565b6000602082019050611861600083018461183d565b92915050565b61187081611833565b811461187b57600080fd5b50565b60008135905061188d81611867565b92915050565b600080604083850312156118aa576118a9611757565b5b60006118b885828601611782565b92505060206118c98582860161187e565b9150509250929050565b600080fd5b600080fd5b7f4e487b7100000000000000000000000000000000000000000000000000000000600052604160045260246000fd5b611915826116e1565b810181811067ffffffffffffffff82111715611934576119336118dd565b5b80604052505050565b600061194761174d565b9050611953828261190c565b919050565b600067ffffffffffffffff821115611973576119726118dd565b5b61197c826116e1565b9050602081019050919050565b82818337600083830152505050565b60006119ab6119a684611958565b61193d565b9050828152602081018484840111156119c7576119c66118d8565b5b6119d2848285611989565b509392505050565b600082601f8301126119ef576119ee6118d3565b5b81356119ff848260208601611998565b91505092915050565b600060208284031215611a1e57611a1d611757565b5b600082013567ffffffffffffffff811115611a3c57611a3b61175c565b5b611a48848285016119da565b91505092915050565b7f4e487b7100000000000000000000000000000000000000000000000000000000600052602260045260246000fd5b60006002820490506001821680611a9857607f821691505b602082108103611aab57611aaa611a51565b5b50919050565b7f536f75726365206d75737420626520746865206f7261636c65206f662074686560008201527f2072657175657374000000000000000000000000000000000000000000000000602082015250565b6000611b0d60288361169d565b9150611b1882611ab1565b604082019050919050565b60006020820190508181036000830152611b3c81611b00565b9050919050565b600081905092915050565b6000611b5982611692565b611b638185611b43565b9350611b738185602086016116ae565b80840191505092915050565b6000611b8b8284611b4e565b915081905092915050565b600081519050611ba581611867565b92915050565b600060208284031215611bc157611bc0611757565b5b6000611bcf84828501611b96565b91505092915050565b6000604082019050611bed6000830185611809565b611bfa602083018461183d565b9392505050565b60008115159050919050565b611c1681611c01565b8114611c2157600080fd5b50565b600081519050611c3381611c0d565b92915050565b600060208284031215611c4f57611c4e611757565b5b6000611c5d84828501611c24565b91505092915050565b7f556e61626c6520746f207472616e736665720000000000000000000000000000600082015250565b6000611c9c60128361169d565b9150611ca782611c66565b602082019050919050565b60006020820190508181036000830152611ccb81611c8f565b9050919050565b7f4e487b7100000000000000000000000000000000000000000000000000000000600052603260045260246000fd5b7f4e487b7100000000000000000000000000000000000000000000000000000000600052601160045260246000fd5b600060ff82169050919050565b6000611d4882611d30565b915060ff8203611d5b57611d5a611d01565b5b600182019050919050565b7f68747470733a2f2f767069632e6e687473612e646f742e676f762f6170692f7660008201527f656869636c65732f6465636f646576696e2f0000000000000000000000000000602082015250565b6000611dc2603283611b43565b9150611dcd82611d66565b603282019050919050565b7f3f666f726d61743d6a736f6e0000000000000000000000000000000000000000600082015250565b6000611e0e600c83611b43565b9150611e1982611dd8565b600c82019050919050565b6000611e2f82611db5565b9150611e3b8284611b4e565b9150611e4682611e01565b915081905092915050565b6000611e5c82611833565b9150611e6783611833565b9250827fffffffffffffffffffffffffffffffffffffffffffffffffffffffffffffffff03821115611e9c57611e9b611d01565b5b828201905092915050565b611eb081611761565b82525050565b60007fffffffff0000000000000000000000000000000000000000000000000000000082169050919050565b611eeb81611eb6565b82525050565b600081519050919050565b600082825260208201905092915050565b6000611f1882611ef1565b611f228185611efc565b9350611f328185602086016116ae565b611f3b816116e1565b840191505092915050565b600061010082019050611f5c600083018b611809565b611f69602083018a61183d565b611f766040830189611ea7565b611f836060830188611809565b611f906080830187611ee2565b611f9d60a083018661183d565b611faa60c083018561183d565b81810360e0830152611fbc8184611f0d565b90509998505050505050505050565b6000819050919050565b6000611ff0611feb611fe6846117d7565b611fcb565b6117d7565b9050919050565b600061200282611fd5565b9050919050565b600061201482611ff7565b9050919050565b60008160601b9050919050565b60006120338261201b565b9050919050565b600061204582612028565b9050919050565b61205d61205882612009565b61203a565b82525050565b6000819050919050565b61207e61207982611833565b612063565b82525050565b6000612090828561204c565b6014820191506120a0828461206d565b6020820191508190509392505050565b60006060820190506120c56000830186611809565b6120d2602083018561183d565b81810360408301526120e48184611f0d565b9050949350505050565b7f756e61626c6520746f207472616e73666572416e6443616c6c20746f206f726160008201527f636c650000000000000000000000000000000000000000000000000000000000602082015250565b600061214a60238361169d565b9150612155826120ee565b604082019050919050565b600060208201905081810360008301526121798161213d565b9050919050565b7f4e487b7100000000000000000000000000000000000000000000000000000000600052601260045260246000fd5b60006121ba82611833565b91506121c583611833565b9250826121d5576121d4612180565b5b828206905092915050565b60006121eb82611833565b91506121f683611833565b92508282101561220957612208611d01565b5b828203905092915050565b600061221f82611833565b915061222a83611833565b9250817fffffffffffffffffffffffffffffffffffffffffffffffffffffffffffffffff048311821515161561226357612262611d01565b5b828202905092915050565b60008160011c9050919050565b6000808291508390505b60018511156122c5578086048111156122a1576122a0611d01565b5b60018516156122b05780820291505b80810290506122be8561226e565b9450612285565b94509492505050565b6000826122de576001905061239a565b816122ec576000905061239a565b8160018114612302576002811461230c5761233b565b600191505061239a565b60ff84111561231e5761231d611d01565b5b8360020a91508482111561233557612334611d01565b5b5061239a565b5060208310610133831016604e8410600b84101617156123705782820a90508381111561236b5761236a611d01565b5b61239a565b61237d848484600161227b565b9250905081840481111561239457612393611d01565b5b81810290505b9392505050565b60006123ac82611833565b91506123b783611833565b92506123e47fffffffffffffffffffffffffffffffffffffffffffffffffffffffffffffffff84846122ce565b90509291505056fea26469706673582212206f095f572ff5e38fdd4c3b9d03f1752ffb96e131e50b03baf9a1a0bddbe4f59964736f6c634300080d0033",
  "immutableReferences": {},
  "source": "//SPDX-License-Identifier: MIT\r\npragma solidity ^0.8.13;\r\n\r\nimport \"@chainlink/contracts/src/v0.8/ChainlinkClient.sol\";\r\n\r\ncontract GetCarInfo is ChainlinkClient {\r\n  using Chainlink for Chainlink.Request;\r\n\r\n  address public owner;\r\n  string public model;\r\n  string public make;\r\n  uint256 public modelYear;\r\n\r\n  address ORACLE_ADDRESS = 0x3A56aE4a2831C3d3514b5D7Af5578E45eBDb7a40;\r\n  string constant JOBIDSTR = \"187bb80e5ee74a139734cac7475f3c6e\";\r\n  string constant JOBIDINT = \"3b7ca0d48c7a4b2da9268456665d11ae\";\r\n  uint256 constant private ORACLE_PAYMENT = 100000000000000000;\r\n\r\n  constructor() {\r\n    setPublicChainlinkToken();\r\n    setChainlinkOracle(ORACLE_ADDRESS);\r\n    owner = msg.sender;\r\n  }\r\n  function requestCarInfo(string memory vin) public onlyOwner\r\n  {\r\n    getVinData(vin, 1);\r\n    getVinData(vin, 2);\r\n    getVinData(vin, 3);\r\n  }\r\n\r\n  function getVinData(string memory vin, uint caseNum) internal {\r\n    bytes32 specId = stringToBytes32(JOBIDSTR);\r\n    bytes4 selector;\r\n    string memory pathStr;\r\n    if(caseNum == 1){\r\n        selector = this.fulfillModel.selector;\r\n        pathStr = \"Results.8.Value\";\r\n    } else if (caseNum == 2) {\r\n        selector = this.fulfillMake.selector;\r\n        pathStr = \"Results.6.Value\";\r\n    } else {\r\n        selector = this.fulfillModelYear.selector;\r\n        pathStr = \"Results.9.Value\";\r\n        specId = stringToBytes32(JOBIDINT);\r\n    }\r\n    Chainlink.Request memory req = buildChainlinkRequest(specId, address(this), selector);\r\n    req.add(\"get\",string(abi.encodePacked(\"https://vpic.nhtsa.dot.gov/api/vehicles/decodevin/\", vin, \"?format=json\")));\r\n    req.add(\"path\", pathStr);\r\n    sendChainlinkRequestTo(ORACLE_ADDRESS, req, ORACLE_PAYMENT);\r\n  }\r\n\r\n  event RequestModelFulfilled(\r\n    bytes32 indexed requestId,\r\n    string indexed model\r\n  );\r\n\r\n  event RequestMakeFulfilled(\r\n    bytes32 indexed requestId,\r\n    string indexed make\r\n  );\r\n\r\n  event RequestModelYearFulfilled(\r\n    bytes32 indexed requestId,\r\n    uint256 indexed modelYear\r\n  );\r\n\r\n  function fulfillModel(\r\n    bytes32 requestId,\r\n    bytes32 _modelB\r\n  )\r\n    public\r\n    recordChainlinkFulfillment(requestId)\r\n  {\r\n    string memory _model = bytes32ToString(_modelB);\r\n    emit RequestModelFulfilled(requestId, _model);\r\n    model = _model;\r\n  }\r\n\r\n  function fulfillMake(\r\n    bytes32 requestId,\r\n    bytes32 _makeB\r\n  )\r\n    public\r\n    recordChainlinkFulfillment(requestId)\r\n  {\r\n    string memory _make = bytes32ToString(_makeB);\r\n    emit RequestMakeFulfilled(requestId, _make);\r\n    make = _make;\r\n  }\r\n\r\n  function fulfillModelYear(\r\n    bytes32 requestId,\r\n    uint _modelYear\r\n  )\r\n    public\r\n    recordChainlinkFulfillment(requestId)\r\n  {\r\n    emit RequestModelYearFulfilled(requestId, _modelYear);\r\n    modelYear = _modelYear;\r\n  }\r\n\r\n  // withdrawLink allows the owner to withdraw any extra LINK on the contract\r\n  function withdrawLink()\r\n    public\r\n    onlyOwner\r\n  {\r\n    LinkTokenInterface link = LinkTokenInterface(chainlinkTokenAddress());\r\n    require(link.transfer(msg.sender, link.balanceOf(address(this))), \"Unable to transfer\");\r\n  }\r\n\r\n  modifier onlyOwner() {\r\n    require(msg.sender == owner);\r\n    _;\r\n  }\r\n\r\n  // A helper funciton to make the string a bytes32\r\n  function stringToBytes32(string memory source) private pure returns (bytes32 result) {\r\n    bytes memory tempEmptyStringTest = bytes(source);\r\n    if (tempEmptyStringTest.length == 0) {\r\n      return 0x0;\r\n    }\r\n    assembly { // solhint-disable-line no-inline-assembly\r\n      result := mload(add(source, 32))\r\n    }\r\n  }\r\n\r\n  function bytes32ToString(bytes32 _bytes32) private pure returns (string memory) {\r\n    uint8 i = 0;\r\n    while(i < 32 && _bytes32[i] != 0) {\r\n        i++;\r\n    }\r\n    bytes memory bytesArray = new bytes(i);\r\n    for (i = 0; i < 32 && _bytes32[i] != 0; i++) {\r\n        bytesArray[i] = _bytes32[i];\r\n    }\r\n    return string(bytesArray);\r\n}\r\n}\r\n",
  "sourcePath": "D:\\S8\\Neros\\contracts\\GetCarInfo.sol",
  "compiler": {
    "name": "solc",
    "version": "0.8.13+commit.abaa5c0e.Emscripten.clang"
  },
  "schemaVersion": "3.4.6",
  "updatedAt": "2022-05-26T13:40:32.926Z",
  "networkType": "ethereum",
  "devdoc": {
    "kind": "dev",
    "methods": {},
    "version": 1
  },
  "userdoc": {
    "kind": "user",
    "methods": {},
    "version": 1
  }
}