{
  "contractName": "GetStockPrice",
  "abi": [
    {
      "inputs": [],
      "stateMutability": "nonpayable",
      "type": "constructor"
    },
    {
      "anonymous": false,
      "inputs": [
        {
          "indexed": true,
          "internalType": "bytes32",
          "name": "id",
          "type": "bytes32"
        }
      ],
      "name": "ChainlinkCancelled",
      "type": "event"
    },
    {
      "anonymous": false,
      "inputs": [
        {
          "indexed": true,
          "internalType": "bytes32",
          "name": "id",
          "type": "bytes32"
        }
      ],
      "name": "ChainlinkFulfilled",
      "type": "event"
    },
    {
      "anonymous": false,
      "inputs": [
        {
          "indexed": true,
          "internalType": "bytes32",
          "name": "id",
          "type": "bytes32"
        }
      ],
      "name": "ChainlinkRequested",
      "type": "event"
    },
    {
      "anonymous": false,
      "inputs": [
        {
          "indexed": true,
          "internalType": "bytes32",
          "name": "requestId",
          "type": "bytes32"
        },
        {
          "indexed": false,
          "internalType": "uint256",
          "name": "_price",
          "type": "uint256"
        }
      ],
      "name": "RequestFulfilled",
      "type": "event"
    },
    {
      "inputs": [],
      "name": "currentPrice",
      "outputs": [
        {
          "internalType": "uint256",
          "name": "",
          "type": "uint256"
        }
      ],
      "stateMutability": "view",
      "type": "function",
      "constant": true
    },
    {
      "inputs": [],
      "name": "owner",
      "outputs": [
        {
          "internalType": "address",
          "name": "",
          "type": "address"
        }
      ],
      "stateMutability": "view",
      "type": "function",
      "constant": true
    },
    {
      "inputs": [
        {
          "internalType": "string",
          "name": "ticker",
          "type": "string"
        }
      ],
      "name": "requestStockPrice",
      "outputs": [],
      "stateMutability": "nonpayable",
      "type": "function"
    },
    {
      "inputs": [
        {
          "internalType": "bytes32",
          "name": "requestId",
          "type": "bytes32"
        },
        {
          "internalType": "uint256",
          "name": "_price",
          "type": "uint256"
        }
      ],
      "name": "fulfillBytes",
      "outputs": [],
      "stateMutability": "nonpayable",
      "type": "function"
    },
    {
      "inputs": [],
      "name": "withdrawLink",
      "outputs": [],
      "stateMutability": "nonpayable",
      "type": "function"
    }
  ],
  "bytecode": "0x60806040526001600455733a56ae4a2831c3d3514b5d7af5578e45ebdb7a40600860006101000a81548173ffffffffffffffffffffffffffffffffffffffff021916908373ffffffffffffffffffffffffffffffffffffffff1602179055503480156200006b57600080fd5b506200007c620000f660201b60201c565b620000af600860009054906101000a900473ffffffffffffffffffffffffffffffffffffffff166200018e60201b60201c565b33600760006101000a81548173ffffffffffffffffffffffffffffffffffffffff021916908373ffffffffffffffffffffffffffffffffffffffff160217905550620002b2565b6200018c73c89bd4e1632d3a43cb03aaad5262cbe4038bc57173ffffffffffffffffffffffffffffffffffffffff166338cc48316040518163ffffffff1660e01b8152600401602060405180830381865afa1580156200015a573d6000803e3d6000fd5b505050506040513d601f19601f8201168201806040525081019062000180919062000280565b620001d260201b60201c565b565b80600360006101000a81548173ffffffffffffffffffffffffffffffffffffffff021916908373ffffffffffffffffffffffffffffffffffffffff16021790555050565b80600260006101000a81548173ffffffffffffffffffffffffffffffffffffffff021916908373ffffffffffffffffffffffffffffffffffffffff16021790555050565b600080fd5b600073ffffffffffffffffffffffffffffffffffffffff82169050919050565b600062000248826200021b565b9050919050565b6200025a816200023b565b81146200026657600080fd5b50565b6000815190506200027a816200024f565b92915050565b60006020828403121562000299576200029862000216565b5b6000620002a98482850162000269565b91505092915050565b611ee180620002c26000396000f3fe608060405234801561001057600080fd5b50600436106100575760003560e01c80634a72159e1461005c5780638da5cb5b146100785780638dc654a2146100965780639d1b464a146100a0578063b7d67a62146100be575b600080fd5b61007660048036038101906100719190611264565b6100da565b005b610080610223565b60405161008d91906112e5565b60405180910390f35b61009e610249565b005b6100a86103e8565b6040516100b5919061130f565b60405180910390f35b6100d860048036038101906100d39190611470565b6103ee565b005b816005600082815260200190815260200160002060009054906101000a900473ffffffffffffffffffffffffffffffffffffffff1673ffffffffffffffffffffffffffffffffffffffff163373ffffffffffffffffffffffffffffffffffffffff161461017c576040517f08c379a00000000000000000000000000000000000000000000000000000000081526004016101739061153c565b60405180910390fd5b6005600082815260200190815260200160002060006101000a81549073ffffffffffffffffffffffffffffffffffffffff0219169055807f7cc135e0cebb02c3480ae5d74d377283180a2601f8f644edf7987b009316c63a60405160405180910390a2827f1ca8663227a7fe9919713a01d344afbb434e234f35a3e540a6ad924f88771f388360405161020f919061130f565b60405180910390a281600681905550505050565b600760009054906101000a900473ffffffffffffffffffffffffffffffffffffffff1681565b600760009054906101000a900473ffffffffffffffffffffffffffffffffffffffff1673ffffffffffffffffffffffffffffffffffffffff163373ffffffffffffffffffffffffffffffffffffffff16146102a357600080fd5b60006102ad61067d565b90508073ffffffffffffffffffffffffffffffffffffffff1663a9059cbb338373ffffffffffffffffffffffffffffffffffffffff166370a08231306040518263ffffffff1660e01b815260040161030591906112e5565b602060405180830381865afa158015610322573d6000803e3d6000fd5b505050506040513d601f19601f820116820180604052508101906103469190611571565b6040518363ffffffff1660e01b815260040161036392919061159e565b6020604051808303816000875af1158015610382573d6000803e3d6000fd5b505050506040513d601f19601f820116820180604052508101906103a691906115ff565b6103e5576040517f08c379a00000000000000000000000000000000000000000000000000000000081526004016103dc90611678565b60405180910390fd5b50565b60065481565b600061042e6040518060400160405280602081526020017f33623763613064343863376134623264613932363834353636363564313161658152506106a7565b905060006104448230634a72159e60e01b6106d0565b90506104af6040518060400160405280600381526020017f67657400000000000000000000000000000000000000000000000000000000008152508460405160200161049091906117aa565b604051602081830303815290604052836107019092919063ffffffff16565b6000600267ffffffffffffffff8111156104cc576104cb611345565b5b6040519080825280602002602001820160405280156104ff57816020015b60608152602001906001900390816104ea5790505b5090506040518060400160405280600c81526020017f476c6f62616c2051756f746500000000000000000000000000000000000000008152508160008151811061054c5761054b6117cc565b5b60200260200101819052506040518060400160405280600981526020017f30352e2070726963650000000000000000000000000000000000000000000000815250816001815181106105a1576105a06117cc565b5b60200260200101819052506105f66040518060400160405280600481526020017f706174680000000000000000000000000000000000000000000000000000000081525082846107349092919063ffffffff16565b6106416040518060400160405280600581526020017f74696d65730000000000000000000000000000000000000000000000000000008152506064846107bb9092919063ffffffff16565b610676600860009054906101000a900473ffffffffffffffffffffffffffffffffffffffff168367016345785d8a00006107ee565b5050505050565b6000600260009054906101000a900473ffffffffffffffffffffffffffffffffffffffff16905090565b60008082905060008151036106c2576000801b9150506106cb565b60208301519150505b919050565b6106d861115d565b6106e061115d565b6106f7858585846108ba909392919063ffffffff16565b9150509392505050565b61071882846080015161096a90919063ffffffff16565b61072f81846080015161096a90919063ffffffff16565b505050565b61074b82846080015161096a90919063ffffffff16565b610758836080015161098f565b60005b81518110156107a85761079582828151811061077a576107796117cc565b5b6020026020010151856080015161096a90919063ffffffff16565b80806107a09061182a565b91505061075b565b506107b6836080015161099d565b505050565b6107d282846080015161096a90919063ffffffff16565b6107e98184608001516109ab90919063ffffffff16565b505050565b60008060045490506001816108039190611872565b6004819055506000634042994660e01b60008087600001513089604001518760018c6080015160000151604051602401610844989796959493929190611967565b604051602081830303815290604052907bffffffffffffffffffffffffffffffffffffffffffffffffffffffff19166020820180517bffffffffffffffffffffffffffffffffffffffffffffffffffffffff838183161783525050505090506108af86838684610a58565b925050509392505050565b6108c261115d565b6108d28560800151610100610bed565b508385600001818152505082856020019073ffffffffffffffffffffffffffffffffffffffff16908173ffffffffffffffffffffffffffffffffffffffff16815250508185604001907bffffffffffffffffffffffffffffffffffffffffffffffffffffffff191690817bffffffffffffffffffffffffffffffffffffffffffffffffffffffff191681525050849050949350505050565b6109778260038351610c57565b61098a8183610ddc90919063ffffffff16565b505050565b61099a816004610dfe565b50565b6109a8816007610dfe565b50565b7fffffffffffffffffffffffffffffffffffffffffffffffff00000000000000008112156109e2576109dd8282610e20565b610a54565b67ffffffffffffffff811315610a01576109fc8282610e97565b610a53565b60008112610a1a57610a1582600083610c57565b610a52565b610a51826001837fffffffffffffffffffffffffffffffffffffffffffffffffffffffffffffffff610a4c91906119f6565b610c57565b5b5b5b5050565b60003084604051602001610a6d929190611b43565b604051602081830303815290604052805190602001209050846005600083815260200190815260200160002060006101000a81548173ffffffffffffffffffffffffffffffffffffffff021916908373ffffffffffffffffffffffffffffffffffffffff160217905550807fb5e6e01e79f91267dc17b4e6314d5d4d03593d2ceee0fbb452b750bd70ea5af960405160405180910390a2600260009054906101000a900473ffffffffffffffffffffffffffffffffffffffff1673ffffffffffffffffffffffffffffffffffffffff16634000aea08685856040518463ffffffff1660e01b8152600401610b6393929190611b6f565b6020604051808303816000875af1158015610b82573d6000803e3d6000fd5b505050506040513d601f19601f82011682018060405250810190610ba691906115ff565b610be5576040517f08c379a0000000000000000000000000000000000000000000000000000000008152600401610bdc90611c1f565b60405180910390fd5b949350505050565b610bf56111ca565b6000602083610c049190611c6e565b14610c3057602082610c169190611c6e565b6020610c229190611c9f565b82610c2d9190611872565b91505b81836020018181525050604051808452600081528281016020016040525082905092915050565b60178167ffffffffffffffff1611610c8e57610c888160058460ff16901b60ff161784610ee390919063ffffffff16565b50610dd7565b60ff8167ffffffffffffffff1611610ce457610cbd601860058460ff16901b1784610ee390919063ffffffff16565b50610cde8167ffffffffffffffff16600185610f039092919063ffffffff16565b50610dd6565b61ffff8167ffffffffffffffff1611610d3b57610d14601960058460ff16901b1784610ee390919063ffffffff16565b50610d358167ffffffffffffffff16600285610f039092919063ffffffff16565b50610dd5565b63ffffffff8167ffffffffffffffff1611610d9457610d6d601a60058460ff16901b1784610ee390919063ffffffff16565b50610d8e8167ffffffffffffffff16600485610f039092919063ffffffff16565b50610dd4565b610db1601b60058460ff16901b1784610ee390919063ffffffff16565b50610dd28167ffffffffffffffff16600885610f039092919063ffffffff16565b505b5b5b5b505050565b610de46111ca565b610df683846000015151848551610f25565b905092915050565b610e1b601f60058360ff16901b1783610ee390919063ffffffff16565b505050565b610e3e60036005600660ff16901b1783610ee390919063ffffffff16565b50610e9382827fffffffffffffffffffffffffffffffffffffffffffffffffffffffffffffffff610e6f91906119f6565b604051602001610e7f919061130f565b604051602081830303815290604052611014565b5050565b610eb560026005600660ff16901b1783610ee390919063ffffffff16565b50610edf8282604051602001610ecb919061130f565b604051602081830303815290604052611014565b5050565b610eeb6111ca565b610efb8384600001515184611039565b905092915050565b610f0b6111ca565b610f1c84856000015151858561108f565b90509392505050565b610f2d6111ca565b8251821115610f3b57600080fd5b84602001518285610f4c9190611872565b1115610f8157610f80856002610f7188602001518887610f6c9190611872565b61111d565b610f7b9190611cd3565b611139565b5b600080865180518760208301019350808887011115610fa05787860182525b60208701925050505b60208410610fe75780518252602082610fc29190611872565b9150602081610fd19190611872565b9050602084610fe09190611c9f565b9350610fa9565b60006001856020036101000a03905080198251168184511681811785525050508692505050949350505050565b6110218260028351610c57565b6110348183610ddc90919063ffffffff16565b505050565b6110416111ca565b836020015183106110675761106684600286602001516110619190611cd3565b611139565b5b83518051602085830101848153818603611082576001820183525b5050508390509392505050565b6110976111ca565b846020015184836110a89190611872565b11156110d0576110cf85600286856110c09190611872565b6110ca9190611cd3565b611139565b5b60006001836101006110e29190611e60565b6110ec9190611c9f565b9050855183868201018583198251161781528151858801111561110f5784870182525b505085915050949350505050565b60008183111561112f57829050611133565b8190505b92915050565b60008260000151905061114c8383610bed565b506111578382610ddc565b50505050565b6040518060a0016040528060008019168152602001600073ffffffffffffffffffffffffffffffffffffffff16815260200160007bffffffffffffffffffffffffffffffffffffffffffffffffffffffff19168152602001600081526020016111c46111ca565b81525090565b604051806040016040528060608152602001600081525090565b6000604051905090565b600080fd5b600080fd5b6000819050919050565b61120b816111f8565b811461121657600080fd5b50565b60008135905061122881611202565b92915050565b6000819050919050565b6112418161122e565b811461124c57600080fd5b50565b60008135905061125e81611238565b92915050565b6000806040838503121561127b5761127a6111ee565b5b600061128985828601611219565b925050602061129a8582860161124f565b9150509250929050565b600073ffffffffffffffffffffffffffffffffffffffff82169050919050565b60006112cf826112a4565b9050919050565b6112df816112c4565b82525050565b60006020820190506112fa60008301846112d6565b92915050565b6113098161122e565b82525050565b60006020820190506113246000830184611300565b92915050565b600080fd5b600080fd5b6000601f19601f8301169050919050565b7f4e487b7100000000000000000000000000000000000000000000000000000000600052604160045260246000fd5b61137d82611334565b810181811067ffffffffffffffff8211171561139c5761139b611345565b5b80604052505050565b60006113af6111e4565b90506113bb8282611374565b919050565b600067ffffffffffffffff8211156113db576113da611345565b5b6113e482611334565b9050602081019050919050565b82818337600083830152505050565b600061141361140e846113c0565b6113a5565b90508281526020810184848401111561142f5761142e61132f565b5b61143a8482856113f1565b509392505050565b600082601f8301126114575761145661132a565b5b8135611467848260208601611400565b91505092915050565b600060208284031215611486576114856111ee565b5b600082013567ffffffffffffffff8111156114a4576114a36111f3565b5b6114b084828501611442565b91505092915050565b600082825260208201905092915050565b7f536f75726365206d75737420626520746865206f7261636c65206f662074686560008201527f2072657175657374000000000000000000000000000000000000000000000000602082015250565b60006115266028836114b9565b9150611531826114ca565b604082019050919050565b6000602082019050818103600083015261155581611519565b9050919050565b60008151905061156b81611238565b92915050565b600060208284031215611587576115866111ee565b5b60006115958482850161155c565b91505092915050565b60006040820190506115b360008301856112d6565b6115c06020830184611300565b9392505050565b60008115159050919050565b6115dc816115c7565b81146115e757600080fd5b50565b6000815190506115f9816115d3565b92915050565b600060208284031215611615576116146111ee565b5b6000611623848285016115ea565b91505092915050565b7f556e61626c6520746f207472616e736665720000000000000000000000000000600082015250565b60006116626012836114b9565b915061166d8261162c565b602082019050919050565b6000602082019050818103600083015261169181611655565b9050919050565b600081905092915050565b7f68747470733a2f2f7777772e616c70686176616e746167652e636f2f7175657260008201527f793f66756e6374696f6e3d474c4f42414c5f51554f5445266170696b65793d5860208201527f5858585858582673796d626f6c3d000000000000000000000000000000000000604082015250565b6000611725604e83611698565b9150611730826116a3565b604e82019050919050565b600081519050919050565b60005b83811015611764578082015181840152602081019050611749565b83811115611773576000848401525b50505050565b60006117848261173b565b61178e8185611698565b935061179e818560208601611746565b80840191505092915050565b60006117b582611718565b91506117c18284611779565b915081905092915050565b7f4e487b7100000000000000000000000000000000000000000000000000000000600052603260045260246000fd5b7f4e487b7100000000000000000000000000000000000000000000000000000000600052601160045260246000fd5b60006118358261122e565b91507fffffffffffffffffffffffffffffffffffffffffffffffffffffffffffffffff8203611867576118666117fb565b5b600182019050919050565b600061187d8261122e565b91506118888361122e565b9250827fffffffffffffffffffffffffffffffffffffffffffffffffffffffffffffffff038211156118bd576118bc6117fb565b5b828201905092915050565b6118d1816111f8565b82525050565b60007fffffffff0000000000000000000000000000000000000000000000000000000082169050919050565b61190c816118d7565b82525050565b600081519050919050565b600082825260208201905092915050565b600061193982611912565b611943818561191d565b9350611953818560208601611746565b61195c81611334565b840191505092915050565b60006101008201905061197d600083018b6112d6565b61198a602083018a611300565b61199760408301896118c8565b6119a460608301886112d6565b6119b16080830187611903565b6119be60a0830186611300565b6119cb60c0830185611300565b81810360e08301526119dd818461192e565b90509998505050505050505050565b6000819050919050565b6000611a01826119ec565b9150611a0c836119ec565b9250827f800000000000000000000000000000000000000000000000000000000000000001821260008412151615611a4757611a466117fb565b5b827f7fffffffffffffffffffffffffffffffffffffffffffffffffffffffffffffff018213600084121615611a7f57611a7e6117fb565b5b828203905092915050565b6000819050919050565b6000611aaf611aaa611aa5846112a4565b611a8a565b6112a4565b9050919050565b6000611ac182611a94565b9050919050565b6000611ad382611ab6565b9050919050565b60008160601b9050919050565b6000611af282611ada565b9050919050565b6000611b0482611ae7565b9050919050565b611b1c611b1782611ac8565b611af9565b82525050565b6000819050919050565b611b3d611b388261122e565b611b22565b82525050565b6000611b4f8285611b0b565b601482019150611b5f8284611b2c565b6020820191508190509392505050565b6000606082019050611b8460008301866112d6565b611b916020830185611300565b8181036040830152611ba3818461192e565b9050949350505050565b7f756e61626c6520746f207472616e73666572416e6443616c6c20746f206f726160008201527f636c650000000000000000000000000000000000000000000000000000000000602082015250565b6000611c096023836114b9565b9150611c1482611bad565b604082019050919050565b60006020820190508181036000830152611c3881611bfc565b9050919050565b7f4e487b7100000000000000000000000000000000000000000000000000000000600052601260045260246000fd5b6000611c798261122e565b9150611c848361122e565b925082611c9457611c93611c3f565b5b828206905092915050565b6000611caa8261122e565b9150611cb58361122e565b925082821015611cc857611cc76117fb565b5b828203905092915050565b6000611cde8261122e565b9150611ce98361122e565b9250817fffffffffffffffffffffffffffffffffffffffffffffffffffffffffffffffff0483118215151615611d2257611d216117fb565b5b828202905092915050565b60008160011c9050919050565b6000808291508390505b6001851115611d8457808604811115611d6057611d5f6117fb565b5b6001851615611d6f5780820291505b8081029050611d7d85611d2d565b9450611d44565b94509492505050565b600082611d9d5760019050611e59565b81611dab5760009050611e59565b8160018114611dc15760028114611dcb57611dfa565b6001915050611e59565b60ff841115611ddd57611ddc6117fb565b5b8360020a915084821115611df457611df36117fb565b5b50611e59565b5060208310610133831016604e8410600b8410161715611e2f5782820a905083811115611e2a57611e296117fb565b5b611e59565b611e3c8484846001611d3a565b92509050818404811115611e5357611e526117fb565b5b81810290505b9392505050565b6000611e6b8261122e565b9150611e768361122e565b9250611ea37fffffffffffffffffffffffffffffffffffffffffffffffffffffffffffffffff8484611d8d565b90509291505056fea2646970667358221220dda8b0007cae4d0b1768d4e42ef21c53e59c7b0ca407e8e3add6a691ba0bacce64736f6c634300080d0033",
  "immutableReferences": {},
  "source": "//SPDX-License-Identifier: MIT\r\npragma solidity ^0.8.13;\r\n\r\nimport \"@chainlink/contracts/src/v0.8/ChainlinkClient.sol\";\r\n\r\ncontract GetStockPrice is ChainlinkClient {\r\n  using Chainlink for Chainlink.Request;\r\n\r\n  uint256 public currentPrice;\r\n  address public owner;\r\n\r\n  address ORACLE_ADDRESS = 0x3A56aE4a2831C3d3514b5D7Af5578E45eBDb7a40;\r\n  string constant JOBID = \"3b7ca0d48c7a4b2da9268456665d11ae\";\r\n  uint256 constant private ORACLE_PAYMENT = 100000000000000000;\r\n\r\n  constructor() {\r\n    setPublicChainlinkToken();\r\n    setChainlinkOracle(ORACLE_ADDRESS);\r\n    owner = msg.sender;\r\n  }\r\n  function requestStockPrice(string memory ticker) public\r\n  {\r\n    bytes32 specId = stringToBytes32(JOBID);\r\n    Chainlink.Request memory req = buildChainlinkRequest(specId, address(this), this.fulfillBytes.selector);\r\n    req.add(\"get\",string(abi.encodePacked(\"https://www.alphavantage.co/query?function=GLOBAL_QUOTE&apikey=XXXXXXX&symbol=\", ticker)));\r\n    string[] memory path = new string[](2);\r\n    path[0] = \"Global Quote\";\r\n    path[1] = \"05. price\";\r\n    req.addStringArray(\"path\", path);\r\n    req.addInt(\"times\", 100);\r\n    sendChainlinkRequestTo(ORACLE_ADDRESS, req, ORACLE_PAYMENT);\r\n  }\r\n\r\n  event RequestFulfilled(\r\n    bytes32 indexed requestId,\r\n    uint256 _price\r\n  );\r\n\r\n  function fulfillBytes(\r\n    bytes32 requestId,\r\n    uint256 _price\r\n  )\r\n    public\r\n    recordChainlinkFulfillment(requestId)\r\n  {\r\n    emit RequestFulfilled(requestId, _price);\r\n    currentPrice = _price;\r\n  }\r\n\r\n  // withdrawLink allows the owner to withdraw any extra LINK on the contract\r\n  function withdrawLink()\r\n    public\r\n    onlyOwner\r\n  {\r\n    LinkTokenInterface link = LinkTokenInterface(chainlinkTokenAddress());\r\n    require(link.transfer(msg.sender, link.balanceOf(address(this))), \"Unable to transfer\");\r\n  }\r\n\r\n  modifier onlyOwner() {\r\n    require(msg.sender == owner);\r\n    _;\r\n  }\r\n\r\n  // A helper funciton to make the string a bytes32\r\n  function stringToBytes32(string memory source) private pure returns (bytes32 result) {\r\n    bytes memory tempEmptyStringTest = bytes(source);\r\n    if (tempEmptyStringTest.length == 0) {\r\n      return 0x0;\r\n    }\r\n    assembly { // solhint-disable-line no-inline-assembly\r\n      result := mload(add(source, 32))\r\n    }\r\n  }\r\n}\r\n",
  "sourcePath": "D:\\S8\\Neros\\contracts\\GetStockPrice.sol",
  "compiler": {
    "name": "solc",
    "version": "0.8.13+commit.abaa5c0e.Emscripten.clang"
  },
  "schemaVersion": "3.4.6",
  "updatedAt": "2022-06-09T12:29:46.217Z",
  "networkType": "ethereum",
  "devdoc": {
    "kind": "dev",
    "methods": {},
    "version": 1
  },
  "userdoc": {
    "kind": "user",
    "methods": {},
    "version": 1
  }
}