{
  "contractName": "GetStockPrice",
  "abi": [
    {
      "inputs": [],
      "stateMutability": "nonpayable",
      "type": "constructor"
    },
    {
      "anonymous": false,
      "inputs": [
        {
          "indexed": true,
          "internalType": "bytes32",
          "name": "id",
          "type": "bytes32"
        }
      ],
      "name": "ChainlinkCancelled",
      "type": "event"
    },
    {
      "anonymous": false,
      "inputs": [
        {
          "indexed": true,
          "internalType": "bytes32",
          "name": "id",
          "type": "bytes32"
        }
      ],
      "name": "ChainlinkFulfilled",
      "type": "event"
    },
    {
      "anonymous": false,
      "inputs": [
        {
          "indexed": true,
          "internalType": "bytes32",
          "name": "id",
          "type": "bytes32"
        }
      ],
      "name": "ChainlinkRequested",
      "type": "event"
    },
    {
      "anonymous": false,
      "inputs": [
        {
          "indexed": true,
          "internalType": "bytes32",
          "name": "requestId",
          "type": "bytes32"
        },
        {
          "indexed": false,
          "internalType": "uint256",
          "name": "_price",
          "type": "uint256"
        }
      ],
      "name": "RequestFulfilled",
      "type": "event"
    },
    {
      "inputs": [],
      "name": "currentPrice",
      "outputs": [
        {
          "internalType": "uint256",
          "name": "",
          "type": "uint256"
        }
      ],
      "stateMutability": "view",
      "type": "function",
      "constant": true
    },
    {
      "inputs": [],
      "name": "owner",
      "outputs": [
        {
          "internalType": "address",
          "name": "",
          "type": "address"
        }
      ],
      "stateMutability": "view",
      "type": "function",
      "constant": true
    },
    {
      "inputs": [
        {
          "internalType": "string",
          "name": "ticker",
          "type": "string"
        }
      ],
      "name": "requestStockPrice",
      "outputs": [],
      "stateMutability": "nonpayable",
      "type": "function"
    },
    {
      "inputs": [
        {
          "internalType": "bytes32",
          "name": "requestId",
          "type": "bytes32"
        },
        {
          "internalType": "uint256",
          "name": "_price",
          "type": "uint256"
        }
      ],
      "name": "fulfillBytes",
      "outputs": [],
      "stateMutability": "nonpayable",
      "type": "function"
    },
    {
      "inputs": [],
      "name": "withdrawLink",
      "outputs": [],
      "stateMutability": "nonpayable",
      "type": "function"
    }
  ],
  "bytecode": "0x60806040526001600455733a56ae4a2831c3d3514b5d7af5578e45ebdb7a40600860006101000a81548173ffffffffffffffffffffffffffffffffffffffff021916908373ffffffffffffffffffffffffffffffffffffffff1602179055503480156200006b57600080fd5b506200007c620000f660201b60201c565b620000af600860009054906101000a900473ffffffffffffffffffffffffffffffffffffffff166200018e60201b60201c565b33600760006101000a81548173ffffffffffffffffffffffffffffffffffffffff021916908373ffffffffffffffffffffffffffffffffffffffff160217905550620002b2565b6200018c73c89bd4e1632d3a43cb03aaad5262cbe4038bc57173ffffffffffffffffffffffffffffffffffffffff166338cc48316040518163ffffffff1660e01b8152600401602060405180830381865afa1580156200015a573d6000803e3d6000fd5b505050506040513d601f19601f8201168201806040525081019062000180919062000280565b620001d260201b60201c565b565b80600360006101000a81548173ffffffffffffffffffffffffffffffffffffffff021916908373ffffffffffffffffffffffffffffffffffffffff16021790555050565b80600260006101000a81548173ffffffffffffffffffffffffffffffffffffffff021916908373ffffffffffffffffffffffffffffffffffffffff16021790555050565b600080fd5b600073ffffffffffffffffffffffffffffffffffffffff82169050919050565b600062000248826200021b565b9050919050565b6200025a816200023b565b81146200026657600080fd5b50565b6000815190506200027a816200024f565b92915050565b60006020828403121562000299576200029862000216565b5b6000620002a98482850162000269565b91505092915050565b611f3b80620002c26000396000f3fe608060405234801561001057600080fd5b50600436106100575760003560e01c80634a72159e1461005c5780638da5cb5b146100785780638dc654a2146100965780639d1b464a146100a0578063b7d67a62146100be575b600080fd5b610076600480360381019061007191906112be565b6100da565b005b610080610223565b60405161008d919061133f565b60405180910390f35b61009e610249565b005b6100a86103e8565b6040516100b59190611369565b60405180910390f35b6100d860048036038101906100d391906114ca565b6103ee565b005b816005600082815260200190815260200160002060009054906101000a900473ffffffffffffffffffffffffffffffffffffffff1673ffffffffffffffffffffffffffffffffffffffff163373ffffffffffffffffffffffffffffffffffffffff161461017c576040517f08c379a000000000000000000000000000000000000000000000000000000000815260040161017390611596565b60405180910390fd5b6005600082815260200190815260200160002060006101000a81549073ffffffffffffffffffffffffffffffffffffffff0219169055807f7cc135e0cebb02c3480ae5d74d377283180a2601f8f644edf7987b009316c63a60405160405180910390a2827f1ca8663227a7fe9919713a01d344afbb434e234f35a3e540a6ad924f88771f388360405161020f9190611369565b60405180910390a281600681905550505050565b600760009054906101000a900473ffffffffffffffffffffffffffffffffffffffff1681565b600760009054906101000a900473ffffffffffffffffffffffffffffffffffffffff1673ffffffffffffffffffffffffffffffffffffffff163373ffffffffffffffffffffffffffffffffffffffff16146102a357600080fd5b60006102ad6106d7565b90508073ffffffffffffffffffffffffffffffffffffffff1663a9059cbb338373ffffffffffffffffffffffffffffffffffffffff166370a08231306040518263ffffffff1660e01b8152600401610305919061133f565b602060405180830381865afa158015610322573d6000803e3d6000fd5b505050506040513d601f19601f8201168201806040525081019061034691906115cb565b6040518363ffffffff1660e01b81526004016103639291906115f8565b6020604051808303816000875af1158015610382573d6000803e3d6000fd5b505050506040513d601f19601f820116820180604052508101906103a69190611659565b6103e5576040517f08c379a00000000000000000000000000000000000000000000000000000000081526004016103dc906116d2565b60405180910390fd5b50565b60065481565b600760009054906101000a900473ffffffffffffffffffffffffffffffffffffffff1673ffffffffffffffffffffffffffffffffffffffff163373ffffffffffffffffffffffffffffffffffffffff161461044857600080fd5b60006104886040518060400160405280602081526020017f3362376361306434386337613462326461393236383435363636356431316165815250610701565b9050600061049e8230634a72159e60e01b61072a565b90506105096040518060400160405280600381526020017f6765740000000000000000000000000000000000000000000000000000000000815250846040516020016104ea9190611804565b6040516020818303038152906040528361075b9092919063ffffffff16565b6000600267ffffffffffffffff8111156105265761052561139f565b5b60405190808252806020026020018201604052801561055957816020015b60608152602001906001900390816105445790505b5090506040518060400160405280600c81526020017f476c6f62616c2051756f74650000000000000000000000000000000000000000815250816000815181106105a6576105a5611826565b5b60200260200101819052506040518060400160405280600981526020017f30352e2070726963650000000000000000000000000000000000000000000000815250816001815181106105fb576105fa611826565b5b60200260200101819052506106506040518060400160405280600481526020017f7061746800000000000000000000000000000000000000000000000000000000815250828461078e9092919063ffffffff16565b61069b6040518060400160405280600581526020017f74696d65730000000000000000000000000000000000000000000000000000008152506064846108159092919063ffffffff16565b6106d0600860009054906101000a900473ffffffffffffffffffffffffffffffffffffffff168367016345785d8a0000610848565b5050505050565b6000600260009054906101000a900473ffffffffffffffffffffffffffffffffffffffff16905090565b600080829050600081510361071c576000801b915050610725565b60208301519150505b919050565b6107326111b7565b61073a6111b7565b61075185858584610914909392919063ffffffff16565b9150509392505050565b6107728284608001516109c490919063ffffffff16565b6107898184608001516109c490919063ffffffff16565b505050565b6107a58284608001516109c490919063ffffffff16565b6107b283608001516109e9565b60005b8151811015610802576107ef8282815181106107d4576107d3611826565b5b602002602001015185608001516109c490919063ffffffff16565b80806107fa90611884565b9150506107b5565b5061081083608001516109f7565b505050565b61082c8284608001516109c490919063ffffffff16565b610843818460800151610a0590919063ffffffff16565b505050565b600080600454905060018161085d91906118cc565b6004819055506000634042994660e01b60008087600001513089604001518760018c608001516000015160405160240161089e9897969594939291906119c1565b604051602081830303815290604052907bffffffffffffffffffffffffffffffffffffffffffffffffffffffff19166020820180517bffffffffffffffffffffffffffffffffffffffffffffffffffffffff8381831617835250505050905061090986838684610ab2565b925050509392505050565b61091c6111b7565b61092c8560800151610100610c47565b508385600001818152505082856020019073ffffffffffffffffffffffffffffffffffffffff16908173ffffffffffffffffffffffffffffffffffffffff16815250508185604001907bffffffffffffffffffffffffffffffffffffffffffffffffffffffff191690817bffffffffffffffffffffffffffffffffffffffffffffffffffffffff191681525050849050949350505050565b6109d18260038351610cb1565b6109e48183610e3690919063ffffffff16565b505050565b6109f4816004610e58565b50565b610a02816007610e58565b50565b7fffffffffffffffffffffffffffffffffffffffffffffffff0000000000000000811215610a3c57610a378282610e7a565b610aae565b67ffffffffffffffff811315610a5b57610a568282610ef1565b610aad565b60008112610a7457610a6f82600083610cb1565b610aac565b610aab826001837fffffffffffffffffffffffffffffffffffffffffffffffffffffffffffffffff610aa69190611a50565b610cb1565b5b5b5b5050565b60003084604051602001610ac7929190611b9d565b604051602081830303815290604052805190602001209050846005600083815260200190815260200160002060006101000a81548173ffffffffffffffffffffffffffffffffffffffff021916908373ffffffffffffffffffffffffffffffffffffffff160217905550807fb5e6e01e79f91267dc17b4e6314d5d4d03593d2ceee0fbb452b750bd70ea5af960405160405180910390a2600260009054906101000a900473ffffffffffffffffffffffffffffffffffffffff1673ffffffffffffffffffffffffffffffffffffffff16634000aea08685856040518463ffffffff1660e01b8152600401610bbd93929190611bc9565b6020604051808303816000875af1158015610bdc573d6000803e3d6000fd5b505050506040513d601f19601f82011682018060405250810190610c009190611659565b610c3f576040517f08c379a0000000000000000000000000000000000000000000000000000000008152600401610c3690611c79565b60405180910390fd5b949350505050565b610c4f611224565b6000602083610c5e9190611cc8565b14610c8a57602082610c709190611cc8565b6020610c7c9190611cf9565b82610c8791906118cc565b91505b81836020018181525050604051808452600081528281016020016040525082905092915050565b60178167ffffffffffffffff1611610ce857610ce28160058460ff16901b60ff161784610f3d90919063ffffffff16565b50610e31565b60ff8167ffffffffffffffff1611610d3e57610d17601860058460ff16901b1784610f3d90919063ffffffff16565b50610d388167ffffffffffffffff16600185610f5d9092919063ffffffff16565b50610e30565b61ffff8167ffffffffffffffff1611610d9557610d6e601960058460ff16901b1784610f3d90919063ffffffff16565b50610d8f8167ffffffffffffffff16600285610f5d9092919063ffffffff16565b50610e2f565b63ffffffff8167ffffffffffffffff1611610dee57610dc7601a60058460ff16901b1784610f3d90919063ffffffff16565b50610de88167ffffffffffffffff16600485610f5d9092919063ffffffff16565b50610e2e565b610e0b601b60058460ff16901b1784610f3d90919063ffffffff16565b50610e2c8167ffffffffffffffff16600885610f5d9092919063ffffffff16565b505b5b5b5b505050565b610e3e611224565b610e5083846000015151848551610f7f565b905092915050565b610e75601f60058360ff16901b1783610f3d90919063ffffffff16565b505050565b610e9860036005600660ff16901b1783610f3d90919063ffffffff16565b50610eed82827fffffffffffffffffffffffffffffffffffffffffffffffffffffffffffffffff610ec99190611a50565b604051602001610ed99190611369565b60405160208183030381529060405261106e565b5050565b610f0f60026005600660ff16901b1783610f3d90919063ffffffff16565b50610f398282604051602001610f259190611369565b60405160208183030381529060405261106e565b5050565b610f45611224565b610f558384600001515184611093565b905092915050565b610f65611224565b610f768485600001515185856110e9565b90509392505050565b610f87611224565b8251821115610f9557600080fd5b84602001518285610fa691906118cc565b1115610fdb57610fda856002610fcb88602001518887610fc691906118cc565b611177565b610fd59190611d2d565b611193565b5b600080865180518760208301019350808887011115610ffa5787860182525b60208701925050505b60208410611041578051825260208261101c91906118cc565b915060208161102b91906118cc565b905060208461103a9190611cf9565b9350611003565b60006001856020036101000a03905080198251168184511681811785525050508692505050949350505050565b61107b8260028351610cb1565b61108e8183610e3690919063ffffffff16565b505050565b61109b611224565b836020015183106110c1576110c084600286602001516110bb9190611d2d565b611193565b5b835180516020858301018481538186036110dc576001820183525b5050508390509392505050565b6110f1611224565b8460200151848361110291906118cc565b111561112a57611129856002868561111a91906118cc565b6111249190611d2d565b611193565b5b600060018361010061113c9190611eba565b6111469190611cf9565b905085518386820101858319825116178152815185880111156111695784870182525b505085915050949350505050565b6000818311156111895782905061118d565b8190505b92915050565b6000826000015190506111a68383610c47565b506111b18382610e36565b50505050565b6040518060a0016040528060008019168152602001600073ffffffffffffffffffffffffffffffffffffffff16815260200160007bffffffffffffffffffffffffffffffffffffffffffffffffffffffff191681526020016000815260200161121e611224565b81525090565b604051806040016040528060608152602001600081525090565b6000604051905090565b600080fd5b600080fd5b6000819050919050565b61126581611252565b811461127057600080fd5b50565b6000813590506112828161125c565b92915050565b6000819050919050565b61129b81611288565b81146112a657600080fd5b50565b6000813590506112b881611292565b92915050565b600080604083850312156112d5576112d4611248565b5b60006112e385828601611273565b92505060206112f4858286016112a9565b9150509250929050565b600073ffffffffffffffffffffffffffffffffffffffff82169050919050565b6000611329826112fe565b9050919050565b6113398161131e565b82525050565b60006020820190506113546000830184611330565b92915050565b61136381611288565b82525050565b600060208201905061137e600083018461135a565b92915050565b600080fd5b600080fd5b6000601f19601f8301169050919050565b7f4e487b7100000000000000000000000000000000000000000000000000000000600052604160045260246000fd5b6113d78261138e565b810181811067ffffffffffffffff821117156113f6576113f561139f565b5b80604052505050565b600061140961123e565b905061141582826113ce565b919050565b600067ffffffffffffffff8211156114355761143461139f565b5b61143e8261138e565b9050602081019050919050565b82818337600083830152505050565b600061146d6114688461141a565b6113ff565b90508281526020810184848401111561148957611488611389565b5b61149484828561144b565b509392505050565b600082601f8301126114b1576114b0611384565b5b81356114c184826020860161145a565b91505092915050565b6000602082840312156114e0576114df611248565b5b600082013567ffffffffffffffff8111156114fe576114fd61124d565b5b61150a8482850161149c565b91505092915050565b600082825260208201905092915050565b7f536f75726365206d75737420626520746865206f7261636c65206f662074686560008201527f2072657175657374000000000000000000000000000000000000000000000000602082015250565b6000611580602883611513565b915061158b82611524565b604082019050919050565b600060208201905081810360008301526115af81611573565b9050919050565b6000815190506115c581611292565b92915050565b6000602082840312156115e1576115e0611248565b5b60006115ef848285016115b6565b91505092915050565b600060408201905061160d6000830185611330565b61161a602083018461135a565b9392505050565b60008115159050919050565b61163681611621565b811461164157600080fd5b50565b6000815190506116538161162d565b92915050565b60006020828403121561166f5761166e611248565b5b600061167d84828501611644565b91505092915050565b7f556e61626c6520746f207472616e736665720000000000000000000000000000600082015250565b60006116bc601283611513565b91506116c782611686565b602082019050919050565b600060208201905081810360008301526116eb816116af565b9050919050565b600081905092915050565b7f68747470733a2f2f7777772e616c70686176616e746167652e636f2f7175657260008201527f793f66756e6374696f6e3d474c4f42414c5f51554f5445266170696b65793d5860208201527f5858585858582673796d626f6c3d000000000000000000000000000000000000604082015250565b600061177f604e836116f2565b915061178a826116fd565b604e82019050919050565b600081519050919050565b60005b838110156117be5780820151818401526020810190506117a3565b838111156117cd576000848401525b50505050565b60006117de82611795565b6117e881856116f2565b93506117f88185602086016117a0565b80840191505092915050565b600061180f82611772565b915061181b82846117d3565b915081905092915050565b7f4e487b7100000000000000000000000000000000000000000000000000000000600052603260045260246000fd5b7f4e487b7100000000000000000000000000000000000000000000000000000000600052601160045260246000fd5b600061188f82611288565b91507fffffffffffffffffffffffffffffffffffffffffffffffffffffffffffffffff82036118c1576118c0611855565b5b600182019050919050565b60006118d782611288565b91506118e283611288565b9250827fffffffffffffffffffffffffffffffffffffffffffffffffffffffffffffffff0382111561191757611916611855565b5b828201905092915050565b61192b81611252565b82525050565b60007fffffffff0000000000000000000000000000000000000000000000000000000082169050919050565b61196681611931565b82525050565b600081519050919050565b600082825260208201905092915050565b60006119938261196c565b61199d8185611977565b93506119ad8185602086016117a0565b6119b68161138e565b840191505092915050565b6000610100820190506119d7600083018b611330565b6119e4602083018a61135a565b6119f16040830189611922565b6119fe6060830188611330565b611a0b608083018761195d565b611a1860a083018661135a565b611a2560c083018561135a565b81810360e0830152611a378184611988565b90509998505050505050505050565b6000819050919050565b6000611a5b82611a46565b9150611a6683611a46565b9250827f800000000000000000000000000000000000000000000000000000000000000001821260008412151615611aa157611aa0611855565b5b827f7fffffffffffffffffffffffffffffffffffffffffffffffffffffffffffffff018213600084121615611ad957611ad8611855565b5b828203905092915050565b6000819050919050565b6000611b09611b04611aff846112fe565b611ae4565b6112fe565b9050919050565b6000611b1b82611aee565b9050919050565b6000611b2d82611b10565b9050919050565b60008160601b9050919050565b6000611b4c82611b34565b9050919050565b6000611b5e82611b41565b9050919050565b611b76611b7182611b22565b611b53565b82525050565b6000819050919050565b611b97611b9282611288565b611b7c565b82525050565b6000611ba98285611b65565b601482019150611bb98284611b86565b6020820191508190509392505050565b6000606082019050611bde6000830186611330565b611beb602083018561135a565b8181036040830152611bfd8184611988565b9050949350505050565b7f756e61626c6520746f207472616e73666572416e6443616c6c20746f206f726160008201527f636c650000000000000000000000000000000000000000000000000000000000602082015250565b6000611c63602383611513565b9150611c6e82611c07565b604082019050919050565b60006020820190508181036000830152611c9281611c56565b9050919050565b7f4e487b7100000000000000000000000000000000000000000000000000000000600052601260045260246000fd5b6000611cd382611288565b9150611cde83611288565b925082611cee57611ced611c99565b5b828206905092915050565b6000611d0482611288565b9150611d0f83611288565b925082821015611d2257611d21611855565b5b828203905092915050565b6000611d3882611288565b9150611d4383611288565b9250817fffffffffffffffffffffffffffffffffffffffffffffffffffffffffffffffff0483118215151615611d7c57611d7b611855565b5b828202905092915050565b60008160011c9050919050565b6000808291508390505b6001851115611dde57808604811115611dba57611db9611855565b5b6001851615611dc95780820291505b8081029050611dd785611d87565b9450611d9e565b94509492505050565b600082611df75760019050611eb3565b81611e055760009050611eb3565b8160018114611e1b5760028114611e2557611e54565b6001915050611eb3565b60ff841115611e3757611e36611855565b5b8360020a915084821115611e4e57611e4d611855565b5b50611eb3565b5060208310610133831016604e8410600b8410161715611e895782820a905083811115611e8457611e83611855565b5b611eb3565b611e968484846001611d94565b92509050818404811115611ead57611eac611855565b5b81810290505b9392505050565b6000611ec582611288565b9150611ed083611288565b9250611efd7fffffffffffffffffffffffffffffffffffffffffffffffffffffffffffffffff8484611de7565b90509291505056fea2646970667358221220e2a4b1e1e230807b568313f6632e73922975f5b8c4d5b92c6cdc035b5793f1a864736f6c634300080d0033",
  "immutableReferences": {},
  "source": "//SPDX-License-Identifier: MIT\r\npragma solidity ^0.8.13;\r\n\r\nimport \"@chainlink/contracts/src/v0.8/ChainlinkClient.sol\";\r\n\r\ncontract GetStockPrice is ChainlinkClient {\r\n  using Chainlink for Chainlink.Request;\r\n\r\n  uint256 public currentPrice;\r\n  address public owner;\r\n\r\n  address ORACLE_ADDRESS = 0x3A56aE4a2831C3d3514b5D7Af5578E45eBDb7a40;\r\n  string constant JOBID = \"3b7ca0d48c7a4b2da9268456665d11ae\";\r\n  uint256 constant private ORACLE_PAYMENT = 100000000000000000;\r\n\r\n  constructor() {\r\n    setPublicChainlinkToken();\r\n    setChainlinkOracle(ORACLE_ADDRESS);\r\n    owner = msg.sender;\r\n  }\r\n  function requestStockPrice(string memory ticker) public onlyOwner\r\n  {\r\n    bytes32 specId = stringToBytes32(JOBID);\r\n    Chainlink.Request memory req = buildChainlinkRequest(specId, address(this), this.fulfillBytes.selector);\r\n    req.add(\"get\",string(abi.encodePacked(\"https://www.alphavantage.co/query?function=GLOBAL_QUOTE&apikey=XXXXXXX&symbol=\", ticker)));\r\n    string[] memory path = new string[](2);\r\n    path[0] = \"Global Quote\";\r\n    path[1] = \"05. price\";\r\n    req.addStringArray(\"path\", path);\r\n    req.addInt(\"times\", 100);\r\n    sendChainlinkRequestTo(ORACLE_ADDRESS, req, ORACLE_PAYMENT);\r\n  }\r\n\r\n  event RequestFulfilled(\r\n    bytes32 indexed requestId,\r\n    uint256 _price\r\n  );\r\n\r\n  function fulfillBytes(\r\n    bytes32 requestId,\r\n    uint256 _price\r\n  )\r\n    public\r\n    recordChainlinkFulfillment(requestId)\r\n  {\r\n    emit RequestFulfilled(requestId, _price);\r\n    currentPrice = _price;\r\n  }\r\n\r\n  // withdrawLink allows the owner to withdraw any extra LINK on the contract\r\n  function withdrawLink()\r\n    public\r\n    onlyOwner\r\n  {\r\n    LinkTokenInterface link = LinkTokenInterface(chainlinkTokenAddress());\r\n    require(link.transfer(msg.sender, link.balanceOf(address(this))), \"Unable to transfer\");\r\n  }\r\n\r\n  modifier onlyOwner() {\r\n    require(msg.sender == owner);\r\n    _;\r\n  }\r\n\r\n  // A helper funciton to make the string a bytes32\r\n  function stringToBytes32(string memory source) private pure returns (bytes32 result) {\r\n    bytes memory tempEmptyStringTest = bytes(source);\r\n    if (tempEmptyStringTest.length == 0) {\r\n      return 0x0;\r\n    }\r\n    assembly { // solhint-disable-line no-inline-assembly\r\n      result := mload(add(source, 32))\r\n    }\r\n  }\r\n}\r\n",
  "sourcePath": "D:\\S8\\Neros\\contracts\\GetStockPrice.sol",
  "compiler": {
    "name": "solc",
    "version": "0.8.13+commit.abaa5c0e.Emscripten.clang"
  },
  "schemaVersion": "3.4.6",
  "updatedAt": "2022-04-26T23:45:27.608Z",
  "networkType": "ethereum",
  "devdoc": {
    "kind": "dev",
    "methods": {},
    "version": 1
  },
  "userdoc": {
    "kind": "user",
    "methods": {},
    "version": 1
  }
}