{
  "contractName": "NerosNFT",
  "abi": [
    {
      "inputs": [
        {
          "internalType": "address",
          "name": "_nerosNFTCoin",
          "type": "address"
        },
        {
          "internalType": "address",
          "name": "_nerosContract",
          "type": "address"
        }
      ],
      "stateMutability": "nonpayable",
      "type": "constructor"
    },
    {
      "anonymous": false,
      "inputs": [
        {
          "indexed": true,
          "internalType": "address",
          "name": "owner",
          "type": "address"
        },
        {
          "indexed": true,
          "internalType": "address",
          "name": "approved",
          "type": "address"
        },
        {
          "indexed": true,
          "internalType": "uint256",
          "name": "tokenId",
          "type": "uint256"
        }
      ],
      "name": "Approval",
      "type": "event"
    },
    {
      "anonymous": false,
      "inputs": [
        {
          "indexed": true,
          "internalType": "address",
          "name": "owner",
          "type": "address"
        },
        {
          "indexed": true,
          "internalType": "address",
          "name": "operator",
          "type": "address"
        },
        {
          "indexed": false,
          "internalType": "bool",
          "name": "approved",
          "type": "bool"
        }
      ],
      "name": "ApprovalForAll",
      "type": "event"
    },
    {
      "anonymous": false,
      "inputs": [
        {
          "indexed": true,
          "internalType": "address",
          "name": "from",
          "type": "address"
        },
        {
          "indexed": true,
          "internalType": "address",
          "name": "to",
          "type": "address"
        },
        {
          "indexed": true,
          "internalType": "uint256",
          "name": "tokenId",
          "type": "uint256"
        }
      ],
      "name": "Transfer",
      "type": "event"
    },
    {
      "inputs": [
        {
          "internalType": "address",
          "name": "admin",
          "type": "address"
        },
        {
          "internalType": "bool",
          "name": "add",
          "type": "bool"
        }
      ],
      "name": "addOrRemoveAdmin",
      "outputs": [],
      "stateMutability": "nonpayable",
      "type": "function"
    },
    {
      "inputs": [
        {
          "internalType": "address",
          "name": "",
          "type": "address"
        }
      ],
      "name": "admins",
      "outputs": [
        {
          "internalType": "bool",
          "name": "",
          "type": "bool"
        }
      ],
      "stateMutability": "view",
      "type": "function",
      "constant": true
    },
    {
      "inputs": [
        {
          "internalType": "address",
          "name": "to",
          "type": "address"
        },
        {
          "internalType": "uint256",
          "name": "tokenId",
          "type": "uint256"
        }
      ],
      "name": "approve",
      "outputs": [],
      "stateMutability": "nonpayable",
      "type": "function"
    },
    {
      "inputs": [
        {
          "internalType": "address",
          "name": "_owner",
          "type": "address"
        }
      ],
      "name": "balanceOf",
      "outputs": [
        {
          "internalType": "uint256",
          "name": "",
          "type": "uint256"
        }
      ],
      "stateMutability": "view",
      "type": "function",
      "constant": true
    },
    {
      "inputs": [
        {
          "internalType": "uint256",
          "name": "tokenId",
          "type": "uint256"
        }
      ],
      "name": "burn",
      "outputs": [],
      "stateMutability": "nonpayable",
      "type": "function"
    },
    {
      "inputs": [
        {
          "internalType": "uint256",
          "name": "tokenId",
          "type": "uint256"
        }
      ],
      "name": "getApproved",
      "outputs": [
        {
          "internalType": "address",
          "name": "",
          "type": "address"
        }
      ],
      "stateMutability": "view",
      "type": "function",
      "constant": true
    },
    {
      "inputs": [
        {
          "internalType": "address",
          "name": "_owner",
          "type": "address"
        },
        {
          "internalType": "address",
          "name": "operator",
          "type": "address"
        }
      ],
      "name": "isApprovedForAll",
      "outputs": [
        {
          "internalType": "bool",
          "name": "",
          "type": "bool"
        }
      ],
      "stateMutability": "view",
      "type": "function",
      "constant": true
    },
    {
      "inputs": [
        {
          "internalType": "uint256",
          "name": "",
          "type": "uint256"
        }
      ],
      "name": "isForSale",
      "outputs": [
        {
          "internalType": "bool",
          "name": "",
          "type": "bool"
        }
      ],
      "stateMutability": "view",
      "type": "function",
      "constant": true
    },
    {
      "inputs": [
        {
          "internalType": "uint256",
          "name": "",
          "type": "uint256"
        }
      ],
      "name": "isTransferable",
      "outputs": [
        {
          "internalType": "bool",
          "name": "",
          "type": "bool"
        }
      ],
      "stateMutability": "view",
      "type": "function",
      "constant": true
    },
    {
      "inputs": [],
      "name": "name",
      "outputs": [
        {
          "internalType": "string",
          "name": "",
          "type": "string"
        }
      ],
      "stateMutability": "view",
      "type": "function",
      "constant": true
    },
    {
      "inputs": [],
      "name": "owner",
      "outputs": [
        {
          "internalType": "address",
          "name": "",
          "type": "address"
        }
      ],
      "stateMutability": "view",
      "type": "function",
      "constant": true
    },
    {
      "inputs": [
        {
          "internalType": "uint256",
          "name": "tokenId",
          "type": "uint256"
        }
      ],
      "name": "ownerOf",
      "outputs": [
        {
          "internalType": "address",
          "name": "",
          "type": "address"
        }
      ],
      "stateMutability": "view",
      "type": "function",
      "constant": true
    },
    {
      "inputs": [
        {
          "internalType": "address",
          "name": "from",
          "type": "address"
        },
        {
          "internalType": "address",
          "name": "to",
          "type": "address"
        },
        {
          "internalType": "uint256",
          "name": "tokenId",
          "type": "uint256"
        }
      ],
      "name": "safeTransferFrom",
      "outputs": [],
      "stateMutability": "nonpayable",
      "type": "function"
    },
    {
      "inputs": [
        {
          "internalType": "address",
          "name": "from",
          "type": "address"
        },
        {
          "internalType": "address",
          "name": "to",
          "type": "address"
        },
        {
          "internalType": "uint256",
          "name": "tokenId",
          "type": "uint256"
        },
        {
          "internalType": "bytes",
          "name": "data",
          "type": "bytes"
        }
      ],
      "name": "safeTransferFrom",
      "outputs": [],
      "stateMutability": "nonpayable",
      "type": "function"
    },
    {
      "inputs": [
        {
          "internalType": "address",
          "name": "operator",
          "type": "address"
        },
        {
          "internalType": "bool",
          "name": "approved",
          "type": "bool"
        }
      ],
      "name": "setApprovalForAll",
      "outputs": [],
      "stateMutability": "nonpayable",
      "type": "function"
    },
    {
      "inputs": [
        {
          "internalType": "bytes4",
          "name": "interfaceId",
          "type": "bytes4"
        }
      ],
      "name": "supportsInterface",
      "outputs": [
        {
          "internalType": "bool",
          "name": "",
          "type": "bool"
        }
      ],
      "stateMutability": "pure",
      "type": "function",
      "constant": true
    },
    {
      "inputs": [],
      "name": "symbol",
      "outputs": [
        {
          "internalType": "string",
          "name": "",
          "type": "string"
        }
      ],
      "stateMutability": "view",
      "type": "function",
      "constant": true
    },
    {
      "inputs": [],
      "name": "tokenCounter",
      "outputs": [
        {
          "internalType": "uint256",
          "name": "",
          "type": "uint256"
        }
      ],
      "stateMutability": "view",
      "type": "function",
      "constant": true
    },
    {
      "inputs": [],
      "name": "tokenIdToCheck",
      "outputs": [
        {
          "internalType": "uint256",
          "name": "",
          "type": "uint256"
        }
      ],
      "stateMutability": "view",
      "type": "function",
      "constant": true
    },
    {
      "inputs": [
        {
          "internalType": "uint256",
          "name": "tokenId",
          "type": "uint256"
        }
      ],
      "name": "tokenURI",
      "outputs": [
        {
          "internalType": "string",
          "name": "",
          "type": "string"
        }
      ],
      "stateMutability": "view",
      "type": "function",
      "constant": true
    },
    {
      "inputs": [
        {
          "internalType": "address",
          "name": "from",
          "type": "address"
        },
        {
          "internalType": "address",
          "name": "to",
          "type": "address"
        },
        {
          "internalType": "uint256",
          "name": "tokenId",
          "type": "uint256"
        }
      ],
      "name": "transferFrom",
      "outputs": [],
      "stateMutability": "nonpayable",
      "type": "function"
    },
    {
      "inputs": [
        {
          "internalType": "string",
          "name": "tokenURI",
          "type": "string"
        }
      ],
      "name": "createNFT",
      "outputs": [
        {
          "internalType": "uint256",
          "name": "",
          "type": "uint256"
        }
      ],
      "stateMutability": "nonpayable",
      "type": "function"
    },
    {
      "inputs": [
        {
          "internalType": "uint256",
          "name": "tokenId",
          "type": "uint256"
        },
        {
          "internalType": "bool",
          "name": "transferable",
          "type": "bool"
        }
      ],
      "name": "setTransferable",
      "outputs": [],
      "stateMutability": "nonpayable",
      "type": "function"
    },
    {
      "inputs": [
        {
          "internalType": "uint256",
          "name": "tokenId",
          "type": "uint256"
        },
        {
          "internalType": "bool",
          "name": "forSale",
          "type": "bool"
        }
      ],
      "name": "setForSale",
      "outputs": [],
      "stateMutability": "nonpayable",
      "type": "function"
    },
    {
      "inputs": [],
      "name": "getAllForSale",
      "outputs": [
        {
          "internalType": "int256[]",
          "name": "",
          "type": "int256[]"
        }
      ],
      "stateMutability": "view",
      "type": "function",
      "constant": true
    },
    {
      "inputs": [],
      "name": "getMyNFTs",
      "outputs": [
        {
          "internalType": "uint256[]",
          "name": "",
          "type": "uint256[]"
        }
      ],
      "stateMutability": "view",
      "type": "function",
      "constant": true
    },
    {
      "inputs": [
        {
          "internalType": "address",
          "name": "from",
          "type": "address"
        },
        {
          "internalType": "address",
          "name": "to",
          "type": "address"
        },
        {
          "internalType": "uint256",
          "name": "tokenId",
          "type": "uint256"
        }
      ],
      "name": "exchangeNFT",
      "outputs": [],
      "stateMutability": "nonpayable",
      "type": "function"
    }
  ],
  "bytecode": "0x60806040523480156200001157600080fd5b506040516200474b3803806200474b833981810160405281019062000037919062000346565b6040518060400160405280600881526020017f4e65726f734e46540000000000000000000000000000000000000000000000008152506040518060400160405280600481526020017f4e524f54000000000000000000000000000000000000000000000000000000008152508160009080519060200190620000bb9291906200022c565b508060019080519060200190620000d49291906200022c565b5033600260006101000a81548173ffffffffffffffffffffffffffffffffffffffff021916908373ffffffffffffffffffffffffffffffffffffffff1602179055506001600a6000600260009054906101000a900473ffffffffffffffffffffffffffffffffffffffff1673ffffffffffffffffffffffffffffffffffffffff1673ffffffffffffffffffffffffffffffffffffffff16815260200190815260200160002060006101000a81548160ff02191690831515021790555050506000600c819055506000600d8190555081600e60006101000a81548173ffffffffffffffffffffffffffffffffffffffff021916908373ffffffffffffffffffffffffffffffffffffffff16021790555080600f60006101000a81548173ffffffffffffffffffffffffffffffffffffffff021916908373ffffffffffffffffffffffffffffffffffffffff1602179055505050620003f1565b8280546200023a90620003bc565b90600052602060002090601f0160209004810192826200025e5760008555620002aa565b82601f106200027957805160ff1916838001178555620002aa565b82800160010185558215620002aa579182015b82811115620002a95782518255916020019190600101906200028c565b5b509050620002b99190620002bd565b5090565b5b80821115620002d8576000816000905550600101620002be565b5090565b600080fd5b600073ffffffffffffffffffffffffffffffffffffffff82169050919050565b60006200030e82620002e1565b9050919050565b620003208162000301565b81146200032c57600080fd5b50565b600081519050620003408162000315565b92915050565b6000806040838503121562000360576200035f620002dc565b5b600062000370858286016200032f565b925050602062000383858286016200032f565b9150509250929050565b7f4e487b7100000000000000000000000000000000000000000000000000000000600052602260045260246000fd5b60006002820490506001821680620003d557607f821691505b602082108103620003eb57620003ea6200038d565b5b50919050565b61434a80620004016000396000f3fe608060405234801561001057600080fd5b50600436106101a95760003560e01c80638546d002116100f9578063c87b56dd11610097578063dfe28fbf11610071578063dfe28fbf146104f4578063e235238614610510578063e985e9c51461052c578063f0a6c16b1461055c576101a9565b8063c87b56dd14610476578063d082e381146104a6578063da2ed03e146104c4576101a9565b806395d89b41116100d357806395d89b41146103f0578063a22cb4651461040e578063b25645691461042a578063b88d4fde1461045a576101a9565b80638546d0021461038657806389fa2c03146103b65780638da5cb5b146103d2576101a9565b806342842e0e116101665780634499efaa116101405780634499efaa146102ea578063629cb2e4146103085780636352211e1461032657806370a0823114610356576101a9565b806342842e0e1461028257806342966c681461029e578063429b62e5146102ba576101a9565b806301ffc9a7146101ae57806306fdde03146101de578063081812fc146101fc578063095ea7b31461022c578063232462b61461024857806323b872dd14610266575b600080fd5b6101c860048036038101906101c391906129f6565b610578565b6040516101d59190612a3e565b60405180910390f35b6101e66105e2565b6040516101f39190612af2565b60405180910390f35b61021660048036038101906102119190612b4a565b610670565b6040516102239190612bb8565b60405180910390f35b61024660048036038101906102419190612bff565b61074e565b005b610250610882565b60405161025d9190612d07565b60405180910390f35b610280600480360381019061027b9190612d29565b610a03565b005b61029c60048036038101906102979190612d29565b610a13565b005b6102b860048036038101906102b39190612b4a565b610a87565b005b6102d460048036038101906102cf9190612d7c565b610f6d565b6040516102e19190612a3e565b60405180910390f35b6102f2610f8d565b6040516102ff9190612db8565b60405180910390f35b610310610f93565b60405161031d9190612e91565b60405180910390f35b610340600480360381019061033b9190612b4a565b6110cb565b60405161034d9190612bb8565b60405180910390f35b610370600480360381019061036b9190612d7c565b6111a9565b60405161037d9190612db8565b60405180910390f35b6103a0600480360381019061039b9190612b4a565b611260565b6040516103ad9190612a3e565b60405180910390f35b6103d060048036038101906103cb9190612edf565b611280565b005b6103da61136b565b6040516103e79190612bb8565b60405180910390f35b6103f8611391565b6040516104059190612af2565b60405180910390f35b61042860048036038101906104239190612edf565b61141f565b005b610444600480360381019061043f9190612b4a565b61158a565b6040516104519190612a3e565b60405180910390f35b610474600480360381019061046f9190612f84565b6115aa565b005b610490600480360381019061048b9190612b4a565b61164b565b60405161049d9190612af2565b60405180910390f35b6104ae611731565b6040516104bb9190612db8565b60405180910390f35b6104de60048036038101906104d9919061313c565b611737565b6040516104eb9190612db8565b60405180910390f35b61050e60048036038101906105099190613185565b611804565b005b61052a60048036038101906105259190612d29565b6118ed565b005b610546600480360381019061054191906131c5565b61195d565b6040516105539190612a3e565b60405180910390f35b61057660048036038101906105719190613185565b6119f1565b005b60007f80ac58cd000000000000000000000000000000000000000000000000000000007bffffffffffffffffffffffffffffffffffffffffffffffffffffffff1916827bffffffffffffffffffffffffffffffffffffffffffffffffffffffff1916149050919050565b600080546105ef90613234565b80601f016020809104026020016040519081016040528092919081815260200182805461061b90613234565b80156106685780601f1061063d57610100808354040283529160200191610668565b820191906000526020600020905b81548152906001019060200180831161064b57829003601f168201915b505050505081565b60008073ffffffffffffffffffffffffffffffffffffffff166004600084815260200190815260200160002060009054906101000a900473ffffffffffffffffffffffffffffffffffffffff1673ffffffffffffffffffffffffffffffffffffffff1603610713576040517f08c379a000000000000000000000000000000000000000000000000000000000815260040161070a906132d7565b60405180910390fd5b6005600083815260200190815260200160002060009054906101000a900473ffffffffffffffffffffffffffffffffffffffff169050919050565b60006004600083815260200190815260200160002060009054906101000a900473ffffffffffffffffffffffffffffffffffffffff1690508073ffffffffffffffffffffffffffffffffffffffff168373ffffffffffffffffffffffffffffffffffffffff16036107f4576040517f08c379a00000000000000000000000000000000000000000000000000000000081526004016107eb90613369565b60405180910390fd5b8073ffffffffffffffffffffffffffffffffffffffff163373ffffffffffffffffffffffffffffffffffffffff1614806108345750610833813361195d565b5b610873576040517f08c379a000000000000000000000000000000000000000000000000000000000815260040161086a906133fb565b60405180910390fd5b61087d8383611aac565b505050565b606060006001600c54610895919061344a565b67ffffffffffffffff8111156108ae576108ad613011565b5b6040519080825280602002602001820160405280156108dc5781602001602082028036833780820191505090505b5090506000805b600c5481101561095357600b600082815260200190815260200160002060009054906101000a900460ff16156109405780838380610920906134a0565b945081518110610933576109326134e8565b5b6020026020010181815250505b808061094b906134a0565b9150506108e3565b5060008167ffffffffffffffff8111156109705761096f613011565b5b60405190808252806020026020018201604052801561099e5781602001602082028036833780820191505090505b50905060005b828110156109f9578381815181106109bf576109be6134e8565b5b60200260200101518282815181106109da576109d96134e8565b5b60200260200101818152505080806109f1906134a0565b9150506109a4565b5080935050505090565b610a0e838383611b90565b505050565b3073ffffffffffffffffffffffffffffffffffffffff1663b88d4fde8484846040518463ffffffff1660e01b8152600401610a509392919061354e565b600060405180830381600087803b158015610a6a57600080fd5b505af1158015610a7e573d6000803e3d6000fd5b50505050505050565b60006004600083815260200190815260200160002060009054906101000a900473ffffffffffffffffffffffffffffffffffffffff169050600073ffffffffffffffffffffffffffffffffffffffff168173ffffffffffffffffffffffffffffffffffffffff1603610b2e576040517f08c379a0000000000000000000000000000000000000000000000000000000008152600401610b259061360a565b60405180910390fd5b3373ffffffffffffffffffffffffffffffffffffffff168173ffffffffffffffffffffffffffffffffffffffff16148015610b8657506009600083815260200190815260200160002060009054906101000a900460ff165b80610bda5750600a60003373ffffffffffffffffffffffffffffffffffffffff1673ffffffffffffffffffffffffffffffffffffffff16815260200190815260200160002060009054906101000a900460ff165b610c19576040517f08c379a0000000000000000000000000000000000000000000000000000000008152600401610c109061370e565b60405180910390fd5b610c24600083611aac565b600360008273ffffffffffffffffffffffffffffffffffffffff1673ffffffffffffffffffffffffffffffffffffffff1681526020019081526020016000206000815480929190610c749061372e565b919050555060006009600084815260200190815260200160002060006101000a81548160ff0219169083151502179055506000610d3e600860008473ffffffffffffffffffffffffffffffffffffffff1673ffffffffffffffffffffffffffffffffffffffff168152602001908152602001600020805480602002602001604051908101604052809291908181526020018280548015610d3357602002820191906000526020600020905b815481526020019060010190808311610d1f575b5050505050846121c4565b905060008112610eb757600860008373ffffffffffffffffffffffffffffffffffffffff1673ffffffffffffffffffffffffffffffffffffffff1681526020019081526020016000206001600860008573ffffffffffffffffffffffffffffffffffffffff1673ffffffffffffffffffffffffffffffffffffffff16815260200190815260200160002080549050610dd69190613757565b81548110610de757610de66134e8565b5b9060005260206000200154600860008473ffffffffffffffffffffffffffffffffffffffff1673ffffffffffffffffffffffffffffffffffffffff1681526020019081526020016000208281548110610e4357610e426134e8565b5b9060005260206000200181905550600860008373ffffffffffffffffffffffffffffffffffffffff1673ffffffffffffffffffffffffffffffffffffffff168152602001908152602001600020805480610ea057610e9f61378b565b5b600190038181906000526020600020016000905590555b6004600084815260200190815260200160002060006101000a81549073ffffffffffffffffffffffffffffffffffffffff0219169055600760008481526020019081526020016000206000610f0c91906128a7565b82600073ffffffffffffffffffffffffffffffffffffffff168373ffffffffffffffffffffffffffffffffffffffff167fddf252ad1be2c89b69c2b068fc378daa952ba7f163c4a11628f55a4df523b3ef60405160405180910390a4505050565b600a6020528060005260406000206000915054906101000a900460ff1681565b600d5481565b60606000600860003373ffffffffffffffffffffffffffffffffffffffff1673ffffffffffffffffffffffffffffffffffffffff16815260200190815260200160002080549050905060008167ffffffffffffffff811115610ff857610ff7613011565b5b6040519080825280602002602001820160405280156110265781602001602082028036833780820191505090505b50905060005b828110156110c257600860003373ffffffffffffffffffffffffffffffffffffffff1673ffffffffffffffffffffffffffffffffffffffff1681526020019081526020016000208181548110611085576110846134e8565b5b90600052602060002001548282815181106110a3576110a26134e8565b5b60200260200101818152505080806110ba906134a0565b91505061102c565b50809250505090565b60008073ffffffffffffffffffffffffffffffffffffffff166004600084815260200190815260200160002060009054906101000a900473ffffffffffffffffffffffffffffffffffffffff1673ffffffffffffffffffffffffffffffffffffffff160361116e576040517f08c379a0000000000000000000000000000000000000000000000000000000008152600401611165906132d7565b60405180910390fd5b6004600083815260200190815260200160002060009054906101000a900473ffffffffffffffffffffffffffffffffffffffff169050919050565b60008073ffffffffffffffffffffffffffffffffffffffff168273ffffffffffffffffffffffffffffffffffffffff1603611219576040517f08c379a00000000000000000000000000000000000000000000000000000000081526004016112109061382c565b60405180910390fd5b600360008373ffffffffffffffffffffffffffffffffffffffff1673ffffffffffffffffffffffffffffffffffffffff168152602001908152602001600020549050919050565b600b6020528060005260406000206000915054906101000a900460ff1681565b600260009054906101000a900473ffffffffffffffffffffffffffffffffffffffff1673ffffffffffffffffffffffffffffffffffffffff163373ffffffffffffffffffffffffffffffffffffffff1614611310576040517f08c379a0000000000000000000000000000000000000000000000000000000008152600401611307906138be565b60405180910390fd5b80600a60008473ffffffffffffffffffffffffffffffffffffffff1673ffffffffffffffffffffffffffffffffffffffff16815260200190815260200160002060006101000a81548160ff0219169083151502179055505050565b600260009054906101000a900473ffffffffffffffffffffffffffffffffffffffff1681565b6001805461139e90613234565b80601f01602080910402602001604051908101604052809291908181526020018280546113ca90613234565b80156114175780601f106113ec57610100808354040283529160200191611417565b820191906000526020600020905b8154815290600101906020018083116113fa57829003601f168201915b505050505081565b8173ffffffffffffffffffffffffffffffffffffffff163373ffffffffffffffffffffffffffffffffffffffff160361148d576040517f08c379a000000000000000000000000000000000000000000000000000000000815260040161148490613950565b60405180910390fd5b80600660003373ffffffffffffffffffffffffffffffffffffffff1673ffffffffffffffffffffffffffffffffffffffff16815260200190815260200160002060008473ffffffffffffffffffffffffffffffffffffffff1673ffffffffffffffffffffffffffffffffffffffff16815260200190815260200160002060006101000a81548160ff0219169083151502179055508173ffffffffffffffffffffffffffffffffffffffff163373ffffffffffffffffffffffffffffffffffffffff167f17307eab39ab6107e8899845ad3d59bd9653f200f220920489ca2b5937696c318360405161157e9190612a3e565b60405180910390a35050565b60096020528060005260406000206000915054906101000a900460ff1681565b6115b5858585611b90565b61160585858585858080601f016020809104026020016040519081016040528093929190818152602001838380828437600081840152601f19601f82011690508083019250505050505050612248565b611644576040517f08c379a000000000000000000000000000000000000000000000000000000000815260040161163b90613a08565b60405180910390fd5b5050505050565b6060600073ffffffffffffffffffffffffffffffffffffffff166004600084815260200190815260200160002060009054906101000a900473ffffffffffffffffffffffffffffffffffffffff1673ffffffffffffffffffffffffffffffffffffffff16036116ef576040517f08c379a00000000000000000000000000000000000000000000000000000000081526004016116e690613a9a565b60405180910390fd5b6116f76123b2565b6007600084815260200190815260200160002060405160200161171b929190613b8a565b6040516020818303038152906040529050919050565b600c5481565b600080600c549050600e60009054906101000a900473ffffffffffffffffffffffffffffffffffffffff1673ffffffffffffffffffffffffffffffffffffffff16633aa3a87e3360016040518363ffffffff1660e01b815260040161179d929190613bf3565b600060405180830381600087803b1580156117b757600080fd5b505af11580156117cb573d6000803e3d6000fd5b505050506117d933826123ef565b6117e3818461240d565b600c60008154809291906117f6906134a0565b919050555080915050919050565b600a60003373ffffffffffffffffffffffffffffffffffffffff1673ffffffffffffffffffffffffffffffffffffffff16815260200190815260200160002060009054906101000a900460ff16611890576040517f08c379a000000000000000000000000000000000000000000000000000000000815260040161188790613c8e565b60405180910390fd5b600d60008154809291906118a3906134a0565b919050555080156118df5760016009600084815260200190815260200160002060006101000a81548160ff0219169083151502179055506118e9565b6118e882610a87565b5b5050565b600b600082815260200190815260200160002060009054906101000a900460ff1661194d576040517f08c379a000000000000000000000000000000000000000000000000000000000815260040161194490613d20565b60405180910390fd5b611958838383610a13565b505050565b6000600660008473ffffffffffffffffffffffffffffffffffffffff1673ffffffffffffffffffffffffffffffffffffffff16815260200190815260200160002060008373ffffffffffffffffffffffffffffffffffffffff1673ffffffffffffffffffffffffffffffffffffffff16815260200190815260200160002060009054906101000a900460ff16905092915050565b6119fb33836124db565b611a3a576040517f08c379a0000000000000000000000000000000000000000000000000000000008152600401611a3190613dd8565b60405180910390fd5b80600b600084815260200190815260200160002060006101000a81548160ff0219169083151502179055508015611a9c57611a97600f60009054906101000a900473ffffffffffffffffffffffffffffffffffffffff1683611aac565b611aa8565b611aa7600083611aac565b5b5050565b816005600083815260200190815260200160002060006101000a81548173ffffffffffffffffffffffffffffffffffffffff021916908373ffffffffffffffffffffffffffffffffffffffff160217905550808273ffffffffffffffffffffffffffffffffffffffff166004600084815260200190815260200160002060009054906101000a900473ffffffffffffffffffffffffffffffffffffffff1673ffffffffffffffffffffffffffffffffffffffff167f8c5be1e5ebec7d5bd14f71427d1e84f3dd0314c0f7b2291e5b200ac8c7c3b92560405160405180910390a45050565b600073ffffffffffffffffffffffffffffffffffffffff168373ffffffffffffffffffffffffffffffffffffffff1603611bff576040517f08c379a0000000000000000000000000000000000000000000000000000000008152600401611bf690613e6a565b60405180910390fd5b600073ffffffffffffffffffffffffffffffffffffffff168273ffffffffffffffffffffffffffffffffffffffff1603611c6e576040517f08c379a0000000000000000000000000000000000000000000000000000000008152600401611c6590613efc565b60405180910390fd5b8273ffffffffffffffffffffffffffffffffffffffff166004600083815260200190815260200160002060009054906101000a900473ffffffffffffffffffffffffffffffffffffffff1673ffffffffffffffffffffffffffffffffffffffff1614611d0f576040517f08c379a0000000000000000000000000000000000000000000000000000000008152600401611d0690613f8e565b60405180910390fd5b6009600082815260200190815260200160002060009054906101000a900460ff16611d6f576040517f08c379a0000000000000000000000000000000000000000000000000000000008152600401611d6690614046565b60405180910390fd5b611d7933826124db565b611db8576040517f08c379a0000000000000000000000000000000000000000000000000000000008152600401611daf906140fe565b60405180910390fd5b611dc3600082611aac565b600360008473ffffffffffffffffffffffffffffffffffffffff1673ffffffffffffffffffffffffffffffffffffffff1681526020019081526020016000206000815480929190611e139061372e565b9190505550600360008373ffffffffffffffffffffffffffffffffffffffff1673ffffffffffffffffffffffffffffffffffffffff1681526020019081526020016000206000815480929190611e68906134a0565b91905055506000611f06600860008673ffffffffffffffffffffffffffffffffffffffff1673ffffffffffffffffffffffffffffffffffffffff168152602001908152602001600020805480602002602001604051908101604052809291908181526020018280548015611efb57602002820191906000526020600020905b815481526020019060010190808311611ee7575b5050505050836121c4565b90506000811261207f57600860008573ffffffffffffffffffffffffffffffffffffffff1673ffffffffffffffffffffffffffffffffffffffff1681526020019081526020016000206001600860008773ffffffffffffffffffffffffffffffffffffffff1673ffffffffffffffffffffffffffffffffffffffff16815260200190815260200160002080549050611f9e9190613757565b81548110611faf57611fae6134e8565b5b9060005260206000200154600860008673ffffffffffffffffffffffffffffffffffffffff1673ffffffffffffffffffffffffffffffffffffffff168152602001908152602001600020828154811061200b5761200a6134e8565b5b9060005260206000200181905550600860008573ffffffffffffffffffffffffffffffffffffffff1673ffffffffffffffffffffffffffffffffffffffff1681526020019081526020016000208054806120685761206761378b565b5b600190038181906000526020600020016000905590555b600860008473ffffffffffffffffffffffffffffffffffffffff1673ffffffffffffffffffffffffffffffffffffffff168152602001908152602001600020829080600181540180825580915050600190039060005260206000200160009091909190915055826004600084815260200190815260200160002060006101000a81548173ffffffffffffffffffffffffffffffffffffffff021916908373ffffffffffffffffffffffffffffffffffffffff1602179055506000600b600084815260200190815260200160002060006101000a81548160ff021916908315150217905550818373ffffffffffffffffffffffffffffffffffffffff168573ffffffffffffffffffffffffffffffffffffffff167fddf252ad1be2c89b69c2b068fc378daa952ba7f163c4a11628f55a4df523b3ef60405160405180910390a450505050565b600080600090505b600184516121da9190613757565b811161221d57828482815181106121f4576121f36134e8565b5b60200260200101510361220a5780915050612242565b8080612215906134a0565b9150506121cc565b507fffffffffffffffffffffffffffffffffffffffffffffffffffffffffffffffff90505b92915050565b6000612253846125c9565b156123a5578373ffffffffffffffffffffffffffffffffffffffff1663150b7a02338786866040518563ffffffff1660e01b81526004016122979493929190614162565b6020604051808303816000875af19250505080156122d357506040513d601f19601f820116820180604052508101906122d091906141c3565b60015b612355573d8060008114612303576040519150601f19603f3d011682016040523d82523d6000602084013e612308565b606091505b50600081510361234d576040517f08c379a000000000000000000000000000000000000000000000000000000000815260040161234490613a08565b60405180910390fd5b805181602001fd5b63150b7a0260e01b7bffffffffffffffffffffffffffffffffffffffffffffffffffffffff1916817bffffffffffffffffffffffffffffffffffffffffffffffffffffffff1916149150506123aa565b600190505b949350505050565b60606040518060400160405280601581526020017f68747470733a2f2f697066732e696f2f697066732f0000000000000000000000815250905090565b6124098282604051806020016040528060008152506125dc565b5050565b600073ffffffffffffffffffffffffffffffffffffffff166004600084815260200190815260200160002060009054906101000a900473ffffffffffffffffffffffffffffffffffffffff1673ffffffffffffffffffffffffffffffffffffffff16036124af576040517f08c379a00000000000000000000000000000000000000000000000000000000081526004016124a690614262565b60405180910390fd5b806007600084815260200190815260200160002090805190602001906124d69291906128e7565b505050565b60008273ffffffffffffffffffffffffffffffffffffffff166004600084815260200190815260200160002060009054906101000a900473ffffffffffffffffffffffffffffffffffffffff1673ffffffffffffffffffffffffffffffffffffffff16148061257d57508273ffffffffffffffffffffffffffffffffffffffff1661256583610670565b73ffffffffffffffffffffffffffffffffffffffff16145b806125c157506125c06004600084815260200190815260200160002060009054906101000a900473ffffffffffffffffffffffffffffffffffffffff168461195d565b5b905092915050565b600080823b905060008111915050919050565b600073ffffffffffffffffffffffffffffffffffffffff168373ffffffffffffffffffffffffffffffffffffffff160361264b576040517f08c379a000000000000000000000000000000000000000000000000000000000815260040161264290613efc565b60405180910390fd5b600073ffffffffffffffffffffffffffffffffffffffff166004600084815260200190815260200160002060009054906101000a900473ffffffffffffffffffffffffffffffffffffffff1673ffffffffffffffffffffffffffffffffffffffff16146126ed576040517f08c379a00000000000000000000000000000000000000000000000000000000081526004016126e4906142f4565b60405180910390fd5b600360008473ffffffffffffffffffffffffffffffffffffffff1673ffffffffffffffffffffffffffffffffffffffff168152602001908152602001600020600081548092919061273d906134a0565b9190505550826004600084815260200190815260200160002060006101000a81548173ffffffffffffffffffffffffffffffffffffffff021916908373ffffffffffffffffffffffffffffffffffffffff160217905550600860008473ffffffffffffffffffffffffffffffffffffffff1673ffffffffffffffffffffffffffffffffffffffff168152602001908152602001600020829080600181540180825580915050600190039060005260206000200160009091909190915055818373ffffffffffffffffffffffffffffffffffffffff16600073ffffffffffffffffffffffffffffffffffffffff167fddf252ad1be2c89b69c2b068fc378daa952ba7f163c4a11628f55a4df523b3ef60405160405180910390a46128636000848484612248565b6128a2576040517f08c379a000000000000000000000000000000000000000000000000000000000815260040161289990613a08565b60405180910390fd5b505050565b5080546128b390613234565b6000825580601f106128c557506128e4565b601f0160209004906000526020600020908101906128e3919061296d565b5b50565b8280546128f390613234565b90600052602060002090601f016020900481019282612915576000855561295c565b82601f1061292e57805160ff191683800117855561295c565b8280016001018555821561295c579182015b8281111561295b578251825591602001919060010190612940565b5b509050612969919061296d565b5090565b5b8082111561298657600081600090555060010161296e565b5090565b6000604051905090565b600080fd5b600080fd5b60007fffffffff0000000000000000000000000000000000000000000000000000000082169050919050565b6129d38161299e565b81146129de57600080fd5b50565b6000813590506129f0816129ca565b92915050565b600060208284031215612a0c57612a0b612994565b5b6000612a1a848285016129e1565b91505092915050565b60008115159050919050565b612a3881612a23565b82525050565b6000602082019050612a536000830184612a2f565b92915050565b600081519050919050565b600082825260208201905092915050565b60005b83811015612a93578082015181840152602081019050612a78565b83811115612aa2576000848401525b50505050565b6000601f19601f8301169050919050565b6000612ac482612a59565b612ace8185612a64565b9350612ade818560208601612a75565b612ae781612aa8565b840191505092915050565b60006020820190508181036000830152612b0c8184612ab9565b905092915050565b6000819050919050565b612b2781612b14565b8114612b3257600080fd5b50565b600081359050612b4481612b1e565b92915050565b600060208284031215612b6057612b5f612994565b5b6000612b6e84828501612b35565b91505092915050565b600073ffffffffffffffffffffffffffffffffffffffff82169050919050565b6000612ba282612b77565b9050919050565b612bb281612b97565b82525050565b6000602082019050612bcd6000830184612ba9565b92915050565b612bdc81612b97565b8114612be757600080fd5b50565b600081359050612bf981612bd3565b92915050565b60008060408385031215612c1657612c15612994565b5b6000612c2485828601612bea565b9250506020612c3585828601612b35565b9150509250929050565b600081519050919050565b600082825260208201905092915050565b6000819050602082019050919050565b6000819050919050565b612c7e81612c6b565b82525050565b6000612c908383612c75565b60208301905092915050565b6000602082019050919050565b6000612cb482612c3f565b612cbe8185612c4a565b9350612cc983612c5b565b8060005b83811015612cfa578151612ce18882612c84565b9750612cec83612c9c565b925050600181019050612ccd565b5085935050505092915050565b60006020820190508181036000830152612d218184612ca9565b905092915050565b600080600060608486031215612d4257612d41612994565b5b6000612d5086828701612bea565b9350506020612d6186828701612bea565b9250506040612d7286828701612b35565b9150509250925092565b600060208284031215612d9257612d91612994565b5b6000612da084828501612bea565b91505092915050565b612db281612b14565b82525050565b6000602082019050612dcd6000830184612da9565b92915050565b600081519050919050565b600082825260208201905092915050565b6000819050602082019050919050565b612e0881612b14565b82525050565b6000612e1a8383612dff565b60208301905092915050565b6000602082019050919050565b6000612e3e82612dd3565b612e488185612dde565b9350612e5383612def565b8060005b83811015612e84578151612e6b8882612e0e565b9750612e7683612e26565b925050600181019050612e57565b5085935050505092915050565b60006020820190508181036000830152612eab8184612e33565b905092915050565b612ebc81612a23565b8114612ec757600080fd5b50565b600081359050612ed981612eb3565b92915050565b60008060408385031215612ef657612ef5612994565b5b6000612f0485828601612bea565b9250506020612f1585828601612eca565b9150509250929050565b600080fd5b600080fd5b600080fd5b60008083601f840112612f4457612f43612f1f565b5b8235905067ffffffffffffffff811115612f6157612f60612f24565b5b602083019150836001820283011115612f7d57612f7c612f29565b5b9250929050565b600080600080600060808688031215612fa057612f9f612994565b5b6000612fae88828901612bea565b9550506020612fbf88828901612bea565b9450506040612fd088828901612b35565b935050606086013567ffffffffffffffff811115612ff157612ff0612999565b5b612ffd88828901612f2e565b92509250509295509295909350565b600080fd5b7f4e487b7100000000000000000000000000000000000000000000000000000000600052604160045260246000fd5b61304982612aa8565b810181811067ffffffffffffffff8211171561306857613067613011565b5b80604052505050565b600061307b61298a565b90506130878282613040565b919050565b600067ffffffffffffffff8211156130a7576130a6613011565b5b6130b082612aa8565b9050602081019050919050565b82818337600083830152505050565b60006130df6130da8461308c565b613071565b9050828152602081018484840111156130fb576130fa61300c565b5b6131068482856130bd565b509392505050565b600082601f83011261312357613122612f1f565b5b81356131338482602086016130cc565b91505092915050565b60006020828403121561315257613151612994565b5b600082013567ffffffffffffffff8111156131705761316f612999565b5b61317c8482850161310e565b91505092915050565b6000806040838503121561319c5761319b612994565b5b60006131aa85828601612b35565b92505060206131bb85828601612eca565b9150509250929050565b600080604083850312156131dc576131db612994565b5b60006131ea85828601612bea565b92505060206131fb85828601612bea565b9150509250929050565b7f4e487b7100000000000000000000000000000000000000000000000000000000600052602260045260246000fd5b6000600282049050600182168061324c57607f821691505b60208210810361325f5761325e613205565b5b50919050565b7f4552433732313a20546f6b656e207769746820656e746572656420494420646f60008201527f6573206e6f742065786973740000000000000000000000000000000000000000602082015250565b60006132c1602c83612a64565b91506132cc82613265565b604082019050919050565b600060208201905081810360008301526132f0816132b4565b9050919050565b7f4552433732313a206f776e65722063616e6e6f7420617070726f76652068696d60008201527f73656c662f68657273656c660000000000000000000000000000000000000000602082015250565b6000613353602c83612a64565b915061335e826132f7565b604082019050919050565b6000602082019050818103600083015261338281613346565b9050919050565b7f4552433732313a2063616c6c6572206d757374206f776e2074686520746f6b6560008201527f6e206f7220626520617070726f76656420666f7220616c6c0000000000000000602082015250565b60006133e5603883612a64565b91506133f082613389565b604082019050919050565b60006020820190508181036000830152613414816133d8565b9050919050565b7f4e487b7100000000000000000000000000000000000000000000000000000000600052601160045260246000fd5b600061345582612b14565b915061346083612b14565b9250827fffffffffffffffffffffffffffffffffffffffffffffffffffffffffffffffff038211156134955761349461341b565b5b828201905092915050565b60006134ab82612b14565b91507fffffffffffffffffffffffffffffffffffffffffffffffffffffffffffffffff82036134dd576134dc61341b565b5b600182019050919050565b7f4e487b7100000000000000000000000000000000000000000000000000000000600052603260045260246000fd5b600082825260208201905092915050565b50565b6000613538600083613517565b915061354382613528565b600082019050919050565b60006080820190506135636000830186612ba9565b6135706020830185612ba9565b61357d6040830184612da9565b818103606083015261358e8161352b565b9050949350505050565b7f4552433732313a206e6f20746f6b656e2077697468207468652073706563696660008201527f69656420494420776173206d696e746564206265666f72650000000000000000602082015250565b60006135f4603883612a64565b91506135ff82613598565b604082019050919050565b60006020820190508181036000830152613623816135e7565b9050919050565b7f4552433732313a206120746f6b656e207769746820746865207370656369666960008201527f6564204944206973206e6f74206f776e6564206279207468652073656e64657260208201527f2c206f72206973206e6f74207472616e7366657261626c65207965742c206f7260408201527f207468652063616c6c6572206d6179206e6f7420626520616e2061646d696e2060608201527f746f20626520616c6c6f77656420746f206275726e2069740000000000000000608082015250565b60006136f8609883612a64565b91506137038261362a565b60a082019050919050565b60006020820190508181036000830152613727816136eb565b9050919050565b600061373982612b14565b91506000820361374c5761374b61341b565b5b600182039050919050565b600061376282612b14565b915061376d83612b14565b9250828210156137805761377f61341b565b5b828203905092915050565b7f4e487b7100000000000000000000000000000000000000000000000000000000600052603160045260246000fd5b7f4552433732313a2061646472657373206f776e65722063616e6e6f742062652060008201527f746865207a65726f206164647265737300000000000000000000000000000000602082015250565b6000613816603083612a64565b9150613821826137ba565b604082019050919050565b6000602082019050818103600083015261384581613809565b9050919050565b7f4552433732313a204f6e6c79206f776e657220697320616c6c6f77656420746f60008201527f20646f20746869732066756e6374696f6e616c69747900000000000000000000602082015250565b60006138a8603683612a64565b91506138b38261384c565b604082019050919050565b600060208201905081810360008301526138d78161389b565b9050919050565b7f4552433732313a2073656e6465722063616e6e6f742073657420617070726f7660008201527f616c20666f722068696d73656c662f68657273656c6600000000000000000000602082015250565b600061393a603683612a64565b9150613945826138de565b604082019050919050565b600060208201905081810360008301526139698161392d565b9050919050565b7f4552433732313a207472616e736665722063616e6e6f7420636f6d706c65746560008201527f20746f206120736d61727420636f6e7472616374206e6f7420696d706c656d6560208201527f6e74696e67204552433732315265636569766572000000000000000000000000604082015250565b60006139f2605483612a64565b91506139fd82613970565b606082019050919050565b60006020820190508181036000830152613a21816139e5565b9050919050565b7f4552433732313a2063616e6e6f742067657420555249206f66206e6f6e65786960008201527f7374656e7420746f6b656e000000000000000000000000000000000000000000602082015250565b6000613a84602b83612a64565b9150613a8f82613a28565b604082019050919050565b60006020820190508181036000830152613ab381613a77565b9050919050565b600081905092915050565b6000613ad082612a59565b613ada8185613aba565b9350613aea818560208601612a75565b80840191505092915050565b60008190508160005260206000209050919050565b60008154613b1881613234565b613b228186613aba565b94506001821660008114613b3d5760018114613b4e57613b81565b60ff19831686528186019350613b81565b613b5785613af6565b60005b83811015613b7957815481890152600182019150602081019050613b5a565b838801955050505b50505092915050565b6000613b968285613ac5565b9150613ba28284613b0b565b91508190509392505050565b6000819050919050565b6000819050919050565b6000613bdd613bd8613bd384613bae565b613bb8565b612b14565b9050919050565b613bed81613bc2565b82525050565b6000604082019050613c086000830185612ba9565b613c156020830184613be4565b9392505050565b7f4552433732313a204f6e6c792061646d696e732061726520616c6c6f7765642060008201527f746f20646f20746869732066756e6374696f6e616c6974790000000000000000602082015250565b6000613c78603883612a64565b9150613c8382613c1c565b604082019050919050565b60006020820190508181036000830152613ca781613c6b565b9050919050565b7f4e65726f734e46543a205468697320746f6b656e206973206e6f7420666f722060008201527f73616c6500000000000000000000000000000000000000000000000000000000602082015250565b6000613d0a602483612a64565b9150613d1582613cae565b604082019050919050565b60006020820190508181036000830152613d3981613cfd565b9050919050565b7f4e65726f734e46543a2053656e646572206973206e656974686572207468652060008201527f6f776e6572206e6f7220617070726f76656420746f20646f207468697320747260208201527f616e73616374696f6e0000000000000000000000000000000000000000000000604082015250565b6000613dc2604983612a64565b9150613dcd82613d40565b606082019050919050565b60006020820190508181036000830152613df181613db5565b9050919050565b7f4552433732313a2066726f6d206164647265737320656e74657265642063616e60008201527f6e6f7420626520746865207a65726f2061646472657373000000000000000000602082015250565b6000613e54603783612a64565b9150613e5f82613df8565b604082019050919050565b60006020820190508181036000830152613e8381613e47565b9050919050565b7f4552433732313a20746f206164647265737320656e74657265642063616e6e6f60008201527f7420626520746865207a65726f20616464726573730000000000000000000000602082015250565b6000613ee6603583612a64565b9150613ef182613e8a565b604082019050919050565b60006020820190508181036000830152613f1581613ed9565b9050919050565b7f4552433732313a20546f6b656e207769746820656e746572656420494420697360008201527f206e6f74206f776e6564206279207468652066726f6d20616464726573730000602082015250565b6000613f78603e83612a64565b9150613f8382613f1c565b604082019050919050565b60006020820190508181036000830152613fa781613f6b565b9050919050565b7f4552433732313a20546f6b656e2063616e6e6f74206265207472616e7366657260008201527f656420796574206173207472616e73666572206f662073746f636b206f776e6560208201527f7273686970206973206e6f742079657420766572696669656400000000000000604082015250565b6000614030605983612a64565b915061403b82613fae565b606082019050919050565b6000602082019050818103600083015261405f81614023565b9050919050565b7f4552433732313a2053656e646572206973206e65697468657220746865206f7760008201527f6e6572206e6f7220617070726f76656420746f20646f2074686973207472616e60208201527f73616374696f6e00000000000000000000000000000000000000000000000000604082015250565b60006140e8604783612a64565b91506140f382614066565b606082019050919050565b60006020820190508181036000830152614117816140db565b9050919050565b600081519050919050565b60006141348261411e565b61413e8185613517565b935061414e818560208601612a75565b61415781612aa8565b840191505092915050565b60006080820190506141776000830187612ba9565b6141846020830186612ba9565b6141916040830185612da9565b81810360608301526141a38184614129565b905095945050505050565b6000815190506141bd816129ca565b92915050565b6000602082840312156141d9576141d8612994565b5b60006141e7848285016141ae565b91505092915050565b7f4552433732313a2063616e6e6f742073657420555249206f662061206e6f6e6560008201527f78697374656e7420746f6b656e00000000000000000000000000000000000000602082015250565b600061424c602d83612a64565b9150614257826141f0565b604082019050919050565b6000602082019050818103600083015261427b8161423f565b9050919050565b7f4552433732313a206120746f6b656e207769746820746865207370656369666960008201527f656420494420697320616c7265616479206d696e746564000000000000000000602082015250565b60006142de603783612a64565b91506142e982614282565b604082019050919050565b6000602082019050818103600083015261430d816142d1565b905091905056fea264697066735822122007a0958ce254f7df5a33f4ef5132bb946e2f49f31f9400bf8949154579be940664736f6c634300080d0033",
  "immutableReferences": {},
  "source": "//SPDX-License-Identifier: MIT\r\npragma solidity ^0.8.13;\r\n\r\nimport \"./ERC721.sol\";\r\nimport \"./NerosNFTCoin.sol\";\r\n\r\ncontract NerosNFT is ERC721 {\r\n  uint256 public tokenCounter;\r\n  uint256 public tokenIdToCheck;\r\n\r\n  NerosNFTCoin private nerosNFTCoin;\r\n  address private nerosContract;\r\n\r\n  constructor(address _nerosNFTCoin, address _nerosContract) ERC721 (\"NerosNFT\", \"NROT\"){\r\n      tokenCounter = 0;\r\n      tokenIdToCheck = 0;\r\n      nerosNFTCoin = NerosNFTCoin(_nerosNFTCoin);\r\n      nerosContract = _nerosContract;\r\n  }\r\n\r\n  function createNFT(string memory tokenURI) public returns (uint256) {\r\n      uint256 newItemId = tokenCounter;\r\n      //BURN NerosNFTCoin\r\n      nerosNFTCoin.burnNFTCoin(msg.sender, 1);\r\n      safeMint(msg.sender, newItemId);\r\n      setTokenURI(newItemId, tokenURI);\r\n      tokenCounter++;\r\n      return newItemId;\r\n  }\r\n\r\n  function setTransferable(uint tokenId, bool transferable) public onlyAdmin {\r\n      tokenIdToCheck++;\r\n      if(transferable){\r\n        isTransferable[tokenId] = true;\r\n      } else {\r\n        burn(tokenId);\r\n      }\r\n  }\r\n\r\n  function setForSale(uint tokenId, bool forSale) public {\r\n    require(isApprovedOrIsOwner(msg.sender, tokenId), \"NerosNFT: Sender is neither the owner nor approved to do this transaction\");\r\n    isForSale[tokenId] = forSale;\r\n    if(forSale) {\r\n      _approve(nerosContract, tokenId);\r\n    } else {\r\n      _approve(address(0), tokenId);\r\n    }\r\n  }\r\n\r\n  function getAllForSale() public view returns (int[] memory) {\r\n    int[] memory res = new int[](tokenCounter + 1);\r\n    uint index = 0;\r\n    for(uint i = 0; i < tokenCounter; i++){\r\n      if(isForSale[i]){\r\n         res[index++] = int(i);\r\n      }\r\n    }\r\n    int[] memory resFinal = new int[](index);\r\n    for(uint i = 0; i < index; i++){\r\n      resFinal[i] = res[i];\r\n    }\r\n    return resFinal;\r\n  }\r\n\r\n  function getMyNFTs() public view returns (uint[] memory) {\r\n    uint length = ownedTokens[msg.sender].length;\r\n    uint[] memory res = new uint[](length);\r\n    for(uint i = 0; i < length; i++) {\r\n      res[i] = ownedTokens[msg.sender][i];\r\n    }\r\n    return res;\r\n  }\r\n\r\n  function exchangeNFT(address from, address to, uint256 tokenId) public {\r\n    require(isForSale[tokenId], \"NerosNFT: This token is not for sale\");\r\n    safeTransferFrom(from, to, tokenId);\r\n  }\r\n}\r\n",
  "sourcePath": "D:\\S8\\Neros\\contracts\\NerosNFT.sol",
  "compiler": {
    "name": "solc",
    "version": "0.8.13+commit.abaa5c0e.Emscripten.clang"
  },
  "schemaVersion": "3.4.6",
  "updatedAt": "2022-05-30T20:07:15.177Z",
  "networkType": "ethereum",
  "devdoc": {
    "kind": "dev",
    "methods": {
      "approve(address,uint256)": {
        "details": "Gives permission to `to` to transfer `tokenId` token to another account. The approval is cleared when the token is transferred. Only a single account can be approved at a time, so approving the zero address clears previous approvals. Requirements: - The caller must own the token or be an approved operator. - `tokenId` must exist. Emits an {Approval} event."
      },
      "getApproved(uint256)": {
        "details": "Returns the account approved for `tokenId` token. Requirements: - `tokenId` must exist."
      },
      "ownerOf(uint256)": {
        "details": "Returns the owner of the `tokenId` token. Requirements: - `tokenId` must exist."
      },
      "safeTransferFrom(address,address,uint256)": {
        "details": "Safely transfers `tokenId` token from `from` to `to`, checking first that contract recipients are aware of the ERC721 protocol to prevent tokens from being forever locked. Requirements: - `from` cannot be the zero address. - `to` cannot be the zero address. - `tokenId` token must exist and be owned by `from`. - If the caller is not `from`, it must be have been allowed to move this token by either {approve} or {setApprovalForAll}. - If `to` refers to a smart contract, it must implement {IERC721Receiver-onERC721Received}, which is called upon a safe transfer. Emits a {Transfer} event."
      },
      "safeTransferFrom(address,address,uint256,bytes)": {
        "details": "Safely transfers `tokenId` token from `from` to `to`. Requirements: - `from` cannot be the zero address. - `to` cannot be the zero address. - `tokenId` token must exist and be owned by `from`. - If the caller is not `from`, it must be approved to move this token by either {approve} or {setApprovalForAll}. - If `to` refers to a smart contract, it must implement {IERC721Receiver-onERC721Received}, which is called upon a safe transfer. Emits a {Transfer} event."
      },
      "supportsInterface(bytes4)": {
        "details": "Returns true if this contract implements the interface defined by `interfaceId`. See the corresponding https://eips.ethereum.org/EIPS/eip-165#how-interfaces-are-identified[EIP section] to learn more about how these ids are created. This function call must use less than 30 000 gas."
      },
      "tokenURI(uint256)": {
        "details": "Returns the Uniform Resource Identifier (URI) for `tokenId` token."
      },
      "transferFrom(address,address,uint256)": {
        "details": "Transfers `tokenId` token from `from` to `to`. WARNING: Usage of this method is discouraged, use {safeTransferFrom} whenever possible. Requirements: - `from` cannot be the zero address. - `to` cannot be the zero address. - `tokenId` token must be owned by `from`. - If the caller is not `from`, it must be approved to move this token by either {approve} or {setApprovalForAll}. Emits a {Transfer} event."
      }
    },
    "version": 1
  },
  "userdoc": {
    "kind": "user",
    "methods": {},
    "version": 1
  }
}