{
  "contractName": "NerosNFT",
  "abi": [
    {
      "inputs": [
        {
          "internalType": "address",
          "name": "_nerosNFTCoin",
          "type": "address"
        },
        {
          "internalType": "address",
          "name": "_nerosContract",
          "type": "address"
        }
      ],
      "stateMutability": "nonpayable",
      "type": "constructor"
    },
    {
      "anonymous": false,
      "inputs": [
        {
          "indexed": true,
          "internalType": "address",
          "name": "owner",
          "type": "address"
        },
        {
          "indexed": true,
          "internalType": "address",
          "name": "approved",
          "type": "address"
        },
        {
          "indexed": true,
          "internalType": "uint256",
          "name": "tokenId",
          "type": "uint256"
        }
      ],
      "name": "Approval",
      "type": "event"
    },
    {
      "anonymous": false,
      "inputs": [
        {
          "indexed": true,
          "internalType": "address",
          "name": "owner",
          "type": "address"
        },
        {
          "indexed": true,
          "internalType": "address",
          "name": "operator",
          "type": "address"
        },
        {
          "indexed": false,
          "internalType": "bool",
          "name": "approved",
          "type": "bool"
        }
      ],
      "name": "ApprovalForAll",
      "type": "event"
    },
    {
      "anonymous": false,
      "inputs": [
        {
          "indexed": true,
          "internalType": "address",
          "name": "from",
          "type": "address"
        },
        {
          "indexed": true,
          "internalType": "address",
          "name": "to",
          "type": "address"
        },
        {
          "indexed": true,
          "internalType": "uint256",
          "name": "tokenId",
          "type": "uint256"
        }
      ],
      "name": "Transfer",
      "type": "event"
    },
    {
      "inputs": [
        {
          "internalType": "address",
          "name": "admin",
          "type": "address"
        },
        {
          "internalType": "bool",
          "name": "add",
          "type": "bool"
        }
      ],
      "name": "addOrRemoveAdmin",
      "outputs": [],
      "stateMutability": "nonpayable",
      "type": "function"
    },
    {
      "inputs": [
        {
          "internalType": "address",
          "name": "",
          "type": "address"
        }
      ],
      "name": "admins",
      "outputs": [
        {
          "internalType": "bool",
          "name": "",
          "type": "bool"
        }
      ],
      "stateMutability": "view",
      "type": "function",
      "constant": true
    },
    {
      "inputs": [
        {
          "internalType": "address",
          "name": "to",
          "type": "address"
        },
        {
          "internalType": "uint256",
          "name": "tokenId",
          "type": "uint256"
        }
      ],
      "name": "approve",
      "outputs": [],
      "stateMutability": "nonpayable",
      "type": "function"
    },
    {
      "inputs": [
        {
          "internalType": "address",
          "name": "_owner",
          "type": "address"
        }
      ],
      "name": "balanceOf",
      "outputs": [
        {
          "internalType": "uint256",
          "name": "",
          "type": "uint256"
        }
      ],
      "stateMutability": "view",
      "type": "function",
      "constant": true
    },
    {
      "inputs": [
        {
          "internalType": "uint256",
          "name": "tokenId",
          "type": "uint256"
        }
      ],
      "name": "burn",
      "outputs": [],
      "stateMutability": "nonpayable",
      "type": "function"
    },
    {
      "inputs": [
        {
          "internalType": "uint256",
          "name": "tokenId",
          "type": "uint256"
        }
      ],
      "name": "getApproved",
      "outputs": [
        {
          "internalType": "address",
          "name": "",
          "type": "address"
        }
      ],
      "stateMutability": "view",
      "type": "function",
      "constant": true
    },
    {
      "inputs": [
        {
          "internalType": "address",
          "name": "_owner",
          "type": "address"
        },
        {
          "internalType": "address",
          "name": "operator",
          "type": "address"
        }
      ],
      "name": "isApprovedForAll",
      "outputs": [
        {
          "internalType": "bool",
          "name": "",
          "type": "bool"
        }
      ],
      "stateMutability": "view",
      "type": "function",
      "constant": true
    },
    {
      "inputs": [
        {
          "internalType": "uint256",
          "name": "",
          "type": "uint256"
        }
      ],
      "name": "isForSale",
      "outputs": [
        {
          "internalType": "bool",
          "name": "",
          "type": "bool"
        }
      ],
      "stateMutability": "view",
      "type": "function",
      "constant": true
    },
    {
      "inputs": [
        {
          "internalType": "uint256",
          "name": "",
          "type": "uint256"
        }
      ],
      "name": "isTransferable",
      "outputs": [
        {
          "internalType": "bool",
          "name": "",
          "type": "bool"
        }
      ],
      "stateMutability": "view",
      "type": "function",
      "constant": true
    },
    {
      "inputs": [],
      "name": "name",
      "outputs": [
        {
          "internalType": "string",
          "name": "",
          "type": "string"
        }
      ],
      "stateMutability": "view",
      "type": "function",
      "constant": true
    },
    {
      "inputs": [],
      "name": "owner",
      "outputs": [
        {
          "internalType": "address",
          "name": "",
          "type": "address"
        }
      ],
      "stateMutability": "view",
      "type": "function",
      "constant": true
    },
    {
      "inputs": [
        {
          "internalType": "uint256",
          "name": "tokenId",
          "type": "uint256"
        }
      ],
      "name": "ownerOf",
      "outputs": [
        {
          "internalType": "address",
          "name": "",
          "type": "address"
        }
      ],
      "stateMutability": "view",
      "type": "function",
      "constant": true
    },
    {
      "inputs": [
        {
          "internalType": "address",
          "name": "from",
          "type": "address"
        },
        {
          "internalType": "address",
          "name": "to",
          "type": "address"
        },
        {
          "internalType": "uint256",
          "name": "tokenId",
          "type": "uint256"
        }
      ],
      "name": "safeTransferFrom",
      "outputs": [],
      "stateMutability": "nonpayable",
      "type": "function"
    },
    {
      "inputs": [
        {
          "internalType": "address",
          "name": "from",
          "type": "address"
        },
        {
          "internalType": "address",
          "name": "to",
          "type": "address"
        },
        {
          "internalType": "uint256",
          "name": "tokenId",
          "type": "uint256"
        },
        {
          "internalType": "bytes",
          "name": "data",
          "type": "bytes"
        }
      ],
      "name": "safeTransferFrom",
      "outputs": [],
      "stateMutability": "nonpayable",
      "type": "function"
    },
    {
      "inputs": [
        {
          "internalType": "address",
          "name": "operator",
          "type": "address"
        },
        {
          "internalType": "bool",
          "name": "approved",
          "type": "bool"
        }
      ],
      "name": "setApprovalForAll",
      "outputs": [],
      "stateMutability": "nonpayable",
      "type": "function"
    },
    {
      "inputs": [
        {
          "internalType": "bytes4",
          "name": "interfaceId",
          "type": "bytes4"
        }
      ],
      "name": "supportsInterface",
      "outputs": [
        {
          "internalType": "bool",
          "name": "",
          "type": "bool"
        }
      ],
      "stateMutability": "pure",
      "type": "function",
      "constant": true
    },
    {
      "inputs": [],
      "name": "symbol",
      "outputs": [
        {
          "internalType": "string",
          "name": "",
          "type": "string"
        }
      ],
      "stateMutability": "view",
      "type": "function",
      "constant": true
    },
    {
      "inputs": [],
      "name": "tokenCounter",
      "outputs": [
        {
          "internalType": "uint256",
          "name": "",
          "type": "uint256"
        }
      ],
      "stateMutability": "view",
      "type": "function",
      "constant": true
    },
    {
      "inputs": [],
      "name": "tokenIdToCheck",
      "outputs": [
        {
          "internalType": "uint256",
          "name": "",
          "type": "uint256"
        }
      ],
      "stateMutability": "view",
      "type": "function",
      "constant": true
    },
    {
      "inputs": [
        {
          "internalType": "uint256",
          "name": "tokenId",
          "type": "uint256"
        }
      ],
      "name": "tokenURI",
      "outputs": [
        {
          "internalType": "string",
          "name": "",
          "type": "string"
        }
      ],
      "stateMutability": "view",
      "type": "function",
      "constant": true
    },
    {
      "inputs": [
        {
          "internalType": "address",
          "name": "from",
          "type": "address"
        },
        {
          "internalType": "address",
          "name": "to",
          "type": "address"
        },
        {
          "internalType": "uint256",
          "name": "tokenId",
          "type": "uint256"
        }
      ],
      "name": "transferFrom",
      "outputs": [],
      "stateMutability": "nonpayable",
      "type": "function"
    },
    {
      "inputs": [
        {
          "internalType": "string",
          "name": "tokenURI",
          "type": "string"
        }
      ],
      "name": "createNFT",
      "outputs": [
        {
          "internalType": "uint256",
          "name": "",
          "type": "uint256"
        }
      ],
      "stateMutability": "nonpayable",
      "type": "function"
    },
    {
      "inputs": [
        {
          "internalType": "bool",
          "name": "transferable",
          "type": "bool"
        }
      ],
      "name": "setTransferable",
      "outputs": [],
      "stateMutability": "nonpayable",
      "type": "function"
    },
    {
      "inputs": [
        {
          "internalType": "uint256",
          "name": "tokenId",
          "type": "uint256"
        },
        {
          "internalType": "bool",
          "name": "forSale",
          "type": "bool"
        }
      ],
      "name": "setForSale",
      "outputs": [],
      "stateMutability": "nonpayable",
      "type": "function"
    },
    {
      "inputs": [],
      "name": "getAllForSale",
      "outputs": [
        {
          "internalType": "int256[]",
          "name": "",
          "type": "int256[]"
        }
      ],
      "stateMutability": "view",
      "type": "function",
      "constant": true
    },
    {
      "inputs": [],
      "name": "getMyNFTs",
      "outputs": [
        {
          "internalType": "uint256[]",
          "name": "",
          "type": "uint256[]"
        }
      ],
      "stateMutability": "view",
      "type": "function",
      "constant": true
    },
    {
      "inputs": [
        {
          "internalType": "address",
          "name": "from",
          "type": "address"
        },
        {
          "internalType": "address",
          "name": "to",
          "type": "address"
        },
        {
          "internalType": "uint256",
          "name": "tokenId",
          "type": "uint256"
        }
      ],
      "name": "exchangeNFT",
      "outputs": [],
      "stateMutability": "nonpayable",
      "type": "function"
    }
  ],
  "bytecode": "0x60806040523480156200001157600080fd5b50604051620047f6380380620047f6833981810160405281019062000037919062000346565b6040518060400160405280600881526020017f4e65726f734e46540000000000000000000000000000000000000000000000008152506040518060400160405280600481526020017f4e524f54000000000000000000000000000000000000000000000000000000008152508160009080519060200190620000bb9291906200022c565b508060019080519060200190620000d49291906200022c565b5033600260006101000a81548173ffffffffffffffffffffffffffffffffffffffff021916908373ffffffffffffffffffffffffffffffffffffffff1602179055506001600a6000600260009054906101000a900473ffffffffffffffffffffffffffffffffffffffff1673ffffffffffffffffffffffffffffffffffffffff1673ffffffffffffffffffffffffffffffffffffffff16815260200190815260200160002060006101000a81548160ff02191690831515021790555050506000600c819055506000600d8190555081600e60006101000a81548173ffffffffffffffffffffffffffffffffffffffff021916908373ffffffffffffffffffffffffffffffffffffffff16021790555080600f60006101000a81548173ffffffffffffffffffffffffffffffffffffffff021916908373ffffffffffffffffffffffffffffffffffffffff1602179055505050620003f1565b8280546200023a90620003bc565b90600052602060002090601f0160209004810192826200025e5760008555620002aa565b82601f106200027957805160ff1916838001178555620002aa565b82800160010185558215620002aa579182015b82811115620002a95782518255916020019190600101906200028c565b5b509050620002b99190620002bd565b5090565b5b80821115620002d8576000816000905550600101620002be565b5090565b600080fd5b600073ffffffffffffffffffffffffffffffffffffffff82169050919050565b60006200030e82620002e1565b9050919050565b620003208162000301565b81146200032c57600080fd5b50565b600081519050620003408162000315565b92915050565b6000806040838503121562000360576200035f620002dc565b5b600062000370858286016200032f565b925050602062000383858286016200032f565b9150509250929050565b7f4e487b7100000000000000000000000000000000000000000000000000000000600052602260045260246000fd5b60006002820490506001821680620003d557607f821691505b602082108103620003eb57620003ea6200038d565b5b50919050565b6143f580620004016000396000f3fe608060405234801561001057600080fd5b50600436106101a95760003560e01c80638546d002116100f9578063b88d4fde11610097578063da2ed03e11610071578063da2ed03e146104e0578063e235238614610510578063e985e9c51461052c578063f0a6c16b1461055c576101a9565b8063b88d4fde14610476578063c87b56dd14610492578063d082e381146104c2576101a9565b806395d89b41116100d357806395d89b41146103f05780639cd237071461040e578063a22cb4651461042a578063b256456914610446576101a9565b80638546d0021461038657806389fa2c03146103b65780638da5cb5b146103d2576101a9565b806342842e0e116101665780634499efaa116101405780634499efaa146102ea578063629cb2e4146103085780636352211e1461032657806370a0823114610356576101a9565b806342842e0e1461028257806342966c681461029e578063429b62e5146102ba576101a9565b806301ffc9a7146101ae57806306fdde03146101de578063081812fc146101fc578063095ea7b31461022c578063232462b61461024857806323b872dd14610266575b600080fd5b6101c860048036038101906101c39190612a74565b610578565b6040516101d59190612abc565b60405180910390f35b6101e66105e2565b6040516101f39190612b70565b60405180910390f35b61021660048036038101906102119190612bc8565b610670565b6040516102239190612c36565b60405180910390f35b61024660048036038101906102419190612c7d565b61074e565b005b610250610882565b60405161025d9190612d85565b60405180910390f35b610280600480360381019061027b9190612da7565b610a03565b005b61029c60048036038101906102979190612da7565b610a13565b005b6102b860048036038101906102b39190612bc8565b610a87565b005b6102d460048036038101906102cf9190612dfa565b610f6d565b6040516102e19190612abc565b60405180910390f35b6102f2610f8d565b6040516102ff9190612e36565b60405180910390f35b610310610f93565b60405161031d9190612f0f565b60405180910390f35b610340600480360381019061033b9190612bc8565b6110cb565b60405161034d9190612c36565b60405180910390f35b610370600480360381019061036b9190612dfa565b6111a9565b60405161037d9190612e36565b60405180910390f35b6103a0600480360381019061039b9190612bc8565b611260565b6040516103ad9190612abc565b60405180910390f35b6103d060048036038101906103cb9190612f5d565b611280565b005b6103da61136b565b6040516103e79190612c36565b60405180910390f35b6103f8611391565b6040516104059190612b70565b60405180910390f35b61042860048036038101906104239190612f9d565b61141f565b005b610444600480360381019061043f9190612f5d565b61150b565b005b610460600480360381019061045b9190612bc8565b611676565b60405161046d9190612abc565b60405180910390f35b610490600480360381019061048b919061302f565b611696565b005b6104ac60048036038101906104a79190612bc8565b611737565b6040516104b99190612b70565b60405180910390f35b6104ca61181d565b6040516104d79190612e36565b60405180910390f35b6104fa60048036038101906104f591906131e7565b611823565b6040516105079190612e36565b60405180910390f35b61052a60048036038101906105259190612da7565b6118f0565b005b61054660048036038101906105419190613230565b6119ba565b6040516105539190612abc565b60405180910390f35b61057660048036038101906105719190613270565b611a4e565b005b60007f80ac58cd000000000000000000000000000000000000000000000000000000007bffffffffffffffffffffffffffffffffffffffffffffffffffffffff1916827bffffffffffffffffffffffffffffffffffffffffffffffffffffffff1916149050919050565b600080546105ef906132df565b80601f016020809104026020016040519081016040528092919081815260200182805461061b906132df565b80156106685780601f1061063d57610100808354040283529160200191610668565b820191906000526020600020905b81548152906001019060200180831161064b57829003601f168201915b505050505081565b60008073ffffffffffffffffffffffffffffffffffffffff166004600084815260200190815260200160002060009054906101000a900473ffffffffffffffffffffffffffffffffffffffff1673ffffffffffffffffffffffffffffffffffffffff1603610713576040517f08c379a000000000000000000000000000000000000000000000000000000000815260040161070a90613382565b60405180910390fd5b6005600083815260200190815260200160002060009054906101000a900473ffffffffffffffffffffffffffffffffffffffff169050919050565b60006004600083815260200190815260200160002060009054906101000a900473ffffffffffffffffffffffffffffffffffffffff1690508073ffffffffffffffffffffffffffffffffffffffff168373ffffffffffffffffffffffffffffffffffffffff16036107f4576040517f08c379a00000000000000000000000000000000000000000000000000000000081526004016107eb90613414565b60405180910390fd5b8073ffffffffffffffffffffffffffffffffffffffff163373ffffffffffffffffffffffffffffffffffffffff161480610834575061083381336119ba565b5b610873576040517f08c379a000000000000000000000000000000000000000000000000000000000815260040161086a906134a6565b60405180910390fd5b61087d8383611b09565b505050565b606060006001600c5461089591906134f5565b67ffffffffffffffff8111156108ae576108ad6130bc565b5b6040519080825280602002602001820160405280156108dc5781602001602082028036833780820191505090505b5090506000805b600c5481101561095357600b600082815260200190815260200160002060009054906101000a900460ff161561094057808383806109209061354b565b94508151811061093357610932613593565b5b6020026020010181815250505b808061094b9061354b565b9150506108e3565b5060008167ffffffffffffffff8111156109705761096f6130bc565b5b60405190808252806020026020018201604052801561099e5781602001602082028036833780820191505090505b50905060005b828110156109f9578381815181106109bf576109be613593565b5b60200260200101518282815181106109da576109d9613593565b5b60200260200101818152505080806109f19061354b565b9150506109a4565b5080935050505090565b610a0e838383611bed565b505050565b3073ffffffffffffffffffffffffffffffffffffffff1663b88d4fde8484846040518463ffffffff1660e01b8152600401610a50939291906135f9565b600060405180830381600087803b158015610a6a57600080fd5b505af1158015610a7e573d6000803e3d6000fd5b50505050505050565b60006004600083815260200190815260200160002060009054906101000a900473ffffffffffffffffffffffffffffffffffffffff169050600073ffffffffffffffffffffffffffffffffffffffff168173ffffffffffffffffffffffffffffffffffffffff1603610b2e576040517f08c379a0000000000000000000000000000000000000000000000000000000008152600401610b25906136b5565b60405180910390fd5b3373ffffffffffffffffffffffffffffffffffffffff168173ffffffffffffffffffffffffffffffffffffffff16148015610b8657506009600083815260200190815260200160002060009054906101000a900460ff165b80610bda5750600a60003373ffffffffffffffffffffffffffffffffffffffff1673ffffffffffffffffffffffffffffffffffffffff16815260200190815260200160002060009054906101000a900460ff165b610c19576040517f08c379a0000000000000000000000000000000000000000000000000000000008152600401610c10906137b9565b60405180910390fd5b610c24600083611b09565b600360008273ffffffffffffffffffffffffffffffffffffffff1673ffffffffffffffffffffffffffffffffffffffff1681526020019081526020016000206000815480929190610c74906137d9565b919050555060006009600084815260200190815260200160002060006101000a81548160ff0219169083151502179055506000610d3e600860008473ffffffffffffffffffffffffffffffffffffffff1673ffffffffffffffffffffffffffffffffffffffff168152602001908152602001600020805480602002602001604051908101604052809291908181526020018280548015610d3357602002820191906000526020600020905b815481526020019060010190808311610d1f575b505050505084611c57565b905060008112610eb757600860008373ffffffffffffffffffffffffffffffffffffffff1673ffffffffffffffffffffffffffffffffffffffff1681526020019081526020016000206001600860008573ffffffffffffffffffffffffffffffffffffffff1673ffffffffffffffffffffffffffffffffffffffff16815260200190815260200160002080549050610dd69190613802565b81548110610de757610de6613593565b5b9060005260206000200154600860008473ffffffffffffffffffffffffffffffffffffffff1673ffffffffffffffffffffffffffffffffffffffff1681526020019081526020016000208281548110610e4357610e42613593565b5b9060005260206000200181905550600860008373ffffffffffffffffffffffffffffffffffffffff1673ffffffffffffffffffffffffffffffffffffffff168152602001908152602001600020805480610ea057610e9f613836565b5b600190038181906000526020600020016000905590555b6004600084815260200190815260200160002060006101000a81549073ffffffffffffffffffffffffffffffffffffffff0219169055600760008481526020019081526020016000206000610f0c9190612925565b82600073ffffffffffffffffffffffffffffffffffffffff168373ffffffffffffffffffffffffffffffffffffffff167fddf252ad1be2c89b69c2b068fc378daa952ba7f163c4a11628f55a4df523b3ef60405160405180910390a4505050565b600a6020528060005260406000206000915054906101000a900460ff1681565b600d5481565b60606000600860003373ffffffffffffffffffffffffffffffffffffffff1673ffffffffffffffffffffffffffffffffffffffff16815260200190815260200160002080549050905060008167ffffffffffffffff811115610ff857610ff76130bc565b5b6040519080825280602002602001820160405280156110265781602001602082028036833780820191505090505b50905060005b828110156110c257600860003373ffffffffffffffffffffffffffffffffffffffff1673ffffffffffffffffffffffffffffffffffffffff168152602001908152602001600020818154811061108557611084613593565b5b90600052602060002001548282815181106110a3576110a2613593565b5b60200260200101818152505080806110ba9061354b565b91505061102c565b50809250505090565b60008073ffffffffffffffffffffffffffffffffffffffff166004600084815260200190815260200160002060009054906101000a900473ffffffffffffffffffffffffffffffffffffffff1673ffffffffffffffffffffffffffffffffffffffff160361116e576040517f08c379a000000000000000000000000000000000000000000000000000000000815260040161116590613382565b60405180910390fd5b6004600083815260200190815260200160002060009054906101000a900473ffffffffffffffffffffffffffffffffffffffff169050919050565b60008073ffffffffffffffffffffffffffffffffffffffff168273ffffffffffffffffffffffffffffffffffffffff1603611219576040517f08c379a0000000000000000000000000000000000000000000000000000000008152600401611210906138d7565b60405180910390fd5b600360008373ffffffffffffffffffffffffffffffffffffffff1673ffffffffffffffffffffffffffffffffffffffff168152602001908152602001600020549050919050565b600b6020528060005260406000206000915054906101000a900460ff1681565b600260009054906101000a900473ffffffffffffffffffffffffffffffffffffffff1673ffffffffffffffffffffffffffffffffffffffff163373ffffffffffffffffffffffffffffffffffffffff1614611310576040517f08c379a000000000000000000000000000000000000000000000000000000000815260040161130790613969565b60405180910390fd5b80600a60008473ffffffffffffffffffffffffffffffffffffffff1673ffffffffffffffffffffffffffffffffffffffff16815260200190815260200160002060006101000a81548160ff0219169083151502179055505050565b600260009054906101000a900473ffffffffffffffffffffffffffffffffffffffff1681565b6001805461139e906132df565b80601f01602080910402602001604051908101604052809291908181526020018280546113ca906132df565b80156114175780601f106113ec57610100808354040283529160200191611417565b820191906000526020600020905b8154815290600101906020018083116113fa57829003601f168201915b505050505081565b600a60003373ffffffffffffffffffffffffffffffffffffffff1673ffffffffffffffffffffffffffffffffffffffff16815260200190815260200160002060009054906101000a900460ff166114ab576040517f08c379a00000000000000000000000000000000000000000000000000000000081526004016114a2906139fb565b60405180910390fd5b80156114e457600160096000600d54815260200190815260200160002060006101000a81548160ff0219169083151502179055506114f0565b6114ef600d54610a87565b5b600d60008154809291906115039061354b565b919050555050565b8173ffffffffffffffffffffffffffffffffffffffff163373ffffffffffffffffffffffffffffffffffffffff1603611579576040517f08c379a000000000000000000000000000000000000000000000000000000000815260040161157090613a8d565b60405180910390fd5b80600660003373ffffffffffffffffffffffffffffffffffffffff1673ffffffffffffffffffffffffffffffffffffffff16815260200190815260200160002060008473ffffffffffffffffffffffffffffffffffffffff1673ffffffffffffffffffffffffffffffffffffffff16815260200190815260200160002060006101000a81548160ff0219169083151502179055508173ffffffffffffffffffffffffffffffffffffffff163373ffffffffffffffffffffffffffffffffffffffff167f17307eab39ab6107e8899845ad3d59bd9653f200f220920489ca2b5937696c318360405161166a9190612abc565b60405180910390a35050565b60096020528060005260406000206000915054906101000a900460ff1681565b6116a1858585611bed565b6116f185858585858080601f016020809104026020016040519081016040528093929190818152602001838380828437600081840152601f19601f82011690508083019250505050505050611cdb565b611730576040517f08c379a000000000000000000000000000000000000000000000000000000000815260040161172790613b45565b60405180910390fd5b5050505050565b6060600073ffffffffffffffffffffffffffffffffffffffff166004600084815260200190815260200160002060009054906101000a900473ffffffffffffffffffffffffffffffffffffffff1673ffffffffffffffffffffffffffffffffffffffff16036117db576040517f08c379a00000000000000000000000000000000000000000000000000000000081526004016117d290613bd7565b60405180910390fd5b6117e3611e45565b60076000848152602001908152602001600020604051602001611807929190613cc7565b6040516020818303038152906040529050919050565b600c5481565b600080600c549050600e60009054906101000a900473ffffffffffffffffffffffffffffffffffffffff1673ffffffffffffffffffffffffffffffffffffffff16633aa3a87e3360016040518363ffffffff1660e01b8152600401611889929190613d30565b600060405180830381600087803b1580156118a357600080fd5b505af11580156118b7573d6000803e3d6000fd5b505050506118c53382611e82565b6118cf8184611ea0565b600c60008154809291906118e29061354b565b919050555080915050919050565b600b600082815260200190815260200160002060009054906101000a900460ff16611950576040517f08c379a000000000000000000000000000000000000000000000000000000000815260040161194790613dcb565b60405180910390fd5b61195a3282611f6e565b8061196b575061196a3382611f6e565b5b6119aa576040517f08c379a00000000000000000000000000000000000000000000000000000000081526004016119a190613e83565b60405180910390fd5b6119b583838361205c565b505050565b6000600660008473ffffffffffffffffffffffffffffffffffffffff1673ffffffffffffffffffffffffffffffffffffffff16815260200190815260200160002060008373ffffffffffffffffffffffffffffffffffffffff1673ffffffffffffffffffffffffffffffffffffffff16815260200190815260200160002060009054906101000a900460ff16905092915050565b611a583383611f6e565b611a97576040517f08c379a0000000000000000000000000000000000000000000000000000000008152600401611a8e90613e83565b60405180910390fd5b80600b600084815260200190815260200160002060006101000a81548160ff0219169083151502179055508015611af957611af4600f60009054906101000a900473ffffffffffffffffffffffffffffffffffffffff1683611b09565b611b05565b611b04600083611b09565b5b5050565b816005600083815260200190815260200160002060006101000a81548173ffffffffffffffffffffffffffffffffffffffff021916908373ffffffffffffffffffffffffffffffffffffffff160217905550808273ffffffffffffffffffffffffffffffffffffffff166004600084815260200190815260200160002060009054906101000a900473ffffffffffffffffffffffffffffffffffffffff1673ffffffffffffffffffffffffffffffffffffffff167f8c5be1e5ebec7d5bd14f71427d1e84f3dd0314c0f7b2291e5b200ac8c7c3b92560405160405180910390a45050565b611bf73282611f6e565b80611c085750611c073382611f6e565b5b611c47576040517f08c379a0000000000000000000000000000000000000000000000000000000008152600401611c3e90613f3b565b60405180910390fd5b611c5283838361205c565b505050565b600080600090505b60018451611c6d9190613802565b8111611cb05782848281518110611c8757611c86613593565b5b602002602001015103611c9d5780915050611cd5565b8080611ca89061354b565b915050611c5f565b507fffffffffffffffffffffffffffffffffffffffffffffffffffffffffffffffff90505b92915050565b6000611ce684612647565b15611e38578373ffffffffffffffffffffffffffffffffffffffff1663150b7a02338786866040518563ffffffff1660e01b8152600401611d2a9493929190613f9f565b6020604051808303816000875af1925050508015611d6657506040513d601f19601f82011682018060405250810190611d639190614000565b60015b611de8573d8060008114611d96576040519150601f19603f3d011682016040523d82523d6000602084013e611d9b565b606091505b506000815103611de0576040517f08c379a0000000000000000000000000000000000000000000000000000000008152600401611dd790613b45565b60405180910390fd5b805181602001fd5b63150b7a0260e01b7bffffffffffffffffffffffffffffffffffffffffffffffffffffffff1916817bffffffffffffffffffffffffffffffffffffffffffffffffffffffff191614915050611e3d565b600190505b949350505050565b60606040518060400160405280601581526020017f68747470733a2f2f697066732e696f2f697066732f0000000000000000000000815250905090565b611e9c82826040518060200160405280600081525061265a565b5050565b600073ffffffffffffffffffffffffffffffffffffffff166004600084815260200190815260200160002060009054906101000a900473ffffffffffffffffffffffffffffffffffffffff1673ffffffffffffffffffffffffffffffffffffffff1603611f42576040517f08c379a0000000000000000000000000000000000000000000000000000000008152600401611f399061409f565b60405180910390fd5b80600760008481526020019081526020016000209080519060200190611f69929190612965565b505050565b60008273ffffffffffffffffffffffffffffffffffffffff166004600084815260200190815260200160002060009054906101000a900473ffffffffffffffffffffffffffffffffffffffff1673ffffffffffffffffffffffffffffffffffffffff16148061201057508273ffffffffffffffffffffffffffffffffffffffff16611ff883610670565b73ffffffffffffffffffffffffffffffffffffffff16145b8061205457506120536004600084815260200190815260200160002060009054906101000a900473ffffffffffffffffffffffffffffffffffffffff16846119ba565b5b905092915050565b600073ffffffffffffffffffffffffffffffffffffffff168373ffffffffffffffffffffffffffffffffffffffff16036120cb576040517f08c379a00000000000000000000000000000000000000000000000000000000081526004016120c290614131565b60405180910390fd5b600073ffffffffffffffffffffffffffffffffffffffff168273ffffffffffffffffffffffffffffffffffffffff160361213a576040517f08c379a0000000000000000000000000000000000000000000000000000000008152600401612131906141c3565b60405180910390fd5b8273ffffffffffffffffffffffffffffffffffffffff166004600083815260200190815260200160002060009054906101000a900473ffffffffffffffffffffffffffffffffffffffff1673ffffffffffffffffffffffffffffffffffffffff16146121db576040517f08c379a00000000000000000000000000000000000000000000000000000000081526004016121d290614255565b60405180910390fd5b6009600082815260200190815260200160002060009054906101000a900460ff1661223b576040517f08c379a00000000000000000000000000000000000000000000000000000000081526004016122329061430d565b60405180910390fd5b612246600082611b09565b600360008473ffffffffffffffffffffffffffffffffffffffff1673ffffffffffffffffffffffffffffffffffffffff1681526020019081526020016000206000815480929190612296906137d9565b9190505550600360008373ffffffffffffffffffffffffffffffffffffffff1673ffffffffffffffffffffffffffffffffffffffff16815260200190815260200160002060008154809291906122eb9061354b565b91905055506000612389600860008673ffffffffffffffffffffffffffffffffffffffff1673ffffffffffffffffffffffffffffffffffffffff16815260200190815260200160002080548060200260200160405190810160405280929190818152602001828054801561237e57602002820191906000526020600020905b81548152602001906001019080831161236a575b505050505083611c57565b90506000811261250257600860008573ffffffffffffffffffffffffffffffffffffffff1673ffffffffffffffffffffffffffffffffffffffff1681526020019081526020016000206001600860008773ffffffffffffffffffffffffffffffffffffffff1673ffffffffffffffffffffffffffffffffffffffff168152602001908152602001600020805490506124219190613802565b8154811061243257612431613593565b5b9060005260206000200154600860008673ffffffffffffffffffffffffffffffffffffffff1673ffffffffffffffffffffffffffffffffffffffff168152602001908152602001600020828154811061248e5761248d613593565b5b9060005260206000200181905550600860008573ffffffffffffffffffffffffffffffffffffffff1673ffffffffffffffffffffffffffffffffffffffff1681526020019081526020016000208054806124eb576124ea613836565b5b600190038181906000526020600020016000905590555b600860008473ffffffffffffffffffffffffffffffffffffffff1673ffffffffffffffffffffffffffffffffffffffff168152602001908152602001600020829080600181540180825580915050600190039060005260206000200160009091909190915055826004600084815260200190815260200160002060006101000a81548173ffffffffffffffffffffffffffffffffffffffff021916908373ffffffffffffffffffffffffffffffffffffffff1602179055506000600b600084815260200190815260200160002060006101000a81548160ff021916908315150217905550818373ffffffffffffffffffffffffffffffffffffffff168573ffffffffffffffffffffffffffffffffffffffff167fddf252ad1be2c89b69c2b068fc378daa952ba7f163c4a11628f55a4df523b3ef60405160405180910390a450505050565b600080823b905060008111915050919050565b600073ffffffffffffffffffffffffffffffffffffffff168373ffffffffffffffffffffffffffffffffffffffff16036126c9576040517f08c379a00000000000000000000000000000000000000000000000000000000081526004016126c0906141c3565b60405180910390fd5b600073ffffffffffffffffffffffffffffffffffffffff166004600084815260200190815260200160002060009054906101000a900473ffffffffffffffffffffffffffffffffffffffff1673ffffffffffffffffffffffffffffffffffffffff161461276b576040517f08c379a00000000000000000000000000000000000000000000000000000000081526004016127629061439f565b60405180910390fd5b600360008473ffffffffffffffffffffffffffffffffffffffff1673ffffffffffffffffffffffffffffffffffffffff16815260200190815260200160002060008154809291906127bb9061354b565b9190505550826004600084815260200190815260200160002060006101000a81548173ffffffffffffffffffffffffffffffffffffffff021916908373ffffffffffffffffffffffffffffffffffffffff160217905550600860008473ffffffffffffffffffffffffffffffffffffffff1673ffffffffffffffffffffffffffffffffffffffff168152602001908152602001600020829080600181540180825580915050600190039060005260206000200160009091909190915055818373ffffffffffffffffffffffffffffffffffffffff16600073ffffffffffffffffffffffffffffffffffffffff167fddf252ad1be2c89b69c2b068fc378daa952ba7f163c4a11628f55a4df523b3ef60405160405180910390a46128e16000848484611cdb565b612920576040517f08c379a000000000000000000000000000000000000000000000000000000000815260040161291790613b45565b60405180910390fd5b505050565b508054612931906132df565b6000825580601f106129435750612962565b601f01602090049060005260206000209081019061296191906129eb565b5b50565b828054612971906132df565b90600052602060002090601f01602090048101928261299357600085556129da565b82601f106129ac57805160ff19168380011785556129da565b828001600101855582156129da579182015b828111156129d95782518255916020019190600101906129be565b5b5090506129e791906129eb565b5090565b5b80821115612a045760008160009055506001016129ec565b5090565b6000604051905090565b600080fd5b600080fd5b60007fffffffff0000000000000000000000000000000000000000000000000000000082169050919050565b612a5181612a1c565b8114612a5c57600080fd5b50565b600081359050612a6e81612a48565b92915050565b600060208284031215612a8a57612a89612a12565b5b6000612a9884828501612a5f565b91505092915050565b60008115159050919050565b612ab681612aa1565b82525050565b6000602082019050612ad16000830184612aad565b92915050565b600081519050919050565b600082825260208201905092915050565b60005b83811015612b11578082015181840152602081019050612af6565b83811115612b20576000848401525b50505050565b6000601f19601f8301169050919050565b6000612b4282612ad7565b612b4c8185612ae2565b9350612b5c818560208601612af3565b612b6581612b26565b840191505092915050565b60006020820190508181036000830152612b8a8184612b37565b905092915050565b6000819050919050565b612ba581612b92565b8114612bb057600080fd5b50565b600081359050612bc281612b9c565b92915050565b600060208284031215612bde57612bdd612a12565b5b6000612bec84828501612bb3565b91505092915050565b600073ffffffffffffffffffffffffffffffffffffffff82169050919050565b6000612c2082612bf5565b9050919050565b612c3081612c15565b82525050565b6000602082019050612c4b6000830184612c27565b92915050565b612c5a81612c15565b8114612c6557600080fd5b50565b600081359050612c7781612c51565b92915050565b60008060408385031215612c9457612c93612a12565b5b6000612ca285828601612c68565b9250506020612cb385828601612bb3565b9150509250929050565b600081519050919050565b600082825260208201905092915050565b6000819050602082019050919050565b6000819050919050565b612cfc81612ce9565b82525050565b6000612d0e8383612cf3565b60208301905092915050565b6000602082019050919050565b6000612d3282612cbd565b612d3c8185612cc8565b9350612d4783612cd9565b8060005b83811015612d78578151612d5f8882612d02565b9750612d6a83612d1a565b925050600181019050612d4b565b5085935050505092915050565b60006020820190508181036000830152612d9f8184612d27565b905092915050565b600080600060608486031215612dc057612dbf612a12565b5b6000612dce86828701612c68565b9350506020612ddf86828701612c68565b9250506040612df086828701612bb3565b9150509250925092565b600060208284031215612e1057612e0f612a12565b5b6000612e1e84828501612c68565b91505092915050565b612e3081612b92565b82525050565b6000602082019050612e4b6000830184612e27565b92915050565b600081519050919050565b600082825260208201905092915050565b6000819050602082019050919050565b612e8681612b92565b82525050565b6000612e988383612e7d565b60208301905092915050565b6000602082019050919050565b6000612ebc82612e51565b612ec68185612e5c565b9350612ed183612e6d565b8060005b83811015612f02578151612ee98882612e8c565b9750612ef483612ea4565b925050600181019050612ed5565b5085935050505092915050565b60006020820190508181036000830152612f298184612eb1565b905092915050565b612f3a81612aa1565b8114612f4557600080fd5b50565b600081359050612f5781612f31565b92915050565b60008060408385031215612f7457612f73612a12565b5b6000612f8285828601612c68565b9250506020612f9385828601612f48565b9150509250929050565b600060208284031215612fb357612fb2612a12565b5b6000612fc184828501612f48565b91505092915050565b600080fd5b600080fd5b600080fd5b60008083601f840112612fef57612fee612fca565b5b8235905067ffffffffffffffff81111561300c5761300b612fcf565b5b60208301915083600182028301111561302857613027612fd4565b5b9250929050565b60008060008060006080868803121561304b5761304a612a12565b5b600061305988828901612c68565b955050602061306a88828901612c68565b945050604061307b88828901612bb3565b935050606086013567ffffffffffffffff81111561309c5761309b612a17565b5b6130a888828901612fd9565b92509250509295509295909350565b600080fd5b7f4e487b7100000000000000000000000000000000000000000000000000000000600052604160045260246000fd5b6130f482612b26565b810181811067ffffffffffffffff82111715613113576131126130bc565b5b80604052505050565b6000613126612a08565b905061313282826130eb565b919050565b600067ffffffffffffffff821115613152576131516130bc565b5b61315b82612b26565b9050602081019050919050565b82818337600083830152505050565b600061318a61318584613137565b61311c565b9050828152602081018484840111156131a6576131a56130b7565b5b6131b1848285613168565b509392505050565b600082601f8301126131ce576131cd612fca565b5b81356131de848260208601613177565b91505092915050565b6000602082840312156131fd576131fc612a12565b5b600082013567ffffffffffffffff81111561321b5761321a612a17565b5b613227848285016131b9565b91505092915050565b6000806040838503121561324757613246612a12565b5b600061325585828601612c68565b925050602061326685828601612c68565b9150509250929050565b6000806040838503121561328757613286612a12565b5b600061329585828601612bb3565b92505060206132a685828601612f48565b9150509250929050565b7f4e487b7100000000000000000000000000000000000000000000000000000000600052602260045260246000fd5b600060028204905060018216806132f757607f821691505b60208210810361330a576133096132b0565b5b50919050565b7f4552433732313a20546f6b656e207769746820656e746572656420494420646f60008201527f6573206e6f742065786973740000000000000000000000000000000000000000602082015250565b600061336c602c83612ae2565b915061337782613310565b604082019050919050565b6000602082019050818103600083015261339b8161335f565b9050919050565b7f4552433732313a206f776e65722063616e6e6f7420617070726f76652068696d60008201527f73656c662f68657273656c660000000000000000000000000000000000000000602082015250565b60006133fe602c83612ae2565b9150613409826133a2565b604082019050919050565b6000602082019050818103600083015261342d816133f1565b9050919050565b7f4552433732313a2063616c6c6572206d757374206f776e2074686520746f6b6560008201527f6e206f7220626520617070726f76656420666f7220616c6c0000000000000000602082015250565b6000613490603883612ae2565b915061349b82613434565b604082019050919050565b600060208201905081810360008301526134bf81613483565b9050919050565b7f4e487b7100000000000000000000000000000000000000000000000000000000600052601160045260246000fd5b600061350082612b92565b915061350b83612b92565b9250827fffffffffffffffffffffffffffffffffffffffffffffffffffffffffffffffff038211156135405761353f6134c6565b5b828201905092915050565b600061355682612b92565b91507fffffffffffffffffffffffffffffffffffffffffffffffffffffffffffffffff8203613588576135876134c6565b5b600182019050919050565b7f4e487b7100000000000000000000000000000000000000000000000000000000600052603260045260246000fd5b600082825260208201905092915050565b50565b60006135e36000836135c2565b91506135ee826135d3565b600082019050919050565b600060808201905061360e6000830186612c27565b61361b6020830185612c27565b6136286040830184612e27565b8181036060830152613639816135d6565b9050949350505050565b7f4552433732313a206e6f20746f6b656e2077697468207468652073706563696660008201527f69656420494420776173206d696e746564206265666f72650000000000000000602082015250565b600061369f603883612ae2565b91506136aa82613643565b604082019050919050565b600060208201905081810360008301526136ce81613692565b9050919050565b7f4552433732313a206120746f6b656e207769746820746865207370656369666960008201527f6564204944206973206e6f74206f776e6564206279207468652073656e64657260208201527f2c206f72206973206e6f74207472616e7366657261626c65207965742c206f7260408201527f207468652063616c6c6572206d6179206e6f7420626520616e2061646d696e2060608201527f746f20626520616c6c6f77656420746f206275726e2069740000000000000000608082015250565b60006137a3609883612ae2565b91506137ae826136d5565b60a082019050919050565b600060208201905081810360008301526137d281613796565b9050919050565b60006137e482612b92565b9150600082036137f7576137f66134c6565b5b600182039050919050565b600061380d82612b92565b915061381883612b92565b92508282101561382b5761382a6134c6565b5b828203905092915050565b7f4e487b7100000000000000000000000000000000000000000000000000000000600052603160045260246000fd5b7f4552433732313a2061646472657373206f776e65722063616e6e6f742062652060008201527f746865207a65726f206164647265737300000000000000000000000000000000602082015250565b60006138c1603083612ae2565b91506138cc82613865565b604082019050919050565b600060208201905081810360008301526138f0816138b4565b9050919050565b7f4552433732313a204f6e6c79206f776e657220697320616c6c6f77656420746f60008201527f20646f20746869732066756e6374696f6e616c69747900000000000000000000602082015250565b6000613953603683612ae2565b915061395e826138f7565b604082019050919050565b6000602082019050818103600083015261398281613946565b9050919050565b7f4552433732313a204f6e6c792061646d696e732061726520616c6c6f7765642060008201527f746f20646f20746869732066756e6374696f6e616c6974790000000000000000602082015250565b60006139e5603883612ae2565b91506139f082613989565b604082019050919050565b60006020820190508181036000830152613a14816139d8565b9050919050565b7f4552433732313a2073656e6465722063616e6e6f742073657420617070726f7660008201527f616c20666f722068696d73656c662f68657273656c6600000000000000000000602082015250565b6000613a77603683612ae2565b9150613a8282613a1b565b604082019050919050565b60006020820190508181036000830152613aa681613a6a565b9050919050565b7f4552433732313a207472616e736665722063616e6e6f7420636f6d706c65746560008201527f20746f206120736d61727420636f6e7472616374206e6f7420696d706c656d6560208201527f6e74696e67204552433732315265636569766572000000000000000000000000604082015250565b6000613b2f605483612ae2565b9150613b3a82613aad565b606082019050919050565b60006020820190508181036000830152613b5e81613b22565b9050919050565b7f4552433732313a2063616e6e6f742067657420555249206f66206e6f6e65786960008201527f7374656e7420746f6b656e000000000000000000000000000000000000000000602082015250565b6000613bc1602b83612ae2565b9150613bcc82613b65565b604082019050919050565b60006020820190508181036000830152613bf081613bb4565b9050919050565b600081905092915050565b6000613c0d82612ad7565b613c178185613bf7565b9350613c27818560208601612af3565b80840191505092915050565b60008190508160005260206000209050919050565b60008154613c55816132df565b613c5f8186613bf7565b94506001821660008114613c7a5760018114613c8b57613cbe565b60ff19831686528186019350613cbe565b613c9485613c33565b60005b83811015613cb657815481890152600182019150602081019050613c97565b838801955050505b50505092915050565b6000613cd38285613c02565b9150613cdf8284613c48565b91508190509392505050565b6000819050919050565b6000819050919050565b6000613d1a613d15613d1084613ceb565b613cf5565b612b92565b9050919050565b613d2a81613cff565b82525050565b6000604082019050613d456000830185612c27565b613d526020830184613d21565b9392505050565b7f4e65726f734e46543a205468697320746f6b656e206973206e6f7420666f722060008201527f73616c6500000000000000000000000000000000000000000000000000000000602082015250565b6000613db5602483612ae2565b9150613dc082613d59565b604082019050919050565b60006020820190508181036000830152613de481613da8565b9050919050565b7f4e65726f734e46543a2053656e646572206973206e656974686572207468652060008201527f6f776e6572206e6f7220617070726f76656420746f20646f207468697320747260208201527f616e73616374696f6e0000000000000000000000000000000000000000000000604082015250565b6000613e6d604983612ae2565b9150613e7882613deb565b606082019050919050565b60006020820190508181036000830152613e9c81613e60565b9050919050565b7f4552433732313a2053656e646572206973206e65697468657220746865206f7760008201527f6e6572206e6f7220617070726f76656420746f20646f2074686973207472616e60208201527f73616374696f6e00000000000000000000000000000000000000000000000000604082015250565b6000613f25604783612ae2565b9150613f3082613ea3565b606082019050919050565b60006020820190508181036000830152613f5481613f18565b9050919050565b600081519050919050565b6000613f7182613f5b565b613f7b81856135c2565b9350613f8b818560208601612af3565b613f9481612b26565b840191505092915050565b6000608082019050613fb46000830187612c27565b613fc16020830186612c27565b613fce6040830185612e27565b8181036060830152613fe08184613f66565b905095945050505050565b600081519050613ffa81612a48565b92915050565b60006020828403121561401657614015612a12565b5b600061402484828501613feb565b91505092915050565b7f4552433732313a2063616e6e6f742073657420555249206f662061206e6f6e6560008201527f78697374656e7420746f6b656e00000000000000000000000000000000000000602082015250565b6000614089602d83612ae2565b91506140948261402d565b604082019050919050565b600060208201905081810360008301526140b88161407c565b9050919050565b7f4552433732313a2066726f6d206164647265737320656e74657265642063616e60008201527f6e6f7420626520746865207a65726f2061646472657373000000000000000000602082015250565b600061411b603783612ae2565b9150614126826140bf565b604082019050919050565b6000602082019050818103600083015261414a8161410e565b9050919050565b7f4552433732313a20746f206164647265737320656e74657265642063616e6e6f60008201527f7420626520746865207a65726f20616464726573730000000000000000000000602082015250565b60006141ad603583612ae2565b91506141b882614151565b604082019050919050565b600060208201905081810360008301526141dc816141a0565b9050919050565b7f4552433732313a20546f6b656e207769746820656e746572656420494420697360008201527f206e6f74206f776e6564206279207468652066726f6d20616464726573730000602082015250565b600061423f603e83612ae2565b915061424a826141e3565b604082019050919050565b6000602082019050818103600083015261426e81614232565b9050919050565b7f4552433732313a20546f6b656e2063616e6e6f74206265207472616e7366657260008201527f656420796574206173207472616e73666572206f662073746f636b206f776e6560208201527f7273686970206973206e6f742079657420766572696669656400000000000000604082015250565b60006142f7605983612ae2565b915061430282614275565b606082019050919050565b60006020820190508181036000830152614326816142ea565b9050919050565b7f4552433732313a206120746f6b656e207769746820746865207370656369666960008201527f656420494420697320616c7265616479206d696e746564000000000000000000602082015250565b6000614389603783612ae2565b91506143948261432d565b604082019050919050565b600060208201905081810360008301526143b88161437c565b905091905056fea2646970667358221220cdc4bf228b00ece33c79ee7e161612cbfb3becbc1ac299a176730f6e4fc7089d64736f6c634300080d0033",
  "immutableReferences": {},
  "source": "//SPDX-License-Identifier: MIT\r\npragma solidity ^0.8.13;\r\n\r\nimport \"./ERC721.sol\";\r\nimport \"./NerosNFTCoin.sol\";\r\n\r\ncontract NerosNFT is ERC721 {\r\n  uint256 public tokenCounter;\r\n  uint256 public tokenIdToCheck;\r\n\r\n  NerosNFTCoin private nerosNFTCoin;\r\n  address private nerosContract;\r\n\r\n  constructor(address _nerosNFTCoin, address _nerosContract) ERC721 (\"NerosNFT\", \"NROT\"){\r\n      tokenCounter = 0;\r\n      tokenIdToCheck = 0;\r\n      nerosNFTCoin = NerosNFTCoin(_nerosNFTCoin);\r\n      nerosContract = _nerosContract;\r\n  }\r\n\r\n  function createNFT(string memory tokenURI) public returns (uint256) {\r\n      uint256 newItemId = tokenCounter;\r\n      //BURN NerosNFTCoin\r\n      nerosNFTCoin.burnNFTCoin(msg.sender, 1);\r\n      safeMint(msg.sender, newItemId);\r\n      setTokenURI(newItemId, tokenURI);\r\n      tokenCounter++;\r\n      return newItemId;\r\n  }\r\n\r\n  function setTransferable(bool transferable) public onlyAdmin {\r\n      if(transferable){\r\n        isTransferable[tokenIdToCheck] = true;\r\n      } else {\r\n        burn(tokenIdToCheck);\r\n      }\r\n      tokenIdToCheck++;\r\n  }\r\n\r\n  function setForSale(uint tokenId, bool forSale) public {\r\n    require(isApprovedOrIsOwner(msg.sender, tokenId), \"NerosNFT: Sender is neither the owner nor approved to do this transaction\");\r\n    isForSale[tokenId] = forSale;\r\n    if(forSale) {\r\n      _approve(nerosContract, tokenId);\r\n    } else {\r\n      _approve(address(0), tokenId);\r\n    }\r\n  }\r\n\r\n  function getAllForSale() public view returns (int[] memory) {\r\n    int[] memory res = new int[](tokenCounter + 1);\r\n    uint index = 0;\r\n    for(uint i = 0; i < tokenCounter; i++){\r\n      if(isForSale[i]){\r\n         res[index++] = int(i);\r\n      }\r\n    }\r\n    int[] memory resFinal = new int[](index);\r\n    for(uint i = 0; i < index; i++){\r\n      resFinal[i] = res[i];\r\n    }\r\n    return resFinal;\r\n  }\r\n\r\n  function getMyNFTs() public view returns (uint[] memory) {\r\n    uint length = ownedTokens[msg.sender].length;\r\n    uint[] memory res = new uint[](length);\r\n    for(uint i = 0; i < length; i++) {\r\n      res[i] = ownedTokens[msg.sender][i];\r\n    }\r\n    return res;\r\n  }\r\n\r\n  function exchangeNFT(address from, address to, uint256 tokenId) public {\r\n    require(isForSale[tokenId], \"NerosNFT: This token is not for sale\");\r\n    require((isApprovedOrIsOwner(tx.origin, tokenId) || isApprovedOrIsOwner(msg.sender, tokenId)), \"NerosNFT: Sender is neither the owner nor approved to do this transaction\");\r\n    _transferHelper(from, to, tokenId);\r\n  }\r\n}\r\n",
  "sourcePath": "D:\\S8\\Neros\\contracts\\NerosNFT.sol",
  "compiler": {
    "name": "solc",
    "version": "0.8.13+commit.abaa5c0e.Emscripten.clang"
  },
  "schemaVersion": "3.4.6",
  "updatedAt": "2022-06-26T19:36:48.360Z",
  "networkType": "ethereum",
  "devdoc": {
    "kind": "dev",
    "methods": {
      "approve(address,uint256)": {
        "details": "Gives permission to `to` to transfer `tokenId` token to another account. The approval is cleared when the token is transferred. Only a single account can be approved at a time, so approving the zero address clears previous approvals. Requirements: - The caller must own the token or be an approved operator. - `tokenId` must exist. Emits an {Approval} event."
      },
      "getApproved(uint256)": {
        "details": "Returns the account approved for `tokenId` token. Requirements: - `tokenId` must exist."
      },
      "ownerOf(uint256)": {
        "details": "Returns the owner of the `tokenId` token. Requirements: - `tokenId` must exist."
      },
      "safeTransferFrom(address,address,uint256)": {
        "details": "Safely transfers `tokenId` token from `from` to `to`, checking first that contract recipients are aware of the ERC721 protocol to prevent tokens from being forever locked. Requirements: - `from` cannot be the zero address. - `to` cannot be the zero address. - `tokenId` token must exist and be owned by `from`. - If the caller is not `from`, it must be have been allowed to move this token by either {approve} or {setApprovalForAll}. - If `to` refers to a smart contract, it must implement {IERC721Receiver-onERC721Received}, which is called upon a safe transfer. Emits a {Transfer} event."
      },
      "safeTransferFrom(address,address,uint256,bytes)": {
        "details": "Safely transfers `tokenId` token from `from` to `to`. Requirements: - `from` cannot be the zero address. - `to` cannot be the zero address. - `tokenId` token must exist and be owned by `from`. - If the caller is not `from`, it must be approved to move this token by either {approve} or {setApprovalForAll}. - If `to` refers to a smart contract, it must implement {IERC721Receiver-onERC721Received}, which is called upon a safe transfer. Emits a {Transfer} event."
      },
      "supportsInterface(bytes4)": {
        "details": "Returns true if this contract implements the interface defined by `interfaceId`. See the corresponding https://eips.ethereum.org/EIPS/eip-165#how-interfaces-are-identified[EIP section] to learn more about how these ids are created. This function call must use less than 30 000 gas."
      },
      "tokenURI(uint256)": {
        "details": "Returns the Uniform Resource Identifier (URI) for `tokenId` token."
      },
      "transferFrom(address,address,uint256)": {
        "details": "Transfers `tokenId` token from `from` to `to`. WARNING: Usage of this method is discouraged, use {safeTransferFrom} whenever possible. Requirements: - `from` cannot be the zero address. - `to` cannot be the zero address. - `tokenId` token must be owned by `from`. - If the caller is not `from`, it must be approved to move this token by either {approve} or {setApprovalForAll}. Emits a {Transfer} event."
      }
    },
    "version": 1
  },
  "userdoc": {
    "kind": "user",
    "methods": {},
    "version": 1
  }
}