{
  "contractName": "Neros",
  "abi": [
    {
      "inputs": [
        {
          "internalType": "contract BankHandler",
          "name": "_bankHandler",
          "type": "address"
        }
      ],
      "stateMutability": "nonpayable",
      "type": "constructor"
    },
    {
      "anonymous": false,
      "inputs": [
        {
          "indexed": true,
          "internalType": "address",
          "name": "tokenOwner",
          "type": "address"
        },
        {
          "indexed": true,
          "internalType": "address",
          "name": "spender",
          "type": "address"
        },
        {
          "indexed": false,
          "internalType": "uint256",
          "name": "tokens",
          "type": "uint256"
        }
      ],
      "name": "Approval",
      "type": "event"
    },
    {
      "anonymous": false,
      "inputs": [
        {
          "indexed": true,
          "internalType": "address",
          "name": "from",
          "type": "address"
        },
        {
          "indexed": true,
          "internalType": "address",
          "name": "to",
          "type": "address"
        },
        {
          "indexed": false,
          "internalType": "uint256",
          "name": "tokens",
          "type": "uint256"
        }
      ],
      "name": "Transfer",
      "type": "event"
    },
    {
      "inputs": [],
      "name": "_totalSupply",
      "outputs": [
        {
          "internalType": "uint256",
          "name": "",
          "type": "uint256"
        }
      ],
      "stateMutability": "view",
      "type": "function",
      "constant": true
    },
    {
      "inputs": [],
      "name": "decimals",
      "outputs": [
        {
          "internalType": "uint8",
          "name": "",
          "type": "uint8"
        }
      ],
      "stateMutability": "view",
      "type": "function",
      "constant": true
    },
    {
      "inputs": [],
      "name": "name",
      "outputs": [
        {
          "internalType": "string",
          "name": "",
          "type": "string"
        }
      ],
      "stateMutability": "view",
      "type": "function",
      "constant": true
    },
    {
      "inputs": [],
      "name": "owner",
      "outputs": [
        {
          "internalType": "address",
          "name": "",
          "type": "address"
        }
      ],
      "stateMutability": "view",
      "type": "function",
      "constant": true
    },
    {
      "inputs": [],
      "name": "symbol",
      "outputs": [
        {
          "internalType": "string",
          "name": "",
          "type": "string"
        }
      ],
      "stateMutability": "view",
      "type": "function",
      "constant": true
    },
    {
      "inputs": [
        {
          "internalType": "address",
          "name": "to",
          "type": "address"
        },
        {
          "internalType": "uint256",
          "name": "tokens",
          "type": "uint256"
        }
      ],
      "name": "fiatToCoins",
      "outputs": [],
      "stateMutability": "nonpayable",
      "type": "function"
    },
    {
      "inputs": [
        {
          "internalType": "address",
          "name": "from",
          "type": "address"
        },
        {
          "internalType": "uint256",
          "name": "tokens",
          "type": "uint256"
        }
      ],
      "name": "coinsToFiat",
      "outputs": [],
      "stateMutability": "nonpayable",
      "type": "function"
    },
    {
      "inputs": [],
      "name": "totalSupply",
      "outputs": [
        {
          "internalType": "uint256",
          "name": "",
          "type": "uint256"
        }
      ],
      "stateMutability": "view",
      "type": "function",
      "constant": true
    },
    {
      "inputs": [
        {
          "internalType": "address",
          "name": "tokenOwner",
          "type": "address"
        }
      ],
      "name": "balanceOf",
      "outputs": [
        {
          "internalType": "uint256",
          "name": "",
          "type": "uint256"
        }
      ],
      "stateMutability": "view",
      "type": "function",
      "constant": true
    },
    {
      "inputs": [
        {
          "internalType": "address",
          "name": "tokenOwner",
          "type": "address"
        },
        {
          "internalType": "address",
          "name": "spender",
          "type": "address"
        }
      ],
      "name": "allowance",
      "outputs": [
        {
          "internalType": "uint256",
          "name": "",
          "type": "uint256"
        }
      ],
      "stateMutability": "view",
      "type": "function",
      "constant": true
    },
    {
      "inputs": [
        {
          "internalType": "address payable",
          "name": "to",
          "type": "address"
        },
        {
          "internalType": "uint256",
          "name": "tokens",
          "type": "uint256"
        }
      ],
      "name": "transfer",
      "outputs": [
        {
          "internalType": "bool",
          "name": "",
          "type": "bool"
        }
      ],
      "stateMutability": "nonpayable",
      "type": "function"
    },
    {
      "inputs": [
        {
          "internalType": "address",
          "name": "spender",
          "type": "address"
        },
        {
          "internalType": "uint256",
          "name": "tokens",
          "type": "uint256"
        }
      ],
      "name": "approve",
      "outputs": [
        {
          "internalType": "bool",
          "name": "",
          "type": "bool"
        }
      ],
      "stateMutability": "nonpayable",
      "type": "function"
    },
    {
      "inputs": [
        {
          "internalType": "address",
          "name": "from",
          "type": "address"
        },
        {
          "internalType": "address payable",
          "name": "to",
          "type": "address"
        },
        {
          "internalType": "uint256",
          "name": "tokens",
          "type": "uint256"
        }
      ],
      "name": "transferFrom",
      "outputs": [
        {
          "internalType": "bool",
          "name": "",
          "type": "bool"
        }
      ],
      "stateMutability": "nonpayable",
      "type": "function"
    }
  ],
  "bytecode": "0x60806040523480156200001157600080fd5b50604051620016a9380380620016a98339818101604052810190620000379190620002ae565b6040518060400160405280600581526020017f4e65726f73000000000000000000000000000000000000000000000000000000815250600090805190602001906200008492919062000180565b506040518060400160405280600381526020017f4e524f000000000000000000000000000000000000000000000000000000000081525060019080519060200190620000d292919062000180565b5033600260006101000a81548173ffffffffffffffffffffffffffffffffffffffff021916908373ffffffffffffffffffffffffffffffffffffffff16021790555060006003819055506006600460006101000a81548160ff021916908360ff16021790555080600460016101000a81548173ffffffffffffffffffffffffffffffffffffffff021916908373ffffffffffffffffffffffffffffffffffffffff1602179055505062000344565b8280546200018e906200030f565b90600052602060002090601f016020900481019282620001b25760008555620001fe565b82601f10620001cd57805160ff1916838001178555620001fe565b82800160010185558215620001fe579182015b82811115620001fd578251825591602001919060010190620001e0565b5b5090506200020d919062000211565b5090565b5b808211156200022c57600081600090555060010162000212565b5090565b600080fd5b600073ffffffffffffffffffffffffffffffffffffffff82169050919050565b6000620002628262000235565b9050919050565b6000620002768262000255565b9050919050565b620002888162000269565b81146200029457600080fd5b50565b600081519050620002a8816200027d565b92915050565b600060208284031215620002c757620002c662000230565b5b6000620002d78482850162000297565b91505092915050565b7f4e487b7100000000000000000000000000000000000000000000000000000000600052602260045260246000fd5b600060028204905060018216806200032857607f821691505b6020821081036200033e576200033d620002e0565b5b50919050565b61135580620003546000396000f3fe608060405234801561001057600080fd5b50600436106100cf5760003560e01c806348ec31c31161008c5780638da5cb5b116100665780638da5cb5b1461021457806395d89b4114610232578063a9059cbb14610250578063dd62ed3e14610280576100cf565b806348ec31c3146101ac57806370a08231146101c857806383444b9e146101f8576100cf565b806306fdde03146100d4578063095ea7b3146100f257806318160ddd1461012257806323b872dd14610140578063313ce567146101705780633eaaf86b1461018e575b600080fd5b6100dc6102b0565b6040516100e99190610b7a565b60405180910390f35b61010c60048036038101906101079190610c35565b61033e565b6040516101199190610c90565b60405180910390f35b61012a610355565b6040516101379190610cba565b60405180910390f35b61015a60048036038101906101559190610d13565b61035f565b6040516101679190610c90565b60405180910390f35b6101786103e2565b6040516101859190610d82565b60405180910390f35b6101966103f5565b6040516101a39190610cba565b60405180910390f35b6101c660048036038101906101c19190610c35565b6103fb565b005b6101e260048036038101906101dd9190610d9d565b610481565b6040516101ef9190610cba565b60405180910390f35b610212600480360381019061020d9190610c35565b6104ca565b005b61021c610550565b6040516102299190610dd9565b60405180910390f35b61023a610576565b6040516102479190610b7a565b60405180910390f35b61026a60048036038101906102659190610df4565b610604565b6040516102779190610c90565b60405180910390f35b61029a60048036038101906102959190610e34565b61061b565b6040516102a79190610cba565b60405180910390f35b600080546102bd90610ea3565b80601f01602080910402602001604051908101604052809291908181526020018280546102e990610ea3565b80156103365780601f1061030b57610100808354040283529160200191610336565b820191906000526020600020905b81548152906001019060200180831161031957829003601f168201915b505050505081565b600061034b3384846106a2565b6001905092915050565b6000600354905090565b60008161036c853361061b565b10156103ad576040517f08c379a00000000000000000000000000000000000000000000000000000000081526004016103a490610f6c565b60405180910390fd5b6103cc8433846103bd883361061b565b6103c79190610fbb565b6106a2565b6103d784848461086b565b600190509392505050565b600460009054906101000a900460ff1681565b60035481565b600460019054906101000a900473ffffffffffffffffffffffffffffffffffffffff1673ffffffffffffffffffffffffffffffffffffffff1663ea31db136040518163ffffffff1660e01b8152600401600060405180830381600087803b15801561046557600080fd5b505af1158015610479573d6000803e3d6000fd5b505050505050565b6000600560008373ffffffffffffffffffffffffffffffffffffffff1673ffffffffffffffffffffffffffffffffffffffff168152602001908152602001600020549050919050565b600460019054906101000a900473ffffffffffffffffffffffffffffffffffffffff1673ffffffffffffffffffffffffffffffffffffffff1663ac4460026040518163ffffffff1660e01b8152600401600060405180830381600087803b15801561053457600080fd5b505af1158015610548573d6000803e3d6000fd5b505050505050565b600260009054906101000a900473ffffffffffffffffffffffffffffffffffffffff1681565b6001805461058390610ea3565b80601f01602080910402602001604051908101604052809291908181526020018280546105af90610ea3565b80156105fc5780601f106105d1576101008083540402835291602001916105fc565b820191906000526020600020905b8154815290600101906020018083116105df57829003601f168201915b505050505081565b600061061133848461086b565b6001905092915050565b6000600660008473ffffffffffffffffffffffffffffffffffffffff1673ffffffffffffffffffffffffffffffffffffffff16815260200190815260200160002060008373ffffffffffffffffffffffffffffffffffffffff1673ffffffffffffffffffffffffffffffffffffffff16815260200190815260200160002054905092915050565b600073ffffffffffffffffffffffffffffffffffffffff168273ffffffffffffffffffffffffffffffffffffffff1603610711576040517f08c379a000000000000000000000000000000000000000000000000000000000815260040161070890611061565b60405180910390fd5b600073ffffffffffffffffffffffffffffffffffffffff168373ffffffffffffffffffffffffffffffffffffffff1603610780576040517f08c379a0000000000000000000000000000000000000000000000000000000008152600401610777906110f3565b60405180910390fd5b80600660008573ffffffffffffffffffffffffffffffffffffffff1673ffffffffffffffffffffffffffffffffffffffff16815260200190815260200160002060008473ffffffffffffffffffffffffffffffffffffffff1673ffffffffffffffffffffffffffffffffffffffff168152602001908152602001600020819055508173ffffffffffffffffffffffffffffffffffffffff168373ffffffffffffffffffffffffffffffffffffffff167f8c5be1e5ebec7d5bd14f71427d1e84f3dd0314c0f7b2291e5b200ac8c7c3b9258360405161085e9190610cba565b60405180910390a3505050565b80600560003373ffffffffffffffffffffffffffffffffffffffff1673ffffffffffffffffffffffffffffffffffffffff1681526020019081526020016000205410156108ed576040517f08c379a00000000000000000000000000000000000000000000000000000000081526004016108e490611185565b60405180910390fd5b600073ffffffffffffffffffffffffffffffffffffffff168273ffffffffffffffffffffffffffffffffffffffff160361095c576040517f08c379a000000000000000000000000000000000000000000000000000000000815260040161095390611217565b60405180910390fd5b600073ffffffffffffffffffffffffffffffffffffffff168373ffffffffffffffffffffffffffffffffffffffff16036109cb576040517f08c379a00000000000000000000000000000000000000000000000000000000081526004016109c2906112a9565b60405180910390fd5b80600560008573ffffffffffffffffffffffffffffffffffffffff1673ffffffffffffffffffffffffffffffffffffffff1681526020019081526020016000206000828254610a1a9190610fbb565b9250508190555080600560008473ffffffffffffffffffffffffffffffffffffffff1673ffffffffffffffffffffffffffffffffffffffff1681526020019081526020016000206000828254610a7091906112c9565b925050819055508173ffffffffffffffffffffffffffffffffffffffff168373ffffffffffffffffffffffffffffffffffffffff167fddf252ad1be2c89b69c2b068fc378daa952ba7f163c4a11628f55a4df523b3ef83604051610ad49190610cba565b60405180910390a3505050565b600081519050919050565b600082825260208201905092915050565b60005b83811015610b1b578082015181840152602081019050610b00565b83811115610b2a576000848401525b50505050565b6000601f19601f8301169050919050565b6000610b4c82610ae1565b610b568185610aec565b9350610b66818560208601610afd565b610b6f81610b30565b840191505092915050565b60006020820190508181036000830152610b948184610b41565b905092915050565b600080fd5b600073ffffffffffffffffffffffffffffffffffffffff82169050919050565b6000610bcc82610ba1565b9050919050565b610bdc81610bc1565b8114610be757600080fd5b50565b600081359050610bf981610bd3565b92915050565b6000819050919050565b610c1281610bff565b8114610c1d57600080fd5b50565b600081359050610c2f81610c09565b92915050565b60008060408385031215610c4c57610c4b610b9c565b5b6000610c5a85828601610bea565b9250506020610c6b85828601610c20565b9150509250929050565b60008115159050919050565b610c8a81610c75565b82525050565b6000602082019050610ca56000830184610c81565b92915050565b610cb481610bff565b82525050565b6000602082019050610ccf6000830184610cab565b92915050565b6000610ce082610ba1565b9050919050565b610cf081610cd5565b8114610cfb57600080fd5b50565b600081359050610d0d81610ce7565b92915050565b600080600060608486031215610d2c57610d2b610b9c565b5b6000610d3a86828701610bea565b9350506020610d4b86828701610cfe565b9250506040610d5c86828701610c20565b9150509250925092565b600060ff82169050919050565b610d7c81610d66565b82525050565b6000602082019050610d976000830184610d73565b92915050565b600060208284031215610db357610db2610b9c565b5b6000610dc184828501610bea565b91505092915050565b610dd381610bc1565b82525050565b6000602082019050610dee6000830184610dca565b92915050565b60008060408385031215610e0b57610e0a610b9c565b5b6000610e1985828601610cfe565b9250506020610e2a85828601610c20565b9150509250929050565b60008060408385031215610e4b57610e4a610b9c565b5b6000610e5985828601610bea565b9250506020610e6a85828601610bea565b9150509250929050565b7f4e487b7100000000000000000000000000000000000000000000000000000000600052602260045260246000fd5b60006002820490506001821680610ebb57607f821691505b602082108103610ece57610ecd610e74565b5b50919050565b7f4e65726f733a20496e73756666696369656e742062616c616e636520666f722060008201527f617070726f76616c206f66207468697320616d6f756e74206f66204e65726f7360208201527f2e00000000000000000000000000000000000000000000000000000000000000604082015250565b6000610f56604183610aec565b9150610f6182610ed4565b606082019050919050565b60006020820190508181036000830152610f8581610f49565b9050919050565b7f4e487b7100000000000000000000000000000000000000000000000000000000600052601160045260246000fd5b6000610fc682610bff565b9150610fd183610bff565b925082821015610fe457610fe3610f8c565b5b828203905092915050565b7f4e65726f733a20617070726f766564207370656e64657220616464726573732060008201527f63616e6e6f7420626520746865207a65726f2061646472657373000000000000602082015250565b600061104b603a83610aec565b915061105682610fef565b604082019050919050565b6000602082019050818103600083015261107a8161103e565b9050919050565b7f4e65726f733a20617070726f766564206f776e6572206164647265737320636160008201527f6e6e6f7420626520746865207a65726f20616464726573730000000000000000602082015250565b60006110dd603883610aec565b91506110e882611081565b604082019050919050565b6000602082019050818103600083015261110c816110d0565b9050919050565b7f4e65726f733a20596f75722062616c616e636520697320746f6f206c6f77207460008201527f6f207472616e73666572207468697320616d6f757574206f66204e65726f732e602082015250565b600061116f604083610aec565b915061117a82611113565b604082019050919050565b6000602082019050818103600083015261119e81611162565b9050919050565b7f4e65726f733a20546f20616464726573732063616e6e6f742062652061207a6560008201527f726f206164647265737300000000000000000000000000000000000000000000602082015250565b6000611201602a83610aec565b915061120c826111a5565b604082019050919050565b60006020820190508181036000830152611230816111f4565b9050919050565b7f4e65726f733a2046726f6d20616464726573732063616e6e6f7420626520612060008201527f7a65726f20616464726573730000000000000000000000000000000000000000602082015250565b6000611293602c83610aec565b915061129e82611237565b604082019050919050565b600060208201905081810360008301526112c281611286565b9050919050565b60006112d482610bff565b91506112df83610bff565b9250827fffffffffffffffffffffffffffffffffffffffffffffffffffffffffffffffff0382111561131457611313610f8c565b5b82820190509291505056fea2646970667358221220e103d0249dda56ea87484d33e035dfac695aec02ade9744ff7617c91c906cc7564736f6c634300080d0033",
  "immutableReferences": {},
  "source": "//SPDX-License-Identifier: MIT\r\npragma solidity ^0.8.13;\r\nimport \"./ERC20.sol\";\r\nimport \"./BankHandler.sol\";\r\n\r\ncontract Neros is ERC20{\r\n    string public name;\r\n    string public symbol;\r\n    address public owner;\r\n    uint public _totalSupply;\r\n    uint8 public decimals;\r\n    BankHandler private bankHandler;\r\n\r\n    mapping(address => uint) balances;\r\n    mapping(address => mapping(address => uint)) allowed;\r\n\r\n    constructor(BankHandler _bankHandler) {\r\n        name = \"Neros\";\r\n        symbol = \"NRO\";\r\n        owner = msg.sender;\r\n        _totalSupply = 0;\r\n        decimals = 6;\r\n        bankHandler = _bankHandler;\r\n    }\r\n\r\n    modifier isOwner () {\r\n        require(msg.sender == owner, \"Neros: Only owner is allowed to do this functionality\");\r\n        _;\r\n    }\r\n\r\n    function mintNewTokens(uint amount, address payable to) internal {\r\n        require(to != address(0), \"Neros: To address cannot be a zero address for minting\");\r\n\r\n        _totalSupply += amount;\r\n        balances[to] += amount;\r\n        emit Transfer(address(0), to, amount);\r\n    }\r\n\r\n    function burnTokens(uint amount, address from) internal {\r\n        require(from != address(0), \"Neros: Address to burn coins from cannot be a zero address\");\r\n        require(balances[from] >= amount, \"Neros: Amount to be burn must be larger than address balance.\");\r\n\r\n        balances[from] -= amount;\r\n        _totalSupply -= amount;\r\n        emit Transfer(from, address(0), amount);\r\n    }\r\n\r\n    function fiatToCoins(address to, uint tokens) public {\r\n        //BANK DETAILS INPUT\r\n        bankHandler.withdrawMoney();\r\n        //CALLS mintNewTokens\r\n    }\r\n\r\n    function coinsToFiat(address from, uint tokens) public {\r\n        //BANK DETAILS INPUT\r\n        bankHandler.refundMoney();\r\n        //CALLS burnTokens\r\n    }\r\n\r\n    function _transferFrom(address from, address payable to, uint tokens) internal {\r\n        require(balances[msg.sender] >= tokens, \"Neros: Your balance is too low to transfer this amouut of Neros.\");\r\n        require(to != address(0), \"Neros: To address cannot be a zero address\");\r\n        require(from != address(0), \"Neros: From address cannot be a zero address\");\r\n\r\n        balances[from] -= tokens;\r\n        balances[to] += tokens;\r\n        emit Transfer(from, to, tokens);\r\n    }\r\n\r\n    function changeAllowance(address tokenOwner, address spender, uint amount) internal {\r\n        require(spender != address(0), \"Neros: approved spender address cannot be the zero address\");\r\n        require(tokenOwner != address(0), \"Neros: approved owner address cannot be the zero address\");\r\n\r\n        allowed[tokenOwner][spender] = amount;\r\n        emit Approval(tokenOwner, spender, amount);\r\n    }\r\n\r\n    function totalSupply() public view override returns (uint256){\r\n        return _totalSupply;\r\n    }\r\n    function balanceOf(address tokenOwner) public view override returns (uint){\r\n        return balances[tokenOwner];\r\n    }\r\n    function allowance(address tokenOwner, address spender) public view override returns (uint){\r\n        return allowed[tokenOwner][spender];\r\n    }\r\n    function transfer(address payable to, uint tokens) public override returns (bool){\r\n        _transferFrom(msg.sender, to, tokens);\r\n        return true;\r\n    }\r\n    function approve(address spender, uint tokens)  public override returns (bool){\r\n        changeAllowance(msg.sender, spender, tokens);\r\n        return true;\r\n    }\r\n    function transferFrom(address from, address payable to, uint tokens) public override returns (bool){\r\n        require(allowance(from, msg.sender) >= tokens, \"Neros: Insufficient balance for approval of this amount of Neros.\");\r\n        changeAllowance(from, msg.sender, allowance(from, msg.sender) - tokens);\r\n        _transferFrom(from, to, tokens);\r\n        return true;\r\n    }\r\n}\r\n",
  "sourcePath": "D:\\S8\\Neros\\contracts\\Neros.sol",
  "compiler": {
    "name": "solc",
    "version": "0.8.13+commit.abaa5c0e.Emscripten.clang"
  },
  "schemaVersion": "3.4.6",
  "updatedAt": "2022-04-04T02:18:30.080Z",
  "networkType": "ethereum",
  "devdoc": {
    "kind": "dev",
    "methods": {},
    "version": 1
  },
  "userdoc": {
    "kind": "user",
    "methods": {},
    "version": 1
  }
}