{
  "contractName": "NerosNFT",
  "abi": [
    {
      "inputs": [
        {
          "internalType": "address",
          "name": "_nerosNFTCoin",
          "type": "address"
        }
      ],
      "stateMutability": "nonpayable",
      "type": "constructor"
    },
    {
      "anonymous": false,
      "inputs": [
        {
          "indexed": true,
          "internalType": "address",
          "name": "owner",
          "type": "address"
        },
        {
          "indexed": true,
          "internalType": "address",
          "name": "approved",
          "type": "address"
        },
        {
          "indexed": true,
          "internalType": "uint256",
          "name": "tokenId",
          "type": "uint256"
        }
      ],
      "name": "Approval",
      "type": "event"
    },
    {
      "anonymous": false,
      "inputs": [
        {
          "indexed": true,
          "internalType": "address",
          "name": "owner",
          "type": "address"
        },
        {
          "indexed": true,
          "internalType": "address",
          "name": "operator",
          "type": "address"
        },
        {
          "indexed": false,
          "internalType": "bool",
          "name": "approved",
          "type": "bool"
        }
      ],
      "name": "ApprovalForAll",
      "type": "event"
    },
    {
      "anonymous": false,
      "inputs": [
        {
          "indexed": true,
          "internalType": "address",
          "name": "from",
          "type": "address"
        },
        {
          "indexed": true,
          "internalType": "address",
          "name": "to",
          "type": "address"
        },
        {
          "indexed": true,
          "internalType": "uint256",
          "name": "tokenId",
          "type": "uint256"
        }
      ],
      "name": "Transfer",
      "type": "event"
    },
    {
      "inputs": [
        {
          "internalType": "address",
          "name": "admin",
          "type": "address"
        },
        {
          "internalType": "bool",
          "name": "add",
          "type": "bool"
        }
      ],
      "name": "addOrRemoveAdmin",
      "outputs": [],
      "stateMutability": "nonpayable",
      "type": "function"
    },
    {
      "inputs": [
        {
          "internalType": "address",
          "name": "",
          "type": "address"
        }
      ],
      "name": "admins",
      "outputs": [
        {
          "internalType": "bool",
          "name": "",
          "type": "bool"
        }
      ],
      "stateMutability": "view",
      "type": "function",
      "constant": true
    },
    {
      "inputs": [
        {
          "internalType": "address",
          "name": "to",
          "type": "address"
        },
        {
          "internalType": "uint256",
          "name": "tokenId",
          "type": "uint256"
        }
      ],
      "name": "approve",
      "outputs": [],
      "stateMutability": "nonpayable",
      "type": "function"
    },
    {
      "inputs": [
        {
          "internalType": "address",
          "name": "_owner",
          "type": "address"
        }
      ],
      "name": "balanceOf",
      "outputs": [
        {
          "internalType": "uint256",
          "name": "",
          "type": "uint256"
        }
      ],
      "stateMutability": "view",
      "type": "function",
      "constant": true
    },
    {
      "inputs": [
        {
          "internalType": "uint256",
          "name": "tokenId",
          "type": "uint256"
        }
      ],
      "name": "burn",
      "outputs": [],
      "stateMutability": "nonpayable",
      "type": "function"
    },
    {
      "inputs": [
        {
          "internalType": "uint256",
          "name": "tokenId",
          "type": "uint256"
        }
      ],
      "name": "getApproved",
      "outputs": [
        {
          "internalType": "address",
          "name": "",
          "type": "address"
        }
      ],
      "stateMutability": "view",
      "type": "function",
      "constant": true
    },
    {
      "inputs": [
        {
          "internalType": "address",
          "name": "_owner",
          "type": "address"
        },
        {
          "internalType": "address",
          "name": "operator",
          "type": "address"
        }
      ],
      "name": "isApprovedForAll",
      "outputs": [
        {
          "internalType": "bool",
          "name": "",
          "type": "bool"
        }
      ],
      "stateMutability": "view",
      "type": "function",
      "constant": true
    },
    {
      "inputs": [
        {
          "internalType": "uint256",
          "name": "",
          "type": "uint256"
        }
      ],
      "name": "isTransferable",
      "outputs": [
        {
          "internalType": "bool",
          "name": "",
          "type": "bool"
        }
      ],
      "stateMutability": "view",
      "type": "function",
      "constant": true
    },
    {
      "inputs": [],
      "name": "name",
      "outputs": [
        {
          "internalType": "string",
          "name": "",
          "type": "string"
        }
      ],
      "stateMutability": "view",
      "type": "function",
      "constant": true
    },
    {
      "inputs": [],
      "name": "owner",
      "outputs": [
        {
          "internalType": "address",
          "name": "",
          "type": "address"
        }
      ],
      "stateMutability": "view",
      "type": "function",
      "constant": true
    },
    {
      "inputs": [
        {
          "internalType": "uint256",
          "name": "tokenId",
          "type": "uint256"
        }
      ],
      "name": "ownerOf",
      "outputs": [
        {
          "internalType": "address",
          "name": "",
          "type": "address"
        }
      ],
      "stateMutability": "view",
      "type": "function",
      "constant": true
    },
    {
      "inputs": [
        {
          "internalType": "address",
          "name": "from",
          "type": "address"
        },
        {
          "internalType": "address",
          "name": "to",
          "type": "address"
        },
        {
          "internalType": "uint256",
          "name": "tokenId",
          "type": "uint256"
        }
      ],
      "name": "safeTransferFrom",
      "outputs": [],
      "stateMutability": "nonpayable",
      "type": "function"
    },
    {
      "inputs": [
        {
          "internalType": "address",
          "name": "from",
          "type": "address"
        },
        {
          "internalType": "address",
          "name": "to",
          "type": "address"
        },
        {
          "internalType": "uint256",
          "name": "tokenId",
          "type": "uint256"
        },
        {
          "internalType": "bytes",
          "name": "data",
          "type": "bytes"
        }
      ],
      "name": "safeTransferFrom",
      "outputs": [],
      "stateMutability": "nonpayable",
      "type": "function"
    },
    {
      "inputs": [
        {
          "internalType": "address",
          "name": "operator",
          "type": "address"
        },
        {
          "internalType": "bool",
          "name": "approved",
          "type": "bool"
        }
      ],
      "name": "setApprovalForAll",
      "outputs": [],
      "stateMutability": "nonpayable",
      "type": "function"
    },
    {
      "inputs": [
        {
          "internalType": "uint256",
          "name": "tokenId",
          "type": "uint256"
        },
        {
          "internalType": "bool",
          "name": "transferable",
          "type": "bool"
        }
      ],
      "name": "setTransferable",
      "outputs": [],
      "stateMutability": "nonpayable",
      "type": "function"
    },
    {
      "inputs": [
        {
          "internalType": "bytes4",
          "name": "interfaceId",
          "type": "bytes4"
        }
      ],
      "name": "supportsInterface",
      "outputs": [
        {
          "internalType": "bool",
          "name": "",
          "type": "bool"
        }
      ],
      "stateMutability": "pure",
      "type": "function",
      "constant": true
    },
    {
      "inputs": [],
      "name": "symbol",
      "outputs": [
        {
          "internalType": "string",
          "name": "",
          "type": "string"
        }
      ],
      "stateMutability": "view",
      "type": "function",
      "constant": true
    },
    {
      "inputs": [],
      "name": "tokenCounter",
      "outputs": [
        {
          "internalType": "uint256",
          "name": "",
          "type": "uint256"
        }
      ],
      "stateMutability": "view",
      "type": "function",
      "constant": true
    },
    {
      "inputs": [
        {
          "internalType": "uint256",
          "name": "tokenId",
          "type": "uint256"
        }
      ],
      "name": "tokenURI",
      "outputs": [
        {
          "internalType": "string",
          "name": "",
          "type": "string"
        }
      ],
      "stateMutability": "view",
      "type": "function",
      "constant": true
    },
    {
      "inputs": [
        {
          "internalType": "address",
          "name": "from",
          "type": "address"
        },
        {
          "internalType": "address",
          "name": "to",
          "type": "address"
        },
        {
          "internalType": "uint256",
          "name": "tokenId",
          "type": "uint256"
        }
      ],
      "name": "transferFrom",
      "outputs": [],
      "stateMutability": "nonpayable",
      "type": "function"
    },
    {
      "inputs": [
        {
          "internalType": "string",
          "name": "tokenURI",
          "type": "string"
        }
      ],
      "name": "createNFT",
      "outputs": [
        {
          "internalType": "uint256",
          "name": "",
          "type": "uint256"
        }
      ],
      "stateMutability": "nonpayable",
      "type": "function"
    }
  ],
  "bytecode": "0x60806040523480156200001157600080fd5b5060405162003720380380620037208339818101604052810190620000379190620002fc565b6040518060400160405280600881526020017f4e65726f734e46540000000000000000000000000000000000000000000000008152506040518060400160405280600481526020017f4e524f54000000000000000000000000000000000000000000000000000000008152508160009080519060200190620000bb929190620001e2565b508060019080519060200190620000d4929190620001e2565b5033600260006101000a81548173ffffffffffffffffffffffffffffffffffffffff021916908373ffffffffffffffffffffffffffffffffffffffff160217905550600160096000600260009054906101000a900473ffffffffffffffffffffffffffffffffffffffff1673ffffffffffffffffffffffffffffffffffffffff1673ffffffffffffffffffffffffffffffffffffffff16815260200190815260200160002060006101000a81548160ff02191690831515021790555050506000600a8190555080600b60006101000a81548173ffffffffffffffffffffffffffffffffffffffff021916908373ffffffffffffffffffffffffffffffffffffffff1602179055505062000392565b828054620001f0906200035d565b90600052602060002090601f01602090048101928262000214576000855562000260565b82601f106200022f57805160ff191683800117855562000260565b8280016001018555821562000260579182015b828111156200025f57825182559160200191906001019062000242565b5b5090506200026f919062000273565b5090565b5b808211156200028e57600081600090555060010162000274565b5090565b600080fd5b600073ffffffffffffffffffffffffffffffffffffffff82169050919050565b6000620002c48262000297565b9050919050565b620002d681620002b7565b8114620002e257600080fd5b50565b600081519050620002f681620002cb565b92915050565b60006020828403121562000315576200031462000292565b5b60006200032584828501620002e5565b91505092915050565b7f4e487b7100000000000000000000000000000000000000000000000000000000600052602260045260246000fd5b600060028204905060018216806200037657607f821691505b6020821081036200038c576200038b6200032e565b5b50919050565b61337e80620003a26000396000f3fe608060405234801561001057600080fd5b50600436106101375760003560e01c806389fa2c03116100b8578063b88d4fde1161007c578063b88d4fde1461035e578063c87b56dd1461037a578063d082e381146103aa578063da2ed03e146103c8578063dfe28fbf146103f8578063e985e9c51461041457610137565b806389fa2c03146102ba5780638da5cb5b146102d657806395d89b41146102f4578063a22cb46514610312578063b25645691461032e57610137565b806342842e0e116100ff57806342842e0e146101f257806342966c681461020e578063429b62e51461022a5780636352211e1461025a57806370a082311461028a57610137565b806301ffc9a71461013c57806306fdde031461016c578063081812fc1461018a578063095ea7b3146101ba57806323b872dd146101d6575b600080fd5b61015660048036038101906101519190611e98565b610444565b6040516101639190611ee0565b60405180910390f35b6101746104ae565b6040516101819190611f94565b60405180910390f35b6101a4600480360381019061019f9190611fec565b61053c565b6040516101b1919061205a565b60405180910390f35b6101d460048036038101906101cf91906120a1565b61061a565b005b6101f060048036038101906101eb91906120e1565b61074e565b005b61020c600480360381019061020791906120e1565b61075e565b005b61022860048036038101906102239190611fec565b6107d2565b005b610244600480360381019061023f9190612134565b610a55565b6040516102519190611ee0565b60405180910390f35b610274600480360381019061026f9190611fec565b610a75565b604051610281919061205a565b60405180910390f35b6102a4600480360381019061029f9190612134565b610b53565b6040516102b19190612170565b60405180910390f35b6102d460048036038101906102cf91906121b7565b610c0a565b005b6102de610cf5565b6040516102eb919061205a565b60405180910390f35b6102fc610d1b565b6040516103099190611f94565b60405180910390f35b61032c600480360381019061032791906121b7565b610da9565b005b61034860048036038101906103439190611fec565b610f14565b6040516103559190611ee0565b60405180910390f35b6103786004803603810190610373919061225c565b610f34565b005b610394600480360381019061038f9190611fec565b610fd5565b6040516103a19190611f94565b60405180910390f35b6103b26110bb565b6040516103bf9190612170565b60405180910390f35b6103e260048036038101906103dd9190612414565b6110c1565b6040516103ef9190612170565b60405180910390f35b610412600480360381019061040d919061245d565b61118e565b005b61042e6004803603810190610429919061249d565b611249565b60405161043b9190611ee0565b60405180910390f35b60007f80ac58cd000000000000000000000000000000000000000000000000000000007bffffffffffffffffffffffffffffffffffffffffffffffffffffffff1916827bffffffffffffffffffffffffffffffffffffffffffffffffffffffff1916149050919050565b600080546104bb9061250c565b80601f01602080910402602001604051908101604052809291908181526020018280546104e79061250c565b80156105345780601f1061050957610100808354040283529160200191610534565b820191906000526020600020905b81548152906001019060200180831161051757829003601f168201915b505050505081565b60008073ffffffffffffffffffffffffffffffffffffffff166004600084815260200190815260200160002060009054906101000a900473ffffffffffffffffffffffffffffffffffffffff1673ffffffffffffffffffffffffffffffffffffffff16036105df576040517f08c379a00000000000000000000000000000000000000000000000000000000081526004016105d6906125af565b60405180910390fd5b6005600083815260200190815260200160002060009054906101000a900473ffffffffffffffffffffffffffffffffffffffff169050919050565b60006004600083815260200190815260200160002060009054906101000a900473ffffffffffffffffffffffffffffffffffffffff1690508073ffffffffffffffffffffffffffffffffffffffff168373ffffffffffffffffffffffffffffffffffffffff16036106c0576040517f08c379a00000000000000000000000000000000000000000000000000000000081526004016106b790612641565b60405180910390fd5b8073ffffffffffffffffffffffffffffffffffffffff163373ffffffffffffffffffffffffffffffffffffffff16148061070057506106ff8133611249565b5b61073f576040517f08c379a0000000000000000000000000000000000000000000000000000000008152600401610736906126d3565b60405180910390fd5b61074983836112dd565b505050565b6107598383836113c1565b505050565b3073ffffffffffffffffffffffffffffffffffffffff1663b88d4fde8484846040518463ffffffff1660e01b815260040161079b9392919061272a565b600060405180830381600087803b1580156107b557600080fd5b505af11580156107c9573d6000803e3d6000fd5b50505050505050565b600073ffffffffffffffffffffffffffffffffffffffff166004600083815260200190815260200160002060009054906101000a900473ffffffffffffffffffffffffffffffffffffffff1673ffffffffffffffffffffffffffffffffffffffff1603610874576040517f08c379a000000000000000000000000000000000000000000000000000000000815260040161086b906127e6565b60405180910390fd5b3373ffffffffffffffffffffffffffffffffffffffff166004600083815260200190815260200160002060009054906101000a900473ffffffffffffffffffffffffffffffffffffffff1673ffffffffffffffffffffffffffffffffffffffff1614610915576040517f08c379a000000000000000000000000000000000000000000000000000000000815260040161090c90612878565b60405180910390fd5b6109206000826112dd565b600360003373ffffffffffffffffffffffffffffffffffffffff1673ffffffffffffffffffffffffffffffffffffffff1681526020019081526020016000206000815480929190610970906128c7565b919050555060006008600083815260200190815260200160002060006101000a81548160ff0219169083151502179055506004600082815260200190815260200160002060006101000a81549073ffffffffffffffffffffffffffffffffffffffff02191690556007600082815260200190815260200160002060006109f69190611d49565b80600073ffffffffffffffffffffffffffffffffffffffff163373ffffffffffffffffffffffffffffffffffffffff167fddf252ad1be2c89b69c2b068fc378daa952ba7f163c4a11628f55a4df523b3ef60405160405180910390a450565b60096020528060005260406000206000915054906101000a900460ff1681565b60008073ffffffffffffffffffffffffffffffffffffffff166004600084815260200190815260200160002060009054906101000a900473ffffffffffffffffffffffffffffffffffffffff1673ffffffffffffffffffffffffffffffffffffffff1603610b18576040517f08c379a0000000000000000000000000000000000000000000000000000000008152600401610b0f906125af565b60405180910390fd5b6004600083815260200190815260200160002060009054906101000a900473ffffffffffffffffffffffffffffffffffffffff169050919050565b60008073ffffffffffffffffffffffffffffffffffffffff168273ffffffffffffffffffffffffffffffffffffffff1603610bc3576040517f08c379a0000000000000000000000000000000000000000000000000000000008152600401610bba90612962565b60405180910390fd5b600360008373ffffffffffffffffffffffffffffffffffffffff1673ffffffffffffffffffffffffffffffffffffffff168152602001908152602001600020549050919050565b600260009054906101000a900473ffffffffffffffffffffffffffffffffffffffff1673ffffffffffffffffffffffffffffffffffffffff163373ffffffffffffffffffffffffffffffffffffffff1614610c9a576040517f08c379a0000000000000000000000000000000000000000000000000000000008152600401610c91906129f4565b60405180910390fd5b80600960008473ffffffffffffffffffffffffffffffffffffffff1673ffffffffffffffffffffffffffffffffffffffff16815260200190815260200160002060006101000a81548160ff0219169083151502179055505050565b600260009054906101000a900473ffffffffffffffffffffffffffffffffffffffff1681565b60018054610d289061250c565b80601f0160208091040260200160405190810160405280929190818152602001828054610d549061250c565b8015610da15780601f10610d7657610100808354040283529160200191610da1565b820191906000526020600020905b815481529060010190602001808311610d8457829003601f168201915b505050505081565b8173ffffffffffffffffffffffffffffffffffffffff163373ffffffffffffffffffffffffffffffffffffffff1603610e17576040517f08c379a0000000000000000000000000000000000000000000000000000000008152600401610e0e90612a86565b60405180910390fd5b80600660003373ffffffffffffffffffffffffffffffffffffffff1673ffffffffffffffffffffffffffffffffffffffff16815260200190815260200160002060008473ffffffffffffffffffffffffffffffffffffffff1673ffffffffffffffffffffffffffffffffffffffff16815260200190815260200160002060006101000a81548160ff0219169083151502179055508173ffffffffffffffffffffffffffffffffffffffff163373ffffffffffffffffffffffffffffffffffffffff167f17307eab39ab6107e8899845ad3d59bd9653f200f220920489ca2b5937696c3183604051610f089190611ee0565b60405180910390a35050565b60086020528060005260406000206000915054906101000a900460ff1681565b610f3f8585856113c1565b610f8f85858585858080601f016020809104026020016040519081016040528093929190818152602001838380828437600081840152601f19601f82011690508083019250505050505050611750565b610fce576040517f08c379a0000000000000000000000000000000000000000000000000000000008152600401610fc590612b3e565b60405180910390fd5b5050505050565b6060600073ffffffffffffffffffffffffffffffffffffffff166004600084815260200190815260200160002060009054906101000a900473ffffffffffffffffffffffffffffffffffffffff1673ffffffffffffffffffffffffffffffffffffffff1603611079576040517f08c379a000000000000000000000000000000000000000000000000000000000815260040161107090612bd0565b60405180910390fd5b6110816118ba565b600760008481526020019081526020016000206040516020016110a5929190612cc0565b6040516020818303038152906040529050919050565b600a5481565b600080600a549050600b60009054906101000a900473ffffffffffffffffffffffffffffffffffffffff1673ffffffffffffffffffffffffffffffffffffffff16633aa3a87e3360016040518363ffffffff1660e01b8152600401611127929190612d29565b600060405180830381600087803b15801561114157600080fd5b505af1158015611155573d6000803e3d6000fd5b5050505061116333826118f7565b61116d8184611915565b600a600081548092919061118090612d52565b919050555080915050919050565b600960003373ffffffffffffffffffffffffffffffffffffffff1673ffffffffffffffffffffffffffffffffffffffff16815260200190815260200160002060009054906101000a900460ff1661121a576040517f08c379a000000000000000000000000000000000000000000000000000000000815260040161121190612e0c565b60405180910390fd5b806008600084815260200190815260200160002060006101000a81548160ff0219169083151502179055505050565b6000600660008473ffffffffffffffffffffffffffffffffffffffff1673ffffffffffffffffffffffffffffffffffffffff16815260200190815260200160002060008373ffffffffffffffffffffffffffffffffffffffff1673ffffffffffffffffffffffffffffffffffffffff16815260200190815260200160002060009054906101000a900460ff16905092915050565b816005600083815260200190815260200160002060006101000a81548173ffffffffffffffffffffffffffffffffffffffff021916908373ffffffffffffffffffffffffffffffffffffffff160217905550808273ffffffffffffffffffffffffffffffffffffffff166004600084815260200190815260200160002060009054906101000a900473ffffffffffffffffffffffffffffffffffffffff1673ffffffffffffffffffffffffffffffffffffffff167f8c5be1e5ebec7d5bd14f71427d1e84f3dd0314c0f7b2291e5b200ac8c7c3b92560405160405180910390a45050565b600073ffffffffffffffffffffffffffffffffffffffff168373ffffffffffffffffffffffffffffffffffffffff1603611430576040517f08c379a000000000000000000000000000000000000000000000000000000000815260040161142790612e9e565b60405180910390fd5b600073ffffffffffffffffffffffffffffffffffffffff168273ffffffffffffffffffffffffffffffffffffffff160361149f576040517f08c379a000000000000000000000000000000000000000000000000000000000815260040161149690612f30565b60405180910390fd5b8273ffffffffffffffffffffffffffffffffffffffff166004600083815260200190815260200160002060009054906101000a900473ffffffffffffffffffffffffffffffffffffffff1673ffffffffffffffffffffffffffffffffffffffff1614611540576040517f08c379a000000000000000000000000000000000000000000000000000000000815260040161153790612fc2565b60405180910390fd5b6008600082815260200190815260200160002060009054906101000a900460ff166115a0576040517f08c379a00000000000000000000000000000000000000000000000000000000081526004016115979061307a565b60405180910390fd5b6115aa33826119e3565b6115e9576040517f08c379a00000000000000000000000000000000000000000000000000000000081526004016115e090613132565b60405180910390fd5b6115f46000826112dd565b600360008473ffffffffffffffffffffffffffffffffffffffff1673ffffffffffffffffffffffffffffffffffffffff1681526020019081526020016000206000815480929190611644906128c7565b9190505550600360008373ffffffffffffffffffffffffffffffffffffffff1673ffffffffffffffffffffffffffffffffffffffff168152602001908152602001600020600081548092919061169990612d52565b9190505550816004600083815260200190815260200160002060006101000a81548173ffffffffffffffffffffffffffffffffffffffff021916908373ffffffffffffffffffffffffffffffffffffffff160217905550808273ffffffffffffffffffffffffffffffffffffffff168473ffffffffffffffffffffffffffffffffffffffff167fddf252ad1be2c89b69c2b068fc378daa952ba7f163c4a11628f55a4df523b3ef60405160405180910390a4505050565b600061175b84611ad1565b156118ad578373ffffffffffffffffffffffffffffffffffffffff1663150b7a02338786866040518563ffffffff1660e01b815260040161179f9493929190613196565b6020604051808303816000875af19250505080156117db57506040513d601f19601f820116820180604052508101906117d891906131f7565b60015b61185d573d806000811461180b576040519150601f19603f3d011682016040523d82523d6000602084013e611810565b606091505b506000815103611855576040517f08c379a000000000000000000000000000000000000000000000000000000000815260040161184c90612b3e565b60405180910390fd5b805181602001fd5b63150b7a0260e01b7bffffffffffffffffffffffffffffffffffffffffffffffffffffffff1916817bffffffffffffffffffffffffffffffffffffffffffffffffffffffff1916149150506118b2565b600190505b949350505050565b60606040518060400160405280601581526020017f68747470733a2f2f697066732e696f2f697066732f0000000000000000000000815250905090565b611911828260405180602001604052806000815250611ae4565b5050565b600073ffffffffffffffffffffffffffffffffffffffff166004600084815260200190815260200160002060009054906101000a900473ffffffffffffffffffffffffffffffffffffffff1673ffffffffffffffffffffffffffffffffffffffff16036119b7576040517f08c379a00000000000000000000000000000000000000000000000000000000081526004016119ae90613296565b60405180910390fd5b806007600084815260200190815260200160002090805190602001906119de929190611d89565b505050565b60008273ffffffffffffffffffffffffffffffffffffffff166004600084815260200190815260200160002060009054906101000a900473ffffffffffffffffffffffffffffffffffffffff1673ffffffffffffffffffffffffffffffffffffffff161480611a8557508273ffffffffffffffffffffffffffffffffffffffff16611a6d8361053c565b73ffffffffffffffffffffffffffffffffffffffff16145b80611ac95750611ac86004600084815260200190815260200160002060009054906101000a900473ffffffffffffffffffffffffffffffffffffffff1684611249565b5b905092915050565b600080823b905060008111915050919050565b600073ffffffffffffffffffffffffffffffffffffffff168373ffffffffffffffffffffffffffffffffffffffff1603611b53576040517f08c379a0000000000000000000000000000000000000000000000000000000008152600401611b4a90612f30565b60405180910390fd5b600073ffffffffffffffffffffffffffffffffffffffff166004600084815260200190815260200160002060009054906101000a900473ffffffffffffffffffffffffffffffffffffffff1673ffffffffffffffffffffffffffffffffffffffff1614611bf5576040517f08c379a0000000000000000000000000000000000000000000000000000000008152600401611bec90613328565b60405180910390fd5b600360008473ffffffffffffffffffffffffffffffffffffffff1673ffffffffffffffffffffffffffffffffffffffff1681526020019081526020016000206000815480929190611c4590612d52565b9190505550826004600084815260200190815260200160002060006101000a81548173ffffffffffffffffffffffffffffffffffffffff021916908373ffffffffffffffffffffffffffffffffffffffff160217905550818373ffffffffffffffffffffffffffffffffffffffff16600073ffffffffffffffffffffffffffffffffffffffff167fddf252ad1be2c89b69c2b068fc378daa952ba7f163c4a11628f55a4df523b3ef60405160405180910390a4611d056000848484611750565b611d44576040517f08c379a0000000000000000000000000000000000000000000000000000000008152600401611d3b90612b3e565b60405180910390fd5b505050565b508054611d559061250c565b6000825580601f10611d675750611d86565b601f016020900490600052602060002090810190611d859190611e0f565b5b50565b828054611d959061250c565b90600052602060002090601f016020900481019282611db75760008555611dfe565b82601f10611dd057805160ff1916838001178555611dfe565b82800160010185558215611dfe579182015b82811115611dfd578251825591602001919060010190611de2565b5b509050611e0b9190611e0f565b5090565b5b80821115611e28576000816000905550600101611e10565b5090565b6000604051905090565b600080fd5b600080fd5b60007fffffffff0000000000000000000000000000000000000000000000000000000082169050919050565b611e7581611e40565b8114611e8057600080fd5b50565b600081359050611e9281611e6c565b92915050565b600060208284031215611eae57611ead611e36565b5b6000611ebc84828501611e83565b91505092915050565b60008115159050919050565b611eda81611ec5565b82525050565b6000602082019050611ef56000830184611ed1565b92915050565b600081519050919050565b600082825260208201905092915050565b60005b83811015611f35578082015181840152602081019050611f1a565b83811115611f44576000848401525b50505050565b6000601f19601f8301169050919050565b6000611f6682611efb565b611f708185611f06565b9350611f80818560208601611f17565b611f8981611f4a565b840191505092915050565b60006020820190508181036000830152611fae8184611f5b565b905092915050565b6000819050919050565b611fc981611fb6565b8114611fd457600080fd5b50565b600081359050611fe681611fc0565b92915050565b60006020828403121561200257612001611e36565b5b600061201084828501611fd7565b91505092915050565b600073ffffffffffffffffffffffffffffffffffffffff82169050919050565b600061204482612019565b9050919050565b61205481612039565b82525050565b600060208201905061206f600083018461204b565b92915050565b61207e81612039565b811461208957600080fd5b50565b60008135905061209b81612075565b92915050565b600080604083850312156120b8576120b7611e36565b5b60006120c68582860161208c565b92505060206120d785828601611fd7565b9150509250929050565b6000806000606084860312156120fa576120f9611e36565b5b60006121088682870161208c565b93505060206121198682870161208c565b925050604061212a86828701611fd7565b9150509250925092565b60006020828403121561214a57612149611e36565b5b60006121588482850161208c565b91505092915050565b61216a81611fb6565b82525050565b60006020820190506121856000830184612161565b92915050565b61219481611ec5565b811461219f57600080fd5b50565b6000813590506121b18161218b565b92915050565b600080604083850312156121ce576121cd611e36565b5b60006121dc8582860161208c565b92505060206121ed858286016121a2565b9150509250929050565b600080fd5b600080fd5b600080fd5b60008083601f84011261221c5761221b6121f7565b5b8235905067ffffffffffffffff811115612239576122386121fc565b5b60208301915083600182028301111561225557612254612201565b5b9250929050565b60008060008060006080868803121561227857612277611e36565b5b60006122868882890161208c565b95505060206122978882890161208c565b94505060406122a888828901611fd7565b935050606086013567ffffffffffffffff8111156122c9576122c8611e3b565b5b6122d588828901612206565b92509250509295509295909350565b600080fd5b7f4e487b7100000000000000000000000000000000000000000000000000000000600052604160045260246000fd5b61232182611f4a565b810181811067ffffffffffffffff821117156123405761233f6122e9565b5b80604052505050565b6000612353611e2c565b905061235f8282612318565b919050565b600067ffffffffffffffff82111561237f5761237e6122e9565b5b61238882611f4a565b9050602081019050919050565b82818337600083830152505050565b60006123b76123b284612364565b612349565b9050828152602081018484840111156123d3576123d26122e4565b5b6123de848285612395565b509392505050565b600082601f8301126123fb576123fa6121f7565b5b813561240b8482602086016123a4565b91505092915050565b60006020828403121561242a57612429611e36565b5b600082013567ffffffffffffffff81111561244857612447611e3b565b5b612454848285016123e6565b91505092915050565b6000806040838503121561247457612473611e36565b5b600061248285828601611fd7565b9250506020612493858286016121a2565b9150509250929050565b600080604083850312156124b4576124b3611e36565b5b60006124c28582860161208c565b92505060206124d38582860161208c565b9150509250929050565b7f4e487b7100000000000000000000000000000000000000000000000000000000600052602260045260246000fd5b6000600282049050600182168061252457607f821691505b602082108103612537576125366124dd565b5b50919050565b7f4552433732313a20546f6b656e207769746820656e746572656420494420646f60008201527f6573206e6f742065786973740000000000000000000000000000000000000000602082015250565b6000612599602c83611f06565b91506125a48261253d565b604082019050919050565b600060208201905081810360008301526125c88161258c565b9050919050565b7f4552433732313a206f776e65722063616e6e6f7420617070726f76652068696d60008201527f73656c662f68657273656c660000000000000000000000000000000000000000602082015250565b600061262b602c83611f06565b9150612636826125cf565b604082019050919050565b6000602082019050818103600083015261265a8161261e565b9050919050565b7f4552433732313a2063616c6c6572206d757374206f776e2074686520746f6b6560008201527f6e206f7220626520617070726f76656420666f7220616c6c0000000000000000602082015250565b60006126bd603883611f06565b91506126c882612661565b604082019050919050565b600060208201905081810360008301526126ec816126b0565b9050919050565b600082825260208201905092915050565b50565b60006127146000836126f3565b915061271f82612704565b600082019050919050565b600060808201905061273f600083018661204b565b61274c602083018561204b565b6127596040830184612161565b818103606083015261276a81612707565b9050949350505050565b7f4552433732313a206e6f20746f6b656e2077697468207468652073706563696660008201527f69656420494420776173206d696e746564206265666f72650000000000000000602082015250565b60006127d0603883611f06565b91506127db82612774565b604082019050919050565b600060208201905081810360008301526127ff816127c3565b9050919050565b7f4552433732313a206120746f6b656e207769746820746865207370656369666960008201527f6564204944206973206e6f74206f776e6564206279207468652073656e646572602082015250565b6000612862604083611f06565b915061286d82612806565b604082019050919050565b6000602082019050818103600083015261289181612855565b9050919050565b7f4e487b7100000000000000000000000000000000000000000000000000000000600052601160045260246000fd5b60006128d282611fb6565b9150600082036128e5576128e4612898565b5b600182039050919050565b7f4552433732313a2061646472657373206f776e65722063616e6e6f742062652060008201527f746865207a65726f206164647265737300000000000000000000000000000000602082015250565b600061294c603083611f06565b9150612957826128f0565b604082019050919050565b6000602082019050818103600083015261297b8161293f565b9050919050565b7f4552433732313a204f6e6c79206f776e657220697320616c6c6f77656420746f60008201527f20646f20746869732066756e6374696f6e616c69747900000000000000000000602082015250565b60006129de603683611f06565b91506129e982612982565b604082019050919050565b60006020820190508181036000830152612a0d816129d1565b9050919050565b7f4552433732313a2073656e6465722063616e6e6f742073657420617070726f7660008201527f616c20666f722068696d73656c662f68657273656c6600000000000000000000602082015250565b6000612a70603683611f06565b9150612a7b82612a14565b604082019050919050565b60006020820190508181036000830152612a9f81612a63565b9050919050565b7f4552433732313a207472616e736665722063616e6e6f7420636f6d706c65746560008201527f20746f206120736d61727420636f6e7472616374206e6f7420696d706c656d6560208201527f6e74696e67204552433732315265636569766572000000000000000000000000604082015250565b6000612b28605483611f06565b9150612b3382612aa6565b606082019050919050565b60006020820190508181036000830152612b5781612b1b565b9050919050565b7f4552433732313a2063616e6e6f742067657420555249206f66206e6f6e65786960008201527f7374656e7420746f6b656e000000000000000000000000000000000000000000602082015250565b6000612bba602b83611f06565b9150612bc582612b5e565b604082019050919050565b60006020820190508181036000830152612be981612bad565b9050919050565b600081905092915050565b6000612c0682611efb565b612c108185612bf0565b9350612c20818560208601611f17565b80840191505092915050565b60008190508160005260206000209050919050565b60008154612c4e8161250c565b612c588186612bf0565b94506001821660008114612c735760018114612c8457612cb7565b60ff19831686528186019350612cb7565b612c8d85612c2c565b60005b83811015612caf57815481890152600182019150602081019050612c90565b838801955050505b50505092915050565b6000612ccc8285612bfb565b9150612cd88284612c41565b91508190509392505050565b6000819050919050565b6000819050919050565b6000612d13612d0e612d0984612ce4565b612cee565b611fb6565b9050919050565b612d2381612cf8565b82525050565b6000604082019050612d3e600083018561204b565b612d4b6020830184612d1a565b9392505050565b6000612d5d82611fb6565b91507fffffffffffffffffffffffffffffffffffffffffffffffffffffffffffffffff8203612d8f57612d8e612898565b5b600182019050919050565b7f4552433732313a204f6e6c792061646d696e732061726520616c6c6f7765642060008201527f746f20646f20746869732066756e6374696f6e616c6974790000000000000000602082015250565b6000612df6603883611f06565b9150612e0182612d9a565b604082019050919050565b60006020820190508181036000830152612e2581612de9565b9050919050565b7f4552433732313a2066726f6d206164647265737320656e74657265642063616e60008201527f6e6f7420626520746865207a65726f2061646472657373000000000000000000602082015250565b6000612e88603783611f06565b9150612e9382612e2c565b604082019050919050565b60006020820190508181036000830152612eb781612e7b565b9050919050565b7f4552433732313a20746f206164647265737320656e74657265642063616e6e6f60008201527f7420626520746865207a65726f20616464726573730000000000000000000000602082015250565b6000612f1a603583611f06565b9150612f2582612ebe565b604082019050919050565b60006020820190508181036000830152612f4981612f0d565b9050919050565b7f4552433732313a20546f6b656e207769746820656e746572656420494420697360008201527f206e6f74206f776e6564206279207468652066726f6d20616464726573730000602082015250565b6000612fac603e83611f06565b9150612fb782612f50565b604082019050919050565b60006020820190508181036000830152612fdb81612f9f565b9050919050565b7f4552433732313a20546f6b656e2063616e6e6f74206265207472616e7366657260008201527f656420796574206173207472616e73666572206f662073746f636b206f776e6560208201527f7273686970206973206e6f742079657420766572696669656400000000000000604082015250565b6000613064605983611f06565b915061306f82612fe2565b606082019050919050565b6000602082019050818103600083015261309381613057565b9050919050565b7f4552433732313a2053656e646572206973206e65697468657220746865206f7760008201527f6e6572206e6f7220617070726f76656420746f20646f2074686973207472616e60208201527f73616374696f6e00000000000000000000000000000000000000000000000000604082015250565b600061311c604783611f06565b91506131278261309a565b606082019050919050565b6000602082019050818103600083015261314b8161310f565b9050919050565b600081519050919050565b600061316882613152565b61317281856126f3565b9350613182818560208601611f17565b61318b81611f4a565b840191505092915050565b60006080820190506131ab600083018761204b565b6131b8602083018661204b565b6131c56040830185612161565b81810360608301526131d7818461315d565b905095945050505050565b6000815190506131f181611e6c565b92915050565b60006020828403121561320d5761320c611e36565b5b600061321b848285016131e2565b91505092915050565b7f4552433732313a2063616e6e6f742073657420555249206f662061206e6f6e6560008201527f78697374656e7420746f6b656e00000000000000000000000000000000000000602082015250565b6000613280602d83611f06565b915061328b82613224565b604082019050919050565b600060208201905081810360008301526132af81613273565b9050919050565b7f4552433732313a206120746f6b656e207769746820746865207370656369666960008201527f656420494420697320616c7265616479206d696e746564000000000000000000602082015250565b6000613312603783611f06565b915061331d826132b6565b604082019050919050565b6000602082019050818103600083015261334181613305565b905091905056fea26469706673582212208a5af98e5568337c0784fdd93663c4533886df3672ddf9d671d5d4e9615d769864736f6c634300080d0033",
  "immutableReferences": {},
  "source": "//SPDX-License-Identifier: MIT\r\npragma solidity ^0.8.13;\r\n\r\nimport \"./ERC721.sol\";\r\nimport \"./NerosNFTCoin.sol\";\r\n\r\ncontract NerosNFT is ERC721 {\r\n  uint256 public tokenCounter;\r\n  NerosNFTCoin private nerosNFTCoin;\r\n\r\n  constructor(address _nerosNFTCoin) ERC721 (\"NerosNFT\", \"NROT\"){\r\n      tokenCounter = 0;\r\n      nerosNFTCoin = NerosNFTCoin(_nerosNFTCoin);\r\n  }\r\n\r\n  function createNFT(string memory tokenURI) public returns (uint256) {\r\n      uint256 newItemId = tokenCounter;\r\n      //BURN NerosNFTCoin\r\n      nerosNFTCoin.burnNFTCoin(msg.sender, 1);\r\n      safeMint(msg.sender, newItemId);\r\n      setTokenURI(newItemId, tokenURI);\r\n      tokenCounter++;\r\n      return newItemId;\r\n  }\r\n}\r\n",
  "sourcePath": "D:\\S8\\Neros\\contracts\\NerosNFT.sol",
  "compiler": {
    "name": "solc",
    "version": "0.8.13+commit.abaa5c0e.Emscripten.clang"
  },
  "schemaVersion": "3.4.6",
  "updatedAt": "2022-05-08T23:38:28.728Z",
  "networkType": "ethereum",
  "devdoc": {
    "kind": "dev",
    "methods": {
      "approve(address,uint256)": {
        "details": "Gives permission to `to` to transfer `tokenId` token to another account. The approval is cleared when the token is transferred. Only a single account can be approved at a time, so approving the zero address clears previous approvals. Requirements: - The caller must own the token or be an approved operator. - `tokenId` must exist. Emits an {Approval} event."
      },
      "getApproved(uint256)": {
        "details": "Returns the account approved for `tokenId` token. Requirements: - `tokenId` must exist."
      },
      "ownerOf(uint256)": {
        "details": "Returns the owner of the `tokenId` token. Requirements: - `tokenId` must exist."
      },
      "safeTransferFrom(address,address,uint256)": {
        "details": "Safely transfers `tokenId` token from `from` to `to`, checking first that contract recipients are aware of the ERC721 protocol to prevent tokens from being forever locked. Requirements: - `from` cannot be the zero address. - `to` cannot be the zero address. - `tokenId` token must exist and be owned by `from`. - If the caller is not `from`, it must be have been allowed to move this token by either {approve} or {setApprovalForAll}. - If `to` refers to a smart contract, it must implement {IERC721Receiver-onERC721Received}, which is called upon a safe transfer. Emits a {Transfer} event."
      },
      "safeTransferFrom(address,address,uint256,bytes)": {
        "details": "Safely transfers `tokenId` token from `from` to `to`. Requirements: - `from` cannot be the zero address. - `to` cannot be the zero address. - `tokenId` token must exist and be owned by `from`. - If the caller is not `from`, it must be approved to move this token by either {approve} or {setApprovalForAll}. - If `to` refers to a smart contract, it must implement {IERC721Receiver-onERC721Received}, which is called upon a safe transfer. Emits a {Transfer} event."
      },
      "supportsInterface(bytes4)": {
        "details": "Returns true if this contract implements the interface defined by `interfaceId`. See the corresponding https://eips.ethereum.org/EIPS/eip-165#how-interfaces-are-identified[EIP section] to learn more about how these ids are created. This function call must use less than 30 000 gas."
      },
      "tokenURI(uint256)": {
        "details": "Returns the Uniform Resource Identifier (URI) for `tokenId` token."
      },
      "transferFrom(address,address,uint256)": {
        "details": "Transfers `tokenId` token from `from` to `to`. WARNING: Usage of this method is discouraged, use {safeTransferFrom} whenever possible. Requirements: - `from` cannot be the zero address. - `to` cannot be the zero address. - `tokenId` token must be owned by `from`. - If the caller is not `from`, it must be approved to move this token by either {approve} or {setApprovalForAll}. Emits a {Transfer} event."
      }
    },
    "version": 1
  },
  "userdoc": {
    "kind": "user",
    "methods": {},
    "version": 1
  }
}