{
  "contractName": "NerosNFTCoin",
  "abi": [
    {
      "inputs": [],
      "stateMutability": "nonpayable",
      "type": "constructor"
    },
    {
      "anonymous": false,
      "inputs": [
        {
          "indexed": true,
          "internalType": "address",
          "name": "owner",
          "type": "address"
        },
        {
          "indexed": true,
          "internalType": "address",
          "name": "spender",
          "type": "address"
        },
        {
          "indexed": false,
          "internalType": "uint256",
          "name": "value",
          "type": "uint256"
        }
      ],
      "name": "Approval",
      "type": "event"
    },
    {
      "anonymous": false,
      "inputs": [
        {
          "indexed": true,
          "internalType": "address",
          "name": "from",
          "type": "address"
        },
        {
          "indexed": true,
          "internalType": "address",
          "name": "to",
          "type": "address"
        },
        {
          "indexed": false,
          "internalType": "uint256",
          "name": "value",
          "type": "uint256"
        }
      ],
      "name": "Transfer",
      "type": "event"
    },
    {
      "inputs": [
        {
          "internalType": "address",
          "name": "",
          "type": "address"
        }
      ],
      "name": "admins",
      "outputs": [
        {
          "internalType": "bool",
          "name": "",
          "type": "bool"
        }
      ],
      "stateMutability": "view",
      "type": "function",
      "constant": true
    },
    {
      "inputs": [
        {
          "internalType": "address",
          "name": "owner",
          "type": "address"
        },
        {
          "internalType": "address",
          "name": "spender",
          "type": "address"
        }
      ],
      "name": "allowance",
      "outputs": [
        {
          "internalType": "uint256",
          "name": "",
          "type": "uint256"
        }
      ],
      "stateMutability": "view",
      "type": "function",
      "constant": true
    },
    {
      "inputs": [
        {
          "internalType": "address",
          "name": "spender",
          "type": "address"
        },
        {
          "internalType": "uint256",
          "name": "amount",
          "type": "uint256"
        }
      ],
      "name": "approve",
      "outputs": [
        {
          "internalType": "bool",
          "name": "",
          "type": "bool"
        }
      ],
      "stateMutability": "nonpayable",
      "type": "function"
    },
    {
      "inputs": [
        {
          "internalType": "address",
          "name": "account",
          "type": "address"
        }
      ],
      "name": "balanceOf",
      "outputs": [
        {
          "internalType": "uint256",
          "name": "",
          "type": "uint256"
        }
      ],
      "stateMutability": "view",
      "type": "function",
      "constant": true
    },
    {
      "inputs": [
        {
          "internalType": "address",
          "name": "spender",
          "type": "address"
        },
        {
          "internalType": "uint256",
          "name": "subtractedValue",
          "type": "uint256"
        }
      ],
      "name": "decreaseAllowance",
      "outputs": [
        {
          "internalType": "bool",
          "name": "",
          "type": "bool"
        }
      ],
      "stateMutability": "nonpayable",
      "type": "function"
    },
    {
      "inputs": [
        {
          "internalType": "address",
          "name": "spender",
          "type": "address"
        },
        {
          "internalType": "uint256",
          "name": "addedValue",
          "type": "uint256"
        }
      ],
      "name": "increaseAllowance",
      "outputs": [
        {
          "internalType": "bool",
          "name": "",
          "type": "bool"
        }
      ],
      "stateMutability": "nonpayable",
      "type": "function"
    },
    {
      "inputs": [],
      "name": "name",
      "outputs": [
        {
          "internalType": "string",
          "name": "",
          "type": "string"
        }
      ],
      "stateMutability": "view",
      "type": "function",
      "constant": true
    },
    {
      "inputs": [],
      "name": "owner",
      "outputs": [
        {
          "internalType": "address",
          "name": "",
          "type": "address"
        }
      ],
      "stateMutability": "view",
      "type": "function",
      "constant": true
    },
    {
      "inputs": [],
      "name": "price",
      "outputs": [
        {
          "internalType": "uint256",
          "name": "",
          "type": "uint256"
        }
      ],
      "stateMutability": "view",
      "type": "function",
      "constant": true
    },
    {
      "inputs": [],
      "name": "symbol",
      "outputs": [
        {
          "internalType": "string",
          "name": "",
          "type": "string"
        }
      ],
      "stateMutability": "view",
      "type": "function",
      "constant": true
    },
    {
      "inputs": [],
      "name": "totalSupply",
      "outputs": [
        {
          "internalType": "uint256",
          "name": "",
          "type": "uint256"
        }
      ],
      "stateMutability": "view",
      "type": "function",
      "constant": true
    },
    {
      "inputs": [
        {
          "internalType": "address",
          "name": "to",
          "type": "address"
        },
        {
          "internalType": "uint256",
          "name": "amount",
          "type": "uint256"
        }
      ],
      "name": "transfer",
      "outputs": [
        {
          "internalType": "bool",
          "name": "",
          "type": "bool"
        }
      ],
      "stateMutability": "nonpayable",
      "type": "function"
    },
    {
      "inputs": [
        {
          "internalType": "address",
          "name": "from",
          "type": "address"
        },
        {
          "internalType": "address",
          "name": "to",
          "type": "address"
        },
        {
          "internalType": "uint256",
          "name": "amount",
          "type": "uint256"
        }
      ],
      "name": "transferFrom",
      "outputs": [
        {
          "internalType": "bool",
          "name": "",
          "type": "bool"
        }
      ],
      "stateMutability": "nonpayable",
      "type": "function"
    },
    {
      "inputs": [
        {
          "internalType": "address",
          "name": "_admin",
          "type": "address"
        }
      ],
      "name": "setAdmin",
      "outputs": [],
      "stateMutability": "nonpayable",
      "type": "function"
    },
    {
      "inputs": [
        {
          "internalType": "address",
          "name": "to",
          "type": "address"
        },
        {
          "internalType": "uint256",
          "name": "amount",
          "type": "uint256"
        }
      ],
      "name": "mintNFTCoin",
      "outputs": [],
      "stateMutability": "nonpayable",
      "type": "function"
    },
    {
      "inputs": [
        {
          "internalType": "address",
          "name": "from",
          "type": "address"
        },
        {
          "internalType": "uint256",
          "name": "amount",
          "type": "uint256"
        }
      ],
      "name": "burnNFTCoin",
      "outputs": [],
      "stateMutability": "nonpayable",
      "type": "function"
    },
    {
      "inputs": [],
      "name": "decimals",
      "outputs": [
        {
          "internalType": "uint8",
          "name": "",
          "type": "uint8"
        }
      ],
      "stateMutability": "pure",
      "type": "function",
      "constant": true
    },
    {
      "inputs": [
        {
          "internalType": "uint256",
          "name": "_price",
          "type": "uint256"
        }
      ],
      "name": "setPrice",
      "outputs": [],
      "stateMutability": "nonpayable",
      "type": "function"
    },
    {
      "inputs": [],
      "name": "buyNFTCoin",
      "outputs": [],
      "stateMutability": "payable",
      "type": "function",
      "payable": true
    }
  ],
  "bytecode": "0x608060405266b1a2bc2ec500006007553480156200001c57600080fd5b506040518060400160405280600c81526020017f4e65726f734e4654436f696e00000000000000000000000000000000000000008152506040518060400160405280600481526020017f4e524f43000000000000000000000000000000000000000000000000000000008152508160039080519060200190620000a192919062000104565b508060049080519060200190620000ba92919062000104565b50505033600560006101000a81548173ffffffffffffffffffffffffffffffffffffffff021916908373ffffffffffffffffffffffffffffffffffffffff16021790555062000218565b8280546200011290620001e3565b90600052602060002090601f01602090048101928262000136576000855562000182565b82601f106200015157805160ff191683800117855562000182565b8280016001018555821562000182579182015b828111156200018157825182559160200191906001019062000164565b5b50905062000191919062000195565b5090565b5b80821115620001b057600081600090555060010162000196565b5090565b7f4e487b7100000000000000000000000000000000000000000000000000000000600052602260045260246000fd5b60006002820490506001821680620001fc57607f821691505b602082108103620002125762000211620001b4565b5b50919050565b61209280620002286000396000f3fe6080604052600436106101145760003560e01c8063704b6c02116100a0578063a035b1fe11610064578063a035b1fe146103c5578063a457c2d7146103f0578063a9059cbb1461042d578063a97391bb1461046a578063dd62ed3e1461047457610114565b8063704b6c02146102e057806370a08231146103095780638da5cb5b1461034657806391b7f5ed1461037157806395d89b411461039a57610114565b8063313ce567116100e7578063313ce567146101e957806339509351146102145780633aa3a87e14610251578063429b62e51461027a5780635156f20a146102b757610114565b806306fdde0314610119578063095ea7b31461014457806318160ddd1461018157806323b872dd146101ac575b600080fd5b34801561012557600080fd5b5061012e6104b1565b60405161013b91906114f6565b60405180910390f35b34801561015057600080fd5b5061016b600480360381019061016691906115b1565b610543565b604051610178919061160c565b60405180910390f35b34801561018d57600080fd5b50610196610566565b6040516101a39190611636565b60405180910390f35b3480156101b857600080fd5b506101d360048036038101906101ce9190611651565b610570565b6040516101e0919061160c565b60405180910390f35b3480156101f557600080fd5b506101fe61059f565b60405161020b91906116c0565b60405180910390f35b34801561022057600080fd5b5061023b600480360381019061023691906115b1565b6105a4565b604051610248919061160c565b60405180910390f35b34801561025d57600080fd5b50610278600480360381019061027391906115b1565b61064e565b005b34801561028657600080fd5b506102a1600480360381019061029c91906116db565b6106e8565b6040516102ae919061160c565b60405180910390f35b3480156102c357600080fd5b506102de60048036038101906102d991906115b1565b610708565b005b3480156102ec57600080fd5b50610307600480360381019061030291906116db565b6107a2565b005b34801561031557600080fd5b50610330600480360381019061032b91906116db565b61088d565b60405161033d9190611636565b60405180910390f35b34801561035257600080fd5b5061035b6108d5565b6040516103689190611717565b60405180910390f35b34801561037d57600080fd5b5061039860048036038101906103939190611732565b6108fb565b005b3480156103a657600080fd5b506103af610995565b6040516103bc91906114f6565b60405180910390f35b3480156103d157600080fd5b506103da610a27565b6040516103e79190611636565b60405180910390f35b3480156103fc57600080fd5b50610417600480360381019061041291906115b1565b610a2d565b604051610424919061160c565b60405180910390f35b34801561043957600080fd5b50610454600480360381019061044f91906115b1565b610b17565b604051610461919061160c565b60405180910390f35b610472610b3a565b005b34801561048057600080fd5b5061049b6004803603810190610496919061175f565b610bbb565b6040516104a89190611636565b60405180910390f35b6060600380546104c0906117ce565b80601f01602080910402602001604051908101604052809291908181526020018280546104ec906117ce565b80156105395780601f1061050e57610100808354040283529160200191610539565b820191906000526020600020905b81548152906001019060200180831161051c57829003601f168201915b5050505050905090565b60008061054e610c42565b905061055b818585610c4a565b600191505092915050565b6000600254905090565b60008061057b610c42565b9050610588858285610e13565b610593858585610e9f565b60019150509392505050565b600090565b6000806105af610c42565b9050610643818585600160008673ffffffffffffffffffffffffffffffffffffffff1673ffffffffffffffffffffffffffffffffffffffff16815260200190815260200160002060008973ffffffffffffffffffffffffffffffffffffffff1673ffffffffffffffffffffffffffffffffffffffff1681526020019081526020016000205461063e919061182e565b610c4a565b600191505092915050565b600660003373ffffffffffffffffffffffffffffffffffffffff1673ffffffffffffffffffffffffffffffffffffffff16815260200190815260200160002060009054906101000a900460ff166106da576040517f08c379a00000000000000000000000000000000000000000000000000000000081526004016106d19061191c565b60405180910390fd5b6106e4828261111e565b5050565b60066020528060005260406000206000915054906101000a900460ff1681565b600660003373ffffffffffffffffffffffffffffffffffffffff1673ffffffffffffffffffffffffffffffffffffffff16815260200190815260200160002060009054906101000a900460ff16610794576040517f08c379a000000000000000000000000000000000000000000000000000000000815260040161078b9061191c565b60405180910390fd5b61079e82826112f4565b5050565b600560009054906101000a900473ffffffffffffffffffffffffffffffffffffffff1673ffffffffffffffffffffffffffffffffffffffff163373ffffffffffffffffffffffffffffffffffffffff1614610832576040517f08c379a0000000000000000000000000000000000000000000000000000000008152600401610829906119ae565b60405180910390fd5b6001600660008373ffffffffffffffffffffffffffffffffffffffff1673ffffffffffffffffffffffffffffffffffffffff16815260200190815260200160002060006101000a81548160ff02191690831515021790555050565b60008060008373ffffffffffffffffffffffffffffffffffffffff1673ffffffffffffffffffffffffffffffffffffffff168152602001908152602001600020549050919050565b600560009054906101000a900473ffffffffffffffffffffffffffffffffffffffff1681565b600560009054906101000a900473ffffffffffffffffffffffffffffffffffffffff1673ffffffffffffffffffffffffffffffffffffffff163373ffffffffffffffffffffffffffffffffffffffff161461098b576040517f08c379a0000000000000000000000000000000000000000000000000000000008152600401610982906119ae565b60405180910390fd5b8060078190555050565b6060600480546109a4906117ce565b80601f01602080910402602001604051908101604052809291908181526020018280546109d0906117ce565b8015610a1d5780601f106109f257610100808354040283529160200191610a1d565b820191906000526020600020905b815481529060010190602001808311610a0057829003601f168201915b5050505050905090565b60075481565b600080610a38610c42565b90506000600160008373ffffffffffffffffffffffffffffffffffffffff1673ffffffffffffffffffffffffffffffffffffffff16815260200190815260200160002060008673ffffffffffffffffffffffffffffffffffffffff1673ffffffffffffffffffffffffffffffffffffffff16815260200190815260200160002054905083811015610afe576040517f08c379a0000000000000000000000000000000000000000000000000000000008152600401610af590611a40565b60405180910390fd5b610b0b8286868403610c4a565b60019250505092915050565b600080610b22610c42565b9050610b2f818585610e9f565b600191505092915050565b600754341015610b7f576040517f08c379a0000000000000000000000000000000000000000000000000000000008152600401610b7690611ad2565b60405180910390fd5b610bb9600560009054906101000a900473ffffffffffffffffffffffffffffffffffffffff163360075434610bb49190611b21565b610e9f565b565b6000600160008473ffffffffffffffffffffffffffffffffffffffff1673ffffffffffffffffffffffffffffffffffffffff16815260200190815260200160002060008373ffffffffffffffffffffffffffffffffffffffff1673ffffffffffffffffffffffffffffffffffffffff16815260200190815260200160002054905092915050565b600033905090565b600073ffffffffffffffffffffffffffffffffffffffff168373ffffffffffffffffffffffffffffffffffffffff1603610cb9576040517f08c379a0000000000000000000000000000000000000000000000000000000008152600401610cb090611bc4565b60405180910390fd5b600073ffffffffffffffffffffffffffffffffffffffff168273ffffffffffffffffffffffffffffffffffffffff1603610d28576040517f08c379a0000000000000000000000000000000000000000000000000000000008152600401610d1f90611c56565b60405180910390fd5b80600160008573ffffffffffffffffffffffffffffffffffffffff1673ffffffffffffffffffffffffffffffffffffffff16815260200190815260200160002060008473ffffffffffffffffffffffffffffffffffffffff1673ffffffffffffffffffffffffffffffffffffffff168152602001908152602001600020819055508173ffffffffffffffffffffffffffffffffffffffff168373ffffffffffffffffffffffffffffffffffffffff167f8c5be1e5ebec7d5bd14f71427d1e84f3dd0314c0f7b2291e5b200ac8c7c3b92583604051610e069190611636565b60405180910390a3505050565b6000610e1f8484610bbb565b90507fffffffffffffffffffffffffffffffffffffffffffffffffffffffffffffffff8114610e995781811015610e8b576040517f08c379a0000000000000000000000000000000000000000000000000000000008152600401610e8290611cc2565b60405180910390fd5b610e988484848403610c4a565b5b50505050565b600073ffffffffffffffffffffffffffffffffffffffff168373ffffffffffffffffffffffffffffffffffffffff1603610f0e576040517f08c379a0000000000000000000000000000000000000000000000000000000008152600401610f0590611d54565b60405180910390fd5b600073ffffffffffffffffffffffffffffffffffffffff168273ffffffffffffffffffffffffffffffffffffffff1603610f7d576040517f08c379a0000000000000000000000000000000000000000000000000000000008152600401610f7490611de6565b60405180910390fd5b610f88838383611453565b60008060008573ffffffffffffffffffffffffffffffffffffffff1673ffffffffffffffffffffffffffffffffffffffff1681526020019081526020016000205490508181101561100e576040517f08c379a000000000000000000000000000000000000000000000000000000000815260040161100590611e78565b60405180910390fd5b8181036000808673ffffffffffffffffffffffffffffffffffffffff1673ffffffffffffffffffffffffffffffffffffffff16815260200190815260200160002081905550816000808573ffffffffffffffffffffffffffffffffffffffff1673ffffffffffffffffffffffffffffffffffffffff16815260200190815260200160002060008282546110a1919061182e565b925050819055508273ffffffffffffffffffffffffffffffffffffffff168473ffffffffffffffffffffffffffffffffffffffff167fddf252ad1be2c89b69c2b068fc378daa952ba7f163c4a11628f55a4df523b3ef846040516111059190611636565b60405180910390a3611118848484611458565b50505050565b600073ffffffffffffffffffffffffffffffffffffffff168273ffffffffffffffffffffffffffffffffffffffff160361118d576040517f08c379a000000000000000000000000000000000000000000000000000000000815260040161118490611f0a565b60405180910390fd5b61119982600083611453565b60008060008473ffffffffffffffffffffffffffffffffffffffff1673ffffffffffffffffffffffffffffffffffffffff1681526020019081526020016000205490508181101561121f576040517f08c379a000000000000000000000000000000000000000000000000000000000815260040161121690611f9c565b60405180910390fd5b8181036000808573ffffffffffffffffffffffffffffffffffffffff1673ffffffffffffffffffffffffffffffffffffffff1681526020019081526020016000208190555081600260008282546112769190611fbc565b92505081905550600073ffffffffffffffffffffffffffffffffffffffff168373ffffffffffffffffffffffffffffffffffffffff167fddf252ad1be2c89b69c2b068fc378daa952ba7f163c4a11628f55a4df523b3ef846040516112db9190611636565b60405180910390a36112ef83600084611458565b505050565b600073ffffffffffffffffffffffffffffffffffffffff168273ffffffffffffffffffffffffffffffffffffffff1603611363576040517f08c379a000000000000000000000000000000000000000000000000000000000815260040161135a9061203c565b60405180910390fd5b61136f60008383611453565b8060026000828254611381919061182e565b92505081905550806000808473ffffffffffffffffffffffffffffffffffffffff1673ffffffffffffffffffffffffffffffffffffffff16815260200190815260200160002060008282546113d6919061182e565b925050819055508173ffffffffffffffffffffffffffffffffffffffff16600073ffffffffffffffffffffffffffffffffffffffff167fddf252ad1be2c89b69c2b068fc378daa952ba7f163c4a11628f55a4df523b3ef8360405161143b9190611636565b60405180910390a361144f60008383611458565b5050565b505050565b505050565b600081519050919050565b600082825260208201905092915050565b60005b8381101561149757808201518184015260208101905061147c565b838111156114a6576000848401525b50505050565b6000601f19601f8301169050919050565b60006114c88261145d565b6114d28185611468565b93506114e2818560208601611479565b6114eb816114ac565b840191505092915050565b6000602082019050818103600083015261151081846114bd565b905092915050565b600080fd5b600073ffffffffffffffffffffffffffffffffffffffff82169050919050565b60006115488261151d565b9050919050565b6115588161153d565b811461156357600080fd5b50565b6000813590506115758161154f565b92915050565b6000819050919050565b61158e8161157b565b811461159957600080fd5b50565b6000813590506115ab81611585565b92915050565b600080604083850312156115c8576115c7611518565b5b60006115d685828601611566565b92505060206115e78582860161159c565b9150509250929050565b60008115159050919050565b611606816115f1565b82525050565b600060208201905061162160008301846115fd565b92915050565b6116308161157b565b82525050565b600060208201905061164b6000830184611627565b92915050565b60008060006060848603121561166a57611669611518565b5b600061167886828701611566565b935050602061168986828701611566565b925050604061169a8682870161159c565b9150509250925092565b600060ff82169050919050565b6116ba816116a4565b82525050565b60006020820190506116d560008301846116b1565b92915050565b6000602082840312156116f1576116f0611518565b5b60006116ff84828501611566565b91505092915050565b6117118161153d565b82525050565b600060208201905061172c6000830184611708565b92915050565b60006020828403121561174857611747611518565b5b60006117568482850161159c565b91505092915050565b6000806040838503121561177657611775611518565b5b600061178485828601611566565b925050602061179585828601611566565b9150509250929050565b7f4e487b7100000000000000000000000000000000000000000000000000000000600052602260045260246000fd5b600060028204905060018216806117e657607f821691505b6020821081036117f9576117f861179f565b5b50919050565b7f4e487b7100000000000000000000000000000000000000000000000000000000600052601160045260246000fd5b60006118398261157b565b91506118448361157b565b9250827fffffffffffffffffffffffffffffffffffffffffffffffffffffffffffffffff03821115611879576118786117ff565b5b828201905092915050565b7f4e65726f734e4654436f696e3a204f6e6c792061646d696e20636f6e7472616360008201527f7420697320616c6c6f77656420746f20646f20746869732066756e6374696f6e60208201527f616c697479000000000000000000000000000000000000000000000000000000604082015250565b6000611906604583611468565b915061191182611884565b606082019050919050565b60006020820190508181036000830152611935816118f9565b9050919050565b7f4e65726f734e4654436f696e3a204f6e6c79206f776e657220697320616c6c6f60008201527f77656420746f20646f20746869732066756e6374696f6e616c69747900000000602082015250565b6000611998603c83611468565b91506119a38261193c565b604082019050919050565b600060208201905081810360008301526119c78161198b565b9050919050565b7f45524332303a2064656372656173656420616c6c6f77616e63652062656c6f7760008201527f207a65726f000000000000000000000000000000000000000000000000000000602082015250565b6000611a2a602583611468565b9150611a35826119ce565b604082019050919050565b60006020820190508181036000830152611a5981611a1d565b9050919050565b7f4e65726f734e4654436f696e3a2055736572206d7573742073656e6420616c6f60008201527f6e6720736f6d6520457468657220746f206f627461696e204e524f4300000000602082015250565b6000611abc603c83611468565b9150611ac782611a60565b604082019050919050565b60006020820190508181036000830152611aeb81611aaf565b9050919050565b7f4e487b7100000000000000000000000000000000000000000000000000000000600052601260045260246000fd5b6000611b2c8261157b565b9150611b378361157b565b925082611b4757611b46611af2565b5b828204905092915050565b7f45524332303a20617070726f76652066726f6d20746865207a65726f2061646460008201527f7265737300000000000000000000000000000000000000000000000000000000602082015250565b6000611bae602483611468565b9150611bb982611b52565b604082019050919050565b60006020820190508181036000830152611bdd81611ba1565b9050919050565b7f45524332303a20617070726f766520746f20746865207a65726f20616464726560008201527f7373000000000000000000000000000000000000000000000000000000000000602082015250565b6000611c40602283611468565b9150611c4b82611be4565b604082019050919050565b60006020820190508181036000830152611c6f81611c33565b9050919050565b7f45524332303a20696e73756666696369656e7420616c6c6f77616e6365000000600082015250565b6000611cac601d83611468565b9150611cb782611c76565b602082019050919050565b60006020820190508181036000830152611cdb81611c9f565b9050919050565b7f45524332303a207472616e736665722066726f6d20746865207a65726f20616460008201527f6472657373000000000000000000000000000000000000000000000000000000602082015250565b6000611d3e602583611468565b9150611d4982611ce2565b604082019050919050565b60006020820190508181036000830152611d6d81611d31565b9050919050565b7f45524332303a207472616e7366657220746f20746865207a65726f206164647260008201527f6573730000000000000000000000000000000000000000000000000000000000602082015250565b6000611dd0602383611468565b9150611ddb82611d74565b604082019050919050565b60006020820190508181036000830152611dff81611dc3565b9050919050565b7f45524332303a207472616e7366657220616d6f756e742065786365656473206260008201527f616c616e63650000000000000000000000000000000000000000000000000000602082015250565b6000611e62602683611468565b9150611e6d82611e06565b604082019050919050565b60006020820190508181036000830152611e9181611e55565b9050919050565b7f45524332303a206275726e2066726f6d20746865207a65726f2061646472657360008201527f7300000000000000000000000000000000000000000000000000000000000000602082015250565b6000611ef4602183611468565b9150611eff82611e98565b604082019050919050565b60006020820190508181036000830152611f2381611ee7565b9050919050565b7f45524332303a206275726e20616d6f756e7420657863656564732062616c616e60008201527f6365000000000000000000000000000000000000000000000000000000000000602082015250565b6000611f86602283611468565b9150611f9182611f2a565b604082019050919050565b60006020820190508181036000830152611fb581611f79565b9050919050565b6000611fc78261157b565b9150611fd28361157b565b925082821015611fe557611fe46117ff565b5b828203905092915050565b7f45524332303a206d696e7420746f20746865207a65726f206164647265737300600082015250565b6000612026601f83611468565b915061203182611ff0565b602082019050919050565b6000602082019050818103600083015261205581612019565b905091905056fea2646970667358221220ee685080aa6865bf100085e086492a0346064442d800b2c416a63065f8943bac64736f6c634300080d0033",
  "immutableReferences": {},
  "source": "//SPDX-License-Identifier: MIT\r\npragma solidity ^0.8.13;\r\n\r\nimport \"@openzeppelin/contracts/token/ERC20/ERC20.sol\";\r\n\r\ncontract NerosNFTCoin is ERC20 {\r\n  address public owner;\r\n  mapping(address => bool) public admins;\r\n  uint public price = 0.05 ether;\r\n\r\n  constructor() ERC20 (\"NerosNFTCoin\", \"NROC\") {\r\n    owner = msg.sender;\r\n  }\r\n  modifier onlyOwner() {\r\n      require(msg.sender == owner, \"NerosNFTCoin: Only owner is allowed to do this functionality\");\r\n      _;\r\n  }\r\n  modifier onlyAdmin() {\r\n      require(admins[msg.sender], \"NerosNFTCoin: Only admin contract is allowed to do this functionality\");\r\n      _;\r\n  }\r\n\r\n  function setAdmin(address _admin) public onlyOwner {\r\n    admins[_admin] = true;\r\n  }\r\n\r\n  function mintNFTCoin(address to, uint amount) public onlyAdmin {\r\n    _mint(to, amount);\r\n  }\r\n  function burnNFTCoin(address from, uint amount) public onlyAdmin {\r\n    _burn(from, amount);\r\n  }\r\n\r\n  function decimals() public pure override returns (uint8) {\r\n      return 0;\r\n  }\r\n\r\n  function setPrice(uint _price) public onlyOwner {\r\n    price = _price;\r\n  }\r\n\r\n  function buyNFTCoin() public payable {\r\n    require(msg.value >= price, \"NerosNFTCoin: User must send along some Ether to obtain NROC\");\r\n    _transfer(owner, msg.sender, msg.value/price);\r\n  }\r\n}\r\n",
  "sourcePath": "D:\\S8\\Neros\\contracts\\NerosNFTCoin.sol",
  "compiler": {
    "name": "solc",
    "version": "0.8.13+commit.abaa5c0e.Emscripten.clang"
  },
  "schemaVersion": "3.4.6",
  "updatedAt": "2022-05-17T01:11:01.893Z",
  "networkType": "ethereum",
  "devdoc": {
    "kind": "dev",
    "methods": {
      "allowance(address,address)": {
        "details": "See {IERC20-allowance}."
      },
      "approve(address,uint256)": {
        "details": "See {IERC20-approve}. NOTE: If `amount` is the maximum `uint256`, the allowance is not updated on `transferFrom`. This is semantically equivalent to an infinite approval. Requirements: - `spender` cannot be the zero address."
      },
      "balanceOf(address)": {
        "details": "See {IERC20-balanceOf}."
      },
      "decimals()": {
        "details": "Returns the number of decimals used to get its user representation. For example, if `decimals` equals `2`, a balance of `505` tokens should be displayed to a user as `5.05` (`505 / 10 ** 2`). Tokens usually opt for a value of 18, imitating the relationship between Ether and Wei. This is the value {ERC20} uses, unless this function is overridden; NOTE: This information is only used for _display_ purposes: it in no way affects any of the arithmetic of the contract, including {IERC20-balanceOf} and {IERC20-transfer}."
      },
      "decreaseAllowance(address,uint256)": {
        "details": "Atomically decreases the allowance granted to `spender` by the caller. This is an alternative to {approve} that can be used as a mitigation for problems described in {IERC20-approve}. Emits an {Approval} event indicating the updated allowance. Requirements: - `spender` cannot be the zero address. - `spender` must have allowance for the caller of at least `subtractedValue`."
      },
      "increaseAllowance(address,uint256)": {
        "details": "Atomically increases the allowance granted to `spender` by the caller. This is an alternative to {approve} that can be used as a mitigation for problems described in {IERC20-approve}. Emits an {Approval} event indicating the updated allowance. Requirements: - `spender` cannot be the zero address."
      },
      "name()": {
        "details": "Returns the name of the token."
      },
      "symbol()": {
        "details": "Returns the symbol of the token, usually a shorter version of the name."
      },
      "totalSupply()": {
        "details": "See {IERC20-totalSupply}."
      },
      "transfer(address,uint256)": {
        "details": "See {IERC20-transfer}. Requirements: - `to` cannot be the zero address. - the caller must have a balance of at least `amount`."
      },
      "transferFrom(address,address,uint256)": {
        "details": "See {IERC20-transferFrom}. Emits an {Approval} event indicating the updated allowance. This is not required by the EIP. See the note at the beginning of {ERC20}. NOTE: Does not update the allowance if the current allowance is the maximum `uint256`. Requirements: - `from` and `to` cannot be the zero address. - `from` must have a balance of at least `amount`. - the caller must have allowance for ``from``'s tokens of at least `amount`."
      }
    },
    "version": 1
  },
  "userdoc": {
    "kind": "user",
    "methods": {},
    "version": 1
  }
}