{
  "contractName": "NerosNFT",
  "abi": [
    {
      "inputs": [
        {
          "internalType": "address",
          "name": "_nerosNFTCoin",
          "type": "address"
        },
        {
          "internalType": "address",
          "name": "_nerosContract",
          "type": "address"
        }
      ],
      "stateMutability": "nonpayable",
      "type": "constructor"
    },
    {
      "anonymous": false,
      "inputs": [
        {
          "indexed": true,
          "internalType": "address",
          "name": "owner",
          "type": "address"
        },
        {
          "indexed": true,
          "internalType": "address",
          "name": "approved",
          "type": "address"
        },
        {
          "indexed": true,
          "internalType": "uint256",
          "name": "tokenId",
          "type": "uint256"
        }
      ],
      "name": "Approval",
      "type": "event"
    },
    {
      "anonymous": false,
      "inputs": [
        {
          "indexed": true,
          "internalType": "address",
          "name": "owner",
          "type": "address"
        },
        {
          "indexed": true,
          "internalType": "address",
          "name": "operator",
          "type": "address"
        },
        {
          "indexed": false,
          "internalType": "bool",
          "name": "approved",
          "type": "bool"
        }
      ],
      "name": "ApprovalForAll",
      "type": "event"
    },
    {
      "anonymous": false,
      "inputs": [
        {
          "indexed": true,
          "internalType": "address",
          "name": "from",
          "type": "address"
        },
        {
          "indexed": true,
          "internalType": "address",
          "name": "to",
          "type": "address"
        },
        {
          "indexed": true,
          "internalType": "uint256",
          "name": "tokenId",
          "type": "uint256"
        }
      ],
      "name": "Transfer",
      "type": "event"
    },
    {
      "inputs": [
        {
          "internalType": "address",
          "name": "admin",
          "type": "address"
        },
        {
          "internalType": "bool",
          "name": "add",
          "type": "bool"
        }
      ],
      "name": "addOrRemoveAdmin",
      "outputs": [],
      "stateMutability": "nonpayable",
      "type": "function"
    },
    {
      "inputs": [
        {
          "internalType": "address",
          "name": "",
          "type": "address"
        }
      ],
      "name": "admins",
      "outputs": [
        {
          "internalType": "bool",
          "name": "",
          "type": "bool"
        }
      ],
      "stateMutability": "view",
      "type": "function",
      "constant": true
    },
    {
      "inputs": [
        {
          "internalType": "address",
          "name": "to",
          "type": "address"
        },
        {
          "internalType": "uint256",
          "name": "tokenId",
          "type": "uint256"
        }
      ],
      "name": "approve",
      "outputs": [],
      "stateMutability": "nonpayable",
      "type": "function"
    },
    {
      "inputs": [
        {
          "internalType": "address",
          "name": "_owner",
          "type": "address"
        }
      ],
      "name": "balanceOf",
      "outputs": [
        {
          "internalType": "uint256",
          "name": "",
          "type": "uint256"
        }
      ],
      "stateMutability": "view",
      "type": "function",
      "constant": true
    },
    {
      "inputs": [
        {
          "internalType": "uint256",
          "name": "tokenId",
          "type": "uint256"
        }
      ],
      "name": "burn",
      "outputs": [],
      "stateMutability": "nonpayable",
      "type": "function"
    },
    {
      "inputs": [
        {
          "internalType": "uint256",
          "name": "tokenId",
          "type": "uint256"
        }
      ],
      "name": "getApproved",
      "outputs": [
        {
          "internalType": "address",
          "name": "",
          "type": "address"
        }
      ],
      "stateMutability": "view",
      "type": "function",
      "constant": true
    },
    {
      "inputs": [
        {
          "internalType": "address",
          "name": "_owner",
          "type": "address"
        },
        {
          "internalType": "address",
          "name": "operator",
          "type": "address"
        }
      ],
      "name": "isApprovedForAll",
      "outputs": [
        {
          "internalType": "bool",
          "name": "",
          "type": "bool"
        }
      ],
      "stateMutability": "view",
      "type": "function",
      "constant": true
    },
    {
      "inputs": [
        {
          "internalType": "uint256",
          "name": "",
          "type": "uint256"
        }
      ],
      "name": "isForSale",
      "outputs": [
        {
          "internalType": "bool",
          "name": "",
          "type": "bool"
        }
      ],
      "stateMutability": "view",
      "type": "function",
      "constant": true
    },
    {
      "inputs": [
        {
          "internalType": "uint256",
          "name": "",
          "type": "uint256"
        }
      ],
      "name": "isTransferable",
      "outputs": [
        {
          "internalType": "bool",
          "name": "",
          "type": "bool"
        }
      ],
      "stateMutability": "view",
      "type": "function",
      "constant": true
    },
    {
      "inputs": [],
      "name": "name",
      "outputs": [
        {
          "internalType": "string",
          "name": "",
          "type": "string"
        }
      ],
      "stateMutability": "view",
      "type": "function",
      "constant": true
    },
    {
      "inputs": [],
      "name": "owner",
      "outputs": [
        {
          "internalType": "address",
          "name": "",
          "type": "address"
        }
      ],
      "stateMutability": "view",
      "type": "function",
      "constant": true
    },
    {
      "inputs": [
        {
          "internalType": "uint256",
          "name": "tokenId",
          "type": "uint256"
        }
      ],
      "name": "ownerOf",
      "outputs": [
        {
          "internalType": "address",
          "name": "",
          "type": "address"
        }
      ],
      "stateMutability": "view",
      "type": "function",
      "constant": true
    },
    {
      "inputs": [
        {
          "internalType": "address",
          "name": "from",
          "type": "address"
        },
        {
          "internalType": "address",
          "name": "to",
          "type": "address"
        },
        {
          "internalType": "uint256",
          "name": "tokenId",
          "type": "uint256"
        }
      ],
      "name": "safeTransferFrom",
      "outputs": [],
      "stateMutability": "nonpayable",
      "type": "function"
    },
    {
      "inputs": [
        {
          "internalType": "address",
          "name": "from",
          "type": "address"
        },
        {
          "internalType": "address",
          "name": "to",
          "type": "address"
        },
        {
          "internalType": "uint256",
          "name": "tokenId",
          "type": "uint256"
        },
        {
          "internalType": "bytes",
          "name": "data",
          "type": "bytes"
        }
      ],
      "name": "safeTransferFrom",
      "outputs": [],
      "stateMutability": "nonpayable",
      "type": "function"
    },
    {
      "inputs": [
        {
          "internalType": "address",
          "name": "operator",
          "type": "address"
        },
        {
          "internalType": "bool",
          "name": "approved",
          "type": "bool"
        }
      ],
      "name": "setApprovalForAll",
      "outputs": [],
      "stateMutability": "nonpayable",
      "type": "function"
    },
    {
      "inputs": [
        {
          "internalType": "bytes4",
          "name": "interfaceId",
          "type": "bytes4"
        }
      ],
      "name": "supportsInterface",
      "outputs": [
        {
          "internalType": "bool",
          "name": "",
          "type": "bool"
        }
      ],
      "stateMutability": "pure",
      "type": "function",
      "constant": true
    },
    {
      "inputs": [],
      "name": "symbol",
      "outputs": [
        {
          "internalType": "string",
          "name": "",
          "type": "string"
        }
      ],
      "stateMutability": "view",
      "type": "function",
      "constant": true
    },
    {
      "inputs": [],
      "name": "tokenCounter",
      "outputs": [
        {
          "internalType": "uint256",
          "name": "",
          "type": "uint256"
        }
      ],
      "stateMutability": "view",
      "type": "function",
      "constant": true
    },
    {
      "inputs": [],
      "name": "tokenIdToCheck",
      "outputs": [
        {
          "internalType": "uint256",
          "name": "",
          "type": "uint256"
        }
      ],
      "stateMutability": "view",
      "type": "function",
      "constant": true
    },
    {
      "inputs": [
        {
          "internalType": "uint256",
          "name": "tokenId",
          "type": "uint256"
        }
      ],
      "name": "tokenURI",
      "outputs": [
        {
          "internalType": "string",
          "name": "",
          "type": "string"
        }
      ],
      "stateMutability": "view",
      "type": "function",
      "constant": true
    },
    {
      "inputs": [
        {
          "internalType": "address",
          "name": "from",
          "type": "address"
        },
        {
          "internalType": "address",
          "name": "to",
          "type": "address"
        },
        {
          "internalType": "uint256",
          "name": "tokenId",
          "type": "uint256"
        }
      ],
      "name": "transferFrom",
      "outputs": [],
      "stateMutability": "nonpayable",
      "type": "function"
    },
    {
      "inputs": [
        {
          "internalType": "string",
          "name": "tokenURI",
          "type": "string"
        }
      ],
      "name": "createNFT",
      "outputs": [
        {
          "internalType": "uint256",
          "name": "",
          "type": "uint256"
        }
      ],
      "stateMutability": "nonpayable",
      "type": "function"
    },
    {
      "inputs": [
        {
          "internalType": "uint256",
          "name": "tokenId",
          "type": "uint256"
        },
        {
          "internalType": "bool",
          "name": "transferable",
          "type": "bool"
        }
      ],
      "name": "setTransferable",
      "outputs": [],
      "stateMutability": "nonpayable",
      "type": "function"
    },
    {
      "inputs": [
        {
          "internalType": "uint256",
          "name": "tokenId",
          "type": "uint256"
        },
        {
          "internalType": "bool",
          "name": "forSale",
          "type": "bool"
        }
      ],
      "name": "setForSale",
      "outputs": [],
      "stateMutability": "nonpayable",
      "type": "function"
    },
    {
      "inputs": [],
      "name": "getAllForSale",
      "outputs": [
        {
          "internalType": "uint256[]",
          "name": "",
          "type": "uint256[]"
        }
      ],
      "stateMutability": "view",
      "type": "function",
      "constant": true
    },
    {
      "inputs": [],
      "name": "getMyNFTs",
      "outputs": [
        {
          "internalType": "uint256[]",
          "name": "",
          "type": "uint256[]"
        }
      ],
      "stateMutability": "view",
      "type": "function",
      "constant": true
    },
    {
      "inputs": [
        {
          "internalType": "address",
          "name": "from",
          "type": "address"
        },
        {
          "internalType": "address",
          "name": "to",
          "type": "address"
        },
        {
          "internalType": "uint256",
          "name": "tokenId",
          "type": "uint256"
        }
      ],
      "name": "exchangeNFT",
      "outputs": [],
      "stateMutability": "nonpayable",
      "type": "function"
    }
  ],
  "bytecode": "0x60806040523480156200001157600080fd5b506040516200448e3803806200448e833981810160405281019062000037919062000346565b6040518060400160405280600881526020017f4e65726f734e46540000000000000000000000000000000000000000000000008152506040518060400160405280600481526020017f4e524f54000000000000000000000000000000000000000000000000000000008152508160009080519060200190620000bb9291906200022c565b508060019080519060200190620000d49291906200022c565b5033600260006101000a81548173ffffffffffffffffffffffffffffffffffffffff021916908373ffffffffffffffffffffffffffffffffffffffff1602179055506001600a6000600260009054906101000a900473ffffffffffffffffffffffffffffffffffffffff1673ffffffffffffffffffffffffffffffffffffffff1673ffffffffffffffffffffffffffffffffffffffff16815260200190815260200160002060006101000a81548160ff02191690831515021790555050506000600c819055506000600d8190555081600e60006101000a81548173ffffffffffffffffffffffffffffffffffffffff021916908373ffffffffffffffffffffffffffffffffffffffff16021790555080600f60006101000a81548173ffffffffffffffffffffffffffffffffffffffff021916908373ffffffffffffffffffffffffffffffffffffffff1602179055505050620003f1565b8280546200023a90620003bc565b90600052602060002090601f0160209004810192826200025e5760008555620002aa565b82601f106200027957805160ff1916838001178555620002aa565b82800160010185558215620002aa579182015b82811115620002a95782518255916020019190600101906200028c565b5b509050620002b99190620002bd565b5090565b5b80821115620002d8576000816000905550600101620002be565b5090565b600080fd5b600073ffffffffffffffffffffffffffffffffffffffff82169050919050565b60006200030e82620002e1565b9050919050565b620003208162000301565b81146200032c57600080fd5b50565b600081519050620003408162000315565b92915050565b6000806040838503121562000360576200035f620002dc565b5b600062000370858286016200032f565b925050602062000383858286016200032f565b9150509250929050565b7f4e487b7100000000000000000000000000000000000000000000000000000000600052602260045260246000fd5b60006002820490506001821680620003d557607f821691505b602082108103620003eb57620003ea6200038d565b5b50919050565b61408d80620004016000396000f3fe608060405234801561001057600080fd5b50600436106101a95760003560e01c80638546d002116100f9578063c87b56dd11610097578063dfe28fbf11610071578063dfe28fbf146104f4578063e235238614610510578063e985e9c51461052c578063f0a6c16b1461055c576101a9565b8063c87b56dd14610476578063d082e381146104a6578063da2ed03e146104c4576101a9565b806395d89b41116100d357806395d89b41146103f0578063a22cb4651461040e578063b25645691461042a578063b88d4fde1461045a576101a9565b80638546d0021461038657806389fa2c03146103b65780638da5cb5b146103d2576101a9565b806342842e0e116101665780634499efaa116101405780634499efaa146102ea578063629cb2e4146103085780636352211e1461032657806370a0823114610356576101a9565b806342842e0e1461028257806342966c681461029e578063429b62e5146102ba576101a9565b806301ffc9a7146101ae57806306fdde03146101de578063081812fc146101fc578063095ea7b31461022c578063232462b61461024857806323b872dd14610266575b600080fd5b6101c860048036038101906101c39190612879565b610578565b6040516101d591906128c1565b60405180910390f35b6101e66105e2565b6040516101f39190612975565b60405180910390f35b610216600480360381019061021191906129cd565b610670565b6040516102239190612a3b565b60405180910390f35b61024660048036038101906102419190612a82565b61074e565b005b610250610882565b60405161025d9190612b80565b60405180910390f35b610280600480360381019061027b9190612ba2565b61094f565b005b61029c60048036038101906102979190612ba2565b61095f565b005b6102b860048036038101906102b391906129cd565b6109d3565b005b6102d460048036038101906102cf9190612bf5565b610eb9565b6040516102e191906128c1565b60405180910390f35b6102f2610ed9565b6040516102ff9190612c31565b60405180910390f35b610310610edf565b60405161031d9190612b80565b60405180910390f35b610340600480360381019061033b91906129cd565b610f74565b60405161034d9190612a3b565b60405180910390f35b610370600480360381019061036b9190612bf5565b611052565b60405161037d9190612c31565b60405180910390f35b6103a0600480360381019061039b91906129cd565b611109565b6040516103ad91906128c1565b60405180910390f35b6103d060048036038101906103cb9190612c78565b611129565b005b6103da611214565b6040516103e79190612a3b565b60405180910390f35b6103f861123a565b6040516104059190612975565b60405180910390f35b61042860048036038101906104239190612c78565b6112c8565b005b610444600480360381019061043f91906129cd565b611433565b60405161045191906128c1565b60405180910390f35b610474600480360381019061046f9190612d1d565b611453565b005b610490600480360381019061048b91906129cd565b6114f4565b60405161049d9190612975565b60405180910390f35b6104ae6115da565b6040516104bb9190612c31565b60405180910390f35b6104de60048036038101906104d99190612ed5565b6115e0565b6040516104eb9190612c31565b60405180910390f35b61050e60048036038101906105099190612f1e565b6116ad565b005b61052a60048036038101906105259190612ba2565b611796565b005b61054660048036038101906105419190612f5e565b611806565b60405161055391906128c1565b60405180910390f35b61057660048036038101906105719190612f1e565b61189a565b005b60007f80ac58cd000000000000000000000000000000000000000000000000000000007bffffffffffffffffffffffffffffffffffffffffffffffffffffffff1916827bffffffffffffffffffffffffffffffffffffffffffffffffffffffff1916149050919050565b600080546105ef90612fcd565b80601f016020809104026020016040519081016040528092919081815260200182805461061b90612fcd565b80156106685780601f1061063d57610100808354040283529160200191610668565b820191906000526020600020905b81548152906001019060200180831161064b57829003601f168201915b505050505081565b60008073ffffffffffffffffffffffffffffffffffffffff166004600084815260200190815260200160002060009054906101000a900473ffffffffffffffffffffffffffffffffffffffff1673ffffffffffffffffffffffffffffffffffffffff1603610713576040517f08c379a000000000000000000000000000000000000000000000000000000000815260040161070a90613070565b60405180910390fd5b6005600083815260200190815260200160002060009054906101000a900473ffffffffffffffffffffffffffffffffffffffff169050919050565b60006004600083815260200190815260200160002060009054906101000a900473ffffffffffffffffffffffffffffffffffffffff1690508073ffffffffffffffffffffffffffffffffffffffff168373ffffffffffffffffffffffffffffffffffffffff16036107f4576040517f08c379a00000000000000000000000000000000000000000000000000000000081526004016107eb90613102565b60405180910390fd5b8073ffffffffffffffffffffffffffffffffffffffff163373ffffffffffffffffffffffffffffffffffffffff16148061083457506108338133611806565b5b610873576040517f08c379a000000000000000000000000000000000000000000000000000000000815260040161086a90613194565b60405180910390fd5b61087d8383611955565b505050565b60606000600c5467ffffffffffffffff8111156108a2576108a1612daa565b5b6040519080825280602002602001820160405280156108d05781602001602082028036833780820191505090505b5090506000805b600c54811161094657600b600082815260200190815260200160002060009054906101000a900460ff16156109335780838380610913906131e3565b9450815181106109265761092561322b565b5b6020026020010181815250505b808061093e906131e3565b9150506108d7565b50819250505090565b61095a838383611a39565b505050565b3073ffffffffffffffffffffffffffffffffffffffff1663b88d4fde8484846040518463ffffffff1660e01b815260040161099c93929190613291565b600060405180830381600087803b1580156109b657600080fd5b505af11580156109ca573d6000803e3d6000fd5b50505050505050565b60006004600083815260200190815260200160002060009054906101000a900473ffffffffffffffffffffffffffffffffffffffff169050600073ffffffffffffffffffffffffffffffffffffffff168173ffffffffffffffffffffffffffffffffffffffff1603610a7a576040517f08c379a0000000000000000000000000000000000000000000000000000000008152600401610a719061334d565b60405180910390fd5b3373ffffffffffffffffffffffffffffffffffffffff168173ffffffffffffffffffffffffffffffffffffffff16148015610ad257506009600083815260200190815260200160002060009054906101000a900460ff165b80610b265750600a60003373ffffffffffffffffffffffffffffffffffffffff1673ffffffffffffffffffffffffffffffffffffffff16815260200190815260200160002060009054906101000a900460ff165b610b65576040517f08c379a0000000000000000000000000000000000000000000000000000000008152600401610b5c90613451565b60405180910390fd5b610b70600083611955565b600360008273ffffffffffffffffffffffffffffffffffffffff1673ffffffffffffffffffffffffffffffffffffffff1681526020019081526020016000206000815480929190610bc090613471565b919050555060006009600084815260200190815260200160002060006101000a81548160ff0219169083151502179055506000610c8a600860008473ffffffffffffffffffffffffffffffffffffffff1673ffffffffffffffffffffffffffffffffffffffff168152602001908152602001600020805480602002602001604051908101604052809291908181526020018280548015610c7f57602002820191906000526020600020905b815481526020019060010190808311610c6b575b50505050508461206d565b905060008112610e0357600860008373ffffffffffffffffffffffffffffffffffffffff1673ffffffffffffffffffffffffffffffffffffffff1681526020019081526020016000206001600860008573ffffffffffffffffffffffffffffffffffffffff1673ffffffffffffffffffffffffffffffffffffffff16815260200190815260200160002080549050610d22919061349a565b81548110610d3357610d3261322b565b5b9060005260206000200154600860008473ffffffffffffffffffffffffffffffffffffffff1673ffffffffffffffffffffffffffffffffffffffff1681526020019081526020016000208281548110610d8f57610d8e61322b565b5b9060005260206000200181905550600860008373ffffffffffffffffffffffffffffffffffffffff1673ffffffffffffffffffffffffffffffffffffffff168152602001908152602001600020805480610dec57610deb6134ce565b5b600190038181906000526020600020016000905590555b6004600084815260200190815260200160002060006101000a81549073ffffffffffffffffffffffffffffffffffffffff0219169055600760008481526020019081526020016000206000610e58919061272a565b82600073ffffffffffffffffffffffffffffffffffffffff168373ffffffffffffffffffffffffffffffffffffffff167fddf252ad1be2c89b69c2b068fc378daa952ba7f163c4a11628f55a4df523b3ef60405160405180910390a4505050565b600a6020528060005260406000206000915054906101000a900460ff1681565b600d5481565b6060600860003373ffffffffffffffffffffffffffffffffffffffff1673ffffffffffffffffffffffffffffffffffffffff168152602001908152602001600020805480602002602001604051908101604052809291908181526020018280548015610f6a57602002820191906000526020600020905b815481526020019060010190808311610f56575b5050505050905090565b60008073ffffffffffffffffffffffffffffffffffffffff166004600084815260200190815260200160002060009054906101000a900473ffffffffffffffffffffffffffffffffffffffff1673ffffffffffffffffffffffffffffffffffffffff1603611017576040517f08c379a000000000000000000000000000000000000000000000000000000000815260040161100e90613070565b60405180910390fd5b6004600083815260200190815260200160002060009054906101000a900473ffffffffffffffffffffffffffffffffffffffff169050919050565b60008073ffffffffffffffffffffffffffffffffffffffff168273ffffffffffffffffffffffffffffffffffffffff16036110c2576040517f08c379a00000000000000000000000000000000000000000000000000000000081526004016110b99061356f565b60405180910390fd5b600360008373ffffffffffffffffffffffffffffffffffffffff1673ffffffffffffffffffffffffffffffffffffffff168152602001908152602001600020549050919050565b600b6020528060005260406000206000915054906101000a900460ff1681565b600260009054906101000a900473ffffffffffffffffffffffffffffffffffffffff1673ffffffffffffffffffffffffffffffffffffffff163373ffffffffffffffffffffffffffffffffffffffff16146111b9576040517f08c379a00000000000000000000000000000000000000000000000000000000081526004016111b090613601565b60405180910390fd5b80600a60008473ffffffffffffffffffffffffffffffffffffffff1673ffffffffffffffffffffffffffffffffffffffff16815260200190815260200160002060006101000a81548160ff0219169083151502179055505050565b600260009054906101000a900473ffffffffffffffffffffffffffffffffffffffff1681565b6001805461124790612fcd565b80601f016020809104026020016040519081016040528092919081815260200182805461127390612fcd565b80156112c05780601f10611295576101008083540402835291602001916112c0565b820191906000526020600020905b8154815290600101906020018083116112a357829003601f168201915b505050505081565b8173ffffffffffffffffffffffffffffffffffffffff163373ffffffffffffffffffffffffffffffffffffffff1603611336576040517f08c379a000000000000000000000000000000000000000000000000000000000815260040161132d90613693565b60405180910390fd5b80600660003373ffffffffffffffffffffffffffffffffffffffff1673ffffffffffffffffffffffffffffffffffffffff16815260200190815260200160002060008473ffffffffffffffffffffffffffffffffffffffff1673ffffffffffffffffffffffffffffffffffffffff16815260200190815260200160002060006101000a81548160ff0219169083151502179055508173ffffffffffffffffffffffffffffffffffffffff163373ffffffffffffffffffffffffffffffffffffffff167f17307eab39ab6107e8899845ad3d59bd9653f200f220920489ca2b5937696c318360405161142791906128c1565b60405180910390a35050565b60096020528060005260406000206000915054906101000a900460ff1681565b61145e858585611a39565b6114ae85858585858080601f016020809104026020016040519081016040528093929190818152602001838380828437600081840152601f19601f820116905080830192505050505050506120f1565b6114ed576040517f08c379a00000000000000000000000000000000000000000000000000000000081526004016114e49061374b565b60405180910390fd5b5050505050565b6060600073ffffffffffffffffffffffffffffffffffffffff166004600084815260200190815260200160002060009054906101000a900473ffffffffffffffffffffffffffffffffffffffff1673ffffffffffffffffffffffffffffffffffffffff1603611598576040517f08c379a000000000000000000000000000000000000000000000000000000000815260040161158f906137dd565b60405180910390fd5b6115a061225b565b600760008481526020019081526020016000206040516020016115c49291906138cd565b6040516020818303038152906040529050919050565b600c5481565b600080600c549050600e60009054906101000a900473ffffffffffffffffffffffffffffffffffffffff1673ffffffffffffffffffffffffffffffffffffffff16633aa3a87e3360016040518363ffffffff1660e01b8152600401611646929190613936565b600060405180830381600087803b15801561166057600080fd5b505af1158015611674573d6000803e3d6000fd5b505050506116823382612272565b61168c8184612290565b600c600081548092919061169f906131e3565b919050555080915050919050565b600a60003373ffffffffffffffffffffffffffffffffffffffff1673ffffffffffffffffffffffffffffffffffffffff16815260200190815260200160002060009054906101000a900460ff16611739576040517f08c379a0000000000000000000000000000000000000000000000000000000008152600401611730906139d1565b60405180910390fd5b600d600081548092919061174c906131e3565b919050555080156117885760016009600084815260200190815260200160002060006101000a81548160ff021916908315150217905550611792565b611791826109d3565b5b5050565b600b600082815260200190815260200160002060009054906101000a900460ff166117f6576040517f08c379a00000000000000000000000000000000000000000000000000000000081526004016117ed90613a63565b60405180910390fd5b61180183838361095f565b505050565b6000600660008473ffffffffffffffffffffffffffffffffffffffff1673ffffffffffffffffffffffffffffffffffffffff16815260200190815260200160002060008373ffffffffffffffffffffffffffffffffffffffff1673ffffffffffffffffffffffffffffffffffffffff16815260200190815260200160002060009054906101000a900460ff16905092915050565b6118a4338361235e565b6118e3576040517f08c379a00000000000000000000000000000000000000000000000000000000081526004016118da90613b1b565b60405180910390fd5b80600b600084815260200190815260200160002060006101000a81548160ff021916908315150217905550801561194557611940600f60009054906101000a900473ffffffffffffffffffffffffffffffffffffffff1683611955565b611951565b611950600083611955565b5b5050565b816005600083815260200190815260200160002060006101000a81548173ffffffffffffffffffffffffffffffffffffffff021916908373ffffffffffffffffffffffffffffffffffffffff160217905550808273ffffffffffffffffffffffffffffffffffffffff166004600084815260200190815260200160002060009054906101000a900473ffffffffffffffffffffffffffffffffffffffff1673ffffffffffffffffffffffffffffffffffffffff167f8c5be1e5ebec7d5bd14f71427d1e84f3dd0314c0f7b2291e5b200ac8c7c3b92560405160405180910390a45050565b600073ffffffffffffffffffffffffffffffffffffffff168373ffffffffffffffffffffffffffffffffffffffff1603611aa8576040517f08c379a0000000000000000000000000000000000000000000000000000000008152600401611a9f90613bad565b60405180910390fd5b600073ffffffffffffffffffffffffffffffffffffffff168273ffffffffffffffffffffffffffffffffffffffff1603611b17576040517f08c379a0000000000000000000000000000000000000000000000000000000008152600401611b0e90613c3f565b60405180910390fd5b8273ffffffffffffffffffffffffffffffffffffffff166004600083815260200190815260200160002060009054906101000a900473ffffffffffffffffffffffffffffffffffffffff1673ffffffffffffffffffffffffffffffffffffffff1614611bb8576040517f08c379a0000000000000000000000000000000000000000000000000000000008152600401611baf90613cd1565b60405180910390fd5b6009600082815260200190815260200160002060009054906101000a900460ff16611c18576040517f08c379a0000000000000000000000000000000000000000000000000000000008152600401611c0f90613d89565b60405180910390fd5b611c22338261235e565b611c61576040517f08c379a0000000000000000000000000000000000000000000000000000000008152600401611c5890613e41565b60405180910390fd5b611c6c600082611955565b600360008473ffffffffffffffffffffffffffffffffffffffff1673ffffffffffffffffffffffffffffffffffffffff1681526020019081526020016000206000815480929190611cbc90613471565b9190505550600360008373ffffffffffffffffffffffffffffffffffffffff1673ffffffffffffffffffffffffffffffffffffffff1681526020019081526020016000206000815480929190611d11906131e3565b91905055506000611daf600860008673ffffffffffffffffffffffffffffffffffffffff1673ffffffffffffffffffffffffffffffffffffffff168152602001908152602001600020805480602002602001604051908101604052809291908181526020018280548015611da457602002820191906000526020600020905b815481526020019060010190808311611d90575b50505050508361206d565b905060008112611f2857600860008573ffffffffffffffffffffffffffffffffffffffff1673ffffffffffffffffffffffffffffffffffffffff1681526020019081526020016000206001600860008773ffffffffffffffffffffffffffffffffffffffff1673ffffffffffffffffffffffffffffffffffffffff16815260200190815260200160002080549050611e47919061349a565b81548110611e5857611e5761322b565b5b9060005260206000200154600860008673ffffffffffffffffffffffffffffffffffffffff1673ffffffffffffffffffffffffffffffffffffffff1681526020019081526020016000208281548110611eb457611eb361322b565b5b9060005260206000200181905550600860008573ffffffffffffffffffffffffffffffffffffffff1673ffffffffffffffffffffffffffffffffffffffff168152602001908152602001600020805480611f1157611f106134ce565b5b600190038181906000526020600020016000905590555b600860008473ffffffffffffffffffffffffffffffffffffffff1673ffffffffffffffffffffffffffffffffffffffff168152602001908152602001600020829080600181540180825580915050600190039060005260206000200160009091909190915055826004600084815260200190815260200160002060006101000a81548173ffffffffffffffffffffffffffffffffffffffff021916908373ffffffffffffffffffffffffffffffffffffffff1602179055506000600b600084815260200190815260200160002060006101000a81548160ff021916908315150217905550818373ffffffffffffffffffffffffffffffffffffffff168573ffffffffffffffffffffffffffffffffffffffff167fddf252ad1be2c89b69c2b068fc378daa952ba7f163c4a11628f55a4df523b3ef60405160405180910390a450505050565b600080600090505b60018451612083919061349a565b81116120c6578284828151811061209d5761209c61322b565b5b6020026020010151036120b357809150506120eb565b80806120be906131e3565b915050612075565b507fffffffffffffffffffffffffffffffffffffffffffffffffffffffffffffffff90505b92915050565b60006120fc8461244c565b1561224e578373ffffffffffffffffffffffffffffffffffffffff1663150b7a02338786866040518563ffffffff1660e01b81526004016121409493929190613ea5565b6020604051808303816000875af192505050801561217c57506040513d601f19601f820116820180604052508101906121799190613f06565b60015b6121fe573d80600081146121ac576040519150601f19603f3d011682016040523d82523d6000602084013e6121b1565b606091505b5060008151036121f6576040517f08c379a00000000000000000000000000000000000000000000000000000000081526004016121ed9061374b565b60405180910390fd5b805181602001fd5b63150b7a0260e01b7bffffffffffffffffffffffffffffffffffffffffffffffffffffffff1916817bffffffffffffffffffffffffffffffffffffffffffffffffffffffff191614915050612253565b600190505b949350505050565b606060405180602001604052806000815250905090565b61228c82826040518060200160405280600081525061245f565b5050565b600073ffffffffffffffffffffffffffffffffffffffff166004600084815260200190815260200160002060009054906101000a900473ffffffffffffffffffffffffffffffffffffffff1673ffffffffffffffffffffffffffffffffffffffff1603612332576040517f08c379a000000000000000000000000000000000000000000000000000000000815260040161232990613fa5565b60405180910390fd5b8060076000848152602001908152602001600020908051906020019061235992919061276a565b505050565b60008273ffffffffffffffffffffffffffffffffffffffff166004600084815260200190815260200160002060009054906101000a900473ffffffffffffffffffffffffffffffffffffffff1673ffffffffffffffffffffffffffffffffffffffff16148061240057508273ffffffffffffffffffffffffffffffffffffffff166123e883610670565b73ffffffffffffffffffffffffffffffffffffffff16145b8061244457506124436004600084815260200190815260200160002060009054906101000a900473ffffffffffffffffffffffffffffffffffffffff1684611806565b5b905092915050565b600080823b905060008111915050919050565b600073ffffffffffffffffffffffffffffffffffffffff168373ffffffffffffffffffffffffffffffffffffffff16036124ce576040517f08c379a00000000000000000000000000000000000000000000000000000000081526004016124c590613c3f565b60405180910390fd5b600073ffffffffffffffffffffffffffffffffffffffff166004600084815260200190815260200160002060009054906101000a900473ffffffffffffffffffffffffffffffffffffffff1673ffffffffffffffffffffffffffffffffffffffff1614612570576040517f08c379a000000000000000000000000000000000000000000000000000000000815260040161256790614037565b60405180910390fd5b600360008473ffffffffffffffffffffffffffffffffffffffff1673ffffffffffffffffffffffffffffffffffffffff16815260200190815260200160002060008154809291906125c0906131e3565b9190505550826004600084815260200190815260200160002060006101000a81548173ffffffffffffffffffffffffffffffffffffffff021916908373ffffffffffffffffffffffffffffffffffffffff160217905550600860008473ffffffffffffffffffffffffffffffffffffffff1673ffffffffffffffffffffffffffffffffffffffff168152602001908152602001600020829080600181540180825580915050600190039060005260206000200160009091909190915055818373ffffffffffffffffffffffffffffffffffffffff16600073ffffffffffffffffffffffffffffffffffffffff167fddf252ad1be2c89b69c2b068fc378daa952ba7f163c4a11628f55a4df523b3ef60405160405180910390a46126e660008484846120f1565b612725576040517f08c379a000000000000000000000000000000000000000000000000000000000815260040161271c9061374b565b60405180910390fd5b505050565b50805461273690612fcd565b6000825580601f106127485750612767565b601f01602090049060005260206000209081019061276691906127f0565b5b50565b82805461277690612fcd565b90600052602060002090601f01602090048101928261279857600085556127df565b82601f106127b157805160ff19168380011785556127df565b828001600101855582156127df579182015b828111156127de5782518255916020019190600101906127c3565b5b5090506127ec91906127f0565b5090565b5b808211156128095760008160009055506001016127f1565b5090565b6000604051905090565b600080fd5b600080fd5b60007fffffffff0000000000000000000000000000000000000000000000000000000082169050919050565b61285681612821565b811461286157600080fd5b50565b6000813590506128738161284d565b92915050565b60006020828403121561288f5761288e612817565b5b600061289d84828501612864565b91505092915050565b60008115159050919050565b6128bb816128a6565b82525050565b60006020820190506128d660008301846128b2565b92915050565b600081519050919050565b600082825260208201905092915050565b60005b838110156129165780820151818401526020810190506128fb565b83811115612925576000848401525b50505050565b6000601f19601f8301169050919050565b6000612947826128dc565b61295181856128e7565b93506129618185602086016128f8565b61296a8161292b565b840191505092915050565b6000602082019050818103600083015261298f818461293c565b905092915050565b6000819050919050565b6129aa81612997565b81146129b557600080fd5b50565b6000813590506129c7816129a1565b92915050565b6000602082840312156129e3576129e2612817565b5b60006129f1848285016129b8565b91505092915050565b600073ffffffffffffffffffffffffffffffffffffffff82169050919050565b6000612a25826129fa565b9050919050565b612a3581612a1a565b82525050565b6000602082019050612a506000830184612a2c565b92915050565b612a5f81612a1a565b8114612a6a57600080fd5b50565b600081359050612a7c81612a56565b92915050565b60008060408385031215612a9957612a98612817565b5b6000612aa785828601612a6d565b9250506020612ab8858286016129b8565b9150509250929050565b600081519050919050565b600082825260208201905092915050565b6000819050602082019050919050565b612af781612997565b82525050565b6000612b098383612aee565b60208301905092915050565b6000602082019050919050565b6000612b2d82612ac2565b612b378185612acd565b9350612b4283612ade565b8060005b83811015612b73578151612b5a8882612afd565b9750612b6583612b15565b925050600181019050612b46565b5085935050505092915050565b60006020820190508181036000830152612b9a8184612b22565b905092915050565b600080600060608486031215612bbb57612bba612817565b5b6000612bc986828701612a6d565b9350506020612bda86828701612a6d565b9250506040612beb868287016129b8565b9150509250925092565b600060208284031215612c0b57612c0a612817565b5b6000612c1984828501612a6d565b91505092915050565b612c2b81612997565b82525050565b6000602082019050612c466000830184612c22565b92915050565b612c55816128a6565b8114612c6057600080fd5b50565b600081359050612c7281612c4c565b92915050565b60008060408385031215612c8f57612c8e612817565b5b6000612c9d85828601612a6d565b9250506020612cae85828601612c63565b9150509250929050565b600080fd5b600080fd5b600080fd5b60008083601f840112612cdd57612cdc612cb8565b5b8235905067ffffffffffffffff811115612cfa57612cf9612cbd565b5b602083019150836001820283011115612d1657612d15612cc2565b5b9250929050565b600080600080600060808688031215612d3957612d38612817565b5b6000612d4788828901612a6d565b9550506020612d5888828901612a6d565b9450506040612d69888289016129b8565b935050606086013567ffffffffffffffff811115612d8a57612d8961281c565b5b612d9688828901612cc7565b92509250509295509295909350565b600080fd5b7f4e487b7100000000000000000000000000000000000000000000000000000000600052604160045260246000fd5b612de28261292b565b810181811067ffffffffffffffff82111715612e0157612e00612daa565b5b80604052505050565b6000612e1461280d565b9050612e208282612dd9565b919050565b600067ffffffffffffffff821115612e4057612e3f612daa565b5b612e498261292b565b9050602081019050919050565b82818337600083830152505050565b6000612e78612e7384612e25565b612e0a565b905082815260208101848484011115612e9457612e93612da5565b5b612e9f848285612e56565b509392505050565b600082601f830112612ebc57612ebb612cb8565b5b8135612ecc848260208601612e65565b91505092915050565b600060208284031215612eeb57612eea612817565b5b600082013567ffffffffffffffff811115612f0957612f0861281c565b5b612f1584828501612ea7565b91505092915050565b60008060408385031215612f3557612f34612817565b5b6000612f43858286016129b8565b9250506020612f5485828601612c63565b9150509250929050565b60008060408385031215612f7557612f74612817565b5b6000612f8385828601612a6d565b9250506020612f9485828601612a6d565b9150509250929050565b7f4e487b7100000000000000000000000000000000000000000000000000000000600052602260045260246000fd5b60006002820490506001821680612fe557607f821691505b602082108103612ff857612ff7612f9e565b5b50919050565b7f4552433732313a20546f6b656e207769746820656e746572656420494420646f60008201527f6573206e6f742065786973740000000000000000000000000000000000000000602082015250565b600061305a602c836128e7565b915061306582612ffe565b604082019050919050565b600060208201905081810360008301526130898161304d565b9050919050565b7f4552433732313a206f776e65722063616e6e6f7420617070726f76652068696d60008201527f73656c662f68657273656c660000000000000000000000000000000000000000602082015250565b60006130ec602c836128e7565b91506130f782613090565b604082019050919050565b6000602082019050818103600083015261311b816130df565b9050919050565b7f4552433732313a2063616c6c6572206d757374206f776e2074686520746f6b6560008201527f6e206f7220626520617070726f76656420666f7220616c6c0000000000000000602082015250565b600061317e6038836128e7565b915061318982613122565b604082019050919050565b600060208201905081810360008301526131ad81613171565b9050919050565b7f4e487b7100000000000000000000000000000000000000000000000000000000600052601160045260246000fd5b60006131ee82612997565b91507fffffffffffffffffffffffffffffffffffffffffffffffffffffffffffffffff82036132205761321f6131b4565b5b600182019050919050565b7f4e487b7100000000000000000000000000000000000000000000000000000000600052603260045260246000fd5b600082825260208201905092915050565b50565b600061327b60008361325a565b91506132868261326b565b600082019050919050565b60006080820190506132a66000830186612a2c565b6132b36020830185612a2c565b6132c06040830184612c22565b81810360608301526132d18161326e565b9050949350505050565b7f4552433732313a206e6f20746f6b656e2077697468207468652073706563696660008201527f69656420494420776173206d696e746564206265666f72650000000000000000602082015250565b60006133376038836128e7565b9150613342826132db565b604082019050919050565b600060208201905081810360008301526133668161332a565b9050919050565b7f4552433732313a206120746f6b656e207769746820746865207370656369666960008201527f6564204944206973206e6f74206f776e6564206279207468652073656e64657260208201527f2c206f72206973206e6f74207472616e7366657261626c65207965742c206f7260408201527f207468652063616c6c6572206d6179206e6f7420626520616e2061646d696e2060608201527f746f20626520616c6c6f77656420746f206275726e2069740000000000000000608082015250565b600061343b6098836128e7565b91506134468261336d565b60a082019050919050565b6000602082019050818103600083015261346a8161342e565b9050919050565b600061347c82612997565b91506000820361348f5761348e6131b4565b5b600182039050919050565b60006134a582612997565b91506134b083612997565b9250828210156134c3576134c26131b4565b5b828203905092915050565b7f4e487b7100000000000000000000000000000000000000000000000000000000600052603160045260246000fd5b7f4552433732313a2061646472657373206f776e65722063616e6e6f742062652060008201527f746865207a65726f206164647265737300000000000000000000000000000000602082015250565b60006135596030836128e7565b9150613564826134fd565b604082019050919050565b600060208201905081810360008301526135888161354c565b9050919050565b7f4552433732313a204f6e6c79206f776e657220697320616c6c6f77656420746f60008201527f20646f20746869732066756e6374696f6e616c69747900000000000000000000602082015250565b60006135eb6036836128e7565b91506135f68261358f565b604082019050919050565b6000602082019050818103600083015261361a816135de565b9050919050565b7f4552433732313a2073656e6465722063616e6e6f742073657420617070726f7660008201527f616c20666f722068696d73656c662f68657273656c6600000000000000000000602082015250565b600061367d6036836128e7565b915061368882613621565b604082019050919050565b600060208201905081810360008301526136ac81613670565b9050919050565b7f4552433732313a207472616e736665722063616e6e6f7420636f6d706c65746560008201527f20746f206120736d61727420636f6e7472616374206e6f7420696d706c656d6560208201527f6e74696e67204552433732315265636569766572000000000000000000000000604082015250565b60006137356054836128e7565b9150613740826136b3565b606082019050919050565b6000602082019050818103600083015261376481613728565b9050919050565b7f4552433732313a2063616e6e6f742067657420555249206f66206e6f6e65786960008201527f7374656e7420746f6b656e000000000000000000000000000000000000000000602082015250565b60006137c7602b836128e7565b91506137d28261376b565b604082019050919050565b600060208201905081810360008301526137f6816137ba565b9050919050565b600081905092915050565b6000613813826128dc565b61381d81856137fd565b935061382d8185602086016128f8565b80840191505092915050565b60008190508160005260206000209050919050565b6000815461385b81612fcd565b61386581866137fd565b945060018216600081146138805760018114613891576138c4565b60ff198316865281860193506138c4565b61389a85613839565b60005b838110156138bc5781548189015260018201915060208101905061389d565b838801955050505b50505092915050565b60006138d98285613808565b91506138e5828461384e565b91508190509392505050565b6000819050919050565b6000819050919050565b600061392061391b613916846138f1565b6138fb565b612997565b9050919050565b61393081613905565b82525050565b600060408201905061394b6000830185612a2c565b6139586020830184613927565b9392505050565b7f4552433732313a204f6e6c792061646d696e732061726520616c6c6f7765642060008201527f746f20646f20746869732066756e6374696f6e616c6974790000000000000000602082015250565b60006139bb6038836128e7565b91506139c68261395f565b604082019050919050565b600060208201905081810360008301526139ea816139ae565b9050919050565b7f4e65726f734e46543a205468697320746f6b656e206973206e6f7420666f722060008201527f73616c6500000000000000000000000000000000000000000000000000000000602082015250565b6000613a4d6024836128e7565b9150613a58826139f1565b604082019050919050565b60006020820190508181036000830152613a7c81613a40565b9050919050565b7f4e65726f734e46543a2053656e646572206973206e656974686572207468652060008201527f6f776e6572206e6f7220617070726f76656420746f20646f207468697320747260208201527f616e73616374696f6e0000000000000000000000000000000000000000000000604082015250565b6000613b056049836128e7565b9150613b1082613a83565b606082019050919050565b60006020820190508181036000830152613b3481613af8565b9050919050565b7f4552433732313a2066726f6d206164647265737320656e74657265642063616e60008201527f6e6f7420626520746865207a65726f2061646472657373000000000000000000602082015250565b6000613b976037836128e7565b9150613ba282613b3b565b604082019050919050565b60006020820190508181036000830152613bc681613b8a565b9050919050565b7f4552433732313a20746f206164647265737320656e74657265642063616e6e6f60008201527f7420626520746865207a65726f20616464726573730000000000000000000000602082015250565b6000613c296035836128e7565b9150613c3482613bcd565b604082019050919050565b60006020820190508181036000830152613c5881613c1c565b9050919050565b7f4552433732313a20546f6b656e207769746820656e746572656420494420697360008201527f206e6f74206f776e6564206279207468652066726f6d20616464726573730000602082015250565b6000613cbb603e836128e7565b9150613cc682613c5f565b604082019050919050565b60006020820190508181036000830152613cea81613cae565b9050919050565b7f4552433732313a20546f6b656e2063616e6e6f74206265207472616e7366657260008201527f656420796574206173207472616e73666572206f662073746f636b206f776e6560208201527f7273686970206973206e6f742079657420766572696669656400000000000000604082015250565b6000613d736059836128e7565b9150613d7e82613cf1565b606082019050919050565b60006020820190508181036000830152613da281613d66565b9050919050565b7f4552433732313a2053656e646572206973206e65697468657220746865206f7760008201527f6e6572206e6f7220617070726f76656420746f20646f2074686973207472616e60208201527f73616374696f6e00000000000000000000000000000000000000000000000000604082015250565b6000613e2b6047836128e7565b9150613e3682613da9565b606082019050919050565b60006020820190508181036000830152613e5a81613e1e565b9050919050565b600081519050919050565b6000613e7782613e61565b613e81818561325a565b9350613e918185602086016128f8565b613e9a8161292b565b840191505092915050565b6000608082019050613eba6000830187612a2c565b613ec76020830186612a2c565b613ed46040830185612c22565b8181036060830152613ee68184613e6c565b905095945050505050565b600081519050613f008161284d565b92915050565b600060208284031215613f1c57613f1b612817565b5b6000613f2a84828501613ef1565b91505092915050565b7f4552433732313a2063616e6e6f742073657420555249206f662061206e6f6e6560008201527f78697374656e7420746f6b656e00000000000000000000000000000000000000602082015250565b6000613f8f602d836128e7565b9150613f9a82613f33565b604082019050919050565b60006020820190508181036000830152613fbe81613f82565b9050919050565b7f4552433732313a206120746f6b656e207769746820746865207370656369666960008201527f656420494420697320616c7265616479206d696e746564000000000000000000602082015250565b60006140216037836128e7565b915061402c82613fc5565b604082019050919050565b6000602082019050818103600083015261405081614014565b905091905056fea2646970667358221220f06446a47c463f8c26758dcffc710714abacb9aa82de62006d9796a4df002d1d64736f6c634300080d0033",
  "immutableReferences": {},
  "source": "//SPDX-License-Identifier: MIT\r\npragma solidity ^0.8.13;\r\n\r\nimport \"./ERC721.sol\";\r\nimport \"./NerosNFTCoin.sol\";\r\n\r\ncontract NerosNFT is ERC721 {\r\n  uint256 public tokenCounter;\r\n  uint256 public tokenIdToCheck;\r\n\r\n  NerosNFTCoin private nerosNFTCoin;\r\n  address private nerosContract;\r\n\r\n  constructor(address _nerosNFTCoin, address _nerosContract) ERC721 (\"NerosNFT\", \"NROT\"){\r\n      tokenCounter = 0;\r\n      tokenIdToCheck = 0;\r\n      nerosNFTCoin = NerosNFTCoin(_nerosNFTCoin);\r\n      nerosContract = _nerosContract;\r\n  }\r\n\r\n  function createNFT(string memory tokenURI) public returns (uint256) {\r\n      uint256 newItemId = tokenCounter;\r\n      //BURN NerosNFTCoin\r\n      nerosNFTCoin.burnNFTCoin(msg.sender, 1);\r\n      safeMint(msg.sender, newItemId);\r\n      setTokenURI(newItemId, tokenURI);\r\n      tokenCounter++;\r\n      return newItemId;\r\n  }\r\n\r\n  function setTransferable(uint tokenId, bool transferable) public onlyAdmin {\r\n      tokenIdToCheck++;\r\n      if(transferable){\r\n        isTransferable[tokenId] = true;\r\n      } else {\r\n        burn(tokenId);\r\n      }\r\n  }\r\n\r\n  function setForSale(uint tokenId, bool forSale) public {\r\n    require(isApprovedOrIsOwner(msg.sender, tokenId), \"NerosNFT: Sender is neither the owner nor approved to do this transaction\");\r\n    isForSale[tokenId] = forSale;\r\n    if(forSale) {\r\n      _approve(nerosContract, tokenId);\r\n    } else {\r\n      _approve(address(0), tokenId);\r\n    }\r\n  }\r\n\r\n  function getAllForSale() public view returns (uint[] memory) {\r\n    uint[] memory res = new uint[](tokenCounter);\r\n    uint index = 0;\r\n    for(uint i = 0; i <= tokenCounter; i++){\r\n      if(isForSale[i]){\r\n         res[index++] = i;\r\n      }\r\n    }\r\n    return res;\r\n  }\r\n\r\n  function getMyNFTs() public view returns (uint[] memory) {\r\n    return ownedTokens[msg.sender];\r\n  }\r\n\r\n  function exchangeNFT(address from, address to, uint256 tokenId) public {\r\n    require(isForSale[tokenId], \"NerosNFT: This token is not for sale\");\r\n    safeTransferFrom(from, to, tokenId);\r\n  }\r\n}\r\n",
  "sourcePath": "D:\\S8\\Neros\\contracts\\NerosNFT.sol",
  "compiler": {
    "name": "solc",
    "version": "0.8.13+commit.abaa5c0e.Emscripten.clang"
  },
  "schemaVersion": "3.4.6",
  "updatedAt": "2022-05-17T01:11:01.872Z",
  "networkType": "ethereum",
  "devdoc": {
    "kind": "dev",
    "methods": {
      "approve(address,uint256)": {
        "details": "Gives permission to `to` to transfer `tokenId` token to another account. The approval is cleared when the token is transferred. Only a single account can be approved at a time, so approving the zero address clears previous approvals. Requirements: - The caller must own the token or be an approved operator. - `tokenId` must exist. Emits an {Approval} event."
      },
      "getApproved(uint256)": {
        "details": "Returns the account approved for `tokenId` token. Requirements: - `tokenId` must exist."
      },
      "ownerOf(uint256)": {
        "details": "Returns the owner of the `tokenId` token. Requirements: - `tokenId` must exist."
      },
      "safeTransferFrom(address,address,uint256)": {
        "details": "Safely transfers `tokenId` token from `from` to `to`, checking first that contract recipients are aware of the ERC721 protocol to prevent tokens from being forever locked. Requirements: - `from` cannot be the zero address. - `to` cannot be the zero address. - `tokenId` token must exist and be owned by `from`. - If the caller is not `from`, it must be have been allowed to move this token by either {approve} or {setApprovalForAll}. - If `to` refers to a smart contract, it must implement {IERC721Receiver-onERC721Received}, which is called upon a safe transfer. Emits a {Transfer} event."
      },
      "safeTransferFrom(address,address,uint256,bytes)": {
        "details": "Safely transfers `tokenId` token from `from` to `to`. Requirements: - `from` cannot be the zero address. - `to` cannot be the zero address. - `tokenId` token must exist and be owned by `from`. - If the caller is not `from`, it must be approved to move this token by either {approve} or {setApprovalForAll}. - If `to` refers to a smart contract, it must implement {IERC721Receiver-onERC721Received}, which is called upon a safe transfer. Emits a {Transfer} event."
      },
      "supportsInterface(bytes4)": {
        "details": "Returns true if this contract implements the interface defined by `interfaceId`. See the corresponding https://eips.ethereum.org/EIPS/eip-165#how-interfaces-are-identified[EIP section] to learn more about how these ids are created. This function call must use less than 30 000 gas."
      },
      "tokenURI(uint256)": {
        "details": "Returns the Uniform Resource Identifier (URI) for `tokenId` token."
      },
      "transferFrom(address,address,uint256)": {
        "details": "Transfers `tokenId` token from `from` to `to`. WARNING: Usage of this method is discouraged, use {safeTransferFrom} whenever possible. Requirements: - `from` cannot be the zero address. - `to` cannot be the zero address. - `tokenId` token must be owned by `from`. - If the caller is not `from`, it must be approved to move this token by either {approve} or {setApprovalForAll}. Emits a {Transfer} event."
      }
    },
    "version": 1
  },
  "userdoc": {
    "kind": "user",
    "methods": {},
    "version": 1
  }
}