{
  "contractName": "Neros",
  "abi": [
    {
      "inputs": [
        {
          "internalType": "address",
          "name": "_bankHandler",
          "type": "address"
        },
        {
          "internalType": "address",
          "name": "_nerosNFTCoin",
          "type": "address"
        }
      ],
      "stateMutability": "nonpayable",
      "type": "constructor"
    },
    {
      "anonymous": false,
      "inputs": [
        {
          "indexed": true,
          "internalType": "address",
          "name": "tokenOwner",
          "type": "address"
        },
        {
          "indexed": true,
          "internalType": "address",
          "name": "spender",
          "type": "address"
        },
        {
          "indexed": false,
          "internalType": "uint256",
          "name": "tokens",
          "type": "uint256"
        }
      ],
      "name": "Approval",
      "type": "event"
    },
    {
      "anonymous": false,
      "inputs": [
        {
          "indexed": true,
          "internalType": "address",
          "name": "from",
          "type": "address"
        },
        {
          "indexed": true,
          "internalType": "address",
          "name": "to",
          "type": "address"
        },
        {
          "indexed": false,
          "internalType": "uint256",
          "name": "tokens",
          "type": "uint256"
        }
      ],
      "name": "Transfer",
      "type": "event"
    },
    {
      "inputs": [],
      "name": "_totalSupply",
      "outputs": [
        {
          "internalType": "uint256",
          "name": "",
          "type": "uint256"
        }
      ],
      "stateMutability": "view",
      "type": "function",
      "constant": true
    },
    {
      "inputs": [],
      "name": "decimals",
      "outputs": [
        {
          "internalType": "uint8",
          "name": "",
          "type": "uint8"
        }
      ],
      "stateMutability": "view",
      "type": "function",
      "constant": true
    },
    {
      "inputs": [],
      "name": "name",
      "outputs": [
        {
          "internalType": "string",
          "name": "",
          "type": "string"
        }
      ],
      "stateMutability": "view",
      "type": "function",
      "constant": true
    },
    {
      "inputs": [],
      "name": "owner",
      "outputs": [
        {
          "internalType": "address",
          "name": "",
          "type": "address"
        }
      ],
      "stateMutability": "view",
      "type": "function",
      "constant": true
    },
    {
      "inputs": [],
      "name": "symbol",
      "outputs": [
        {
          "internalType": "string",
          "name": "",
          "type": "string"
        }
      ],
      "stateMutability": "view",
      "type": "function",
      "constant": true
    },
    {
      "inputs": [
        {
          "internalType": "address",
          "name": "to",
          "type": "address"
        },
        {
          "internalType": "uint256",
          "name": "tokens",
          "type": "uint256"
        }
      ],
      "name": "fiatToCoins",
      "outputs": [],
      "stateMutability": "nonpayable",
      "type": "function"
    },
    {
      "inputs": [
        {
          "internalType": "address",
          "name": "from",
          "type": "address"
        },
        {
          "internalType": "uint256",
          "name": "tokens",
          "type": "uint256"
        }
      ],
      "name": "coinsToFiat",
      "outputs": [],
      "stateMutability": "nonpayable",
      "type": "function"
    },
    {
      "inputs": [],
      "name": "totalSupply",
      "outputs": [
        {
          "internalType": "uint256",
          "name": "",
          "type": "uint256"
        }
      ],
      "stateMutability": "view",
      "type": "function",
      "constant": true
    },
    {
      "inputs": [
        {
          "internalType": "address",
          "name": "tokenOwner",
          "type": "address"
        }
      ],
      "name": "balanceOf",
      "outputs": [
        {
          "internalType": "uint256",
          "name": "",
          "type": "uint256"
        }
      ],
      "stateMutability": "view",
      "type": "function",
      "constant": true
    },
    {
      "inputs": [
        {
          "internalType": "address",
          "name": "tokenOwner",
          "type": "address"
        },
        {
          "internalType": "address",
          "name": "spender",
          "type": "address"
        }
      ],
      "name": "allowance",
      "outputs": [
        {
          "internalType": "uint256",
          "name": "",
          "type": "uint256"
        }
      ],
      "stateMutability": "view",
      "type": "function",
      "constant": true
    },
    {
      "inputs": [
        {
          "internalType": "address",
          "name": "to",
          "type": "address"
        },
        {
          "internalType": "uint256",
          "name": "tokens",
          "type": "uint256"
        }
      ],
      "name": "transfer",
      "outputs": [
        {
          "internalType": "bool",
          "name": "",
          "type": "bool"
        }
      ],
      "stateMutability": "nonpayable",
      "type": "function"
    },
    {
      "inputs": [
        {
          "internalType": "address",
          "name": "spender",
          "type": "address"
        },
        {
          "internalType": "uint256",
          "name": "tokens",
          "type": "uint256"
        }
      ],
      "name": "approve",
      "outputs": [
        {
          "internalType": "bool",
          "name": "",
          "type": "bool"
        }
      ],
      "stateMutability": "nonpayable",
      "type": "function"
    },
    {
      "inputs": [
        {
          "internalType": "address",
          "name": "from",
          "type": "address"
        },
        {
          "internalType": "address",
          "name": "to",
          "type": "address"
        },
        {
          "internalType": "uint256",
          "name": "tokens",
          "type": "uint256"
        }
      ],
      "name": "transferFrom",
      "outputs": [
        {
          "internalType": "bool",
          "name": "",
          "type": "bool"
        }
      ],
      "stateMutability": "nonpayable",
      "type": "function"
    },
    {
      "inputs": [
        {
          "internalType": "address",
          "name": "_nerosNFT",
          "type": "address"
        }
      ],
      "name": "setNerosNFT",
      "outputs": [],
      "stateMutability": "nonpayable",
      "type": "function"
    },
    {
      "inputs": [
        {
          "internalType": "address",
          "name": "nftOwner",
          "type": "address"
        },
        {
          "internalType": "uint256",
          "name": "nftId",
          "type": "uint256"
        },
        {
          "internalType": "uint256",
          "name": "tokens",
          "type": "uint256"
        }
      ],
      "name": "exchangeNFT",
      "outputs": [],
      "stateMutability": "nonpayable",
      "type": "function"
    }
  ],
  "bytecode": "0x60806040523480156200001157600080fd5b5060405162001f8038038062001f808339818101604052810190620000379190620002dc565b6040518060400160405280600581526020017f4e65726f730000000000000000000000000000000000000000000000000000008152506000908051906020019062000084929190620001c2565b506040518060400160405280600381526020017f4e524f000000000000000000000000000000000000000000000000000000000081525060019080519060200190620000d2929190620001c2565b5033600260006101000a81548173ffffffffffffffffffffffffffffffffffffffff021916908373ffffffffffffffffffffffffffffffffffffffff16021790555060006003819055506002600460006101000a81548160ff021916908360ff16021790555081600460016101000a81548173ffffffffffffffffffffffffffffffffffffffff021916908373ffffffffffffffffffffffffffffffffffffffff16021790555080600560006101000a81548173ffffffffffffffffffffffffffffffffffffffff021916908373ffffffffffffffffffffffffffffffffffffffff160217905550505062000387565b828054620001d09062000352565b90600052602060002090601f016020900481019282620001f4576000855562000240565b82601f106200020f57805160ff191683800117855562000240565b8280016001018555821562000240579182015b828111156200023f57825182559160200191906001019062000222565b5b5090506200024f919062000253565b5090565b5b808211156200026e57600081600090555060010162000254565b5090565b600080fd5b600073ffffffffffffffffffffffffffffffffffffffff82169050919050565b6000620002a48262000277565b9050919050565b620002b68162000297565b8114620002c257600080fd5b50565b600081519050620002d681620002ab565b92915050565b60008060408385031215620002f657620002f562000272565b5b60006200030685828601620002c5565b92505060206200031985828601620002c5565b9150509250929050565b7f4e487b7100000000000000000000000000000000000000000000000000000000600052602260045260246000fd5b600060028204905060018216806200036b57607f821691505b60208210810362000381576200038062000323565b5b50919050565b611be980620003976000396000f3fe608060405234801561001057600080fd5b50600436106100f55760003560e01c806370a08231116100975780639838f2b1116100665780639838f2b114610276578063a9059cbb14610292578063dd0062c7146102c2578063dd62ed3e146102de576100f5565b806370a08231146101ee57806383444b9e1461021e5780638da5cb5b1461023a57806395d89b4114610258576100f5565b806323b872dd116100d357806323b872dd14610166578063313ce567146101965780633eaaf86b146101b457806348ec31c3146101d2576100f5565b806306fdde03146100fa578063095ea7b31461011857806318160ddd14610148575b600080fd5b61010261030e565b60405161010f9190611131565b60405180910390f35b610132600480360381019061012d91906111ec565b61039c565b60405161013f9190611247565b60405180910390f35b6101506103b3565b60405161015d9190611271565b60405180910390f35b610180600480360381019061017b919061128c565b6103bd565b60405161018d9190611247565b60405180910390f35b61019e610440565b6040516101ab91906112fb565b60405180910390f35b6101bc610453565b6040516101c99190611271565b60405180910390f35b6101ec60048036038101906101e791906111ec565b610459565b005b61020860048036038101906102039190611316565b6104e9565b6040516102159190611271565b60405180910390f35b610238600480360381019061023391906111ec565b610532565b005b610242610680565b60405161024f9190611352565b60405180910390f35b6102606106a6565b60405161026d9190611131565b60405180910390f35b610290600480360381019061028b9190611316565b610734565b005b6102ac60048036038101906102a791906111ec565b610808565b6040516102b99190611247565b60405180910390f35b6102dc60048036038101906102d7919061136d565b61081f565b005b6102f860048036038101906102f391906113c0565b6108c0565b6040516103059190611271565b60405180910390f35b6000805461031b9061142f565b80601f01602080910402602001604051908101604052809291908181526020018280546103479061142f565b80156103945780601f1061036957610100808354040283529160200191610394565b820191906000526020600020905b81548152906001019060200180831161037757829003601f168201915b505050505081565b60006103a9338484610947565b6001905092915050565b6000600354905090565b6000816103ca85336108c0565b101561040b576040517f08c379a0000000000000000000000000000000000000000000000000000000008152600401610402906114f8565b60405180910390fd5b61042a84338461041b88336108c0565b6104259190611547565b610947565b610435848484610b10565b600190509392505050565b600460009054906101000a900460ff1681565b60035481565b600460019054906101000a900473ffffffffffffffffffffffffffffffffffffffff1673ffffffffffffffffffffffffffffffffffffffff1663ea31db136040518163ffffffff1660e01b8152600401600060405180830381600087803b1580156104c357600080fd5b505af11580156104d7573d6000803e3d6000fd5b505050506104e58183610d86565b5050565b6000600760008373ffffffffffffffffffffffffffffffffffffffff1673ffffffffffffffffffffffffffffffffffffffff168152602001908152602001600020549050919050565b600460019054906101000a900473ffffffffffffffffffffffffffffffffffffffff1673ffffffffffffffffffffffffffffffffffffffff1663ac4460026040518163ffffffff1660e01b8152600401600060405180830381600087803b15801561059c57600080fd5b505af11580156105b0573d6000803e3d6000fd5b505050506105be8183610f50565b600560009054906101000a900473ffffffffffffffffffffffffffffffffffffffff1673ffffffffffffffffffffffffffffffffffffffff16635156f20a600260009054906101000a900473ffffffffffffffffffffffffffffffffffffffff166127108461062d91906115aa565b6040518363ffffffff1660e01b815260040161064a9291906115db565b600060405180830381600087803b15801561066457600080fd5b505af1158015610678573d6000803e3d6000fd5b505050505050565b600260009054906101000a900473ffffffffffffffffffffffffffffffffffffffff1681565b600180546106b39061142f565b80601f01602080910402602001604051908101604052809291908181526020018280546106df9061142f565b801561072c5780601f106107015761010080835404028352916020019161072c565b820191906000526020600020905b81548152906001019060200180831161070f57829003601f168201915b505050505081565b600260009054906101000a900473ffffffffffffffffffffffffffffffffffffffff1673ffffffffffffffffffffffffffffffffffffffff163373ffffffffffffffffffffffffffffffffffffffff16146107c4576040517f08c379a00000000000000000000000000000000000000000000000000000000081526004016107bb90611676565b60405180910390fd5b80600660006101000a81548173ffffffffffffffffffffffffffffffffffffffff021916908373ffffffffffffffffffffffffffffffffffffffff16021790555050565b6000610815338484610b10565b6001905092915050565b600660009054906101000a900473ffffffffffffffffffffffffffffffffffffffff1673ffffffffffffffffffffffffffffffffffffffff1663e23523868433856040518463ffffffff1660e01b815260040161087e93929190611696565b600060405180830381600087803b15801561089857600080fd5b505af11580156108ac573d6000803e3d6000fd5b505050506108ba8382610808565b50505050565b6000600860008473ffffffffffffffffffffffffffffffffffffffff1673ffffffffffffffffffffffffffffffffffffffff16815260200190815260200160002060008373ffffffffffffffffffffffffffffffffffffffff1673ffffffffffffffffffffffffffffffffffffffff16815260200190815260200160002054905092915050565b600073ffffffffffffffffffffffffffffffffffffffff168273ffffffffffffffffffffffffffffffffffffffff16036109b6576040517f08c379a00000000000000000000000000000000000000000000000000000000081526004016109ad9061173f565b60405180910390fd5b600073ffffffffffffffffffffffffffffffffffffffff168373ffffffffffffffffffffffffffffffffffffffff1603610a25576040517f08c379a0000000000000000000000000000000000000000000000000000000008152600401610a1c906117d1565b60405180910390fd5b80600860008573ffffffffffffffffffffffffffffffffffffffff1673ffffffffffffffffffffffffffffffffffffffff16815260200190815260200160002060008473ffffffffffffffffffffffffffffffffffffffff1673ffffffffffffffffffffffffffffffffffffffff168152602001908152602001600020819055508173ffffffffffffffffffffffffffffffffffffffff168373ffffffffffffffffffffffffffffffffffffffff167f8c5be1e5ebec7d5bd14f71427d1e84f3dd0314c0f7b2291e5b200ac8c7c3b92583604051610b039190611271565b60405180910390a3505050565b80600760003373ffffffffffffffffffffffffffffffffffffffff1673ffffffffffffffffffffffffffffffffffffffff168152602001908152602001600020541015610b92576040517f08c379a0000000000000000000000000000000000000000000000000000000008152600401610b8990611863565b60405180910390fd5b600073ffffffffffffffffffffffffffffffffffffffff168273ffffffffffffffffffffffffffffffffffffffff1603610c01576040517f08c379a0000000000000000000000000000000000000000000000000000000008152600401610bf8906118f5565b60405180910390fd5b600073ffffffffffffffffffffffffffffffffffffffff168373ffffffffffffffffffffffffffffffffffffffff1603610c70576040517f08c379a0000000000000000000000000000000000000000000000000000000008152600401610c6790611987565b60405180910390fd5b80600760008573ffffffffffffffffffffffffffffffffffffffff1673ffffffffffffffffffffffffffffffffffffffff1681526020019081526020016000206000828254610cbf9190611547565b9250508190555080600760008473ffffffffffffffffffffffffffffffffffffffff1673ffffffffffffffffffffffffffffffffffffffff1681526020019081526020016000206000828254610d1591906119a7565b925050819055508173ffffffffffffffffffffffffffffffffffffffff168373ffffffffffffffffffffffffffffffffffffffff167fddf252ad1be2c89b69c2b068fc378daa952ba7f163c4a11628f55a4df523b3ef83604051610d799190611271565b60405180910390a3505050565b600073ffffffffffffffffffffffffffffffffffffffff168173ffffffffffffffffffffffffffffffffffffffff1603610df5576040517f08c379a0000000000000000000000000000000000000000000000000000000008152600401610dec90611a6f565b60405180910390fd5b81600760008373ffffffffffffffffffffffffffffffffffffffff1673ffffffffffffffffffffffffffffffffffffffff168152602001908152602001600020541015610e77576040517f08c379a0000000000000000000000000000000000000000000000000000000008152600401610e6e90611b01565b60405180910390fd5b81600760008373ffffffffffffffffffffffffffffffffffffffff1673ffffffffffffffffffffffffffffffffffffffff1681526020019081526020016000206000828254610ec69190611547565b925050819055508160036000828254610edf9190611547565b92505081905550600073ffffffffffffffffffffffffffffffffffffffff168173ffffffffffffffffffffffffffffffffffffffff167fddf252ad1be2c89b69c2b068fc378daa952ba7f163c4a11628f55a4df523b3ef84604051610f449190611271565b60405180910390a35050565b600073ffffffffffffffffffffffffffffffffffffffff168173ffffffffffffffffffffffffffffffffffffffff1603610fbf576040517f08c379a0000000000000000000000000000000000000000000000000000000008152600401610fb690611b93565b60405180910390fd5b8160036000828254610fd191906119a7565b9250508190555081600760008373ffffffffffffffffffffffffffffffffffffffff1673ffffffffffffffffffffffffffffffffffffffff168152602001908152602001600020600082825461102791906119a7565b925050819055508073ffffffffffffffffffffffffffffffffffffffff16600073ffffffffffffffffffffffffffffffffffffffff167fddf252ad1be2c89b69c2b068fc378daa952ba7f163c4a11628f55a4df523b3ef8460405161108c9190611271565b60405180910390a35050565b600081519050919050565b600082825260208201905092915050565b60005b838110156110d25780820151818401526020810190506110b7565b838111156110e1576000848401525b50505050565b6000601f19601f8301169050919050565b600061110382611098565b61110d81856110a3565b935061111d8185602086016110b4565b611126816110e7565b840191505092915050565b6000602082019050818103600083015261114b81846110f8565b905092915050565b600080fd5b600073ffffffffffffffffffffffffffffffffffffffff82169050919050565b600061118382611158565b9050919050565b61119381611178565b811461119e57600080fd5b50565b6000813590506111b08161118a565b92915050565b6000819050919050565b6111c9816111b6565b81146111d457600080fd5b50565b6000813590506111e6816111c0565b92915050565b6000806040838503121561120357611202611153565b5b6000611211858286016111a1565b9250506020611222858286016111d7565b9150509250929050565b60008115159050919050565b6112418161122c565b82525050565b600060208201905061125c6000830184611238565b92915050565b61126b816111b6565b82525050565b60006020820190506112866000830184611262565b92915050565b6000806000606084860312156112a5576112a4611153565b5b60006112b3868287016111a1565b93505060206112c4868287016111a1565b92505060406112d5868287016111d7565b9150509250925092565b600060ff82169050919050565b6112f5816112df565b82525050565b600060208201905061131060008301846112ec565b92915050565b60006020828403121561132c5761132b611153565b5b600061133a848285016111a1565b91505092915050565b61134c81611178565b82525050565b60006020820190506113676000830184611343565b92915050565b60008060006060848603121561138657611385611153565b5b6000611394868287016111a1565b93505060206113a5868287016111d7565b92505060406113b6868287016111d7565b9150509250925092565b600080604083850312156113d7576113d6611153565b5b60006113e5858286016111a1565b92505060206113f6858286016111a1565b9150509250929050565b7f4e487b7100000000000000000000000000000000000000000000000000000000600052602260045260246000fd5b6000600282049050600182168061144757607f821691505b60208210810361145a57611459611400565b5b50919050565b7f4e65726f733a20496e73756666696369656e742062616c616e636520666f722060008201527f617070726f76616c206f66207468697320616d6f756e74206f66204e65726f7360208201527f2e00000000000000000000000000000000000000000000000000000000000000604082015250565b60006114e26041836110a3565b91506114ed82611460565b606082019050919050565b60006020820190508181036000830152611511816114d5565b9050919050565b7f4e487b7100000000000000000000000000000000000000000000000000000000600052601160045260246000fd5b6000611552826111b6565b915061155d836111b6565b9250828210156115705761156f611518565b5b828203905092915050565b7f4e487b7100000000000000000000000000000000000000000000000000000000600052601260045260246000fd5b60006115b5826111b6565b91506115c0836111b6565b9250826115d0576115cf61157b565b5b828204905092915050565b60006040820190506115f06000830185611343565b6115fd6020830184611262565b9392505050565b7f4e65726f733a204f6e6c79206f776e657220697320616c6c6f77656420746f2060008201527f646f20746869732066756e6374696f6e616c6974790000000000000000000000602082015250565b60006116606035836110a3565b915061166b82611604565b604082019050919050565b6000602082019050818103600083015261168f81611653565b9050919050565b60006060820190506116ab6000830186611343565b6116b86020830185611343565b6116c56040830184611262565b949350505050565b7f4e65726f733a20617070726f766564207370656e64657220616464726573732060008201527f63616e6e6f7420626520746865207a65726f2061646472657373000000000000602082015250565b6000611729603a836110a3565b9150611734826116cd565b604082019050919050565b600060208201905081810360008301526117588161171c565b9050919050565b7f4e65726f733a20617070726f766564206f776e6572206164647265737320636160008201527f6e6e6f7420626520746865207a65726f20616464726573730000000000000000602082015250565b60006117bb6038836110a3565b91506117c68261175f565b604082019050919050565b600060208201905081810360008301526117ea816117ae565b9050919050565b7f4e65726f733a20596f75722062616c616e636520697320746f6f206c6f77207460008201527f6f207472616e73666572207468697320616d6f757574206f66204e65726f732e602082015250565b600061184d6040836110a3565b9150611858826117f1565b604082019050919050565b6000602082019050818103600083015261187c81611840565b9050919050565b7f4e65726f733a20546f20616464726573732063616e6e6f742062652061207a6560008201527f726f206164647265737300000000000000000000000000000000000000000000602082015250565b60006118df602a836110a3565b91506118ea82611883565b604082019050919050565b6000602082019050818103600083015261190e816118d2565b9050919050565b7f4e65726f733a2046726f6d20616464726573732063616e6e6f7420626520612060008201527f7a65726f20616464726573730000000000000000000000000000000000000000602082015250565b6000611971602c836110a3565b915061197c82611915565b604082019050919050565b600060208201905081810360008301526119a081611964565b9050919050565b60006119b2826111b6565b91506119bd836111b6565b9250827fffffffffffffffffffffffffffffffffffffffffffffffffffffffffffffffff038211156119f2576119f1611518565b5b828201905092915050565b7f4e65726f733a204164647265737320746f206275726e20636f696e732066726f60008201527f6d2063616e6e6f742062652061207a65726f2061646472657373000000000000602082015250565b6000611a59603a836110a3565b9150611a64826119fd565b604082019050919050565b60006020820190508181036000830152611a8881611a4c565b9050919050565b7f4e65726f733a20416d6f756e7420746f206265206275726e206d75737420626560008201527f206c6172676572207468616e20616464726573732062616c616e63652e000000602082015250565b6000611aeb603d836110a3565b9150611af682611a8f565b604082019050919050565b60006020820190508181036000830152611b1a81611ade565b9050919050565b7f4e65726f733a20546f20616464726573732063616e6e6f742062652061207a6560008201527f726f206164647265737320666f72206d696e74696e6700000000000000000000602082015250565b6000611b7d6036836110a3565b9150611b8882611b21565b604082019050919050565b60006020820190508181036000830152611bac81611b70565b905091905056fea2646970667358221220cec9f384d2d3eea15dd0aeb8ca85d624d87847458e654a5309486eebdab302fe64736f6c634300080d0033",
  "immutableReferences": {},
  "source": "//SPDX-License-Identifier: MIT\r\npragma solidity ^0.8.13;\r\nimport \"./IERC20.sol\";\r\nimport \"./BankHandler.sol\";\r\nimport \"./NerosNFTCoin.sol\";\r\nimport \"./NerosNFT.sol\";\r\n\r\ncontract Neros is ERC20Interface {\r\n    string public name;\r\n    string public symbol;\r\n    address public owner;\r\n    uint public _totalSupply;\r\n    uint8 public decimals;\r\n    BankHandler private bankHandler;\r\n    NerosNFTCoin private nerosNFTCoin;\r\n    NerosNFT private nerosNFT;\r\n\r\n    mapping(address => uint) balances;\r\n    mapping(address => mapping(address => uint)) allowed;\r\n\r\n    constructor(address _bankHandler, address _nerosNFTCoin) {\r\n        name = \"Neros\";\r\n        symbol = \"NRO\";\r\n        owner = msg.sender;\r\n        _totalSupply = 0;\r\n        decimals = 2;\r\n        bankHandler = BankHandler(_bankHandler);\r\n        nerosNFTCoin = NerosNFTCoin(_nerosNFTCoin);\r\n    }\r\n\r\n    modifier isOwner () {\r\n        require(msg.sender == owner, \"Neros: Only owner is allowed to do this functionality\");\r\n        _;\r\n    }\r\n\r\n    function mintNewTokens(uint amount, address to) internal {\r\n        require(to != address(0), \"Neros: To address cannot be a zero address for minting\");\r\n\r\n        _totalSupply += amount;\r\n        balances[to] += amount;\r\n        emit Transfer(address(0), to, amount);\r\n    }\r\n\r\n    function burnTokens(uint amount, address from) internal {\r\n        require(from != address(0), \"Neros: Address to burn coins from cannot be a zero address\");\r\n        require(balances[from] >= amount, \"Neros: Amount to be burn must be larger than address balance.\");\r\n\r\n        balances[from] -= amount;\r\n        _totalSupply -= amount;\r\n        emit Transfer(from, address(0), amount);\r\n    }\r\n\r\n    function fiatToCoins(address to, uint tokens) public {\r\n        //BANK DETAILS INPUT\r\n        bankHandler.withdrawMoney();\r\n        //CALLS mintNewTokens\r\n        mintNewTokens(tokens, to);\r\n        //MINT NerosNFTCoin\r\n        nerosNFTCoin.mintNFTCoin(owner, tokens/10000);\r\n    }\r\n\r\n    function coinsToFiat(address from, uint tokens) public {\r\n        //BANK DETAILS INPUT\r\n        bankHandler.refundMoney();\r\n        //CALLS burnTokens\r\n        burnTokens(tokens, from);\r\n    }\r\n\r\n    function _transferFrom(address from, address to, uint tokens) internal {\r\n        require(balances[msg.sender] >= tokens, \"Neros: Your balance is too low to transfer this amouut of Neros.\");\r\n        require(to != address(0), \"Neros: To address cannot be a zero address\");\r\n        require(from != address(0), \"Neros: From address cannot be a zero address\");\r\n\r\n        balances[from] -= tokens;\r\n        balances[to] += tokens;\r\n        emit Transfer(from, to, tokens);\r\n    }\r\n\r\n    function changeAllowance(address tokenOwner, address spender, uint amount) internal {\r\n        require(spender != address(0), \"Neros: approved spender address cannot be the zero address\");\r\n        require(tokenOwner != address(0), \"Neros: approved owner address cannot be the zero address\");\r\n\r\n        allowed[tokenOwner][spender] = amount;\r\n        emit Approval(tokenOwner, spender, amount);\r\n    }\r\n\r\n    function totalSupply() public view override returns (uint256){\r\n        return _totalSupply;\r\n    }\r\n    function balanceOf(address tokenOwner) public view override returns (uint){\r\n        return balances[tokenOwner];\r\n    }\r\n    function allowance(address tokenOwner, address spender) public view override returns (uint){\r\n        return allowed[tokenOwner][spender];\r\n    }\r\n    function transfer(address to, uint tokens) public override returns (bool){\r\n        _transferFrom(msg.sender, to, tokens);\r\n        return true;\r\n    }\r\n    function approve(address spender, uint tokens)  public override returns (bool){\r\n        changeAllowance(msg.sender, spender, tokens);\r\n        return true;\r\n    }\r\n    function transferFrom(address from, address to, uint tokens) public override returns (bool){\r\n        require(allowance(from, msg.sender) >= tokens, \"Neros: Insufficient balance for approval of this amount of Neros.\");\r\n        changeAllowance(from, msg.sender, allowance(from, msg.sender) - tokens);\r\n        _transferFrom(from, to, tokens);\r\n        return true;\r\n    }\r\n\r\n    function setNerosNFT(address _nerosNFT) public isOwner {\r\n        nerosNFT = NerosNFT(_nerosNFT);\r\n    }\r\n    function exchangeNFT(address nftOwner, uint nftId, uint tokens) public {\r\n        nerosNFT.exchangeNFT(nftOwner, msg.sender, nftId);\r\n        transfer(nftOwner, tokens);\r\n    }\r\n}\r\n",
  "sourcePath": "D:\\S8\\Neros\\contracts\\Neros.sol",
  "compiler": {
    "name": "solc",
    "version": "0.8.13+commit.abaa5c0e.Emscripten.clang"
  },
  "schemaVersion": "3.4.6",
  "updatedAt": "2022-06-01T23:46:06.852Z",
  "networkType": "ethereum",
  "devdoc": {
    "kind": "dev",
    "methods": {},
    "version": 1
  },
  "userdoc": {
    "kind": "user",
    "methods": {},
    "version": 1
  }
}