{
  "contractName": "NerosNFT",
  "abi": [
    {
      "inputs": [
        {
          "internalType": "address",
          "name": "_nerosNFTCoin",
          "type": "address"
        },
        {
          "internalType": "address",
          "name": "_nerosContract",
          "type": "address"
        }
      ],
      "stateMutability": "nonpayable",
      "type": "constructor"
    },
    {
      "anonymous": false,
      "inputs": [
        {
          "indexed": true,
          "internalType": "address",
          "name": "owner",
          "type": "address"
        },
        {
          "indexed": true,
          "internalType": "address",
          "name": "approved",
          "type": "address"
        },
        {
          "indexed": true,
          "internalType": "uint256",
          "name": "tokenId",
          "type": "uint256"
        }
      ],
      "name": "Approval",
      "type": "event"
    },
    {
      "anonymous": false,
      "inputs": [
        {
          "indexed": true,
          "internalType": "address",
          "name": "owner",
          "type": "address"
        },
        {
          "indexed": true,
          "internalType": "address",
          "name": "operator",
          "type": "address"
        },
        {
          "indexed": false,
          "internalType": "bool",
          "name": "approved",
          "type": "bool"
        }
      ],
      "name": "ApprovalForAll",
      "type": "event"
    },
    {
      "anonymous": false,
      "inputs": [
        {
          "indexed": true,
          "internalType": "address",
          "name": "from",
          "type": "address"
        },
        {
          "indexed": true,
          "internalType": "address",
          "name": "to",
          "type": "address"
        },
        {
          "indexed": true,
          "internalType": "uint256",
          "name": "tokenId",
          "type": "uint256"
        }
      ],
      "name": "Transfer",
      "type": "event"
    },
    {
      "inputs": [
        {
          "internalType": "address",
          "name": "admin",
          "type": "address"
        },
        {
          "internalType": "bool",
          "name": "add",
          "type": "bool"
        }
      ],
      "name": "addOrRemoveAdmin",
      "outputs": [],
      "stateMutability": "nonpayable",
      "type": "function"
    },
    {
      "inputs": [
        {
          "internalType": "address",
          "name": "",
          "type": "address"
        }
      ],
      "name": "admins",
      "outputs": [
        {
          "internalType": "bool",
          "name": "",
          "type": "bool"
        }
      ],
      "stateMutability": "view",
      "type": "function",
      "constant": true
    },
    {
      "inputs": [
        {
          "internalType": "address",
          "name": "to",
          "type": "address"
        },
        {
          "internalType": "uint256",
          "name": "tokenId",
          "type": "uint256"
        }
      ],
      "name": "approve",
      "outputs": [],
      "stateMutability": "nonpayable",
      "type": "function"
    },
    {
      "inputs": [
        {
          "internalType": "address",
          "name": "_owner",
          "type": "address"
        }
      ],
      "name": "balanceOf",
      "outputs": [
        {
          "internalType": "uint256",
          "name": "",
          "type": "uint256"
        }
      ],
      "stateMutability": "view",
      "type": "function",
      "constant": true
    },
    {
      "inputs": [
        {
          "internalType": "uint256",
          "name": "tokenId",
          "type": "uint256"
        }
      ],
      "name": "burn",
      "outputs": [],
      "stateMutability": "nonpayable",
      "type": "function"
    },
    {
      "inputs": [
        {
          "internalType": "uint256",
          "name": "tokenId",
          "type": "uint256"
        }
      ],
      "name": "getApproved",
      "outputs": [
        {
          "internalType": "address",
          "name": "",
          "type": "address"
        }
      ],
      "stateMutability": "view",
      "type": "function",
      "constant": true
    },
    {
      "inputs": [
        {
          "internalType": "address",
          "name": "_owner",
          "type": "address"
        },
        {
          "internalType": "address",
          "name": "operator",
          "type": "address"
        }
      ],
      "name": "isApprovedForAll",
      "outputs": [
        {
          "internalType": "bool",
          "name": "",
          "type": "bool"
        }
      ],
      "stateMutability": "view",
      "type": "function",
      "constant": true
    },
    {
      "inputs": [
        {
          "internalType": "uint256",
          "name": "",
          "type": "uint256"
        }
      ],
      "name": "isForSale",
      "outputs": [
        {
          "internalType": "bool",
          "name": "",
          "type": "bool"
        }
      ],
      "stateMutability": "view",
      "type": "function",
      "constant": true
    },
    {
      "inputs": [
        {
          "internalType": "uint256",
          "name": "",
          "type": "uint256"
        }
      ],
      "name": "isTransferable",
      "outputs": [
        {
          "internalType": "bool",
          "name": "",
          "type": "bool"
        }
      ],
      "stateMutability": "view",
      "type": "function",
      "constant": true
    },
    {
      "inputs": [],
      "name": "name",
      "outputs": [
        {
          "internalType": "string",
          "name": "",
          "type": "string"
        }
      ],
      "stateMutability": "view",
      "type": "function",
      "constant": true
    },
    {
      "inputs": [],
      "name": "owner",
      "outputs": [
        {
          "internalType": "address",
          "name": "",
          "type": "address"
        }
      ],
      "stateMutability": "view",
      "type": "function",
      "constant": true
    },
    {
      "inputs": [
        {
          "internalType": "uint256",
          "name": "tokenId",
          "type": "uint256"
        }
      ],
      "name": "ownerOf",
      "outputs": [
        {
          "internalType": "address",
          "name": "",
          "type": "address"
        }
      ],
      "stateMutability": "view",
      "type": "function",
      "constant": true
    },
    {
      "inputs": [
        {
          "internalType": "address",
          "name": "from",
          "type": "address"
        },
        {
          "internalType": "address",
          "name": "to",
          "type": "address"
        },
        {
          "internalType": "uint256",
          "name": "tokenId",
          "type": "uint256"
        }
      ],
      "name": "safeTransferFrom",
      "outputs": [],
      "stateMutability": "nonpayable",
      "type": "function"
    },
    {
      "inputs": [
        {
          "internalType": "address",
          "name": "from",
          "type": "address"
        },
        {
          "internalType": "address",
          "name": "to",
          "type": "address"
        },
        {
          "internalType": "uint256",
          "name": "tokenId",
          "type": "uint256"
        },
        {
          "internalType": "bytes",
          "name": "data",
          "type": "bytes"
        }
      ],
      "name": "safeTransferFrom",
      "outputs": [],
      "stateMutability": "nonpayable",
      "type": "function"
    },
    {
      "inputs": [
        {
          "internalType": "address",
          "name": "operator",
          "type": "address"
        },
        {
          "internalType": "bool",
          "name": "approved",
          "type": "bool"
        }
      ],
      "name": "setApprovalForAll",
      "outputs": [],
      "stateMutability": "nonpayable",
      "type": "function"
    },
    {
      "inputs": [
        {
          "internalType": "bytes4",
          "name": "interfaceId",
          "type": "bytes4"
        }
      ],
      "name": "supportsInterface",
      "outputs": [
        {
          "internalType": "bool",
          "name": "",
          "type": "bool"
        }
      ],
      "stateMutability": "pure",
      "type": "function",
      "constant": true
    },
    {
      "inputs": [],
      "name": "symbol",
      "outputs": [
        {
          "internalType": "string",
          "name": "",
          "type": "string"
        }
      ],
      "stateMutability": "view",
      "type": "function",
      "constant": true
    },
    {
      "inputs": [],
      "name": "tokenCounter",
      "outputs": [
        {
          "internalType": "uint256",
          "name": "",
          "type": "uint256"
        }
      ],
      "stateMutability": "view",
      "type": "function",
      "constant": true
    },
    {
      "inputs": [],
      "name": "tokenIdToCheck",
      "outputs": [
        {
          "internalType": "uint256",
          "name": "",
          "type": "uint256"
        }
      ],
      "stateMutability": "view",
      "type": "function",
      "constant": true
    },
    {
      "inputs": [
        {
          "internalType": "uint256",
          "name": "tokenId",
          "type": "uint256"
        }
      ],
      "name": "tokenURI",
      "outputs": [
        {
          "internalType": "string",
          "name": "",
          "type": "string"
        }
      ],
      "stateMutability": "view",
      "type": "function",
      "constant": true
    },
    {
      "inputs": [
        {
          "internalType": "address",
          "name": "from",
          "type": "address"
        },
        {
          "internalType": "address",
          "name": "to",
          "type": "address"
        },
        {
          "internalType": "uint256",
          "name": "tokenId",
          "type": "uint256"
        }
      ],
      "name": "transferFrom",
      "outputs": [],
      "stateMutability": "nonpayable",
      "type": "function"
    },
    {
      "inputs": [
        {
          "internalType": "string",
          "name": "tokenURI",
          "type": "string"
        }
      ],
      "name": "createNFT",
      "outputs": [
        {
          "internalType": "uint256",
          "name": "",
          "type": "uint256"
        }
      ],
      "stateMutability": "nonpayable",
      "type": "function"
    },
    {
      "inputs": [
        {
          "internalType": "bool",
          "name": "transferable",
          "type": "bool"
        }
      ],
      "name": "setTransferable",
      "outputs": [],
      "stateMutability": "nonpayable",
      "type": "function"
    },
    {
      "inputs": [
        {
          "internalType": "uint256",
          "name": "tokenId",
          "type": "uint256"
        },
        {
          "internalType": "bool",
          "name": "forSale",
          "type": "bool"
        }
      ],
      "name": "setForSale",
      "outputs": [],
      "stateMutability": "nonpayable",
      "type": "function"
    },
    {
      "inputs": [],
      "name": "getAllForSale",
      "outputs": [
        {
          "internalType": "int256[]",
          "name": "",
          "type": "int256[]"
        }
      ],
      "stateMutability": "view",
      "type": "function",
      "constant": true
    },
    {
      "inputs": [],
      "name": "getMyNFTs",
      "outputs": [
        {
          "internalType": "uint256[]",
          "name": "",
          "type": "uint256[]"
        }
      ],
      "stateMutability": "view",
      "type": "function",
      "constant": true
    },
    {
      "inputs": [
        {
          "internalType": "address",
          "name": "from",
          "type": "address"
        },
        {
          "internalType": "address",
          "name": "to",
          "type": "address"
        },
        {
          "internalType": "uint256",
          "name": "tokenId",
          "type": "uint256"
        }
      ],
      "name": "exchangeNFT",
      "outputs": [],
      "stateMutability": "nonpayable",
      "type": "function"
    }
  ],
  "bytecode": "0x60806040523480156200001157600080fd5b506040516200477b3803806200477b833981810160405281019062000037919062000346565b6040518060400160405280600881526020017f4e65726f734e46540000000000000000000000000000000000000000000000008152506040518060400160405280600481526020017f4e524f54000000000000000000000000000000000000000000000000000000008152508160009080519060200190620000bb9291906200022c565b508060019080519060200190620000d49291906200022c565b5033600260006101000a81548173ffffffffffffffffffffffffffffffffffffffff021916908373ffffffffffffffffffffffffffffffffffffffff1602179055506001600a6000600260009054906101000a900473ffffffffffffffffffffffffffffffffffffffff1673ffffffffffffffffffffffffffffffffffffffff1673ffffffffffffffffffffffffffffffffffffffff16815260200190815260200160002060006101000a81548160ff02191690831515021790555050506000600c819055506000600d8190555081600e60006101000a81548173ffffffffffffffffffffffffffffffffffffffff021916908373ffffffffffffffffffffffffffffffffffffffff16021790555080600f60006101000a81548173ffffffffffffffffffffffffffffffffffffffff021916908373ffffffffffffffffffffffffffffffffffffffff1602179055505050620003f1565b8280546200023a90620003bc565b90600052602060002090601f0160209004810192826200025e5760008555620002aa565b82601f106200027957805160ff1916838001178555620002aa565b82800160010185558215620002aa579182015b82811115620002a95782518255916020019190600101906200028c565b5b509050620002b99190620002bd565b5090565b5b80821115620002d8576000816000905550600101620002be565b5090565b600080fd5b600073ffffffffffffffffffffffffffffffffffffffff82169050919050565b60006200030e82620002e1565b9050919050565b620003208162000301565b81146200032c57600080fd5b50565b600081519050620003408162000315565b92915050565b6000806040838503121562000360576200035f620002dc565b5b600062000370858286016200032f565b925050602062000383858286016200032f565b9150509250929050565b7f4e487b7100000000000000000000000000000000000000000000000000000000600052602260045260246000fd5b60006002820490506001821680620003d557607f821691505b602082108103620003eb57620003ea6200038d565b5b50919050565b61437a80620004016000396000f3fe608060405234801561001057600080fd5b50600436106101a95760003560e01c80638546d002116100f9578063b88d4fde11610097578063da2ed03e11610071578063da2ed03e146104e0578063e235238614610510578063e985e9c51461052c578063f0a6c16b1461055c576101a9565b8063b88d4fde14610476578063c87b56dd14610492578063d082e381146104c2576101a9565b806395d89b41116100d357806395d89b41146103f05780639cd237071461040e578063a22cb4651461042a578063b256456914610446576101a9565b80638546d0021461038657806389fa2c03146103b65780638da5cb5b146103d2576101a9565b806342842e0e116101665780634499efaa116101405780634499efaa146102ea578063629cb2e4146103085780636352211e1461032657806370a0823114610356576101a9565b806342842e0e1461028257806342966c681461029e578063429b62e5146102ba576101a9565b806301ffc9a7146101ae57806306fdde03146101de578063081812fc146101fc578063095ea7b31461022c578063232462b61461024857806323b872dd14610266575b600080fd5b6101c860048036038101906101c391906129f9565b610578565b6040516101d59190612a41565b60405180910390f35b6101e66105e2565b6040516101f39190612af5565b60405180910390f35b61021660048036038101906102119190612b4d565b610670565b6040516102239190612bbb565b60405180910390f35b61024660048036038101906102419190612c02565b61074e565b005b610250610882565b60405161025d9190612d0a565b60405180910390f35b610280600480360381019061027b9190612d2c565b610a03565b005b61029c60048036038101906102979190612d2c565b610a13565b005b6102b860048036038101906102b39190612b4d565b610a87565b005b6102d460048036038101906102cf9190612d7f565b610f6d565b6040516102e19190612a41565b60405180910390f35b6102f2610f8d565b6040516102ff9190612dbb565b60405180910390f35b610310610f93565b60405161031d9190612e94565b60405180910390f35b610340600480360381019061033b9190612b4d565b6110cb565b60405161034d9190612bbb565b60405180910390f35b610370600480360381019061036b9190612d7f565b6111a9565b60405161037d9190612dbb565b60405180910390f35b6103a0600480360381019061039b9190612b4d565b611260565b6040516103ad9190612a41565b60405180910390f35b6103d060048036038101906103cb9190612ee2565b611280565b005b6103da61136b565b6040516103e79190612bbb565b60405180910390f35b6103f8611391565b6040516104059190612af5565b60405180910390f35b61042860048036038101906104239190612f22565b61141f565b005b610444600480360381019061043f9190612ee2565b61150b565b005b610460600480360381019061045b9190612b4d565b611676565b60405161046d9190612a41565b60405180910390f35b610490600480360381019061048b9190612fb4565b611696565b005b6104ac60048036038101906104a79190612b4d565b611737565b6040516104b99190612af5565b60405180910390f35b6104ca61181d565b6040516104d79190612dbb565b60405180910390f35b6104fa60048036038101906104f5919061316c565b611823565b6040516105079190612dbb565b60405180910390f35b61052a60048036038101906105259190612d2c565b6118f0565b005b610546600480360381019061054191906131b5565b611960565b6040516105539190612a41565b60405180910390f35b610576600480360381019061057191906131f5565b6119f4565b005b60007f80ac58cd000000000000000000000000000000000000000000000000000000007bffffffffffffffffffffffffffffffffffffffffffffffffffffffff1916827bffffffffffffffffffffffffffffffffffffffffffffffffffffffff1916149050919050565b600080546105ef90613264565b80601f016020809104026020016040519081016040528092919081815260200182805461061b90613264565b80156106685780601f1061063d57610100808354040283529160200191610668565b820191906000526020600020905b81548152906001019060200180831161064b57829003601f168201915b505050505081565b60008073ffffffffffffffffffffffffffffffffffffffff166004600084815260200190815260200160002060009054906101000a900473ffffffffffffffffffffffffffffffffffffffff1673ffffffffffffffffffffffffffffffffffffffff1603610713576040517f08c379a000000000000000000000000000000000000000000000000000000000815260040161070a90613307565b60405180910390fd5b6005600083815260200190815260200160002060009054906101000a900473ffffffffffffffffffffffffffffffffffffffff169050919050565b60006004600083815260200190815260200160002060009054906101000a900473ffffffffffffffffffffffffffffffffffffffff1690508073ffffffffffffffffffffffffffffffffffffffff168373ffffffffffffffffffffffffffffffffffffffff16036107f4576040517f08c379a00000000000000000000000000000000000000000000000000000000081526004016107eb90613399565b60405180910390fd5b8073ffffffffffffffffffffffffffffffffffffffff163373ffffffffffffffffffffffffffffffffffffffff16148061083457506108338133611960565b5b610873576040517f08c379a000000000000000000000000000000000000000000000000000000000815260040161086a9061342b565b60405180910390fd5b61087d8383611aaf565b505050565b606060006001600c54610895919061347a565b67ffffffffffffffff8111156108ae576108ad613041565b5b6040519080825280602002602001820160405280156108dc5781602001602082028036833780820191505090505b5090506000805b600c5481101561095357600b600082815260200190815260200160002060009054906101000a900460ff16156109405780838380610920906134d0565b94508151811061093357610932613518565b5b6020026020010181815250505b808061094b906134d0565b9150506108e3565b5060008167ffffffffffffffff8111156109705761096f613041565b5b60405190808252806020026020018201604052801561099e5781602001602082028036833780820191505090505b50905060005b828110156109f9578381815181106109bf576109be613518565b5b60200260200101518282815181106109da576109d9613518565b5b60200260200101818152505080806109f1906134d0565b9150506109a4565b5080935050505090565b610a0e838383611b93565b505050565b3073ffffffffffffffffffffffffffffffffffffffff1663b88d4fde8484846040518463ffffffff1660e01b8152600401610a509392919061357e565b600060405180830381600087803b158015610a6a57600080fd5b505af1158015610a7e573d6000803e3d6000fd5b50505050505050565b60006004600083815260200190815260200160002060009054906101000a900473ffffffffffffffffffffffffffffffffffffffff169050600073ffffffffffffffffffffffffffffffffffffffff168173ffffffffffffffffffffffffffffffffffffffff1603610b2e576040517f08c379a0000000000000000000000000000000000000000000000000000000008152600401610b259061363a565b60405180910390fd5b3373ffffffffffffffffffffffffffffffffffffffff168173ffffffffffffffffffffffffffffffffffffffff16148015610b8657506009600083815260200190815260200160002060009054906101000a900460ff165b80610bda5750600a60003373ffffffffffffffffffffffffffffffffffffffff1673ffffffffffffffffffffffffffffffffffffffff16815260200190815260200160002060009054906101000a900460ff165b610c19576040517f08c379a0000000000000000000000000000000000000000000000000000000008152600401610c109061373e565b60405180910390fd5b610c24600083611aaf565b600360008273ffffffffffffffffffffffffffffffffffffffff1673ffffffffffffffffffffffffffffffffffffffff1681526020019081526020016000206000815480929190610c749061375e565b919050555060006009600084815260200190815260200160002060006101000a81548160ff0219169083151502179055506000610d3e600860008473ffffffffffffffffffffffffffffffffffffffff1673ffffffffffffffffffffffffffffffffffffffff168152602001908152602001600020805480602002602001604051908101604052809291908181526020018280548015610d3357602002820191906000526020600020905b815481526020019060010190808311610d1f575b5050505050846121c7565b905060008112610eb757600860008373ffffffffffffffffffffffffffffffffffffffff1673ffffffffffffffffffffffffffffffffffffffff1681526020019081526020016000206001600860008573ffffffffffffffffffffffffffffffffffffffff1673ffffffffffffffffffffffffffffffffffffffff16815260200190815260200160002080549050610dd69190613787565b81548110610de757610de6613518565b5b9060005260206000200154600860008473ffffffffffffffffffffffffffffffffffffffff1673ffffffffffffffffffffffffffffffffffffffff1681526020019081526020016000208281548110610e4357610e42613518565b5b9060005260206000200181905550600860008373ffffffffffffffffffffffffffffffffffffffff1673ffffffffffffffffffffffffffffffffffffffff168152602001908152602001600020805480610ea057610e9f6137bb565b5b600190038181906000526020600020016000905590555b6004600084815260200190815260200160002060006101000a81549073ffffffffffffffffffffffffffffffffffffffff0219169055600760008481526020019081526020016000206000610f0c91906128aa565b82600073ffffffffffffffffffffffffffffffffffffffff168373ffffffffffffffffffffffffffffffffffffffff167fddf252ad1be2c89b69c2b068fc378daa952ba7f163c4a11628f55a4df523b3ef60405160405180910390a4505050565b600a6020528060005260406000206000915054906101000a900460ff1681565b600d5481565b60606000600860003373ffffffffffffffffffffffffffffffffffffffff1673ffffffffffffffffffffffffffffffffffffffff16815260200190815260200160002080549050905060008167ffffffffffffffff811115610ff857610ff7613041565b5b6040519080825280602002602001820160405280156110265781602001602082028036833780820191505090505b50905060005b828110156110c257600860003373ffffffffffffffffffffffffffffffffffffffff1673ffffffffffffffffffffffffffffffffffffffff168152602001908152602001600020818154811061108557611084613518565b5b90600052602060002001548282815181106110a3576110a2613518565b5b60200260200101818152505080806110ba906134d0565b91505061102c565b50809250505090565b60008073ffffffffffffffffffffffffffffffffffffffff166004600084815260200190815260200160002060009054906101000a900473ffffffffffffffffffffffffffffffffffffffff1673ffffffffffffffffffffffffffffffffffffffff160361116e576040517f08c379a000000000000000000000000000000000000000000000000000000000815260040161116590613307565b60405180910390fd5b6004600083815260200190815260200160002060009054906101000a900473ffffffffffffffffffffffffffffffffffffffff169050919050565b60008073ffffffffffffffffffffffffffffffffffffffff168273ffffffffffffffffffffffffffffffffffffffff1603611219576040517f08c379a00000000000000000000000000000000000000000000000000000000081526004016112109061385c565b60405180910390fd5b600360008373ffffffffffffffffffffffffffffffffffffffff1673ffffffffffffffffffffffffffffffffffffffff168152602001908152602001600020549050919050565b600b6020528060005260406000206000915054906101000a900460ff1681565b600260009054906101000a900473ffffffffffffffffffffffffffffffffffffffff1673ffffffffffffffffffffffffffffffffffffffff163373ffffffffffffffffffffffffffffffffffffffff1614611310576040517f08c379a0000000000000000000000000000000000000000000000000000000008152600401611307906138ee565b60405180910390fd5b80600a60008473ffffffffffffffffffffffffffffffffffffffff1673ffffffffffffffffffffffffffffffffffffffff16815260200190815260200160002060006101000a81548160ff0219169083151502179055505050565b600260009054906101000a900473ffffffffffffffffffffffffffffffffffffffff1681565b6001805461139e90613264565b80601f01602080910402602001604051908101604052809291908181526020018280546113ca90613264565b80156114175780601f106113ec57610100808354040283529160200191611417565b820191906000526020600020905b8154815290600101906020018083116113fa57829003601f168201915b505050505081565b600a60003373ffffffffffffffffffffffffffffffffffffffff1673ffffffffffffffffffffffffffffffffffffffff16815260200190815260200160002060009054906101000a900460ff166114ab576040517f08c379a00000000000000000000000000000000000000000000000000000000081526004016114a290613980565b60405180910390fd5b80156114e457600160096000600d54815260200190815260200160002060006101000a81548160ff0219169083151502179055506114f0565b6114ef600d54610a87565b5b600d6000815480929190611503906134d0565b919050555050565b8173ffffffffffffffffffffffffffffffffffffffff163373ffffffffffffffffffffffffffffffffffffffff1603611579576040517f08c379a000000000000000000000000000000000000000000000000000000000815260040161157090613a12565b60405180910390fd5b80600660003373ffffffffffffffffffffffffffffffffffffffff1673ffffffffffffffffffffffffffffffffffffffff16815260200190815260200160002060008473ffffffffffffffffffffffffffffffffffffffff1673ffffffffffffffffffffffffffffffffffffffff16815260200190815260200160002060006101000a81548160ff0219169083151502179055508173ffffffffffffffffffffffffffffffffffffffff163373ffffffffffffffffffffffffffffffffffffffff167f17307eab39ab6107e8899845ad3d59bd9653f200f220920489ca2b5937696c318360405161166a9190612a41565b60405180910390a35050565b60096020528060005260406000206000915054906101000a900460ff1681565b6116a1858585611b93565b6116f185858585858080601f016020809104026020016040519081016040528093929190818152602001838380828437600081840152601f19601f8201169050808301925050505050505061224b565b611730576040517f08c379a000000000000000000000000000000000000000000000000000000000815260040161172790613aca565b60405180910390fd5b5050505050565b6060600073ffffffffffffffffffffffffffffffffffffffff166004600084815260200190815260200160002060009054906101000a900473ffffffffffffffffffffffffffffffffffffffff1673ffffffffffffffffffffffffffffffffffffffff16036117db576040517f08c379a00000000000000000000000000000000000000000000000000000000081526004016117d290613b5c565b60405180910390fd5b6117e36123b5565b60076000848152602001908152602001600020604051602001611807929190613c4c565b6040516020818303038152906040529050919050565b600c5481565b600080600c549050600e60009054906101000a900473ffffffffffffffffffffffffffffffffffffffff1673ffffffffffffffffffffffffffffffffffffffff16633aa3a87e3360016040518363ffffffff1660e01b8152600401611889929190613cb5565b600060405180830381600087803b1580156118a357600080fd5b505af11580156118b7573d6000803e3d6000fd5b505050506118c533826123f2565b6118cf8184612410565b600c60008154809291906118e2906134d0565b919050555080915050919050565b600b600082815260200190815260200160002060009054906101000a900460ff16611950576040517f08c379a000000000000000000000000000000000000000000000000000000000815260040161194790613d50565b60405180910390fd5b61195b838383610a13565b505050565b6000600660008473ffffffffffffffffffffffffffffffffffffffff1673ffffffffffffffffffffffffffffffffffffffff16815260200190815260200160002060008373ffffffffffffffffffffffffffffffffffffffff1673ffffffffffffffffffffffffffffffffffffffff16815260200190815260200160002060009054906101000a900460ff16905092915050565b6119fe33836124de565b611a3d576040517f08c379a0000000000000000000000000000000000000000000000000000000008152600401611a3490613e08565b60405180910390fd5b80600b600084815260200190815260200160002060006101000a81548160ff0219169083151502179055508015611a9f57611a9a600f60009054906101000a900473ffffffffffffffffffffffffffffffffffffffff1683611aaf565b611aab565b611aaa600083611aaf565b5b5050565b816005600083815260200190815260200160002060006101000a81548173ffffffffffffffffffffffffffffffffffffffff021916908373ffffffffffffffffffffffffffffffffffffffff160217905550808273ffffffffffffffffffffffffffffffffffffffff166004600084815260200190815260200160002060009054906101000a900473ffffffffffffffffffffffffffffffffffffffff1673ffffffffffffffffffffffffffffffffffffffff167f8c5be1e5ebec7d5bd14f71427d1e84f3dd0314c0f7b2291e5b200ac8c7c3b92560405160405180910390a45050565b600073ffffffffffffffffffffffffffffffffffffffff168373ffffffffffffffffffffffffffffffffffffffff1603611c02576040517f08c379a0000000000000000000000000000000000000000000000000000000008152600401611bf990613e9a565b60405180910390fd5b600073ffffffffffffffffffffffffffffffffffffffff168273ffffffffffffffffffffffffffffffffffffffff1603611c71576040517f08c379a0000000000000000000000000000000000000000000000000000000008152600401611c6890613f2c565b60405180910390fd5b8273ffffffffffffffffffffffffffffffffffffffff166004600083815260200190815260200160002060009054906101000a900473ffffffffffffffffffffffffffffffffffffffff1673ffffffffffffffffffffffffffffffffffffffff1614611d12576040517f08c379a0000000000000000000000000000000000000000000000000000000008152600401611d0990613fbe565b60405180910390fd5b6009600082815260200190815260200160002060009054906101000a900460ff16611d72576040517f08c379a0000000000000000000000000000000000000000000000000000000008152600401611d6990614076565b60405180910390fd5b611d7c33826124de565b611dbb576040517f08c379a0000000000000000000000000000000000000000000000000000000008152600401611db29061412e565b60405180910390fd5b611dc6600082611aaf565b600360008473ffffffffffffffffffffffffffffffffffffffff1673ffffffffffffffffffffffffffffffffffffffff1681526020019081526020016000206000815480929190611e169061375e565b9190505550600360008373ffffffffffffffffffffffffffffffffffffffff1673ffffffffffffffffffffffffffffffffffffffff1681526020019081526020016000206000815480929190611e6b906134d0565b91905055506000611f09600860008673ffffffffffffffffffffffffffffffffffffffff1673ffffffffffffffffffffffffffffffffffffffff168152602001908152602001600020805480602002602001604051908101604052809291908181526020018280548015611efe57602002820191906000526020600020905b815481526020019060010190808311611eea575b5050505050836121c7565b90506000811261208257600860008573ffffffffffffffffffffffffffffffffffffffff1673ffffffffffffffffffffffffffffffffffffffff1681526020019081526020016000206001600860008773ffffffffffffffffffffffffffffffffffffffff1673ffffffffffffffffffffffffffffffffffffffff16815260200190815260200160002080549050611fa19190613787565b81548110611fb257611fb1613518565b5b9060005260206000200154600860008673ffffffffffffffffffffffffffffffffffffffff1673ffffffffffffffffffffffffffffffffffffffff168152602001908152602001600020828154811061200e5761200d613518565b5b9060005260206000200181905550600860008573ffffffffffffffffffffffffffffffffffffffff1673ffffffffffffffffffffffffffffffffffffffff16815260200190815260200160002080548061206b5761206a6137bb565b5b600190038181906000526020600020016000905590555b600860008473ffffffffffffffffffffffffffffffffffffffff1673ffffffffffffffffffffffffffffffffffffffff168152602001908152602001600020829080600181540180825580915050600190039060005260206000200160009091909190915055826004600084815260200190815260200160002060006101000a81548173ffffffffffffffffffffffffffffffffffffffff021916908373ffffffffffffffffffffffffffffffffffffffff1602179055506000600b600084815260200190815260200160002060006101000a81548160ff021916908315150217905550818373ffffffffffffffffffffffffffffffffffffffff168573ffffffffffffffffffffffffffffffffffffffff167fddf252ad1be2c89b69c2b068fc378daa952ba7f163c4a11628f55a4df523b3ef60405160405180910390a450505050565b600080600090505b600184516121dd9190613787565b811161222057828482815181106121f7576121f6613518565b5b60200260200101510361220d5780915050612245565b8080612218906134d0565b9150506121cf565b507fffffffffffffffffffffffffffffffffffffffffffffffffffffffffffffffff90505b92915050565b6000612256846125cc565b156123a8578373ffffffffffffffffffffffffffffffffffffffff1663150b7a02338786866040518563ffffffff1660e01b815260040161229a9493929190614192565b6020604051808303816000875af19250505080156122d657506040513d601f19601f820116820180604052508101906122d391906141f3565b60015b612358573d8060008114612306576040519150601f19603f3d011682016040523d82523d6000602084013e61230b565b606091505b506000815103612350576040517f08c379a000000000000000000000000000000000000000000000000000000000815260040161234790613aca565b60405180910390fd5b805181602001fd5b63150b7a0260e01b7bffffffffffffffffffffffffffffffffffffffffffffffffffffffff1916817bffffffffffffffffffffffffffffffffffffffffffffffffffffffff1916149150506123ad565b600190505b949350505050565b60606040518060400160405280601581526020017f68747470733a2f2f697066732e696f2f697066732f0000000000000000000000815250905090565b61240c8282604051806020016040528060008152506125df565b5050565b600073ffffffffffffffffffffffffffffffffffffffff166004600084815260200190815260200160002060009054906101000a900473ffffffffffffffffffffffffffffffffffffffff1673ffffffffffffffffffffffffffffffffffffffff16036124b2576040517f08c379a00000000000000000000000000000000000000000000000000000000081526004016124a990614292565b60405180910390fd5b806007600084815260200190815260200160002090805190602001906124d99291906128ea565b505050565b60008273ffffffffffffffffffffffffffffffffffffffff166004600084815260200190815260200160002060009054906101000a900473ffffffffffffffffffffffffffffffffffffffff1673ffffffffffffffffffffffffffffffffffffffff16148061258057508273ffffffffffffffffffffffffffffffffffffffff1661256883610670565b73ffffffffffffffffffffffffffffffffffffffff16145b806125c457506125c36004600084815260200190815260200160002060009054906101000a900473ffffffffffffffffffffffffffffffffffffffff1684611960565b5b905092915050565b600080823b905060008111915050919050565b600073ffffffffffffffffffffffffffffffffffffffff168373ffffffffffffffffffffffffffffffffffffffff160361264e576040517f08c379a000000000000000000000000000000000000000000000000000000000815260040161264590613f2c565b60405180910390fd5b600073ffffffffffffffffffffffffffffffffffffffff166004600084815260200190815260200160002060009054906101000a900473ffffffffffffffffffffffffffffffffffffffff1673ffffffffffffffffffffffffffffffffffffffff16146126f0576040517f08c379a00000000000000000000000000000000000000000000000000000000081526004016126e790614324565b60405180910390fd5b600360008473ffffffffffffffffffffffffffffffffffffffff1673ffffffffffffffffffffffffffffffffffffffff1681526020019081526020016000206000815480929190612740906134d0565b9190505550826004600084815260200190815260200160002060006101000a81548173ffffffffffffffffffffffffffffffffffffffff021916908373ffffffffffffffffffffffffffffffffffffffff160217905550600860008473ffffffffffffffffffffffffffffffffffffffff1673ffffffffffffffffffffffffffffffffffffffff168152602001908152602001600020829080600181540180825580915050600190039060005260206000200160009091909190915055818373ffffffffffffffffffffffffffffffffffffffff16600073ffffffffffffffffffffffffffffffffffffffff167fddf252ad1be2c89b69c2b068fc378daa952ba7f163c4a11628f55a4df523b3ef60405160405180910390a4612866600084848461224b565b6128a5576040517f08c379a000000000000000000000000000000000000000000000000000000000815260040161289c90613aca565b60405180910390fd5b505050565b5080546128b690613264565b6000825580601f106128c857506128e7565b601f0160209004906000526020600020908101906128e69190612970565b5b50565b8280546128f690613264565b90600052602060002090601f016020900481019282612918576000855561295f565b82601f1061293157805160ff191683800117855561295f565b8280016001018555821561295f579182015b8281111561295e578251825591602001919060010190612943565b5b50905061296c9190612970565b5090565b5b80821115612989576000816000905550600101612971565b5090565b6000604051905090565b600080fd5b600080fd5b60007fffffffff0000000000000000000000000000000000000000000000000000000082169050919050565b6129d6816129a1565b81146129e157600080fd5b50565b6000813590506129f3816129cd565b92915050565b600060208284031215612a0f57612a0e612997565b5b6000612a1d848285016129e4565b91505092915050565b60008115159050919050565b612a3b81612a26565b82525050565b6000602082019050612a566000830184612a32565b92915050565b600081519050919050565b600082825260208201905092915050565b60005b83811015612a96578082015181840152602081019050612a7b565b83811115612aa5576000848401525b50505050565b6000601f19601f8301169050919050565b6000612ac782612a5c565b612ad18185612a67565b9350612ae1818560208601612a78565b612aea81612aab565b840191505092915050565b60006020820190508181036000830152612b0f8184612abc565b905092915050565b6000819050919050565b612b2a81612b17565b8114612b3557600080fd5b50565b600081359050612b4781612b21565b92915050565b600060208284031215612b6357612b62612997565b5b6000612b7184828501612b38565b91505092915050565b600073ffffffffffffffffffffffffffffffffffffffff82169050919050565b6000612ba582612b7a565b9050919050565b612bb581612b9a565b82525050565b6000602082019050612bd06000830184612bac565b92915050565b612bdf81612b9a565b8114612bea57600080fd5b50565b600081359050612bfc81612bd6565b92915050565b60008060408385031215612c1957612c18612997565b5b6000612c2785828601612bed565b9250506020612c3885828601612b38565b9150509250929050565b600081519050919050565b600082825260208201905092915050565b6000819050602082019050919050565b6000819050919050565b612c8181612c6e565b82525050565b6000612c938383612c78565b60208301905092915050565b6000602082019050919050565b6000612cb782612c42565b612cc18185612c4d565b9350612ccc83612c5e565b8060005b83811015612cfd578151612ce48882612c87565b9750612cef83612c9f565b925050600181019050612cd0565b5085935050505092915050565b60006020820190508181036000830152612d248184612cac565b905092915050565b600080600060608486031215612d4557612d44612997565b5b6000612d5386828701612bed565b9350506020612d6486828701612bed565b9250506040612d7586828701612b38565b9150509250925092565b600060208284031215612d9557612d94612997565b5b6000612da384828501612bed565b91505092915050565b612db581612b17565b82525050565b6000602082019050612dd06000830184612dac565b92915050565b600081519050919050565b600082825260208201905092915050565b6000819050602082019050919050565b612e0b81612b17565b82525050565b6000612e1d8383612e02565b60208301905092915050565b6000602082019050919050565b6000612e4182612dd6565b612e4b8185612de1565b9350612e5683612df2565b8060005b83811015612e87578151612e6e8882612e11565b9750612e7983612e29565b925050600181019050612e5a565b5085935050505092915050565b60006020820190508181036000830152612eae8184612e36565b905092915050565b612ebf81612a26565b8114612eca57600080fd5b50565b600081359050612edc81612eb6565b92915050565b60008060408385031215612ef957612ef8612997565b5b6000612f0785828601612bed565b9250506020612f1885828601612ecd565b9150509250929050565b600060208284031215612f3857612f37612997565b5b6000612f4684828501612ecd565b91505092915050565b600080fd5b600080fd5b600080fd5b60008083601f840112612f7457612f73612f4f565b5b8235905067ffffffffffffffff811115612f9157612f90612f54565b5b602083019150836001820283011115612fad57612fac612f59565b5b9250929050565b600080600080600060808688031215612fd057612fcf612997565b5b6000612fde88828901612bed565b9550506020612fef88828901612bed565b945050604061300088828901612b38565b935050606086013567ffffffffffffffff8111156130215761302061299c565b5b61302d88828901612f5e565b92509250509295509295909350565b600080fd5b7f4e487b7100000000000000000000000000000000000000000000000000000000600052604160045260246000fd5b61307982612aab565b810181811067ffffffffffffffff8211171561309857613097613041565b5b80604052505050565b60006130ab61298d565b90506130b78282613070565b919050565b600067ffffffffffffffff8211156130d7576130d6613041565b5b6130e082612aab565b9050602081019050919050565b82818337600083830152505050565b600061310f61310a846130bc565b6130a1565b90508281526020810184848401111561312b5761312a61303c565b5b6131368482856130ed565b509392505050565b600082601f83011261315357613152612f4f565b5b81356131638482602086016130fc565b91505092915050565b60006020828403121561318257613181612997565b5b600082013567ffffffffffffffff8111156131a05761319f61299c565b5b6131ac8482850161313e565b91505092915050565b600080604083850312156131cc576131cb612997565b5b60006131da85828601612bed565b92505060206131eb85828601612bed565b9150509250929050565b6000806040838503121561320c5761320b612997565b5b600061321a85828601612b38565b925050602061322b85828601612ecd565b9150509250929050565b7f4e487b7100000000000000000000000000000000000000000000000000000000600052602260045260246000fd5b6000600282049050600182168061327c57607f821691505b60208210810361328f5761328e613235565b5b50919050565b7f4552433732313a20546f6b656e207769746820656e746572656420494420646f60008201527f6573206e6f742065786973740000000000000000000000000000000000000000602082015250565b60006132f1602c83612a67565b91506132fc82613295565b604082019050919050565b60006020820190508181036000830152613320816132e4565b9050919050565b7f4552433732313a206f776e65722063616e6e6f7420617070726f76652068696d60008201527f73656c662f68657273656c660000000000000000000000000000000000000000602082015250565b6000613383602c83612a67565b915061338e82613327565b604082019050919050565b600060208201905081810360008301526133b281613376565b9050919050565b7f4552433732313a2063616c6c6572206d757374206f776e2074686520746f6b6560008201527f6e206f7220626520617070726f76656420666f7220616c6c0000000000000000602082015250565b6000613415603883612a67565b9150613420826133b9565b604082019050919050565b6000602082019050818103600083015261344481613408565b9050919050565b7f4e487b7100000000000000000000000000000000000000000000000000000000600052601160045260246000fd5b600061348582612b17565b915061349083612b17565b9250827fffffffffffffffffffffffffffffffffffffffffffffffffffffffffffffffff038211156134c5576134c461344b565b5b828201905092915050565b60006134db82612b17565b91507fffffffffffffffffffffffffffffffffffffffffffffffffffffffffffffffff820361350d5761350c61344b565b5b600182019050919050565b7f4e487b7100000000000000000000000000000000000000000000000000000000600052603260045260246000fd5b600082825260208201905092915050565b50565b6000613568600083613547565b915061357382613558565b600082019050919050565b60006080820190506135936000830186612bac565b6135a06020830185612bac565b6135ad6040830184612dac565b81810360608301526135be8161355b565b9050949350505050565b7f4552433732313a206e6f20746f6b656e2077697468207468652073706563696660008201527f69656420494420776173206d696e746564206265666f72650000000000000000602082015250565b6000613624603883612a67565b915061362f826135c8565b604082019050919050565b6000602082019050818103600083015261365381613617565b9050919050565b7f4552433732313a206120746f6b656e207769746820746865207370656369666960008201527f6564204944206973206e6f74206f776e6564206279207468652073656e64657260208201527f2c206f72206973206e6f74207472616e7366657261626c65207965742c206f7260408201527f207468652063616c6c6572206d6179206e6f7420626520616e2061646d696e2060608201527f746f20626520616c6c6f77656420746f206275726e2069740000000000000000608082015250565b6000613728609883612a67565b91506137338261365a565b60a082019050919050565b600060208201905081810360008301526137578161371b565b9050919050565b600061376982612b17565b91506000820361377c5761377b61344b565b5b600182039050919050565b600061379282612b17565b915061379d83612b17565b9250828210156137b0576137af61344b565b5b828203905092915050565b7f4e487b7100000000000000000000000000000000000000000000000000000000600052603160045260246000fd5b7f4552433732313a2061646472657373206f776e65722063616e6e6f742062652060008201527f746865207a65726f206164647265737300000000000000000000000000000000602082015250565b6000613846603083612a67565b9150613851826137ea565b604082019050919050565b6000602082019050818103600083015261387581613839565b9050919050565b7f4552433732313a204f6e6c79206f776e657220697320616c6c6f77656420746f60008201527f20646f20746869732066756e6374696f6e616c69747900000000000000000000602082015250565b60006138d8603683612a67565b91506138e38261387c565b604082019050919050565b60006020820190508181036000830152613907816138cb565b9050919050565b7f4552433732313a204f6e6c792061646d696e732061726520616c6c6f7765642060008201527f746f20646f20746869732066756e6374696f6e616c6974790000000000000000602082015250565b600061396a603883612a67565b91506139758261390e565b604082019050919050565b600060208201905081810360008301526139998161395d565b9050919050565b7f4552433732313a2073656e6465722063616e6e6f742073657420617070726f7660008201527f616c20666f722068696d73656c662f68657273656c6600000000000000000000602082015250565b60006139fc603683612a67565b9150613a07826139a0565b604082019050919050565b60006020820190508181036000830152613a2b816139ef565b9050919050565b7f4552433732313a207472616e736665722063616e6e6f7420636f6d706c65746560008201527f20746f206120736d61727420636f6e7472616374206e6f7420696d706c656d6560208201527f6e74696e67204552433732315265636569766572000000000000000000000000604082015250565b6000613ab4605483612a67565b9150613abf82613a32565b606082019050919050565b60006020820190508181036000830152613ae381613aa7565b9050919050565b7f4552433732313a2063616e6e6f742067657420555249206f66206e6f6e65786960008201527f7374656e7420746f6b656e000000000000000000000000000000000000000000602082015250565b6000613b46602b83612a67565b9150613b5182613aea565b604082019050919050565b60006020820190508181036000830152613b7581613b39565b9050919050565b600081905092915050565b6000613b9282612a5c565b613b9c8185613b7c565b9350613bac818560208601612a78565b80840191505092915050565b60008190508160005260206000209050919050565b60008154613bda81613264565b613be48186613b7c565b94506001821660008114613bff5760018114613c1057613c43565b60ff19831686528186019350613c43565b613c1985613bb8565b60005b83811015613c3b57815481890152600182019150602081019050613c1c565b838801955050505b50505092915050565b6000613c588285613b87565b9150613c648284613bcd565b91508190509392505050565b6000819050919050565b6000819050919050565b6000613c9f613c9a613c9584613c70565b613c7a565b612b17565b9050919050565b613caf81613c84565b82525050565b6000604082019050613cca6000830185612bac565b613cd76020830184613ca6565b9392505050565b7f4e65726f734e46543a205468697320746f6b656e206973206e6f7420666f722060008201527f73616c6500000000000000000000000000000000000000000000000000000000602082015250565b6000613d3a602483612a67565b9150613d4582613cde565b604082019050919050565b60006020820190508181036000830152613d6981613d2d565b9050919050565b7f4e65726f734e46543a2053656e646572206973206e656974686572207468652060008201527f6f776e6572206e6f7220617070726f76656420746f20646f207468697320747260208201527f616e73616374696f6e0000000000000000000000000000000000000000000000604082015250565b6000613df2604983612a67565b9150613dfd82613d70565b606082019050919050565b60006020820190508181036000830152613e2181613de5565b9050919050565b7f4552433732313a2066726f6d206164647265737320656e74657265642063616e60008201527f6e6f7420626520746865207a65726f2061646472657373000000000000000000602082015250565b6000613e84603783612a67565b9150613e8f82613e28565b604082019050919050565b60006020820190508181036000830152613eb381613e77565b9050919050565b7f4552433732313a20746f206164647265737320656e74657265642063616e6e6f60008201527f7420626520746865207a65726f20616464726573730000000000000000000000602082015250565b6000613f16603583612a67565b9150613f2182613eba565b604082019050919050565b60006020820190508181036000830152613f4581613f09565b9050919050565b7f4552433732313a20546f6b656e207769746820656e746572656420494420697360008201527f206e6f74206f776e6564206279207468652066726f6d20616464726573730000602082015250565b6000613fa8603e83612a67565b9150613fb382613f4c565b604082019050919050565b60006020820190508181036000830152613fd781613f9b565b9050919050565b7f4552433732313a20546f6b656e2063616e6e6f74206265207472616e7366657260008201527f656420796574206173207472616e73666572206f662073746f636b206f776e6560208201527f7273686970206973206e6f742079657420766572696669656400000000000000604082015250565b6000614060605983612a67565b915061406b82613fde565b606082019050919050565b6000602082019050818103600083015261408f81614053565b9050919050565b7f4552433732313a2053656e646572206973206e65697468657220746865206f7760008201527f6e6572206e6f7220617070726f76656420746f20646f2074686973207472616e60208201527f73616374696f6e00000000000000000000000000000000000000000000000000604082015250565b6000614118604783612a67565b915061412382614096565b606082019050919050565b600060208201905081810360008301526141478161410b565b9050919050565b600081519050919050565b60006141648261414e565b61416e8185613547565b935061417e818560208601612a78565b61418781612aab565b840191505092915050565b60006080820190506141a76000830187612bac565b6141b46020830186612bac565b6141c16040830185612dac565b81810360608301526141d38184614159565b905095945050505050565b6000815190506141ed816129cd565b92915050565b60006020828403121561420957614208612997565b5b6000614217848285016141de565b91505092915050565b7f4552433732313a2063616e6e6f742073657420555249206f662061206e6f6e6560008201527f78697374656e7420746f6b656e00000000000000000000000000000000000000602082015250565b600061427c602d83612a67565b915061428782614220565b604082019050919050565b600060208201905081810360008301526142ab8161426f565b9050919050565b7f4552433732313a206120746f6b656e207769746820746865207370656369666960008201527f656420494420697320616c7265616479206d696e746564000000000000000000602082015250565b600061430e603783612a67565b9150614319826142b2565b604082019050919050565b6000602082019050818103600083015261433d81614301565b905091905056fea264697066735822122031c95003faae18048661e0df0c40909010e66a3d6d9ac38bf1033037e8ed5d0f64736f6c634300080d0033",
  "immutableReferences": {},
  "source": "//SPDX-License-Identifier: MIT\r\npragma solidity ^0.8.13;\r\n\r\nimport \"./ERC721.sol\";\r\nimport \"./NerosNFTCoin.sol\";\r\n\r\ncontract NerosNFT is ERC721 {\r\n  uint256 public tokenCounter;\r\n  uint256 public tokenIdToCheck;\r\n\r\n  NerosNFTCoin private nerosNFTCoin;\r\n  address private nerosContract;\r\n\r\n  constructor(address _nerosNFTCoin, address _nerosContract) ERC721 (\"NerosNFT\", \"NROT\"){\r\n      tokenCounter = 0;\r\n      tokenIdToCheck = 0;\r\n      nerosNFTCoin = NerosNFTCoin(_nerosNFTCoin);\r\n      nerosContract = _nerosContract;\r\n  }\r\n\r\n  function createNFT(string memory tokenURI) public returns (uint256) {\r\n      uint256 newItemId = tokenCounter;\r\n      //BURN NerosNFTCoin\r\n      nerosNFTCoin.burnNFTCoin(msg.sender, 1);\r\n      safeMint(msg.sender, newItemId);\r\n      setTokenURI(newItemId, tokenURI);\r\n      tokenCounter++;\r\n      return newItemId;\r\n  }\r\n\r\n  function setTransferable(bool transferable) public onlyAdmin {\r\n      if(transferable){\r\n        isTransferable[tokenIdToCheck] = true;\r\n      } else {\r\n        burn(tokenIdToCheck);\r\n      }\r\n      tokenIdToCheck++;\r\n  }\r\n\r\n  function setForSale(uint tokenId, bool forSale) public {\r\n    require(isApprovedOrIsOwner(msg.sender, tokenId), \"NerosNFT: Sender is neither the owner nor approved to do this transaction\");\r\n    isForSale[tokenId] = forSale;\r\n    if(forSale) {\r\n      _approve(nerosContract, tokenId);\r\n    } else {\r\n      _approve(address(0), tokenId);\r\n    }\r\n  }\r\n\r\n  function getAllForSale() public view returns (int[] memory) {\r\n    int[] memory res = new int[](tokenCounter + 1);\r\n    uint index = 0;\r\n    for(uint i = 0; i < tokenCounter; i++){\r\n      if(isForSale[i]){\r\n         res[index++] = int(i);\r\n      }\r\n    }\r\n    int[] memory resFinal = new int[](index);\r\n    for(uint i = 0; i < index; i++){\r\n      resFinal[i] = res[i];\r\n    }\r\n    return resFinal;\r\n  }\r\n\r\n  function getMyNFTs() public view returns (uint[] memory) {\r\n    uint length = ownedTokens[msg.sender].length;\r\n    uint[] memory res = new uint[](length);\r\n    for(uint i = 0; i < length; i++) {\r\n      res[i] = ownedTokens[msg.sender][i];\r\n    }\r\n    return res;\r\n  }\r\n\r\n  function exchangeNFT(address from, address to, uint256 tokenId) public {\r\n    require(isForSale[tokenId], \"NerosNFT: This token is not for sale\");\r\n    safeTransferFrom(from, to, tokenId);\r\n  }\r\n}\r\n",
  "sourcePath": "D:\\S8\\Neros\\contracts\\NerosNFT.sol",
  "compiler": {
    "name": "solc",
    "version": "0.8.13+commit.abaa5c0e.Emscripten.clang"
  },
  "schemaVersion": "3.4.6",
  "updatedAt": "2022-06-01T23:46:06.897Z",
  "networkType": "ethereum",
  "devdoc": {
    "kind": "dev",
    "methods": {
      "approve(address,uint256)": {
        "details": "Gives permission to `to` to transfer `tokenId` token to another account. The approval is cleared when the token is transferred. Only a single account can be approved at a time, so approving the zero address clears previous approvals. Requirements: - The caller must own the token or be an approved operator. - `tokenId` must exist. Emits an {Approval} event."
      },
      "getApproved(uint256)": {
        "details": "Returns the account approved for `tokenId` token. Requirements: - `tokenId` must exist."
      },
      "ownerOf(uint256)": {
        "details": "Returns the owner of the `tokenId` token. Requirements: - `tokenId` must exist."
      },
      "safeTransferFrom(address,address,uint256)": {
        "details": "Safely transfers `tokenId` token from `from` to `to`, checking first that contract recipients are aware of the ERC721 protocol to prevent tokens from being forever locked. Requirements: - `from` cannot be the zero address. - `to` cannot be the zero address. - `tokenId` token must exist and be owned by `from`. - If the caller is not `from`, it must be have been allowed to move this token by either {approve} or {setApprovalForAll}. - If `to` refers to a smart contract, it must implement {IERC721Receiver-onERC721Received}, which is called upon a safe transfer. Emits a {Transfer} event."
      },
      "safeTransferFrom(address,address,uint256,bytes)": {
        "details": "Safely transfers `tokenId` token from `from` to `to`. Requirements: - `from` cannot be the zero address. - `to` cannot be the zero address. - `tokenId` token must exist and be owned by `from`. - If the caller is not `from`, it must be approved to move this token by either {approve} or {setApprovalForAll}. - If `to` refers to a smart contract, it must implement {IERC721Receiver-onERC721Received}, which is called upon a safe transfer. Emits a {Transfer} event."
      },
      "supportsInterface(bytes4)": {
        "details": "Returns true if this contract implements the interface defined by `interfaceId`. See the corresponding https://eips.ethereum.org/EIPS/eip-165#how-interfaces-are-identified[EIP section] to learn more about how these ids are created. This function call must use less than 30 000 gas."
      },
      "tokenURI(uint256)": {
        "details": "Returns the Uniform Resource Identifier (URI) for `tokenId` token."
      },
      "transferFrom(address,address,uint256)": {
        "details": "Transfers `tokenId` token from `from` to `to`. WARNING: Usage of this method is discouraged, use {safeTransferFrom} whenever possible. Requirements: - `from` cannot be the zero address. - `to` cannot be the zero address. - `tokenId` token must be owned by `from`. - If the caller is not `from`, it must be approved to move this token by either {approve} or {setApprovalForAll}. Emits a {Transfer} event."
      }
    },
    "version": 1
  },
  "userdoc": {
    "kind": "user",
    "methods": {},
    "version": 1
  }
}