{
  "contractName": "Neros",
  "abi": [
    {
      "inputs": [],
      "stateMutability": "nonpayable",
      "type": "constructor"
    },
    {
      "anonymous": false,
      "inputs": [
        {
          "indexed": true,
          "internalType": "address",
          "name": "tokenOwner",
          "type": "address"
        },
        {
          "indexed": true,
          "internalType": "address",
          "name": "spender",
          "type": "address"
        },
        {
          "indexed": false,
          "internalType": "uint256",
          "name": "tokens",
          "type": "uint256"
        }
      ],
      "name": "Approval",
      "type": "event"
    },
    {
      "anonymous": false,
      "inputs": [
        {
          "indexed": true,
          "internalType": "address",
          "name": "from",
          "type": "address"
        },
        {
          "indexed": true,
          "internalType": "address",
          "name": "to",
          "type": "address"
        },
        {
          "indexed": false,
          "internalType": "uint256",
          "name": "tokens",
          "type": "uint256"
        }
      ],
      "name": "Transfer",
      "type": "event"
    },
    {
      "inputs": [],
      "name": "_totalSupply",
      "outputs": [
        {
          "internalType": "uint256",
          "name": "",
          "type": "uint256"
        }
      ],
      "stateMutability": "view",
      "type": "function",
      "constant": true
    },
    {
      "inputs": [],
      "name": "decimals",
      "outputs": [
        {
          "internalType": "uint8",
          "name": "",
          "type": "uint8"
        }
      ],
      "stateMutability": "view",
      "type": "function",
      "constant": true
    },
    {
      "inputs": [],
      "name": "name",
      "outputs": [
        {
          "internalType": "string",
          "name": "",
          "type": "string"
        }
      ],
      "stateMutability": "view",
      "type": "function",
      "constant": true
    },
    {
      "inputs": [],
      "name": "owner",
      "outputs": [
        {
          "internalType": "address",
          "name": "",
          "type": "address"
        }
      ],
      "stateMutability": "view",
      "type": "function",
      "constant": true
    },
    {
      "inputs": [],
      "name": "symbol",
      "outputs": [
        {
          "internalType": "string",
          "name": "",
          "type": "string"
        }
      ],
      "stateMutability": "view",
      "type": "function",
      "constant": true
    },
    {
      "inputs": [
        {
          "internalType": "address",
          "name": "to",
          "type": "address"
        },
        {
          "internalType": "uint256",
          "name": "tokens",
          "type": "uint256"
        }
      ],
      "name": "fiatToCoins",
      "outputs": [],
      "stateMutability": "nonpayable",
      "type": "function"
    },
    {
      "inputs": [
        {
          "internalType": "address",
          "name": "from",
          "type": "address"
        },
        {
          "internalType": "uint256",
          "name": "tokens",
          "type": "uint256"
        }
      ],
      "name": "coinsToFiat",
      "outputs": [],
      "stateMutability": "nonpayable",
      "type": "function"
    },
    {
      "inputs": [],
      "name": "totalSupply",
      "outputs": [
        {
          "internalType": "uint256",
          "name": "",
          "type": "uint256"
        }
      ],
      "stateMutability": "view",
      "type": "function",
      "constant": true
    },
    {
      "inputs": [
        {
          "internalType": "address",
          "name": "tokenOwner",
          "type": "address"
        }
      ],
      "name": "balanceOf",
      "outputs": [
        {
          "internalType": "uint256",
          "name": "",
          "type": "uint256"
        }
      ],
      "stateMutability": "view",
      "type": "function",
      "constant": true
    },
    {
      "inputs": [
        {
          "internalType": "address",
          "name": "tokenOwner",
          "type": "address"
        },
        {
          "internalType": "address",
          "name": "spender",
          "type": "address"
        }
      ],
      "name": "allowance",
      "outputs": [
        {
          "internalType": "uint256",
          "name": "",
          "type": "uint256"
        }
      ],
      "stateMutability": "view",
      "type": "function",
      "constant": true
    },
    {
      "inputs": [
        {
          "internalType": "address payable",
          "name": "to",
          "type": "address"
        },
        {
          "internalType": "uint256",
          "name": "tokens",
          "type": "uint256"
        }
      ],
      "name": "transfer",
      "outputs": [
        {
          "internalType": "bool",
          "name": "",
          "type": "bool"
        }
      ],
      "stateMutability": "nonpayable",
      "type": "function"
    },
    {
      "inputs": [
        {
          "internalType": "address",
          "name": "spender",
          "type": "address"
        },
        {
          "internalType": "uint256",
          "name": "tokens",
          "type": "uint256"
        }
      ],
      "name": "approve",
      "outputs": [
        {
          "internalType": "bool",
          "name": "",
          "type": "bool"
        }
      ],
      "stateMutability": "nonpayable",
      "type": "function"
    },
    {
      "inputs": [
        {
          "internalType": "address",
          "name": "from",
          "type": "address"
        },
        {
          "internalType": "address payable",
          "name": "to",
          "type": "address"
        },
        {
          "internalType": "uint256",
          "name": "tokens",
          "type": "uint256"
        }
      ],
      "name": "transferFrom",
      "outputs": [
        {
          "internalType": "bool",
          "name": "",
          "type": "bool"
        }
      ],
      "stateMutability": "nonpayable",
      "type": "function"
    }
  ],
  "bytecode": "0x60806040523480156200001157600080fd5b506040518060400160405280600581526020017f4e65726f73000000000000000000000000000000000000000000000000000000815250600090805190602001906200005f92919062000119565b506040518060400160405280600381526020017f4e524f000000000000000000000000000000000000000000000000000000000081525060019080519060200190620000ad92919062000119565b5033600260006101000a81548173ffffffffffffffffffffffffffffffffffffffff021916908373ffffffffffffffffffffffffffffffffffffffff16021790555060006003819055506006600460006101000a81548160ff021916908360ff1602179055506200022d565b8280546200012790620001f8565b90600052602060002090601f0160209004810192826200014b576000855562000197565b82601f106200016657805160ff191683800117855562000197565b8280016001018555821562000197579182015b828111156200019657825182559160200191906001019062000179565b5b509050620001a69190620001aa565b5090565b5b80821115620001c5576000816000905550600101620001ab565b5090565b7f4e487b7100000000000000000000000000000000000000000000000000000000600052602260045260246000fd5b600060028204905060018216806200021157607f821691505b602082108103620002275762000226620001c9565b5b50919050565b611251806200023d6000396000f3fe608060405234801561001057600080fd5b50600436106100cf5760003560e01c806348ec31c31161008c5780638da5cb5b116100665780638da5cb5b1461021457806395d89b4114610232578063a9059cbb14610250578063dd62ed3e14610280576100cf565b806348ec31c3146101ac57806370a08231146101c857806383444b9e146101f8576100cf565b806306fdde03146100d4578063095ea7b3146100f257806318160ddd1461012257806323b872dd14610140578063313ce567146101705780633eaaf86b1461018e575b600080fd5b6100dc6102b0565b6040516100e99190610a76565b60405180910390f35b61010c60048036038101906101079190610b31565b61033e565b6040516101199190610b8c565b60405180910390f35b61012a610355565b6040516101379190610bb6565b60405180910390f35b61015a60048036038101906101559190610c0f565b61035f565b6040516101679190610b8c565b60405180910390f35b6101786103e2565b6040516101859190610c7e565b60405180910390f35b6101966103f5565b6040516101a39190610bb6565b60405180910390f35b6101c660048036038101906101c19190610b31565b6103fb565b005b6101e260048036038101906101dd9190610c99565b6103ff565b6040516101ef9190610bb6565b60405180910390f35b610212600480360381019061020d9190610b31565b610448565b005b61021c61044c565b6040516102299190610cd5565b60405180910390f35b61023a610472565b6040516102479190610a76565b60405180910390f35b61026a60048036038101906102659190610cf0565b610500565b6040516102779190610b8c565b60405180910390f35b61029a60048036038101906102959190610d30565b610517565b6040516102a79190610bb6565b60405180910390f35b600080546102bd90610d9f565b80601f01602080910402602001604051908101604052809291908181526020018280546102e990610d9f565b80156103365780601f1061030b57610100808354040283529160200191610336565b820191906000526020600020905b81548152906001019060200180831161031957829003601f168201915b505050505081565b600061034b33848461059e565b6001905092915050565b6000600354905090565b60008161036c8533610517565b10156103ad576040517f08c379a00000000000000000000000000000000000000000000000000000000081526004016103a490610e68565b60405180910390fd5b6103cc8433846103bd8833610517565b6103c79190610eb7565b61059e565b6103d7848484610767565b600190509392505050565b600460009054906101000a900460ff1681565b60035481565b5050565b6000600560008373ffffffffffffffffffffffffffffffffffffffff1673ffffffffffffffffffffffffffffffffffffffff168152602001908152602001600020549050919050565b5050565b600260009054906101000a900473ffffffffffffffffffffffffffffffffffffffff1681565b6001805461047f90610d9f565b80601f01602080910402602001604051908101604052809291908181526020018280546104ab90610d9f565b80156104f85780601f106104cd576101008083540402835291602001916104f8565b820191906000526020600020905b8154815290600101906020018083116104db57829003601f168201915b505050505081565b600061050d338484610767565b6001905092915050565b6000600660008473ffffffffffffffffffffffffffffffffffffffff1673ffffffffffffffffffffffffffffffffffffffff16815260200190815260200160002060008373ffffffffffffffffffffffffffffffffffffffff1673ffffffffffffffffffffffffffffffffffffffff16815260200190815260200160002054905092915050565b600073ffffffffffffffffffffffffffffffffffffffff168273ffffffffffffffffffffffffffffffffffffffff160361060d576040517f08c379a000000000000000000000000000000000000000000000000000000000815260040161060490610f5d565b60405180910390fd5b600073ffffffffffffffffffffffffffffffffffffffff168373ffffffffffffffffffffffffffffffffffffffff160361067c576040517f08c379a000000000000000000000000000000000000000000000000000000000815260040161067390610fef565b60405180910390fd5b80600660008573ffffffffffffffffffffffffffffffffffffffff1673ffffffffffffffffffffffffffffffffffffffff16815260200190815260200160002060008473ffffffffffffffffffffffffffffffffffffffff1673ffffffffffffffffffffffffffffffffffffffff168152602001908152602001600020819055508173ffffffffffffffffffffffffffffffffffffffff168373ffffffffffffffffffffffffffffffffffffffff167f8c5be1e5ebec7d5bd14f71427d1e84f3dd0314c0f7b2291e5b200ac8c7c3b9258360405161075a9190610bb6565b60405180910390a3505050565b80600560003373ffffffffffffffffffffffffffffffffffffffff1673ffffffffffffffffffffffffffffffffffffffff1681526020019081526020016000205410156107e9576040517f08c379a00000000000000000000000000000000000000000000000000000000081526004016107e090611081565b60405180910390fd5b600073ffffffffffffffffffffffffffffffffffffffff168273ffffffffffffffffffffffffffffffffffffffff1603610858576040517f08c379a000000000000000000000000000000000000000000000000000000000815260040161084f90611113565b60405180910390fd5b600073ffffffffffffffffffffffffffffffffffffffff168373ffffffffffffffffffffffffffffffffffffffff16036108c7576040517f08c379a00000000000000000000000000000000000000000000000000000000081526004016108be906111a5565b60405180910390fd5b80600560008573ffffffffffffffffffffffffffffffffffffffff1673ffffffffffffffffffffffffffffffffffffffff16815260200190815260200160002060008282546109169190610eb7565b9250508190555080600560008473ffffffffffffffffffffffffffffffffffffffff1673ffffffffffffffffffffffffffffffffffffffff168152602001908152602001600020600082825461096c91906111c5565b925050819055508173ffffffffffffffffffffffffffffffffffffffff168373ffffffffffffffffffffffffffffffffffffffff167fddf252ad1be2c89b69c2b068fc378daa952ba7f163c4a11628f55a4df523b3ef836040516109d09190610bb6565b60405180910390a3505050565b600081519050919050565b600082825260208201905092915050565b60005b83811015610a175780820151818401526020810190506109fc565b83811115610a26576000848401525b50505050565b6000601f19601f8301169050919050565b6000610a48826109dd565b610a5281856109e8565b9350610a628185602086016109f9565b610a6b81610a2c565b840191505092915050565b60006020820190508181036000830152610a908184610a3d565b905092915050565b600080fd5b600073ffffffffffffffffffffffffffffffffffffffff82169050919050565b6000610ac882610a9d565b9050919050565b610ad881610abd565b8114610ae357600080fd5b50565b600081359050610af581610acf565b92915050565b6000819050919050565b610b0e81610afb565b8114610b1957600080fd5b50565b600081359050610b2b81610b05565b92915050565b60008060408385031215610b4857610b47610a98565b5b6000610b5685828601610ae6565b9250506020610b6785828601610b1c565b9150509250929050565b60008115159050919050565b610b8681610b71565b82525050565b6000602082019050610ba16000830184610b7d565b92915050565b610bb081610afb565b82525050565b6000602082019050610bcb6000830184610ba7565b92915050565b6000610bdc82610a9d565b9050919050565b610bec81610bd1565b8114610bf757600080fd5b50565b600081359050610c0981610be3565b92915050565b600080600060608486031215610c2857610c27610a98565b5b6000610c3686828701610ae6565b9350506020610c4786828701610bfa565b9250506040610c5886828701610b1c565b9150509250925092565b600060ff82169050919050565b610c7881610c62565b82525050565b6000602082019050610c936000830184610c6f565b92915050565b600060208284031215610caf57610cae610a98565b5b6000610cbd84828501610ae6565b91505092915050565b610ccf81610abd565b82525050565b6000602082019050610cea6000830184610cc6565b92915050565b60008060408385031215610d0757610d06610a98565b5b6000610d1585828601610bfa565b9250506020610d2685828601610b1c565b9150509250929050565b60008060408385031215610d4757610d46610a98565b5b6000610d5585828601610ae6565b9250506020610d6685828601610ae6565b9150509250929050565b7f4e487b7100000000000000000000000000000000000000000000000000000000600052602260045260246000fd5b60006002820490506001821680610db757607f821691505b602082108103610dca57610dc9610d70565b5b50919050565b7f4e65726f733a20496e73756666696369656e742062616c616e636520666f722060008201527f617070726f76616c206f66207468697320616d6f756e74206f66204e65726f7360208201527f2e00000000000000000000000000000000000000000000000000000000000000604082015250565b6000610e526041836109e8565b9150610e5d82610dd0565b606082019050919050565b60006020820190508181036000830152610e8181610e45565b9050919050565b7f4e487b7100000000000000000000000000000000000000000000000000000000600052601160045260246000fd5b6000610ec282610afb565b9150610ecd83610afb565b925082821015610ee057610edf610e88565b5b828203905092915050565b7f4e65726f733a20617070726f766564207370656e64657220616464726573732060008201527f63616e6e6f7420626520746865207a65726f2061646472657373000000000000602082015250565b6000610f47603a836109e8565b9150610f5282610eeb565b604082019050919050565b60006020820190508181036000830152610f7681610f3a565b9050919050565b7f4e65726f733a20617070726f766564206f776e6572206164647265737320636160008201527f6e6e6f7420626520746865207a65726f20616464726573730000000000000000602082015250565b6000610fd96038836109e8565b9150610fe482610f7d565b604082019050919050565b6000602082019050818103600083015261100881610fcc565b9050919050565b7f4e65726f733a20596f75722062616c616e636520697320746f6f206c6f77207460008201527f6f207472616e73666572207468697320616d6f757574206f66204e65726f732e602082015250565b600061106b6040836109e8565b91506110768261100f565b604082019050919050565b6000602082019050818103600083015261109a8161105e565b9050919050565b7f4e65726f733a20546f20616464726573732063616e6e6f742062652061207a6560008201527f726f206164647265737300000000000000000000000000000000000000000000602082015250565b60006110fd602a836109e8565b9150611108826110a1565b604082019050919050565b6000602082019050818103600083015261112c816110f0565b9050919050565b7f4e65726f733a2046726f6d20616464726573732063616e6e6f7420626520612060008201527f7a65726f20616464726573730000000000000000000000000000000000000000602082015250565b600061118f602c836109e8565b915061119a82611133565b604082019050919050565b600060208201905081810360008301526111be81611182565b9050919050565b60006111d082610afb565b91506111db83610afb565b9250827fffffffffffffffffffffffffffffffffffffffffffffffffffffffffffffffff038211156112105761120f610e88565b5b82820190509291505056fea264697066735822122043c8d51db729a3c1906ebef3baf18372a2767f9ef3a298bc3d691695f1ff1d9464736f6c634300080d0033",
  "immutableReferences": {},
  "source": "//SPDX-License-Identifier: MIT\r\npragma solidity ^0.8.13;\r\nimport \"./ERC20.sol\";\r\n\r\ncontract Neros is ERC20{\r\n    string public name;\r\n    string public symbol;\r\n    address public owner;\r\n    uint public _totalSupply;\r\n    uint8 public decimals;\r\n\r\n\r\n    mapping(address => uint) balances;\r\n    mapping(address => mapping(address => uint)) allowed;\r\n\r\n    constructor() {\r\n        name = \"Neros\";\r\n        symbol = \"NRO\";\r\n        owner = msg.sender;\r\n        _totalSupply = 0;\r\n        decimals = 6;\r\n    }\r\n\r\n    modifier isOwner () {\r\n        require(msg.sender == owner, \"Neros: Only owner is allowed to do this functionality\");\r\n        _;\r\n    }\r\n\r\n    function mintNewTokens(uint amount, address payable to) internal {\r\n        require(to != address(0), \"Neros: To address cannot be a zero address for minting\");\r\n\r\n        _totalSupply += amount;\r\n        balances[to] += amount;\r\n        emit Transfer(address(0), to, amount);\r\n    }\r\n\r\n    function burnTokens(uint amount, address from) internal {\r\n        require(from != address(0), \"Neros: Address to burn coins from cannot be a zero address\");\r\n        require(balances[from] >= amount, \"Neros: Amount to be burn must be larger than address balance.\");\r\n\r\n        balances[from] -= amount;\r\n        _totalSupply -= amount;\r\n        emit Transfer(from, address(0), amount);\r\n    }\r\n\r\n    function fiatToCoins(address to, uint tokens) public {\r\n        //BANK DETAILS INPUT\r\n        //CALLS mintNewTokens\r\n    }\r\n\r\n    function coinsToFiat(address from, uint tokens) public {\r\n        //BANK DETAILS INPUT\r\n        //CALLS burnTokens\r\n    }\r\n\r\n    function _transferFrom(address from, address payable to, uint tokens) internal {\r\n        require(balances[msg.sender] >= tokens, \"Neros: Your balance is too low to transfer this amouut of Neros.\");\r\n        require(to != address(0), \"Neros: To address cannot be a zero address\");\r\n        require(from != address(0), \"Neros: From address cannot be a zero address\");\r\n\r\n        balances[from] -= tokens;\r\n        balances[to] += tokens;\r\n        emit Transfer(from, to, tokens);\r\n    }\r\n\r\n    function changeAllowance(address tokenOwner, address spender, uint amount) internal {\r\n        require(spender != address(0), \"Neros: approved spender address cannot be the zero address\");\r\n        require(tokenOwner != address(0), \"Neros: approved owner address cannot be the zero address\");\r\n\r\n        allowed[tokenOwner][spender] = amount;\r\n        emit Approval(tokenOwner, spender, amount);\r\n    }\r\n\r\n    function totalSupply() public view override returns (uint256){\r\n        return _totalSupply;\r\n    }\r\n    function balanceOf(address tokenOwner) public view override returns (uint){\r\n        return balances[tokenOwner];\r\n    }\r\n    function allowance(address tokenOwner, address spender) public view override returns (uint){\r\n        return allowed[tokenOwner][spender];\r\n    }\r\n    function transfer(address payable to, uint tokens) public override returns (bool){\r\n        _transferFrom(msg.sender, to, tokens);\r\n        return true;\r\n    }\r\n    function approve(address spender, uint tokens)  public override returns (bool){\r\n        changeAllowance(msg.sender, spender, tokens);\r\n        return true;\r\n    }\r\n    function transferFrom(address from, address payable to, uint tokens) public override returns (bool){\r\n        require(allowance(from, msg.sender) >= tokens, \"Neros: Insufficient balance for approval of this amount of Neros.\");\r\n        changeAllowance(from, msg.sender, allowance(from, msg.sender) - tokens);\r\n        _transferFrom(from, to, tokens);\r\n        return true;\r\n    }\r\n}\r\n",
  "sourcePath": "D:\\S8\\TruffleUnbox\\contracts\\Neros.sol",
  "compiler": {
    "name": "solc",
    "version": "0.8.13+commit.abaa5c0e.Emscripten.clang"
  },
  "schemaVersion": "3.4.6",
  "updatedAt": "2022-03-30T13:43:24.486Z",
  "networkType": "ethereum",
  "devdoc": {
    "kind": "dev",
    "methods": {},
    "version": 1
  },
  "userdoc": {
    "kind": "user",
    "methods": {},
    "version": 1
  }
}